{
	"contracts/Call.sol": {
		"Caller": {
			"abi": [
				{
					"inputs": [
						{
							"internalType": "address",
							"name": "_contract",
							"type": "address"
						},
						{
							"internalType": "uint256",
							"name": "_amount",
							"type": "uint256"
						},
						{
							"internalType": "string",
							"name": "_incrementer",
							"type": "string"
						}
					],
					"name": "testCall",
					"outputs": [
						{
							"internalType": "bool",
							"name": "",
							"type": "bool"
						},
						{
							"internalType": "uint256",
							"name": "",
							"type": "uint256"
						}
					],
					"stateMutability": "nonpayable",
					"type": "function"
				},
				{
					"inputs": [
						{
							"internalType": "address",
							"name": "_contract",
							"type": "address"
						}
					],
					"name": "triggerFallback",
					"outputs": [],
					"stateMutability": "payable",
					"type": "function"
				}
			],
			"devdoc": {
				"kind": "dev",
				"methods": {},
				"version": 1
			},
			"evm": {
				"assembly": "    /* \"contracts/Call.sol\":433:1132  contract Caller {... */\n  mstore(0x40, 0x80)\n  callvalue\n  dup1\n  iszero\n  tag_1\n  jumpi\n  0x00\n  dup1\n  revert\ntag_1:\n  pop\n  dataSize(sub_0)\n  dup1\n  dataOffset(sub_0)\n  0x00\n  codecopy\n  0x00\n  return\nstop\n\nsub_0: assembly {\n        /* \"contracts/Call.sol\":433:1132  contract Caller {... */\n      mstore(0x40, 0x80)\n      jumpi(tag_1, lt(calldatasize, 0x04))\n      shr(0xe0, calldataload(0x00))\n      dup1\n      0x13dcb81b\n      eq\n      tag_2\n      jumpi\n      dup1\n      0x98704986\n      eq\n      tag_3\n      jumpi\n    tag_1:\n      0x00\n      dup1\n      revert\n        /* \"contracts/Call.sol\":460:897  function testCall(address _contract, uint256 _amount, string memory _incrementer) external returns (bool, uint256) {... */\n    tag_2:\n      callvalue\n      dup1\n      iszero\n      tag_4\n      jumpi\n      0x00\n      dup1\n      revert\n    tag_4:\n      pop\n      tag_5\n      0x04\n      dup1\n      calldatasize\n      sub\n      dup2\n      add\n      swap1\n      tag_6\n      swap2\n      swap1\n      tag_7\n      jump\t// in\n    tag_6:\n      tag_8\n      jump\t// in\n    tag_5:\n      mload(0x40)\n      tag_9\n      swap3\n      swap2\n      swap1\n      tag_10\n      jump\t// in\n    tag_9:\n      mload(0x40)\n      dup1\n      swap2\n      sub\n      swap1\n      return\n        /* \"contracts/Call.sol\":973:1128  function triggerFallback(address _contract) external payable {... */\n    tag_3:\n      tag_11\n      0x04\n      dup1\n      calldatasize\n      sub\n      dup2\n      add\n      swap1\n      tag_12\n      swap2\n      swap1\n      tag_13\n      jump\t// in\n    tag_12:\n      tag_14\n      jump\t// in\n    tag_11:\n      stop\n        /* \"contracts/Call.sol\":460:897  function testCall(address _contract, uint256 _amount, string memory _incrementer) external returns (bool, uint256) {... */\n    tag_8:\n        /* \"contracts/Call.sol\":560:564  bool */\n      0x00\n        /* \"contracts/Call.sol\":566:573  uint256 */\n      dup1\n        /* \"contracts/Call.sol\":685:693  bool err */\n      0x00\n        /* \"contracts/Call.sol\":695:711  bytes memory res */\n      dup1\n        /* \"contracts/Call.sol\":715:724  _contract */\n      dup7\n        /* \"contracts/Call.sol\":715:729  _contract.call */\n      0xffffffffffffffffffffffffffffffffffffffff\n      and\n        /* \"contracts/Call.sol\":784:791  _amount */\n      dup7\n        /* \"contracts/Call.sol\":793:805  _incrementer */\n      dup7\n        /* \"contracts/Call.sol\":730:806  abi.encodeWithSignature(\"increment(uint256, string)\", _amount, _incrementer) */\n      add(0x24, mload(0x40))\n      tag_16\n      swap3\n      swap2\n      swap1\n      tag_17\n      jump\t// in\n    tag_16:\n      mload(0x40)\n      0x20\n      dup2\n      dup4\n      sub\n      sub\n      dup2\n      mstore\n      swap1\n      0x40\n      mstore\n      and(not(0xffffffffffffffffffffffffffffffffffffffffffffffffffffffff), 0x58f1f8bb00000000000000000000000000000000000000000000000000000000)\n      0x20\n      dup3\n      add\n      dup1\n      mload\n      0xffffffffffffffffffffffffffffffffffffffffffffffffffffffff\n      dup4\n      dup2\n      dup4\n      and\n      or\n      dup4\n      mstore\n      pop\n      pop\n      pop\n      pop\n        /* \"contracts/Call.sol\":715:807  _contract.call(abi.encodeWithSignature(\"increment(uint256, string)\", _amount, _incrementer)) */\n      mload(0x40)\n      tag_18\n      swap2\n      swap1\n      tag_19\n      jump\t// in\n    tag_18:\n      0x00\n      mload(0x40)\n      dup1\n      dup4\n      sub\n      dup2\n      0x00\n      dup7\n      gas\n      call\n      swap2\n      pop\n      pop\n      returndatasize\n      dup1\n      0x00\n      dup2\n      eq\n      tag_22\n      jumpi\n      mload(0x40)\n      swap2\n      pop\n      and(add(returndatasize, 0x3f), not(0x1f))\n      dup3\n      add\n      0x40\n      mstore\n      returndatasize\n      dup3\n      mstore\n      returndatasize\n      0x00\n      0x20\n      dup5\n      add\n      returndatacopy\n      jump(tag_21)\n    tag_22:\n      0x60\n      swap2\n      pop\n    tag_21:\n      pop\n        /* \"contracts/Call.sol\":684:807  (bool err, bytes memory res) = _contract.call(abi.encodeWithSignature(\"increment(uint256, string)\", _amount, _incrementer)) */\n      swap2\n      pop\n      swap2\n      pop\n        /* \"contracts/Call.sol\":817:831  uint256 _total */\n      0x00\n        /* \"contracts/Call.sol\":845:848  res */\n      dup2\n        /* \"contracts/Call.sol\":834:860  abi.decode(res, (uint256)) */\n      dup1\n      0x20\n      add\n      swap1\n      mload\n      dup2\n      add\n      swap1\n      tag_23\n      swap2\n      swap1\n      tag_24\n      jump\t// in\n    tag_23:\n        /* \"contracts/Call.sol\":817:860  uint256 _total = abi.decode(res, (uint256)) */\n      swap1\n      pop\n        /* \"contracts/Call.sol\":878:881  err */\n      dup3\n        /* \"contracts/Call.sol\":883:889  _total */\n      dup2\n        /* \"contracts/Call.sol\":870:890  return (err, _total) */\n      swap5\n      pop\n      swap5\n      pop\n      pop\n      pop\n      pop\n        /* \"contracts/Call.sol\":460:897  function testCall(address _contract, uint256 _amount, string memory _incrementer) external returns (bool, uint256) {... */\n      swap4\n      pop\n      swap4\n      swap2\n      pop\n      pop\n      jump\t// out\n        /* \"contracts/Call.sol\":973:1128  function triggerFallback(address _contract) external payable {... */\n    tag_14:\n        /* \"contracts/Call.sol\":1045:1053  bool err */\n      0x00\n        /* \"contracts/Call.sol\":1058:1067  _contract */\n      dup2\n        /* \"contracts/Call.sol\":1058:1072  _contract.call */\n      0xffffffffffffffffffffffffffffffffffffffff\n      and\n        /* \"contracts/Call.sol\":1080:1089  msg.value */\n      callvalue\n        /* \"contracts/Call.sol\":1058:1094  _contract.call{value: msg.value}(\"\") */\n      mload(0x40)\n      tag_26\n      swap1\n      tag_27\n      jump\t// in\n    tag_26:\n      0x00\n      mload(0x40)\n      dup1\n      dup4\n      sub\n      dup2\n      dup6\n      dup8\n      gas\n      call\n      swap3\n      pop\n      pop\n      pop\n      returndatasize\n      dup1\n      0x00\n      dup2\n      eq\n      tag_30\n      jumpi\n      mload(0x40)\n      swap2\n      pop\n      and(add(returndatasize, 0x3f), not(0x1f))\n      dup3\n      add\n      0x40\n      mstore\n      returndatasize\n      dup3\n      mstore\n      returndatasize\n      0x00\n      0x20\n      dup5\n      add\n      returndatacopy\n      jump(tag_29)\n    tag_30:\n      0x60\n      swap2\n      pop\n    tag_29:\n      pop\n        /* \"contracts/Call.sol\":1044:1094  (bool err,) = _contract.call{value: msg.value}(\"\") */\n      pop\n      swap1\n      pop\n        /* \"contracts/Call.sol\":1108:1111  err */\n      dup1\n        /* \"contracts/Call.sol\":1104:1121  if(!err) revert() */\n      tag_31\n      jumpi\n        /* \"contracts/Call.sol\":1113:1121  revert() */\n      0x00\n      dup1\n      revert\n        /* \"contracts/Call.sol\":1104:1121  if(!err) revert() */\n    tag_31:\n        /* \"contracts/Call.sol\":1034:1128  {... */\n      pop\n        /* \"contracts/Call.sol\":973:1128  function triggerFallback(address _contract) external payable {... */\n      pop\n      jump\t// out\n        /* \"#utility.yul\":7:82   */\n    tag_32:\n        /* \"#utility.yul\":40:46   */\n      0x00\n        /* \"#utility.yul\":73:75   */\n      0x40\n        /* \"#utility.yul\":67:76   */\n      mload\n        /* \"#utility.yul\":57:76   */\n      swap1\n      pop\n        /* \"#utility.yul\":7:82   */\n      swap1\n      jump\t// out\n        /* \"#utility.yul\":88:205   */\n    tag_33:\n        /* \"#utility.yul\":197:198   */\n      0x00\n        /* \"#utility.yul\":194:195   */\n      dup1\n        /* \"#utility.yul\":187:199   */\n      revert\n        /* \"#utility.yul\":211:328   */\n    tag_34:\n        /* \"#utility.yul\":320:321   */\n      0x00\n        /* \"#utility.yul\":317:318   */\n      dup1\n        /* \"#utility.yul\":310:322   */\n      revert\n        /* \"#utility.yul\":334:460   */\n    tag_35:\n        /* \"#utility.yul\":371:378   */\n      0x00\n        /* \"#utility.yul\":411:453   */\n      0xffffffffffffffffffffffffffffffffffffffff\n        /* \"#utility.yul\":404:409   */\n      dup3\n        /* \"#utility.yul\":400:454   */\n      and\n        /* \"#utility.yul\":389:454   */\n      swap1\n      pop\n        /* \"#utility.yul\":334:460   */\n      swap2\n      swap1\n      pop\n      jump\t// out\n        /* \"#utility.yul\":466:562   */\n    tag_36:\n        /* \"#utility.yul\":503:510   */\n      0x00\n        /* \"#utility.yul\":532:556   */\n      tag_71\n        /* \"#utility.yul\":550:555   */\n      dup3\n        /* \"#utility.yul\":532:556   */\n      tag_35\n      jump\t// in\n    tag_71:\n        /* \"#utility.yul\":521:556   */\n      swap1\n      pop\n        /* \"#utility.yul\":466:562   */\n      swap2\n      swap1\n      pop\n      jump\t// out\n        /* \"#utility.yul\":568:690   */\n    tag_37:\n        /* \"#utility.yul\":641:665   */\n      tag_73\n        /* \"#utility.yul\":659:664   */\n      dup2\n        /* \"#utility.yul\":641:665   */\n      tag_36\n      jump\t// in\n    tag_73:\n        /* \"#utility.yul\":634:639   */\n      dup2\n        /* \"#utility.yul\":631:666   */\n      eq\n        /* \"#utility.yul\":621:684   */\n      tag_74\n      jumpi\n        /* \"#utility.yul\":680:681   */\n      0x00\n        /* \"#utility.yul\":677:678   */\n      dup1\n        /* \"#utility.yul\":670:682   */\n      revert\n        /* \"#utility.yul\":621:684   */\n    tag_74:\n        /* \"#utility.yul\":568:690   */\n      pop\n      jump\t// out\n        /* \"#utility.yul\":696:835   */\n    tag_38:\n        /* \"#utility.yul\":742:747   */\n      0x00\n        /* \"#utility.yul\":780:786   */\n      dup2\n        /* \"#utility.yul\":767:787   */\n      calldataload\n        /* \"#utility.yul\":758:787   */\n      swap1\n      pop\n        /* \"#utility.yul\":796:829   */\n      tag_76\n        /* \"#utility.yul\":823:828   */\n      dup2\n        /* \"#utility.yul\":796:829   */\n      tag_37\n      jump\t// in\n    tag_76:\n        /* \"#utility.yul\":696:835   */\n      swap3\n      swap2\n      pop\n      pop\n      jump\t// out\n        /* \"#utility.yul\":841:918   */\n    tag_39:\n        /* \"#utility.yul\":878:885   */\n      0x00\n        /* \"#utility.yul\":907:912   */\n      dup2\n        /* \"#utility.yul\":896:912   */\n      swap1\n      pop\n        /* \"#utility.yul\":841:918   */\n      swap2\n      swap1\n      pop\n      jump\t// out\n        /* \"#utility.yul\":924:1046   */\n    tag_40:\n        /* \"#utility.yul\":997:1021   */\n      tag_79\n        /* \"#utility.yul\":1015:1020   */\n      dup2\n        /* \"#utility.yul\":997:1021   */\n      tag_39\n      jump\t// in\n    tag_79:\n        /* \"#utility.yul\":990:995   */\n      dup2\n        /* \"#utility.yul\":987:1022   */\n      eq\n        /* \"#utility.yul\":977:1040   */\n      tag_80\n      jumpi\n        /* \"#utility.yul\":1036:1037   */\n      0x00\n        /* \"#utility.yul\":1033:1034   */\n      dup1\n        /* \"#utility.yul\":1026:1038   */\n      revert\n        /* \"#utility.yul\":977:1040   */\n    tag_80:\n        /* \"#utility.yul\":924:1046   */\n      pop\n      jump\t// out\n        /* \"#utility.yul\":1052:1191   */\n    tag_41:\n        /* \"#utility.yul\":1098:1103   */\n      0x00\n        /* \"#utility.yul\":1136:1142   */\n      dup2\n        /* \"#utility.yul\":1123:1143   */\n      calldataload\n        /* \"#utility.yul\":1114:1143   */\n      swap1\n      pop\n        /* \"#utility.yul\":1152:1185   */\n      tag_82\n        /* \"#utility.yul\":1179:1184   */\n      dup2\n        /* \"#utility.yul\":1152:1185   */\n      tag_40\n      jump\t// in\n    tag_82:\n        /* \"#utility.yul\":1052:1191   */\n      swap3\n      swap2\n      pop\n      pop\n      jump\t// out\n        /* \"#utility.yul\":1197:1314   */\n    tag_42:\n        /* \"#utility.yul\":1306:1307   */\n      0x00\n        /* \"#utility.yul\":1303:1304   */\n      dup1\n        /* \"#utility.yul\":1296:1308   */\n      revert\n        /* \"#utility.yul\":1320:1437   */\n    tag_43:\n        /* \"#utility.yul\":1429:1430   */\n      0x00\n        /* \"#utility.yul\":1426:1427   */\n      dup1\n        /* \"#utility.yul\":1419:1431   */\n      revert\n        /* \"#utility.yul\":1443:1545   */\n    tag_44:\n        /* \"#utility.yul\":1484:1490   */\n      0x00\n        /* \"#utility.yul\":1535:1537   */\n      0x1f\n        /* \"#utility.yul\":1531:1538   */\n      not\n        /* \"#utility.yul\":1526:1528   */\n      0x1f\n        /* \"#utility.yul\":1519:1524   */\n      dup4\n        /* \"#utility.yul\":1515:1529   */\n      add\n        /* \"#utility.yul\":1511:1539   */\n      and\n        /* \"#utility.yul\":1501:1539   */\n      swap1\n      pop\n        /* \"#utility.yul\":1443:1545   */\n      swap2\n      swap1\n      pop\n      jump\t// out\n        /* \"#utility.yul\":1551:1731   */\n    tag_45:\n        /* \"#utility.yul\":1599:1676   */\n      0x4e487b7100000000000000000000000000000000000000000000000000000000\n        /* \"#utility.yul\":1596:1597   */\n      0x00\n        /* \"#utility.yul\":1589:1677   */\n      mstore\n        /* \"#utility.yul\":1696:1700   */\n      0x41\n        /* \"#utility.yul\":1693:1694   */\n      0x04\n        /* \"#utility.yul\":1686:1701   */\n      mstore\n        /* \"#utility.yul\":1720:1724   */\n      0x24\n        /* \"#utility.yul\":1717:1718   */\n      0x00\n        /* \"#utility.yul\":1710:1725   */\n      revert\n        /* \"#utility.yul\":1737:2018   */\n    tag_46:\n        /* \"#utility.yul\":1820:1847   */\n      tag_88\n        /* \"#utility.yul\":1842:1846   */\n      dup3\n        /* \"#utility.yul\":1820:1847   */\n      tag_44\n      jump\t// in\n    tag_88:\n        /* \"#utility.yul\":1812:1818   */\n      dup2\n        /* \"#utility.yul\":1808:1848   */\n      add\n        /* \"#utility.yul\":1950:1956   */\n      dup2\n        /* \"#utility.yul\":1938:1948   */\n      dup2\n        /* \"#utility.yul\":1935:1957   */\n      lt\n        /* \"#utility.yul\":1914:1932   */\n      0xffffffffffffffff\n        /* \"#utility.yul\":1902:1912   */\n      dup3\n        /* \"#utility.yul\":1899:1933   */\n      gt\n        /* \"#utility.yul\":1896:1958   */\n      or\n        /* \"#utility.yul\":1893:1981   */\n      iszero\n      tag_89\n      jumpi\n        /* \"#utility.yul\":1961:1979   */\n      tag_90\n      tag_45\n      jump\t// in\n    tag_90:\n        /* \"#utility.yul\":1893:1981   */\n    tag_89:\n        /* \"#utility.yul\":2001:2011   */\n      dup1\n        /* \"#utility.yul\":1997:1999   */\n      0x40\n        /* \"#utility.yul\":1990:2012   */\n      mstore\n        /* \"#utility.yul\":1780:2018   */\n      pop\n        /* \"#utility.yul\":1737:2018   */\n      pop\n      pop\n      jump\t// out\n        /* \"#utility.yul\":2024:2153   */\n    tag_47:\n        /* \"#utility.yul\":2058:2064   */\n      0x00\n        /* \"#utility.yul\":2085:2105   */\n      tag_92\n      tag_32\n      jump\t// in\n    tag_92:\n        /* \"#utility.yul\":2075:2105   */\n      swap1\n      pop\n        /* \"#utility.yul\":2114:2147   */\n      tag_93\n        /* \"#utility.yul\":2142:2146   */\n      dup3\n        /* \"#utility.yul\":2134:2140   */\n      dup3\n        /* \"#utility.yul\":2114:2147   */\n      tag_46\n      jump\t// in\n    tag_93:\n        /* \"#utility.yul\":2024:2153   */\n      swap2\n      swap1\n      pop\n      jump\t// out\n        /* \"#utility.yul\":2159:2467   */\n    tag_48:\n        /* \"#utility.yul\":2221:2225   */\n      0x00\n        /* \"#utility.yul\":2311:2329   */\n      0xffffffffffffffff\n        /* \"#utility.yul\":2303:2309   */\n      dup3\n        /* \"#utility.yul\":2300:2330   */\n      gt\n        /* \"#utility.yul\":2297:2353   */\n      iszero\n      tag_95\n      jumpi\n        /* \"#utility.yul\":2333:2351   */\n      tag_96\n      tag_45\n      jump\t// in\n    tag_96:\n        /* \"#utility.yul\":2297:2353   */\n    tag_95:\n        /* \"#utility.yul\":2371:2400   */\n      tag_97\n        /* \"#utility.yul\":2393:2399   */\n      dup3\n        /* \"#utility.yul\":2371:2400   */\n      tag_44\n      jump\t// in\n    tag_97:\n        /* \"#utility.yul\":2363:2400   */\n      swap1\n      pop\n        /* \"#utility.yul\":2455:2459   */\n      0x20\n        /* \"#utility.yul\":2449:2453   */\n      dup2\n        /* \"#utility.yul\":2445:2460   */\n      add\n        /* \"#utility.yul\":2437:2460   */\n      swap1\n      pop\n        /* \"#utility.yul\":2159:2467   */\n      swap2\n      swap1\n      pop\n      jump\t// out\n        /* \"#utility.yul\":2473:2619   */\n    tag_49:\n        /* \"#utility.yul\":2570:2576   */\n      dup3\n        /* \"#utility.yul\":2565:2568   */\n      dup2\n        /* \"#utility.yul\":2560:2563   */\n      dup4\n        /* \"#utility.yul\":2547:2577   */\n      calldatacopy\n        /* \"#utility.yul\":2611:2612   */\n      0x00\n        /* \"#utility.yul\":2602:2608   */\n      dup4\n        /* \"#utility.yul\":2597:2600   */\n      dup4\n        /* \"#utility.yul\":2593:2609   */\n      add\n        /* \"#utility.yul\":2586:2613   */\n      mstore\n        /* \"#utility.yul\":2473:2619   */\n      pop\n      pop\n      pop\n      jump\t// out\n        /* \"#utility.yul\":2625:3050   */\n    tag_50:\n        /* \"#utility.yul\":2703:2708   */\n      0x00\n        /* \"#utility.yul\":2728:2794   */\n      tag_100\n        /* \"#utility.yul\":2744:2793   */\n      tag_101\n        /* \"#utility.yul\":2786:2792   */\n      dup5\n        /* \"#utility.yul\":2744:2793   */\n      tag_48\n      jump\t// in\n    tag_101:\n        /* \"#utility.yul\":2728:2794   */\n      tag_47\n      jump\t// in\n    tag_100:\n        /* \"#utility.yul\":2719:2794   */\n      swap1\n      pop\n        /* \"#utility.yul\":2817:2823   */\n      dup3\n        /* \"#utility.yul\":2810:2815   */\n      dup2\n        /* \"#utility.yul\":2803:2824   */\n      mstore\n        /* \"#utility.yul\":2855:2859   */\n      0x20\n        /* \"#utility.yul\":2848:2853   */\n      dup2\n        /* \"#utility.yul\":2844:2860   */\n      add\n        /* \"#utility.yul\":2893:2896   */\n      dup5\n        /* \"#utility.yul\":2884:2890   */\n      dup5\n        /* \"#utility.yul\":2879:2882   */\n      dup5\n        /* \"#utility.yul\":2875:2891   */\n      add\n        /* \"#utility.yul\":2872:2897   */\n      gt\n        /* \"#utility.yul\":2869:2981   */\n      iszero\n      tag_102\n      jumpi\n        /* \"#utility.yul\":2900:2979   */\n      tag_103\n      tag_43\n      jump\t// in\n    tag_103:\n        /* \"#utility.yul\":2869:2981   */\n    tag_102:\n        /* \"#utility.yul\":2990:3044   */\n      tag_104\n        /* \"#utility.yul\":3037:3043   */\n      dup5\n        /* \"#utility.yul\":3032:3035   */\n      dup3\n        /* \"#utility.yul\":3027:3030   */\n      dup6\n        /* \"#utility.yul\":2990:3044   */\n      tag_49\n      jump\t// in\n    tag_104:\n        /* \"#utility.yul\":2709:3050   */\n      pop\n        /* \"#utility.yul\":2625:3050   */\n      swap4\n      swap3\n      pop\n      pop\n      pop\n      jump\t// out\n        /* \"#utility.yul\":3070:3410   */\n    tag_51:\n        /* \"#utility.yul\":3126:3131   */\n      0x00\n        /* \"#utility.yul\":3175:3178   */\n      dup3\n        /* \"#utility.yul\":3168:3172   */\n      0x1f\n        /* \"#utility.yul\":3160:3166   */\n      dup4\n        /* \"#utility.yul\":3156:3173   */\n      add\n        /* \"#utility.yul\":3152:3179   */\n      slt\n        /* \"#utility.yul\":3142:3264   */\n      tag_106\n      jumpi\n        /* \"#utility.yul\":3183:3262   */\n      tag_107\n      tag_42\n      jump\t// in\n    tag_107:\n        /* \"#utility.yul\":3142:3264   */\n    tag_106:\n        /* \"#utility.yul\":3300:3306   */\n      dup2\n        /* \"#utility.yul\":3287:3307   */\n      calldataload\n        /* \"#utility.yul\":3325:3404   */\n      tag_108\n        /* \"#utility.yul\":3400:3403   */\n      dup5\n        /* \"#utility.yul\":3392:3398   */\n      dup3\n        /* \"#utility.yul\":3385:3389   */\n      0x20\n        /* \"#utility.yul\":3377:3383   */\n      dup7\n        /* \"#utility.yul\":3373:3390   */\n      add\n        /* \"#utility.yul\":3325:3404   */\n      tag_50\n      jump\t// in\n    tag_108:\n        /* \"#utility.yul\":3316:3404   */\n      swap2\n      pop\n        /* \"#utility.yul\":3132:3410   */\n      pop\n        /* \"#utility.yul\":3070:3410   */\n      swap3\n      swap2\n      pop\n      pop\n      jump\t// out\n        /* \"#utility.yul\":3416:4215   */\n    tag_7:\n        /* \"#utility.yul\":3503:3509   */\n      0x00\n        /* \"#utility.yul\":3511:3517   */\n      dup1\n        /* \"#utility.yul\":3519:3525   */\n      0x00\n        /* \"#utility.yul\":3568:3570   */\n      0x60\n        /* \"#utility.yul\":3556:3565   */\n      dup5\n        /* \"#utility.yul\":3547:3554   */\n      dup7\n        /* \"#utility.yul\":3543:3566   */\n      sub\n        /* \"#utility.yul\":3539:3571   */\n      slt\n        /* \"#utility.yul\":3536:3655   */\n      iszero\n      tag_110\n      jumpi\n        /* \"#utility.yul\":3574:3653   */\n      tag_111\n      tag_33\n      jump\t// in\n    tag_111:\n        /* \"#utility.yul\":3536:3655   */\n    tag_110:\n        /* \"#utility.yul\":3694:3695   */\n      0x00\n        /* \"#utility.yul\":3719:3772   */\n      tag_112\n        /* \"#utility.yul\":3764:3771   */\n      dup7\n        /* \"#utility.yul\":3755:3761   */\n      dup3\n        /* \"#utility.yul\":3744:3753   */\n      dup8\n        /* \"#utility.yul\":3740:3762   */\n      add\n        /* \"#utility.yul\":3719:3772   */\n      tag_38\n      jump\t// in\n    tag_112:\n        /* \"#utility.yul\":3709:3772   */\n      swap4\n      pop\n        /* \"#utility.yul\":3665:3782   */\n      pop\n        /* \"#utility.yul\":3821:3823   */\n      0x20\n        /* \"#utility.yul\":3847:3900   */\n      tag_113\n        /* \"#utility.yul\":3892:3899   */\n      dup7\n        /* \"#utility.yul\":3883:3889   */\n      dup3\n        /* \"#utility.yul\":3872:3881   */\n      dup8\n        /* \"#utility.yul\":3868:3890   */\n      add\n        /* \"#utility.yul\":3847:3900   */\n      tag_41\n      jump\t// in\n    tag_113:\n        /* \"#utility.yul\":3837:3900   */\n      swap3\n      pop\n        /* \"#utility.yul\":3792:3910   */\n      pop\n        /* \"#utility.yul\":3977:3979   */\n      0x40\n        /* \"#utility.yul\":3966:3975   */\n      dup5\n        /* \"#utility.yul\":3962:3980   */\n      add\n        /* \"#utility.yul\":3949:3981   */\n      calldataload\n        /* \"#utility.yul\":4008:4026   */\n      0xffffffffffffffff\n        /* \"#utility.yul\":4000:4006   */\n      dup2\n        /* \"#utility.yul\":3997:4027   */\n      gt\n        /* \"#utility.yul\":3994:4111   */\n      iszero\n      tag_114\n      jumpi\n        /* \"#utility.yul\":4030:4109   */\n      tag_115\n      tag_34\n      jump\t// in\n    tag_115:\n        /* \"#utility.yul\":3994:4111   */\n    tag_114:\n        /* \"#utility.yul\":4135:4198   */\n      tag_116\n        /* \"#utility.yul\":4190:4197   */\n      dup7\n        /* \"#utility.yul\":4181:4187   */\n      dup3\n        /* \"#utility.yul\":4170:4179   */\n      dup8\n        /* \"#utility.yul\":4166:4188   */\n      add\n        /* \"#utility.yul\":4135:4198   */\n      tag_51\n      jump\t// in\n    tag_116:\n        /* \"#utility.yul\":4125:4198   */\n      swap2\n      pop\n        /* \"#utility.yul\":3920:4208   */\n      pop\n        /* \"#utility.yul\":3416:4215   */\n      swap3\n      pop\n      swap3\n      pop\n      swap3\n      jump\t// out\n        /* \"#utility.yul\":4221:4311   */\n    tag_52:\n        /* \"#utility.yul\":4255:4262   */\n      0x00\n        /* \"#utility.yul\":4298:4303   */\n      dup2\n        /* \"#utility.yul\":4291:4304   */\n      iszero\n        /* \"#utility.yul\":4284:4305   */\n      iszero\n        /* \"#utility.yul\":4273:4305   */\n      swap1\n      pop\n        /* \"#utility.yul\":4221:4311   */\n      swap2\n      swap1\n      pop\n      jump\t// out\n        /* \"#utility.yul\":4317:4426   */\n    tag_53:\n        /* \"#utility.yul\":4398:4419   */\n      tag_119\n        /* \"#utility.yul\":4413:4418   */\n      dup2\n        /* \"#utility.yul\":4398:4419   */\n      tag_52\n      jump\t// in\n    tag_119:\n        /* \"#utility.yul\":4393:4396   */\n      dup3\n        /* \"#utility.yul\":4386:4420   */\n      mstore\n        /* \"#utility.yul\":4317:4426   */\n      pop\n      pop\n      jump\t// out\n        /* \"#utility.yul\":4432:4550   */\n    tag_54:\n        /* \"#utility.yul\":4519:4543   */\n      tag_121\n        /* \"#utility.yul\":4537:4542   */\n      dup2\n        /* \"#utility.yul\":4519:4543   */\n      tag_39\n      jump\t// in\n    tag_121:\n        /* \"#utility.yul\":4514:4517   */\n      dup3\n        /* \"#utility.yul\":4507:4544   */\n      mstore\n        /* \"#utility.yul\":4432:4550   */\n      pop\n      pop\n      jump\t// out\n        /* \"#utility.yul\":4556:4876   */\n    tag_10:\n        /* \"#utility.yul\":4671:4675   */\n      0x00\n        /* \"#utility.yul\":4709:4711   */\n      0x40\n        /* \"#utility.yul\":4698:4707   */\n      dup3\n        /* \"#utility.yul\":4694:4712   */\n      add\n        /* \"#utility.yul\":4686:4712   */\n      swap1\n      pop\n        /* \"#utility.yul\":4722:4787   */\n      tag_123\n        /* \"#utility.yul\":4784:4785   */\n      0x00\n        /* \"#utility.yul\":4773:4782   */\n      dup4\n        /* \"#utility.yul\":4769:4786   */\n      add\n        /* \"#utility.yul\":4760:4766   */\n      dup6\n        /* \"#utility.yul\":4722:4787   */\n      tag_53\n      jump\t// in\n    tag_123:\n        /* \"#utility.yul\":4797:4869   */\n      tag_124\n        /* \"#utility.yul\":4865:4867   */\n      0x20\n        /* \"#utility.yul\":4854:4863   */\n      dup4\n        /* \"#utility.yul\":4850:4868   */\n      add\n        /* \"#utility.yul\":4841:4847   */\n      dup5\n        /* \"#utility.yul\":4797:4869   */\n      tag_54\n      jump\t// in\n    tag_124:\n        /* \"#utility.yul\":4556:4876   */\n      swap4\n      swap3\n      pop\n      pop\n      pop\n      jump\t// out\n        /* \"#utility.yul\":4882:5211   */\n    tag_13:\n        /* \"#utility.yul\":4941:4947   */\n      0x00\n        /* \"#utility.yul\":4990:4992   */\n      0x20\n        /* \"#utility.yul\":4978:4987   */\n      dup3\n        /* \"#utility.yul\":4969:4976   */\n      dup5\n        /* \"#utility.yul\":4965:4988   */\n      sub\n        /* \"#utility.yul\":4961:4993   */\n      slt\n        /* \"#utility.yul\":4958:5077   */\n      iszero\n      tag_126\n      jumpi\n        /* \"#utility.yul\":4996:5075   */\n      tag_127\n      tag_33\n      jump\t// in\n    tag_127:\n        /* \"#utility.yul\":4958:5077   */\n    tag_126:\n        /* \"#utility.yul\":5116:5117   */\n      0x00\n        /* \"#utility.yul\":5141:5194   */\n      tag_128\n        /* \"#utility.yul\":5186:5193   */\n      dup5\n        /* \"#utility.yul\":5177:5183   */\n      dup3\n        /* \"#utility.yul\":5166:5175   */\n      dup6\n        /* \"#utility.yul\":5162:5184   */\n      add\n        /* \"#utility.yul\":5141:5194   */\n      tag_38\n      jump\t// in\n    tag_128:\n        /* \"#utility.yul\":5131:5194   */\n      swap2\n      pop\n        /* \"#utility.yul\":5087:5204   */\n      pop\n        /* \"#utility.yul\":4882:5211   */\n      swap3\n      swap2\n      pop\n      pop\n      jump\t// out\n        /* \"#utility.yul\":5217:5316   */\n    tag_55:\n        /* \"#utility.yul\":5269:5275   */\n      0x00\n        /* \"#utility.yul\":5303:5308   */\n      dup2\n        /* \"#utility.yul\":5297:5309   */\n      mload\n        /* \"#utility.yul\":5287:5309   */\n      swap1\n      pop\n        /* \"#utility.yul\":5217:5316   */\n      swap2\n      swap1\n      pop\n      jump\t// out\n        /* \"#utility.yul\":5322:5491   */\n    tag_56:\n        /* \"#utility.yul\":5406:5417   */\n      0x00\n        /* \"#utility.yul\":5440:5446   */\n      dup3\n        /* \"#utility.yul\":5435:5438   */\n      dup3\n        /* \"#utility.yul\":5428:5447   */\n      mstore\n        /* \"#utility.yul\":5480:5484   */\n      0x20\n        /* \"#utility.yul\":5475:5478   */\n      dup3\n        /* \"#utility.yul\":5471:5485   */\n      add\n        /* \"#utility.yul\":5456:5485   */\n      swap1\n      pop\n        /* \"#utility.yul\":5322:5491   */\n      swap3\n      swap2\n      pop\n      pop\n      jump\t// out\n        /* \"#utility.yul\":5497:5743   */\n    tag_57:\n        /* \"#utility.yul\":5578:5579   */\n      0x00\n        /* \"#utility.yul\":5588:5701   */\n    tag_132:\n        /* \"#utility.yul\":5602:5608   */\n      dup4\n        /* \"#utility.yul\":5599:5600   */\n      dup2\n        /* \"#utility.yul\":5596:5609   */\n      lt\n        /* \"#utility.yul\":5588:5701   */\n      iszero\n      tag_134\n      jumpi\n        /* \"#utility.yul\":5687:5688   */\n      dup1\n        /* \"#utility.yul\":5682:5685   */\n      dup3\n        /* \"#utility.yul\":5678:5689   */\n      add\n        /* \"#utility.yul\":5672:5690   */\n      mload\n        /* \"#utility.yul\":5668:5669   */\n      dup2\n        /* \"#utility.yul\":5663:5666   */\n      dup5\n        /* \"#utility.yul\":5659:5670   */\n      add\n        /* \"#utility.yul\":5652:5691   */\n      mstore\n        /* \"#utility.yul\":5624:5626   */\n      0x20\n        /* \"#utility.yul\":5621:5622   */\n      dup2\n        /* \"#utility.yul\":5617:5627   */\n      add\n        /* \"#utility.yul\":5612:5627   */\n      swap1\n      pop\n        /* \"#utility.yul\":5588:5701   */\n      jump(tag_132)\n    tag_134:\n        /* \"#utility.yul\":5735:5736   */\n      0x00\n        /* \"#utility.yul\":5726:5732   */\n      dup5\n        /* \"#utility.yul\":5721:5724   */\n      dup5\n        /* \"#utility.yul\":5717:5733   */\n      add\n        /* \"#utility.yul\":5710:5737   */\n      mstore\n        /* \"#utility.yul\":5559:5743   */\n      pop\n        /* \"#utility.yul\":5497:5743   */\n      pop\n      pop\n      pop\n      jump\t// out\n        /* \"#utility.yul\":5749:6126   */\n    tag_58:\n        /* \"#utility.yul\":5837:5840   */\n      0x00\n        /* \"#utility.yul\":5865:5904   */\n      tag_136\n        /* \"#utility.yul\":5898:5903   */\n      dup3\n        /* \"#utility.yul\":5865:5904   */\n      tag_55\n      jump\t// in\n    tag_136:\n        /* \"#utility.yul\":5920:5991   */\n      tag_137\n        /* \"#utility.yul\":5984:5990   */\n      dup2\n        /* \"#utility.yul\":5979:5982   */\n      dup6\n        /* \"#utility.yul\":5920:5991   */\n      tag_56\n      jump\t// in\n    tag_137:\n        /* \"#utility.yul\":5913:5991   */\n      swap4\n      pop\n        /* \"#utility.yul\":6000:6065   */\n      tag_138\n        /* \"#utility.yul\":6058:6064   */\n      dup2\n        /* \"#utility.yul\":6053:6056   */\n      dup6\n        /* \"#utility.yul\":6046:6050   */\n      0x20\n        /* \"#utility.yul\":6039:6044   */\n      dup7\n        /* \"#utility.yul\":6035:6051   */\n      add\n        /* \"#utility.yul\":6000:6065   */\n      tag_57\n      jump\t// in\n    tag_138:\n        /* \"#utility.yul\":6090:6119   */\n      tag_139\n        /* \"#utility.yul\":6112:6118   */\n      dup2\n        /* \"#utility.yul\":6090:6119   */\n      tag_44\n      jump\t// in\n    tag_139:\n        /* \"#utility.yul\":6085:6088   */\n      dup5\n        /* \"#utility.yul\":6081:6120   */\n      add\n        /* \"#utility.yul\":6074:6120   */\n      swap2\n      pop\n        /* \"#utility.yul\":5841:6126   */\n      pop\n        /* \"#utility.yul\":5749:6126   */\n      swap3\n      swap2\n      pop\n      pop\n      jump\t// out\n        /* \"#utility.yul\":6132:6555   */\n    tag_17:\n        /* \"#utility.yul\":6273:6277   */\n      0x00\n        /* \"#utility.yul\":6311:6313   */\n      0x40\n        /* \"#utility.yul\":6300:6309   */\n      dup3\n        /* \"#utility.yul\":6296:6314   */\n      add\n        /* \"#utility.yul\":6288:6314   */\n      swap1\n      pop\n        /* \"#utility.yul\":6324:6395   */\n      tag_141\n        /* \"#utility.yul\":6392:6393   */\n      0x00\n        /* \"#utility.yul\":6381:6390   */\n      dup4\n        /* \"#utility.yul\":6377:6394   */\n      add\n        /* \"#utility.yul\":6368:6374   */\n      dup6\n        /* \"#utility.yul\":6324:6395   */\n      tag_54\n      jump\t// in\n    tag_141:\n        /* \"#utility.yul\":6442:6451   */\n      dup2\n        /* \"#utility.yul\":6436:6440   */\n      dup2\n        /* \"#utility.yul\":6432:6452   */\n      sub\n        /* \"#utility.yul\":6427:6429   */\n      0x20\n        /* \"#utility.yul\":6416:6425   */\n      dup4\n        /* \"#utility.yul\":6412:6430   */\n      add\n        /* \"#utility.yul\":6405:6453   */\n      mstore\n        /* \"#utility.yul\":6470:6548   */\n      tag_142\n        /* \"#utility.yul\":6543:6547   */\n      dup2\n        /* \"#utility.yul\":6534:6540   */\n      dup5\n        /* \"#utility.yul\":6470:6548   */\n      tag_58\n      jump\t// in\n    tag_142:\n        /* \"#utility.yul\":6462:6548   */\n      swap1\n      pop\n        /* \"#utility.yul\":6132:6555   */\n      swap4\n      swap3\n      pop\n      pop\n      pop\n      jump\t// out\n        /* \"#utility.yul\":6561:6659   */\n    tag_59:\n        /* \"#utility.yul\":6612:6618   */\n      0x00\n        /* \"#utility.yul\":6646:6651   */\n      dup2\n        /* \"#utility.yul\":6640:6652   */\n      mload\n        /* \"#utility.yul\":6630:6652   */\n      swap1\n      pop\n        /* \"#utility.yul\":6561:6659   */\n      swap2\n      swap1\n      pop\n      jump\t// out\n        /* \"#utility.yul\":6665:6812   */\n    tag_60:\n        /* \"#utility.yul\":6766:6777   */\n      0x00\n        /* \"#utility.yul\":6803:6806   */\n      dup2\n        /* \"#utility.yul\":6788:6806   */\n      swap1\n      pop\n        /* \"#utility.yul\":6665:6812   */\n      swap3\n      swap2\n      pop\n      pop\n      jump\t// out\n        /* \"#utility.yul\":6818:7204   */\n    tag_61:\n        /* \"#utility.yul\":6922:6925   */\n      0x00\n        /* \"#utility.yul\":6950:6988   */\n      tag_146\n        /* \"#utility.yul\":6982:6987   */\n      dup3\n        /* \"#utility.yul\":6950:6988   */\n      tag_59\n      jump\t// in\n    tag_146:\n        /* \"#utility.yul\":7004:7092   */\n      tag_147\n        /* \"#utility.yul\":7085:7091   */\n      dup2\n        /* \"#utility.yul\":7080:7083   */\n      dup6\n        /* \"#utility.yul\":7004:7092   */\n      tag_60\n      jump\t// in\n    tag_147:\n        /* \"#utility.yul\":6997:7092   */\n      swap4\n      pop\n        /* \"#utility.yul\":7101:7166   */\n      tag_148\n        /* \"#utility.yul\":7159:7165   */\n      dup2\n        /* \"#utility.yul\":7154:7157   */\n      dup6\n        /* \"#utility.yul\":7147:7151   */\n      0x20\n        /* \"#utility.yul\":7140:7145   */\n      dup7\n        /* \"#utility.yul\":7136:7152   */\n      add\n        /* \"#utility.yul\":7101:7166   */\n      tag_57\n      jump\t// in\n    tag_148:\n        /* \"#utility.yul\":7191:7197   */\n      dup1\n        /* \"#utility.yul\":7186:7189   */\n      dup5\n        /* \"#utility.yul\":7182:7198   */\n      add\n        /* \"#utility.yul\":7175:7198   */\n      swap2\n      pop\n        /* \"#utility.yul\":6926:7204   */\n      pop\n        /* \"#utility.yul\":6818:7204   */\n      swap3\n      swap2\n      pop\n      pop\n      jump\t// out\n        /* \"#utility.yul\":7210:7481   */\n    tag_19:\n        /* \"#utility.yul\":7340:7343   */\n      0x00\n        /* \"#utility.yul\":7362:7455   */\n      tag_150\n        /* \"#utility.yul\":7451:7454   */\n      dup3\n        /* \"#utility.yul\":7442:7448   */\n      dup5\n        /* \"#utility.yul\":7362:7455   */\n      tag_61\n      jump\t// in\n    tag_150:\n        /* \"#utility.yul\":7355:7455   */\n      swap2\n      pop\n        /* \"#utility.yul\":7472:7475   */\n      dup2\n        /* \"#utility.yul\":7465:7475   */\n      swap1\n      pop\n        /* \"#utility.yul\":7210:7481   */\n      swap3\n      swap2\n      pop\n      pop\n      jump\t// out\n        /* \"#utility.yul\":7487:7630   */\n    tag_62:\n        /* \"#utility.yul\":7544:7549   */\n      0x00\n        /* \"#utility.yul\":7575:7581   */\n      dup2\n        /* \"#utility.yul\":7569:7582   */\n      mload\n        /* \"#utility.yul\":7560:7582   */\n      swap1\n      pop\n        /* \"#utility.yul\":7591:7624   */\n      tag_152\n        /* \"#utility.yul\":7618:7623   */\n      dup2\n        /* \"#utility.yul\":7591:7624   */\n      tag_40\n      jump\t// in\n    tag_152:\n        /* \"#utility.yul\":7487:7630   */\n      swap3\n      swap2\n      pop\n      pop\n      jump\t// out\n        /* \"#utility.yul\":7636:7987   */\n    tag_24:\n        /* \"#utility.yul\":7706:7712   */\n      0x00\n        /* \"#utility.yul\":7755:7757   */\n      0x20\n        /* \"#utility.yul\":7743:7752   */\n      dup3\n        /* \"#utility.yul\":7734:7741   */\n      dup5\n        /* \"#utility.yul\":7730:7753   */\n      sub\n        /* \"#utility.yul\":7726:7758   */\n      slt\n        /* \"#utility.yul\":7723:7842   */\n      iszero\n      tag_154\n      jumpi\n        /* \"#utility.yul\":7761:7840   */\n      tag_155\n      tag_33\n      jump\t// in\n    tag_155:\n        /* \"#utility.yul\":7723:7842   */\n    tag_154:\n        /* \"#utility.yul\":7881:7882   */\n      0x00\n        /* \"#utility.yul\":7906:7970   */\n      tag_156\n        /* \"#utility.yul\":7962:7969   */\n      dup5\n        /* \"#utility.yul\":7953:7959   */\n      dup3\n        /* \"#utility.yul\":7942:7951   */\n      dup6\n        /* \"#utility.yul\":7938:7960   */\n      add\n        /* \"#utility.yul\":7906:7970   */\n      tag_62\n      jump\t// in\n    tag_156:\n        /* \"#utility.yul\":7896:7970   */\n      swap2\n      pop\n        /* \"#utility.yul\":7852:7980   */\n      pop\n        /* \"#utility.yul\":7636:7987   */\n      swap3\n      swap2\n      pop\n      pop\n      jump\t// out\n        /* \"#utility.yul\":7993:8107   */\n    tag_63:\n      pop\n      jump\t// out\n        /* \"#utility.yul\":8113:8511   */\n    tag_64:\n        /* \"#utility.yul\":8272:8275   */\n      0x00\n        /* \"#utility.yul\":8293:8376   */\n      tag_159\n        /* \"#utility.yul\":8374:8375   */\n      0x00\n        /* \"#utility.yul\":8369:8372   */\n      dup4\n        /* \"#utility.yul\":8293:8376   */\n      tag_60\n      jump\t// in\n    tag_159:\n        /* \"#utility.yul\":8286:8376   */\n      swap2\n      pop\n        /* \"#utility.yul\":8385:8478   */\n      tag_160\n        /* \"#utility.yul\":8474:8477   */\n      dup3\n        /* \"#utility.yul\":8385:8478   */\n      tag_63\n      jump\t// in\n    tag_160:\n        /* \"#utility.yul\":8503:8504   */\n      0x00\n        /* \"#utility.yul\":8498:8501   */\n      dup3\n        /* \"#utility.yul\":8494:8505   */\n      add\n        /* \"#utility.yul\":8487:8505   */\n      swap1\n      pop\n        /* \"#utility.yul\":8113:8511   */\n      swap2\n      swap1\n      pop\n      jump\t// out\n        /* \"#utility.yul\":8517:8896   */\n    tag_27:\n        /* \"#utility.yul\":8701:8704   */\n      0x00\n        /* \"#utility.yul\":8723:8870   */\n      tag_162\n        /* \"#utility.yul\":8866:8869   */\n      dup3\n        /* \"#utility.yul\":8723:8870   */\n      tag_64\n      jump\t// in\n    tag_162:\n        /* \"#utility.yul\":8716:8870   */\n      swap2\n      pop\n        /* \"#utility.yul\":8887:8890   */\n      dup2\n        /* \"#utility.yul\":8880:8890   */\n      swap1\n      pop\n        /* \"#utility.yul\":8517:8896   */\n      swap2\n      swap1\n      pop\n      jump\t// out\n\n    auxdata: 0xa264697066735822122034c311966f3e0f9859cb7fcfaebe35662df893a98f33db6658c548b67f297fb664736f6c63430008180033\n}\n",
				"bytecode": {
					"linkReferences": {},
					"object": "608060405234801561000f575f80fd5b5061068c8061001d5f395ff3fe608060405260043610610028575f3560e01c806313dcb81b1461002c5780639870498614610069575b5f80fd5b348015610037575f80fd5b50610052600480360381019061004d91906103f7565b610085565b60405161006092919061048c565b60405180910390f35b610083600480360381019061007e91906104b3565b6101a8565b005b5f805f808673ffffffffffffffffffffffffffffffffffffffff1686866040516024016100b3929190610558565b6040516020818303038152906040527f58f1f8bb000000000000000000000000000000000000000000000000000000007bffffffffffffffffffffffffffffffffffffffffffffffffffffffff19166020820180517bffffffffffffffffffffffffffffffffffffffffffffffffffffffff838183161783525050505060405161013d91906105ca565b5f604051808303815f865af19150503d805f8114610176576040519150601f19603f3d011682016040523d82523d5f602084013e61017b565b606091505b50915091505f8180602001905181019061019591906105f4565b9050828194509450505050935093915050565b5f8173ffffffffffffffffffffffffffffffffffffffff16346040516101cd90610642565b5f6040518083038185875af1925050503d805f8114610207576040519150601f19603f3d011682016040523d82523d5f602084013e61020c565b606091505b5050905080610219575f80fd5b5050565b5f604051905090565b5f80fd5b5f80fd5b5f73ffffffffffffffffffffffffffffffffffffffff82169050919050565b5f6102578261022e565b9050919050565b6102678161024d565b8114610271575f80fd5b50565b5f813590506102828161025e565b92915050565b5f819050919050565b61029a81610288565b81146102a4575f80fd5b50565b5f813590506102b581610291565b92915050565b5f80fd5b5f80fd5b5f601f19601f8301169050919050565b7f4e487b71000000000000000000000000000000000000000000000000000000005f52604160045260245ffd5b610309826102c3565b810181811067ffffffffffffffff82111715610328576103276102d3565b5b80604052505050565b5f61033a61021d565b90506103468282610300565b919050565b5f67ffffffffffffffff821115610365576103646102d3565b5b61036e826102c3565b9050602081019050919050565b828183375f83830152505050565b5f61039b6103968461034b565b610331565b9050828152602081018484840111156103b7576103b66102bf565b5b6103c284828561037b565b509392505050565b5f82601f8301126103de576103dd6102bb565b5b81356103ee848260208601610389565b91505092915050565b5f805f6060848603121561040e5761040d610226565b5b5f61041b86828701610274565b935050602061042c868287016102a7565b925050604084013567ffffffffffffffff81111561044d5761044c61022a565b5b610459868287016103ca565b9150509250925092565b5f8115159050919050565b61047781610463565b82525050565b61048681610288565b82525050565b5f60408201905061049f5f83018561046e565b6104ac602083018461047d565b9392505050565b5f602082840312156104c8576104c7610226565b5b5f6104d584828501610274565b91505092915050565b5f81519050919050565b5f82825260208201905092915050565b5f5b838110156105155780820151818401526020810190506104fa565b5f8484015250505050565b5f61052a826104de565b61053481856104e8565b93506105448185602086016104f8565b61054d816102c3565b840191505092915050565b5f60408201905061056b5f83018561047d565b818103602083015261057d8184610520565b90509392505050565b5f81519050919050565b5f81905092915050565b5f6105a482610586565b6105ae8185610590565b93506105be8185602086016104f8565b80840191505092915050565b5f6105d5828461059a565b915081905092915050565b5f815190506105ee81610291565b92915050565b5f6020828403121561060957610608610226565b5b5f610616848285016105e0565b91505092915050565b50565b5f61062d5f83610590565b91506106388261061f565b5f82019050919050565b5f61064c82610622565b915081905091905056fea264697066735822122034c311966f3e0f9859cb7fcfaebe35662df893a98f33db6658c548b67f297fb664736f6c63430008180033",
					"opcodes": "PUSH1 0x80 PUSH1 0x40 MSTORE CALLVALUE DUP1 ISZERO PUSH2 0xF JUMPI PUSH0 DUP1 REVERT JUMPDEST POP PUSH2 0x68C DUP1 PUSH2 0x1D PUSH0 CODECOPY PUSH0 RETURN INVALID PUSH1 0x80 PUSH1 0x40 MSTORE PUSH1 0x4 CALLDATASIZE LT PUSH2 0x28 JUMPI PUSH0 CALLDATALOAD PUSH1 0xE0 SHR DUP1 PUSH4 0x13DCB81B EQ PUSH2 0x2C JUMPI DUP1 PUSH4 0x98704986 EQ PUSH2 0x69 JUMPI JUMPDEST PUSH0 DUP1 REVERT JUMPDEST CALLVALUE DUP1 ISZERO PUSH2 0x37 JUMPI PUSH0 DUP1 REVERT JUMPDEST POP PUSH2 0x52 PUSH1 0x4 DUP1 CALLDATASIZE SUB DUP2 ADD SWAP1 PUSH2 0x4D SWAP2 SWAP1 PUSH2 0x3F7 JUMP JUMPDEST PUSH2 0x85 JUMP JUMPDEST PUSH1 0x40 MLOAD PUSH2 0x60 SWAP3 SWAP2 SWAP1 PUSH2 0x48C JUMP JUMPDEST PUSH1 0x40 MLOAD DUP1 SWAP2 SUB SWAP1 RETURN JUMPDEST PUSH2 0x83 PUSH1 0x4 DUP1 CALLDATASIZE SUB DUP2 ADD SWAP1 PUSH2 0x7E SWAP2 SWAP1 PUSH2 0x4B3 JUMP JUMPDEST PUSH2 0x1A8 JUMP JUMPDEST STOP JUMPDEST PUSH0 DUP1 PUSH0 DUP1 DUP7 PUSH20 0xFFFFFFFFFFFFFFFFFFFFFFFFFFFFFFFFFFFFFFFF AND DUP7 DUP7 PUSH1 0x40 MLOAD PUSH1 0x24 ADD PUSH2 0xB3 SWAP3 SWAP2 SWAP1 PUSH2 0x558 JUMP JUMPDEST PUSH1 0x40 MLOAD PUSH1 0x20 DUP2 DUP4 SUB SUB DUP2 MSTORE SWAP1 PUSH1 0x40 MSTORE PUSH32 0x58F1F8BB00000000000000000000000000000000000000000000000000000000 PUSH28 0xFFFFFFFFFFFFFFFFFFFFFFFFFFFFFFFFFFFFFFFFFFFFFFFFFFFFFFFF NOT AND PUSH1 0x20 DUP3 ADD DUP1 MLOAD PUSH28 0xFFFFFFFFFFFFFFFFFFFFFFFFFFFFFFFFFFFFFFFFFFFFFFFFFFFFFFFF DUP4 DUP2 DUP4 AND OR DUP4 MSTORE POP POP POP POP PUSH1 0x40 MLOAD PUSH2 0x13D SWAP2 SWAP1 PUSH2 0x5CA JUMP JUMPDEST PUSH0 PUSH1 0x40 MLOAD DUP1 DUP4 SUB DUP2 PUSH0 DUP7 GAS CALL SWAP2 POP POP RETURNDATASIZE DUP1 PUSH0 DUP2 EQ PUSH2 0x176 JUMPI PUSH1 0x40 MLOAD SWAP2 POP PUSH1 0x1F NOT PUSH1 0x3F RETURNDATASIZE ADD AND DUP3 ADD PUSH1 0x40 MSTORE RETURNDATASIZE DUP3 MSTORE RETURNDATASIZE PUSH0 PUSH1 0x20 DUP5 ADD RETURNDATACOPY PUSH2 0x17B JUMP JUMPDEST PUSH1 0x60 SWAP2 POP JUMPDEST POP SWAP2 POP SWAP2 POP PUSH0 DUP2 DUP1 PUSH1 0x20 ADD SWAP1 MLOAD DUP2 ADD SWAP1 PUSH2 0x195 SWAP2 SWAP1 PUSH2 0x5F4 JUMP JUMPDEST SWAP1 POP DUP3 DUP2 SWAP5 POP SWAP5 POP POP POP POP SWAP4 POP SWAP4 SWAP2 POP POP JUMP JUMPDEST PUSH0 DUP2 PUSH20 0xFFFFFFFFFFFFFFFFFFFFFFFFFFFFFFFFFFFFFFFF AND CALLVALUE PUSH1 0x40 MLOAD PUSH2 0x1CD SWAP1 PUSH2 0x642 JUMP JUMPDEST PUSH0 PUSH1 0x40 MLOAD DUP1 DUP4 SUB DUP2 DUP6 DUP8 GAS CALL SWAP3 POP POP POP RETURNDATASIZE DUP1 PUSH0 DUP2 EQ PUSH2 0x207 JUMPI PUSH1 0x40 MLOAD SWAP2 POP PUSH1 0x1F NOT PUSH1 0x3F RETURNDATASIZE ADD AND DUP3 ADD PUSH1 0x40 MSTORE RETURNDATASIZE DUP3 MSTORE RETURNDATASIZE PUSH0 PUSH1 0x20 DUP5 ADD RETURNDATACOPY PUSH2 0x20C JUMP JUMPDEST PUSH1 0x60 SWAP2 POP JUMPDEST POP POP SWAP1 POP DUP1 PUSH2 0x219 JUMPI PUSH0 DUP1 REVERT JUMPDEST POP POP JUMP JUMPDEST PUSH0 PUSH1 0x40 MLOAD SWAP1 POP SWAP1 JUMP JUMPDEST PUSH0 DUP1 REVERT JUMPDEST PUSH0 DUP1 REVERT JUMPDEST PUSH0 PUSH20 0xFFFFFFFFFFFFFFFFFFFFFFFFFFFFFFFFFFFFFFFF DUP3 AND SWAP1 POP SWAP2 SWAP1 POP JUMP JUMPDEST PUSH0 PUSH2 0x257 DUP3 PUSH2 0x22E JUMP JUMPDEST SWAP1 POP SWAP2 SWAP1 POP JUMP JUMPDEST PUSH2 0x267 DUP2 PUSH2 0x24D JUMP JUMPDEST DUP2 EQ PUSH2 0x271 JUMPI PUSH0 DUP1 REVERT JUMPDEST POP JUMP JUMPDEST PUSH0 DUP2 CALLDATALOAD SWAP1 POP PUSH2 0x282 DUP2 PUSH2 0x25E JUMP JUMPDEST SWAP3 SWAP2 POP POP JUMP JUMPDEST PUSH0 DUP2 SWAP1 POP SWAP2 SWAP1 POP JUMP JUMPDEST PUSH2 0x29A DUP2 PUSH2 0x288 JUMP JUMPDEST DUP2 EQ PUSH2 0x2A4 JUMPI PUSH0 DUP1 REVERT JUMPDEST POP JUMP JUMPDEST PUSH0 DUP2 CALLDATALOAD SWAP1 POP PUSH2 0x2B5 DUP2 PUSH2 0x291 JUMP JUMPDEST SWAP3 SWAP2 POP POP JUMP JUMPDEST PUSH0 DUP1 REVERT JUMPDEST PUSH0 DUP1 REVERT JUMPDEST PUSH0 PUSH1 0x1F NOT PUSH1 0x1F DUP4 ADD AND SWAP1 POP SWAP2 SWAP1 POP JUMP JUMPDEST PUSH32 0x4E487B7100000000000000000000000000000000000000000000000000000000 PUSH0 MSTORE PUSH1 0x41 PUSH1 0x4 MSTORE PUSH1 0x24 PUSH0 REVERT JUMPDEST PUSH2 0x309 DUP3 PUSH2 0x2C3 JUMP JUMPDEST DUP2 ADD DUP2 DUP2 LT PUSH8 0xFFFFFFFFFFFFFFFF DUP3 GT OR ISZERO PUSH2 0x328 JUMPI PUSH2 0x327 PUSH2 0x2D3 JUMP JUMPDEST JUMPDEST DUP1 PUSH1 0x40 MSTORE POP POP POP JUMP JUMPDEST PUSH0 PUSH2 0x33A PUSH2 0x21D JUMP JUMPDEST SWAP1 POP PUSH2 0x346 DUP3 DUP3 PUSH2 0x300 JUMP JUMPDEST SWAP2 SWAP1 POP JUMP JUMPDEST PUSH0 PUSH8 0xFFFFFFFFFFFFFFFF DUP3 GT ISZERO PUSH2 0x365 JUMPI PUSH2 0x364 PUSH2 0x2D3 JUMP JUMPDEST JUMPDEST PUSH2 0x36E DUP3 PUSH2 0x2C3 JUMP JUMPDEST SWAP1 POP PUSH1 0x20 DUP2 ADD SWAP1 POP SWAP2 SWAP1 POP JUMP JUMPDEST DUP3 DUP2 DUP4 CALLDATACOPY PUSH0 DUP4 DUP4 ADD MSTORE POP POP POP JUMP JUMPDEST PUSH0 PUSH2 0x39B PUSH2 0x396 DUP5 PUSH2 0x34B JUMP JUMPDEST PUSH2 0x331 JUMP JUMPDEST SWAP1 POP DUP3 DUP2 MSTORE PUSH1 0x20 DUP2 ADD DUP5 DUP5 DUP5 ADD GT ISZERO PUSH2 0x3B7 JUMPI PUSH2 0x3B6 PUSH2 0x2BF JUMP JUMPDEST JUMPDEST PUSH2 0x3C2 DUP5 DUP3 DUP6 PUSH2 0x37B JUMP JUMPDEST POP SWAP4 SWAP3 POP POP POP JUMP JUMPDEST PUSH0 DUP3 PUSH1 0x1F DUP4 ADD SLT PUSH2 0x3DE JUMPI PUSH2 0x3DD PUSH2 0x2BB JUMP JUMPDEST JUMPDEST DUP2 CALLDATALOAD PUSH2 0x3EE DUP5 DUP3 PUSH1 0x20 DUP7 ADD PUSH2 0x389 JUMP JUMPDEST SWAP2 POP POP SWAP3 SWAP2 POP POP JUMP JUMPDEST PUSH0 DUP1 PUSH0 PUSH1 0x60 DUP5 DUP7 SUB SLT ISZERO PUSH2 0x40E JUMPI PUSH2 0x40D PUSH2 0x226 JUMP JUMPDEST JUMPDEST PUSH0 PUSH2 0x41B DUP7 DUP3 DUP8 ADD PUSH2 0x274 JUMP JUMPDEST SWAP4 POP POP PUSH1 0x20 PUSH2 0x42C DUP7 DUP3 DUP8 ADD PUSH2 0x2A7 JUMP JUMPDEST SWAP3 POP POP PUSH1 0x40 DUP5 ADD CALLDATALOAD PUSH8 0xFFFFFFFFFFFFFFFF DUP2 GT ISZERO PUSH2 0x44D JUMPI PUSH2 0x44C PUSH2 0x22A JUMP JUMPDEST JUMPDEST PUSH2 0x459 DUP7 DUP3 DUP8 ADD PUSH2 0x3CA JUMP JUMPDEST SWAP2 POP POP SWAP3 POP SWAP3 POP SWAP3 JUMP JUMPDEST PUSH0 DUP2 ISZERO ISZERO SWAP1 POP SWAP2 SWAP1 POP JUMP JUMPDEST PUSH2 0x477 DUP2 PUSH2 0x463 JUMP JUMPDEST DUP3 MSTORE POP POP JUMP JUMPDEST PUSH2 0x486 DUP2 PUSH2 0x288 JUMP JUMPDEST DUP3 MSTORE POP POP JUMP JUMPDEST PUSH0 PUSH1 0x40 DUP3 ADD SWAP1 POP PUSH2 0x49F PUSH0 DUP4 ADD DUP6 PUSH2 0x46E JUMP JUMPDEST PUSH2 0x4AC PUSH1 0x20 DUP4 ADD DUP5 PUSH2 0x47D JUMP JUMPDEST SWAP4 SWAP3 POP POP POP JUMP JUMPDEST PUSH0 PUSH1 0x20 DUP3 DUP5 SUB SLT ISZERO PUSH2 0x4C8 JUMPI PUSH2 0x4C7 PUSH2 0x226 JUMP JUMPDEST JUMPDEST PUSH0 PUSH2 0x4D5 DUP5 DUP3 DUP6 ADD PUSH2 0x274 JUMP JUMPDEST SWAP2 POP POP SWAP3 SWAP2 POP POP JUMP JUMPDEST PUSH0 DUP2 MLOAD SWAP1 POP SWAP2 SWAP1 POP JUMP JUMPDEST PUSH0 DUP3 DUP3 MSTORE PUSH1 0x20 DUP3 ADD SWAP1 POP SWAP3 SWAP2 POP POP JUMP JUMPDEST PUSH0 JUMPDEST DUP4 DUP2 LT ISZERO PUSH2 0x515 JUMPI DUP1 DUP3 ADD MLOAD DUP2 DUP5 ADD MSTORE PUSH1 0x20 DUP2 ADD SWAP1 POP PUSH2 0x4FA JUMP JUMPDEST PUSH0 DUP5 DUP5 ADD MSTORE POP POP POP POP JUMP JUMPDEST PUSH0 PUSH2 0x52A DUP3 PUSH2 0x4DE JUMP JUMPDEST PUSH2 0x534 DUP2 DUP6 PUSH2 0x4E8 JUMP JUMPDEST SWAP4 POP PUSH2 0x544 DUP2 DUP6 PUSH1 0x20 DUP7 ADD PUSH2 0x4F8 JUMP JUMPDEST PUSH2 0x54D DUP2 PUSH2 0x2C3 JUMP JUMPDEST DUP5 ADD SWAP2 POP POP SWAP3 SWAP2 POP POP JUMP JUMPDEST PUSH0 PUSH1 0x40 DUP3 ADD SWAP1 POP PUSH2 0x56B PUSH0 DUP4 ADD DUP6 PUSH2 0x47D JUMP JUMPDEST DUP2 DUP2 SUB PUSH1 0x20 DUP4 ADD MSTORE PUSH2 0x57D DUP2 DUP5 PUSH2 0x520 JUMP JUMPDEST SWAP1 POP SWAP4 SWAP3 POP POP POP JUMP JUMPDEST PUSH0 DUP2 MLOAD SWAP1 POP SWAP2 SWAP1 POP JUMP JUMPDEST PUSH0 DUP2 SWAP1 POP SWAP3 SWAP2 POP POP JUMP JUMPDEST PUSH0 PUSH2 0x5A4 DUP3 PUSH2 0x586 JUMP JUMPDEST PUSH2 0x5AE DUP2 DUP6 PUSH2 0x590 JUMP JUMPDEST SWAP4 POP PUSH2 0x5BE DUP2 DUP6 PUSH1 0x20 DUP7 ADD PUSH2 0x4F8 JUMP JUMPDEST DUP1 DUP5 ADD SWAP2 POP POP SWAP3 SWAP2 POP POP JUMP JUMPDEST PUSH0 PUSH2 0x5D5 DUP3 DUP5 PUSH2 0x59A JUMP JUMPDEST SWAP2 POP DUP2 SWAP1 POP SWAP3 SWAP2 POP POP JUMP JUMPDEST PUSH0 DUP2 MLOAD SWAP1 POP PUSH2 0x5EE DUP2 PUSH2 0x291 JUMP JUMPDEST SWAP3 SWAP2 POP POP JUMP JUMPDEST PUSH0 PUSH1 0x20 DUP3 DUP5 SUB SLT ISZERO PUSH2 0x609 JUMPI PUSH2 0x608 PUSH2 0x226 JUMP JUMPDEST JUMPDEST PUSH0 PUSH2 0x616 DUP5 DUP3 DUP6 ADD PUSH2 0x5E0 JUMP JUMPDEST SWAP2 POP POP SWAP3 SWAP2 POP POP JUMP JUMPDEST POP JUMP JUMPDEST PUSH0 PUSH2 0x62D PUSH0 DUP4 PUSH2 0x590 JUMP JUMPDEST SWAP2 POP PUSH2 0x638 DUP3 PUSH2 0x61F JUMP JUMPDEST PUSH0 DUP3 ADD SWAP1 POP SWAP2 SWAP1 POP JUMP JUMPDEST PUSH0 PUSH2 0x64C DUP3 PUSH2 0x622 JUMP JUMPDEST SWAP2 POP DUP2 SWAP1 POP SWAP2 SWAP1 POP JUMP INVALID LOG2 PUSH5 0x6970667358 0x22 SLT KECCAK256 CALLVALUE 0xC3 GT SWAP7 PUSH16 0x3E0F9859CB7FCFAEBE35662DF893A98F CALLER 0xDB PUSH7 0x58C548B67F297F 0xB6 PUSH5 0x736F6C6343 STOP ADDMOD XOR STOP CALLER "
				},
				"gasEstimates": {
					"creation": {
						"codeDepositCost": "335200",
						"executionCost": "372",
						"totalCost": "335572"
					},
					"external": {
						"testCall(address,uint256,string)": "infinite",
						"triggerFallback(address)": "infinite"
					}
				},
				"methodIdentifiers": {
					"testCall(address,uint256,string)": "13dcb81b",
					"triggerFallback(address)": "98704986"
				}
			},
			"storageLayout": {
				"storage": [],
				"types": null
			},
			"userdoc": {
				"kind": "user",
				"methods": {},
				"version": 1
			}
		}
	}
}