{
	"contracts/Modifier.sol": {
		"Modifier": {
			"abi": [
				{
					"inputs": [],
					"stateMutability": "nonpayable",
					"type": "constructor"
				},
				{
					"inputs": [
						{
							"internalType": "uint256",
							"name": "_orderId",
							"type": "uint256"
						}
					],
					"name": "advanceOrder",
					"outputs": [],
					"stateMutability": "nonpayable",
					"type": "function"
				},
				{
					"inputs": [
						{
							"internalType": "string",
							"name": "_zipCode",
							"type": "string"
						},
						{
							"internalType": "uint256[]",
							"name": "_products",
							"type": "uint256[]"
						}
					],
					"name": "createOrder",
					"outputs": [
						{
							"internalType": "uint256",
							"name": "",
							"type": "uint256"
						}
					],
					"stateMutability": "nonpayable",
					"type": "function"
				},
				{
					"inputs": [
						{
							"internalType": "uint256",
							"name": "_orderId",
							"type": "uint256"
						}
					],
					"name": "getOrder",
					"outputs": [
						{
							"components": [
								{
									"internalType": "address",
									"name": "customer",
									"type": "address"
								},
								{
									"internalType": "string",
									"name": "zipCode",
									"type": "string"
								},
								{
									"internalType": "uint256[]",
									"name": "products",
									"type": "uint256[]"
								},
								{
									"internalType": "enum Modifier.Status",
									"name": "status",
									"type": "uint8"
								}
							],
							"internalType": "struct Modifier.Order",
							"name": "",
							"type": "tuple"
						}
					],
					"stateMutability": "view",
					"type": "function"
				},
				{
					"inputs": [
						{
							"internalType": "uint256",
							"name": "",
							"type": "uint256"
						}
					],
					"name": "orders",
					"outputs": [
						{
							"internalType": "address",
							"name": "customer",
							"type": "address"
						},
						{
							"internalType": "string",
							"name": "zipCode",
							"type": "string"
						},
						{
							"internalType": "enum Modifier.Status",
							"name": "status",
							"type": "uint8"
						}
					],
					"stateMutability": "view",
					"type": "function"
				},
				{
					"inputs": [],
					"name": "owner",
					"outputs": [
						{
							"internalType": "address",
							"name": "",
							"type": "address"
						}
					],
					"stateMutability": "view",
					"type": "function"
				},
				{
					"inputs": [],
					"name": "txCount",
					"outputs": [
						{
							"internalType": "uint256",
							"name": "",
							"type": "uint256"
						}
					],
					"stateMutability": "view",
					"type": "function"
				},
				{
					"inputs": [
						{
							"internalType": "uint256",
							"name": "_orderId",
							"type": "uint256"
						},
						{
							"internalType": "string",
							"name": "_zip",
							"type": "string"
						}
					],
					"name": "updateZip",
					"outputs": [],
					"stateMutability": "nonpayable",
					"type": "function"
				}
			],
			"devdoc": {
				"kind": "dev",
				"methods": {},
				"version": 1
			},
			"evm": {
				"assembly": "    /* \"contracts/Modifier.sol\":56:3080  contract Modifier {... */\n  mstore(0x40, 0x80)\n    /* \"contracts/Modifier.sol\":380:429  constructor() {... */\n  callvalue\n  dup1\n  iszero\n  tag_1\n  jumpi\n  0x00\n  dup1\n  revert\ntag_1:\n  pop\n    /* \"contracts/Modifier.sol\":412:422  msg.sender */\n  caller\n    /* \"contracts/Modifier.sol\":404:409  owner */\n  0x01\n  0x00\n    /* \"contracts/Modifier.sol\":404:422  owner = msg.sender */\n  0x0100\n  exp\n  dup2\n  sload\n  dup2\n  0xffffffffffffffffffffffffffffffffffffffff\n  mul\n  not\n  and\n  swap1\n  dup4\n  0xffffffffffffffffffffffffffffffffffffffff\n  and\n  mul\n  or\n  swap1\n  sstore\n  pop\n    /* \"contracts/Modifier.sol\":56:3080  contract Modifier {... */\n  dataSize(sub_0)\n  dup1\n  dataOffset(sub_0)\n  0x00\n  codecopy\n  0x00\n  return\nstop\n\nsub_0: assembly {\n        /* \"contracts/Modifier.sol\":56:3080  contract Modifier {... */\n      mstore(0x40, 0x80)\n      callvalue\n      dup1\n      iszero\n      tag_1\n      jumpi\n      0x00\n      dup1\n      revert\n    tag_1:\n      pop\n      jumpi(tag_2, lt(calldatasize, 0x04))\n      shr(0xe0, calldataload(0x00))\n      dup1\n      0x8da5cb5b\n      gt\n      tag_10\n      jumpi\n      dup1\n      0x8da5cb5b\n      eq\n      tag_6\n      jumpi\n      dup1\n      0xa85c38ef\n      eq\n      tag_7\n      jumpi\n      dup1\n      0xafe13a62\n      eq\n      tag_8\n      jumpi\n      dup1\n      0xd09ef241\n      eq\n      tag_9\n      jumpi\n      jump(tag_2)\n    tag_10:\n      dup1\n      0x3c540687\n      eq\n      tag_3\n      jumpi\n      dup1\n      0x577dc0a0\n      eq\n      tag_4\n      jumpi\n      dup1\n      0x6d9a65d8\n      eq\n      tag_5\n      jumpi\n    tag_2:\n      0x00\n      dup1\n      revert\n        /* \"contracts/Modifier.sol\":351:373  uint256 public txCount */\n    tag_3:\n      tag_11\n      tag_12\n      jump\t// in\n    tag_11:\n      mload(0x40)\n      tag_13\n      swap2\n      swap1\n      tag_14\n      jump\t// in\n    tag_13:\n      mload(0x40)\n      dup1\n      swap2\n      sub\n      swap1\n      return\n        /* \"contracts/Modifier.sol\":1848:2211  function updateZip(uint256 _orderId, string memory _zip) checkOrderId(_orderId) onlyCustomer(_orderId) incTx external {... */\n    tag_4:\n      tag_15\n      0x04\n      dup1\n      calldatasize\n      sub\n      dup2\n      add\n      swap1\n      tag_16\n      swap2\n      swap1\n      tag_17\n      jump\t// in\n    tag_16:\n      tag_18\n      jump\t// in\n    tag_15:\n      stop\n        /* \"contracts/Modifier.sol\":534:973  function createOrder(string memory _zipCode, uint256[] memory _products) checkProducts(_products) incTx external returns(uint256) {... */\n    tag_5:\n      tag_19\n      0x04\n      dup1\n      calldatasize\n      sub\n      dup2\n      add\n      swap1\n      tag_20\n      swap2\n      swap1\n      tag_21\n      jump\t// in\n    tag_20:\n      tag_22\n      jump\t// in\n    tag_19:\n      mload(0x40)\n      tag_23\n      swap2\n      swap1\n      tag_14\n      jump\t// in\n    tag_23:\n      mload(0x40)\n      dup1\n      swap2\n      sub\n      swap1\n      return\n        /* \"contracts/Modifier.sol\":325:345  address public owner */\n    tag_6:\n      tag_24\n      tag_25\n      jump\t// in\n    tag_24:\n      mload(0x40)\n      tag_26\n      swap2\n      swap1\n      tag_27\n      jump\t// in\n    tag_26:\n      mload(0x40)\n      dup1\n      swap2\n      sub\n      swap1\n      return\n        /* \"contracts/Modifier.sol\":298:319  Order[] public orders */\n    tag_7:\n      tag_28\n      0x04\n      dup1\n      calldatasize\n      sub\n      dup2\n      add\n      swap1\n      tag_29\n      swap2\n      swap1\n      tag_30\n      jump\t// in\n    tag_29:\n      tag_31\n      jump\t// in\n    tag_28:\n      mload(0x40)\n      tag_32\n      swap4\n      swap3\n      swap2\n      swap1\n      tag_33\n      jump\t// in\n    tag_32:\n      mload(0x40)\n      dup1\n      swap2\n      sub\n      swap1\n      return\n        /* \"contracts/Modifier.sol\":979:1624  function advanceOrder(uint256 _orderId) checkOrderId(_orderId) onlyOwner external {... */\n    tag_8:\n      tag_34\n      0x04\n      dup1\n      calldatasize\n      sub\n      dup2\n      add\n      swap1\n      tag_35\n      swap2\n      swap1\n      tag_30\n      jump\t// in\n    tag_35:\n      tag_36\n      jump\t// in\n    tag_34:\n      stop\n        /* \"contracts/Modifier.sol\":1630:1842  function getOrder(uint256 _orderId) checkOrderId(_orderId) external view returns (Order memory) {... */\n    tag_9:\n      tag_37\n      0x04\n      dup1\n      calldatasize\n      sub\n      dup2\n      add\n      swap1\n      tag_38\n      swap2\n      swap1\n      tag_30\n      jump\t// in\n    tag_38:\n      tag_39\n      jump\t// in\n    tag_37:\n      mload(0x40)\n      tag_40\n      swap2\n      swap1\n      tag_41\n      jump\t// in\n    tag_40:\n      mload(0x40)\n      dup1\n      swap2\n      sub\n      swap1\n      return\n        /* \"contracts/Modifier.sol\":351:373  uint256 public txCount */\n    tag_12:\n      sload(0x02)\n      dup2\n      jump\t// out\n        /* \"contracts/Modifier.sol\":1848:2211  function updateZip(uint256 _orderId, string memory _zip) checkOrderId(_orderId) onlyCustomer(_orderId) incTx external {... */\n    tag_18:\n        /* \"contracts/Modifier.sol\":1918:1926  _orderId */\n      dup2\n        /* \"contracts/Modifier.sol\":2693:2699  orders */\n      0x00\n        /* \"contracts/Modifier.sol\":2693:2706  orders.length */\n      dup1\n      sload\n      swap1\n      pop\n        /* \"contracts/Modifier.sol\":2682:2690  _orderId */\n      dup2\n        /* \"contracts/Modifier.sol\":2682:2706  _orderId < orders.length */\n      lt\n        /* \"contracts/Modifier.sol\":2674:2732  require(_orderId < orders.length, \"Not a valid order id.\") */\n      tag_43\n      jumpi\n      mload(0x40)\n      0x08c379a000000000000000000000000000000000000000000000000000000000\n      dup2\n      mstore\n      0x04\n      add\n      tag_44\n      swap1\n      tag_45\n      jump\t// in\n    tag_44:\n      mload(0x40)\n      dup1\n      swap2\n      sub\n      swap1\n      revert\n    tag_43:\n        /* \"contracts/Modifier.sol\":1941:1949  _orderId */\n      dup3\n        /* \"contracts/Modifier.sol\":3009:3019  msg.sender */\n      caller\n        /* \"contracts/Modifier.sol\":2980:3019  orders[_orderId].customer == msg.sender */\n      0xffffffffffffffffffffffffffffffffffffffff\n      and\n        /* \"contracts/Modifier.sol\":2980:2986  orders */\n      0x00\n        /* \"contracts/Modifier.sol\":2987:2995  _orderId */\n      dup3\n        /* \"contracts/Modifier.sol\":2980:2996  orders[_orderId] */\n      dup2\n      sload\n      dup2\n      lt\n      tag_47\n      jumpi\n      tag_48\n      tag_49\n      jump\t// in\n    tag_48:\n    tag_47:\n      swap1\n      0x00\n      mstore\n      keccak256(0x00, 0x20)\n      swap1\n      0x04\n      mul\n      add\n        /* \"contracts/Modifier.sol\":2980:3005  orders[_orderId].customer */\n      0x00\n      add\n      0x00\n      swap1\n      sload\n      swap1\n      0x0100\n      exp\n      swap1\n      div\n      0xffffffffffffffffffffffffffffffffffffffff\n      and\n        /* \"contracts/Modifier.sol\":2980:3019  orders[_orderId].customer == msg.sender */\n      0xffffffffffffffffffffffffffffffffffffffff\n      and\n      eq\n        /* \"contracts/Modifier.sol\":2972:3059  require(orders[_orderId].customer == msg.sender, \"You are not the owner of the order.\") */\n      tag_51\n      jumpi\n      mload(0x40)\n      0x08c379a000000000000000000000000000000000000000000000000000000000\n      dup2\n      mstore\n      0x04\n      add\n      tag_52\n      swap1\n      tag_53\n      jump\t// in\n    tag_52:\n      mload(0x40)\n      dup1\n      swap2\n      sub\n      swap1\n      revert\n    tag_51:\n        /* \"contracts/Modifier.sol\":2047:2066  Order storage order */\n      0x00\n        /* \"contracts/Modifier.sol\":2069:2075  orders */\n      dup1\n        /* \"contracts/Modifier.sol\":2076:2084  _orderId */\n      dup6\n        /* \"contracts/Modifier.sol\":2069:2085  orders[_orderId] */\n      dup2\n      sload\n      dup2\n      lt\n      tag_56\n      jumpi\n      tag_57\n      tag_49\n      jump\t// in\n    tag_57:\n    tag_56:\n      swap1\n      0x00\n      mstore\n      keccak256(0x00, 0x20)\n      swap1\n      0x04\n      mul\n      add\n        /* \"contracts/Modifier.sol\":2047:2085  Order storage order = orders[_orderId] */\n      swap1\n      pop\n        /* \"contracts/Modifier.sol\":2200:2204  _zip */\n      dup4\n        /* \"contracts/Modifier.sol\":2184:2189  order */\n      dup2\n        /* \"contracts/Modifier.sol\":2184:2197  order.zipCode */\n      0x01\n      add\n        /* \"contracts/Modifier.sol\":2184:2204  order.zipCode = _zip */\n      swap1\n      dup2\n      tag_59\n      swap2\n      swap1\n      tag_60\n      jump\t// in\n    tag_59:\n      pop\n        /* \"contracts/Modifier.sol\":1966:2211  {... */\n      pop\n        /* \"contracts/Modifier.sol\":2792:2799  txCount */\n      0x02\n      0x00\n        /* \"contracts/Modifier.sol\":2792:2801  txCount++ */\n      dup2\n      sload\n      dup1\n      swap3\n      swap2\n      swap1\n      tag_61\n      swap1\n      tag_62\n      jump\t// in\n    tag_61:\n      swap2\n      swap1\n      pop\n      sstore\n      pop\n        /* \"contracts/Modifier.sol\":2742:2743  _ */\n      pop\n        /* \"contracts/Modifier.sol\":1848:2211  function updateZip(uint256 _orderId, string memory _zip) checkOrderId(_orderId) onlyCustomer(_orderId) incTx external {... */\n      pop\n      pop\n      pop\n      jump\t// out\n        /* \"contracts/Modifier.sol\":534:973  function createOrder(string memory _zipCode, uint256[] memory _products) checkProducts(_products) incTx external returns(uint256) {... */\n    tag_22:\n        /* \"contracts/Modifier.sol\":655:662  uint256 */\n      0x00\n        /* \"contracts/Modifier.sol\":621:630  _products */\n      dup2\n        /* \"contracts/Modifier.sol\":2577:2578  0 */\n      0x00\n        /* \"contracts/Modifier.sol\":2558:2567  _products */\n      dup2\n        /* \"contracts/Modifier.sol\":2558:2574  _products.length */\n      mload\n        /* \"contracts/Modifier.sol\":2558:2578  _products.length > 0 */\n      gt\n        /* \"contracts/Modifier.sol\":2550:2595  require(_products.length > 0, \"No products.\") */\n      tag_64\n      jumpi\n      mload(0x40)\n      0x08c379a000000000000000000000000000000000000000000000000000000000\n      dup2\n      mstore\n      0x04\n      add\n      tag_65\n      swap1\n      tag_66\n      jump\t// in\n    tag_65:\n      mload(0x40)\n      dup1\n      swap2\n      sub\n      swap1\n      revert\n    tag_64:\n        /* \"contracts/Modifier.sol\":733:751  Order memory order */\n      tag_69\n      tag_70\n      jump\t// in\n    tag_69:\n        /* \"contracts/Modifier.sol\":778:788  msg.sender */\n      caller\n        /* \"contracts/Modifier.sol\":761:766  order */\n      dup2\n        /* \"contracts/Modifier.sol\":761:775  order.customer */\n      0x00\n      add\n        /* \"contracts/Modifier.sol\":761:788  order.customer = msg.sender */\n      swap1\n      0xffffffffffffffffffffffffffffffffffffffff\n      and\n      swap1\n      dup2\n      0xffffffffffffffffffffffffffffffffffffffff\n      and\n      dup2\n      mstore\n      pop\n      pop\n        /* \"contracts/Modifier.sol\":814:822  _zipCode */\n      dup5\n        /* \"contracts/Modifier.sol\":798:803  order */\n      dup2\n        /* \"contracts/Modifier.sol\":798:811  order.zipCode */\n      0x20\n      add\n        /* \"contracts/Modifier.sol\":798:822  order.zipCode = _zipCode */\n      dup2\n      swap1\n      mstore\n      pop\n        /* \"contracts/Modifier.sol\":849:858  _products */\n      dup4\n        /* \"contracts/Modifier.sol\":832:837  order */\n      dup2\n        /* \"contracts/Modifier.sol\":832:846  order.products */\n      0x40\n      add\n        /* \"contracts/Modifier.sol\":832:858  order.products = _products */\n      dup2\n      swap1\n      mstore\n      pop\n        /* \"contracts/Modifier.sol\":883:895  Status.Taken */\n      0x00\n        /* \"contracts/Modifier.sol\":868:873  order */\n      dup2\n        /* \"contracts/Modifier.sol\":868:880  order.status */\n      0x60\n      add\n        /* \"contracts/Modifier.sol\":868:895  order.status = Status.Taken */\n      swap1\n      0x03\n      dup2\n      gt\n      iszero\n      tag_71\n      jumpi\n      tag_72\n      tag_73\n      jump\t// in\n    tag_72:\n    tag_71:\n      swap1\n      dup2\n      0x03\n      dup2\n      gt\n      iszero\n      tag_74\n      jumpi\n      tag_75\n      tag_73\n      jump\t// in\n    tag_75:\n    tag_74:\n      dup2\n      mstore\n      pop\n      pop\n        /* \"contracts/Modifier.sol\":905:911  orders */\n      0x00\n        /* \"contracts/Modifier.sol\":917:922  order */\n      dup2\n        /* \"contracts/Modifier.sol\":905:923  orders.push(order) */\n      swap1\n      dup1\n      0x01\n      dup2\n      sload\n      add\n      dup1\n      dup3\n      sstore\n      dup1\n      swap2\n      pop\n      pop\n      0x01\n      swap1\n      sub\n      swap1\n      0x00\n      mstore\n      keccak256(0x00, 0x20)\n      swap1\n      0x04\n      mul\n      add\n      0x00\n      swap1\n      swap2\n      swap1\n      swap2\n      swap1\n      swap2\n      pop\n      0x00\n      dup3\n      add\n      mload\n      dup2\n      0x00\n      add\n      exp(0x0100, 0x00)\n      dup2\n      sload\n      dup2\n      0xffffffffffffffffffffffffffffffffffffffff\n      mul\n      not\n      and\n      swap1\n      dup4\n      0xffffffffffffffffffffffffffffffffffffffff\n      and\n      mul\n      or\n      swap1\n      sstore\n      pop\n      0x20\n      dup3\n      add\n      mload\n      dup2\n      0x01\n      add\n      swap1\n      dup2\n      tag_77\n      swap2\n      swap1\n      tag_60\n      jump\t// in\n    tag_77:\n      pop\n      0x40\n      dup3\n      add\n      mload\n      dup2\n      0x02\n      add\n      swap1\n      dup1\n      mload\n      swap1\n      0x20\n      add\n      swap1\n      tag_78\n      swap3\n      swap2\n      swap1\n      tag_79\n      jump\t// in\n    tag_78:\n      pop\n      0x60\n      dup3\n      add\n      mload\n      dup2\n      0x03\n      add\n      exp(0x0100, 0x00)\n      dup2\n      sload\n      dup2\n      0xff\n      mul\n      not\n      and\n      swap1\n      dup4\n      0x03\n      dup2\n      gt\n      iszero\n      tag_80\n      jumpi\n      tag_81\n      tag_73\n      jump\t// in\n    tag_81:\n    tag_80:\n      mul\n      or\n      swap1\n      sstore\n      pop\n      pop\n      pop\n        /* \"contracts/Modifier.sol\":965:966  1 */\n      0x01\n        /* \"contracts/Modifier.sol\":949:955  orders */\n      0x00\n        /* \"contracts/Modifier.sol\":949:962  orders.length */\n      dup1\n      sload\n      swap1\n      pop\n        /* \"contracts/Modifier.sol\":949:966  orders.length - 1 */\n      tag_82\n      swap2\n      swap1\n      tag_83\n      jump\t// in\n    tag_82:\n        /* \"contracts/Modifier.sol\":942:966  return orders.length - 1 */\n      swap3\n      pop\n      pop\n        /* \"contracts/Modifier.sol\":2792:2799  txCount */\n      0x02\n      0x00\n        /* \"contracts/Modifier.sol\":2792:2801  txCount++ */\n      dup2\n      sload\n      dup1\n      swap3\n      swap2\n      swap1\n      tag_84\n      swap1\n      tag_62\n      jump\t// in\n    tag_84:\n      swap2\n      swap1\n      pop\n      sstore\n      pop\n        /* \"contracts/Modifier.sol\":534:973  function createOrder(string memory _zipCode, uint256[] memory _products) checkProducts(_products) incTx external returns(uint256) {... */\n      pop\n      swap3\n      swap2\n      pop\n      pop\n      jump\t// out\n        /* \"contracts/Modifier.sol\":325:345  address public owner */\n    tag_25:\n      0x01\n      0x00\n      swap1\n      sload\n      swap1\n      0x0100\n      exp\n      swap1\n      div\n      0xffffffffffffffffffffffffffffffffffffffff\n      and\n      dup2\n      jump\t// out\n        /* \"contracts/Modifier.sol\":298:319  Order[] public orders */\n    tag_31:\n      0x00\n      dup2\n      dup2\n      sload\n      dup2\n      lt\n      tag_85\n      jumpi\n      0x00\n      dup1\n      revert\n    tag_85:\n      swap1\n      0x00\n      mstore\n      keccak256(0x00, 0x20)\n      swap1\n      0x04\n      mul\n      add\n      0x00\n      swap2\n      pop\n      swap1\n      pop\n      dup1\n      0x00\n      add\n      0x00\n      swap1\n      sload\n      swap1\n      0x0100\n      exp\n      swap1\n      div\n      0xffffffffffffffffffffffffffffffffffffffff\n      and\n      swap1\n      dup1\n      0x01\n      add\n      dup1\n      sload\n      tag_87\n      swap1\n      tag_88\n      jump\t// in\n    tag_87:\n      dup1\n      0x1f\n      add\n      0x20\n      dup1\n      swap2\n      div\n      mul\n      0x20\n      add\n      mload(0x40)\n      swap1\n      dup2\n      add\n      0x40\n      mstore\n      dup1\n      swap3\n      swap2\n      swap1\n      dup2\n      dup2\n      mstore\n      0x20\n      add\n      dup3\n      dup1\n      sload\n      tag_89\n      swap1\n      tag_88\n      jump\t// in\n    tag_89:\n      dup1\n      iszero\n      tag_90\n      jumpi\n      dup1\n      0x1f\n      lt\n      tag_91\n      jumpi\n      0x0100\n      dup1\n      dup4\n      sload\n      div\n      mul\n      dup4\n      mstore\n      swap2\n      0x20\n      add\n      swap2\n      jump(tag_90)\n    tag_91:\n      dup3\n      add\n      swap2\n      swap1\n      0x00\n      mstore\n      keccak256(0x00, 0x20)\n      swap1\n    tag_92:\n      dup2\n      sload\n      dup2\n      mstore\n      swap1\n      0x01\n      add\n      swap1\n      0x20\n      add\n      dup1\n      dup4\n      gt\n      tag_92\n      jumpi\n      dup3\n      swap1\n      sub\n      0x1f\n      and\n      dup3\n      add\n      swap2\n    tag_90:\n      pop\n      pop\n      pop\n      pop\n      pop\n      swap1\n      dup1\n      0x03\n      add\n      0x00\n      swap1\n      sload\n      swap1\n      0x0100\n      exp\n      swap1\n      div\n      0xff\n      and\n      swap1\n      pop\n      dup4\n      jump\t// out\n        /* \"contracts/Modifier.sol\":979:1624  function advanceOrder(uint256 _orderId) checkOrderId(_orderId) onlyOwner external {... */\n    tag_36:\n        /* \"contracts/Modifier.sol\":1032:1040  _orderId */\n      dup1\n        /* \"contracts/Modifier.sol\":2693:2699  orders */\n      0x00\n        /* \"contracts/Modifier.sol\":2693:2706  orders.length */\n      dup1\n      sload\n      swap1\n      pop\n        /* \"contracts/Modifier.sol\":2682:2690  _orderId */\n      dup2\n        /* \"contracts/Modifier.sol\":2682:2706  _orderId < orders.length */\n      lt\n        /* \"contracts/Modifier.sol\":2674:2732  require(_orderId < orders.length, \"Not a valid order id.\") */\n      tag_94\n      jumpi\n      mload(0x40)\n      0x08c379a000000000000000000000000000000000000000000000000000000000\n      dup2\n      mstore\n      0x04\n      add\n      tag_95\n      swap1\n      tag_45\n      jump\t// in\n    tag_95:\n      mload(0x40)\n      dup1\n      swap2\n      sub\n      swap1\n      revert\n    tag_94:\n        /* \"contracts/Modifier.sol\":2860:2870  msg.sender */\n      caller\n        /* \"contracts/Modifier.sol\":2851:2870  owner == msg.sender */\n      0xffffffffffffffffffffffffffffffffffffffff\n      and\n        /* \"contracts/Modifier.sol\":2851:2856  owner */\n      0x01\n      0x00\n      swap1\n      sload\n      swap1\n      0x0100\n      exp\n      swap1\n      div\n      0xffffffffffffffffffffffffffffffffffffffff\n      and\n        /* \"contracts/Modifier.sol\":2851:2870  owner == msg.sender */\n      0xffffffffffffffffffffffffffffffffffffffff\n      and\n      eq\n        /* \"contracts/Modifier.sol\":2843:2898  require(owner == msg.sender, \"You are not authorized.\") */\n      tag_97\n      jumpi\n      mload(0x40)\n      0x08c379a000000000000000000000000000000000000000000000000000000000\n      dup2\n      mstore\n      0x04\n      add\n      tag_98\n      swap1\n      tag_99\n      jump\t// in\n    tag_98:\n      mload(0x40)\n      dup1\n      swap2\n      sub\n      swap1\n      revert\n    tag_97:\n        /* \"contracts/Modifier.sol\":1211:1230  Order storage order */\n      0x00\n        /* \"contracts/Modifier.sol\":1233:1239  orders */\n      dup1\n        /* \"contracts/Modifier.sol\":1240:1248  _orderId */\n      dup4\n        /* \"contracts/Modifier.sol\":1233:1249  orders[_orderId] */\n      dup2\n      sload\n      dup2\n      lt\n      tag_101\n      jumpi\n      tag_102\n      tag_49\n      jump\t// in\n    tag_102:\n    tag_101:\n      swap1\n      0x00\n      mstore\n      keccak256(0x00, 0x20)\n      swap1\n      0x04\n      mul\n      add\n        /* \"contracts/Modifier.sol\":1211:1249  Order storage order = orders[_orderId] */\n      swap1\n      pop\n        /* \"contracts/Modifier.sol\":1283:1297  Status.Shipped */\n      0x03\n        /* \"contracts/Modifier.sol\":1267:1297  order.status != Status.Shipped */\n      dup1\n      dup2\n      gt\n      iszero\n      tag_104\n      jumpi\n      tag_105\n      tag_73\n      jump\t// in\n    tag_105:\n    tag_104:\n        /* \"contracts/Modifier.sol\":1267:1272  order */\n      dup2\n        /* \"contracts/Modifier.sol\":1267:1279  order.status */\n      0x03\n      add\n      0x00\n      swap1\n      sload\n      swap1\n      0x0100\n      exp\n      swap1\n      div\n      0xff\n      and\n        /* \"contracts/Modifier.sol\":1267:1297  order.status != Status.Shipped */\n      0x03\n      dup2\n      gt\n      iszero\n      tag_106\n      jumpi\n      tag_107\n      tag_73\n      jump\t// in\n    tag_107:\n    tag_106:\n      sub\n        /* \"contracts/Modifier.sol\":1259:1327  require(order.status != Status.Shipped, \"Order is already shipped.\") */\n      tag_108\n      jumpi\n      mload(0x40)\n      0x08c379a000000000000000000000000000000000000000000000000000000000\n      dup2\n      mstore\n      0x04\n      add\n      tag_109\n      swap1\n      tag_110\n      jump\t// in\n    tag_109:\n      mload(0x40)\n      dup1\n      swap2\n      sub\n      swap1\n      revert\n    tag_108:\n        /* \"contracts/Modifier.sol\":1358:1370  Status.Taken */\n      0x00\n        /* \"contracts/Modifier.sol\":1342:1370  order.status == Status.Taken */\n      0x03\n      dup2\n      gt\n      iszero\n      tag_111\n      jumpi\n      tag_112\n      tag_73\n      jump\t// in\n    tag_112:\n    tag_111:\n        /* \"contracts/Modifier.sol\":1342:1347  order */\n      dup2\n        /* \"contracts/Modifier.sol\":1342:1354  order.status */\n      0x03\n      add\n      0x00\n      swap1\n      sload\n      swap1\n      0x0100\n      exp\n      swap1\n      div\n      0xff\n      and\n        /* \"contracts/Modifier.sol\":1342:1370  order.status == Status.Taken */\n      0x03\n      dup2\n      gt\n      iszero\n      tag_113\n      jumpi\n      tag_114\n      tag_73\n      jump\t// in\n    tag_114:\n    tag_113:\n      sub\n        /* \"contracts/Modifier.sol\":1338:1618  if (order.status == Status.Taken) {... */\n      tag_115\n      jumpi\n        /* \"contracts/Modifier.sol\":1401:1417  Status.Preparing */\n      0x01\n        /* \"contracts/Modifier.sol\":1386:1391  order */\n      dup2\n        /* \"contracts/Modifier.sol\":1386:1398  order.status */\n      0x03\n      add\n      0x00\n        /* \"contracts/Modifier.sol\":1386:1417  order.status = Status.Preparing */\n      0x0100\n      exp\n      dup2\n      sload\n      dup2\n      0xff\n      mul\n      not\n      and\n      swap1\n      dup4\n      0x03\n      dup2\n      gt\n      iszero\n      tag_116\n      jumpi\n      tag_117\n      tag_73\n      jump\t// in\n    tag_117:\n    tag_116:\n      mul\n      or\n      swap1\n      sstore\n      pop\n        /* \"contracts/Modifier.sol\":1338:1618  if (order.status == Status.Taken) {... */\n      jump(tag_118)\n    tag_115:\n        /* \"contracts/Modifier.sol\":1454:1470  Status.Preparing */\n      0x01\n        /* \"contracts/Modifier.sol\":1438:1470  order.status == Status.Preparing */\n      0x03\n      dup2\n      gt\n      iszero\n      tag_119\n      jumpi\n      tag_120\n      tag_73\n      jump\t// in\n    tag_120:\n    tag_119:\n        /* \"contracts/Modifier.sol\":1438:1443  order */\n      dup2\n        /* \"contracts/Modifier.sol\":1438:1450  order.status */\n      0x03\n      add\n      0x00\n      swap1\n      sload\n      swap1\n      0x0100\n      exp\n      swap1\n      div\n      0xff\n      and\n        /* \"contracts/Modifier.sol\":1438:1470  order.status == Status.Preparing */\n      0x03\n      dup2\n      gt\n      iszero\n      tag_121\n      jumpi\n      tag_122\n      tag_73\n      jump\t// in\n    tag_122:\n    tag_121:\n      sub\n        /* \"contracts/Modifier.sol\":1434:1618  if (order.status == Status.Preparing) {... */\n      tag_123\n      jumpi\n        /* \"contracts/Modifier.sol\":1501:1513  Status.Boxed */\n      0x02\n        /* \"contracts/Modifier.sol\":1486:1491  order */\n      dup2\n        /* \"contracts/Modifier.sol\":1486:1498  order.status */\n      0x03\n      add\n      0x00\n        /* \"contracts/Modifier.sol\":1486:1513  order.status = Status.Boxed */\n      0x0100\n      exp\n      dup2\n      sload\n      dup2\n      0xff\n      mul\n      not\n      and\n      swap1\n      dup4\n      0x03\n      dup2\n      gt\n      iszero\n      tag_124\n      jumpi\n      tag_125\n      tag_73\n      jump\t// in\n    tag_125:\n    tag_124:\n      mul\n      or\n      swap1\n      sstore\n      pop\n        /* \"contracts/Modifier.sol\":1434:1618  if (order.status == Status.Preparing) {... */\n      jump(tag_126)\n    tag_123:\n        /* \"contracts/Modifier.sol\":1550:1562  Status.Boxed */\n      0x02\n        /* \"contracts/Modifier.sol\":1534:1562  order.status == Status.Boxed */\n      0x03\n      dup2\n      gt\n      iszero\n      tag_127\n      jumpi\n      tag_128\n      tag_73\n      jump\t// in\n    tag_128:\n    tag_127:\n        /* \"contracts/Modifier.sol\":1534:1539  order */\n      dup2\n        /* \"contracts/Modifier.sol\":1534:1546  order.status */\n      0x03\n      add\n      0x00\n      swap1\n      sload\n      swap1\n      0x0100\n      exp\n      swap1\n      div\n      0xff\n      and\n        /* \"contracts/Modifier.sol\":1534:1562  order.status == Status.Boxed */\n      0x03\n      dup2\n      gt\n      iszero\n      tag_129\n      jumpi\n      tag_130\n      tag_73\n      jump\t// in\n    tag_130:\n    tag_129:\n      sub\n        /* \"contracts/Modifier.sol\":1530:1618  if (order.status == Status.Boxed) {... */\n      tag_131\n      jumpi\n        /* \"contracts/Modifier.sol\":1593:1607  Status.Shipped */\n      0x03\n        /* \"contracts/Modifier.sol\":1578:1583  order */\n      dup2\n        /* \"contracts/Modifier.sol\":1578:1590  order.status */\n      0x03\n      add\n      0x00\n        /* \"contracts/Modifier.sol\":1578:1607  order.status = Status.Shipped */\n      0x0100\n      exp\n      dup2\n      sload\n      dup2\n      0xff\n      mul\n      not\n      and\n      swap1\n      dup4\n      0x03\n      dup2\n      gt\n      iszero\n      tag_132\n      jumpi\n      tag_133\n      tag_73\n      jump\t// in\n    tag_133:\n    tag_132:\n      mul\n      or\n      swap1\n      sstore\n      pop\n        /* \"contracts/Modifier.sol\":1530:1618  if (order.status == Status.Boxed) {... */\n    tag_131:\n        /* \"contracts/Modifier.sol\":1434:1618  if (order.status == Status.Preparing) {... */\n    tag_126:\n        /* \"contracts/Modifier.sol\":1338:1618  if (order.status == Status.Taken) {... */\n    tag_118:\n        /* \"contracts/Modifier.sol\":1061:1624  {... */\n      pop\n        /* \"contracts/Modifier.sol\":979:1624  function advanceOrder(uint256 _orderId) checkOrderId(_orderId) onlyOwner external {... */\n      pop\n      pop\n      jump\t// out\n        /* \"contracts/Modifier.sol\":1630:1842  function getOrder(uint256 _orderId) checkOrderId(_orderId) external view returns (Order memory) {... */\n    tag_39:\n        /* \"contracts/Modifier.sol\":1712:1724  Order memory */\n      tag_134\n      tag_70\n      jump\t// in\n    tag_134:\n        /* \"contracts/Modifier.sol\":1679:1687  _orderId */\n      dup2\n        /* \"contracts/Modifier.sol\":2693:2699  orders */\n      0x00\n        /* \"contracts/Modifier.sol\":2693:2706  orders.length */\n      dup1\n      sload\n      swap1\n      pop\n        /* \"contracts/Modifier.sol\":2682:2690  _orderId */\n      dup2\n        /* \"contracts/Modifier.sol\":2682:2706  _orderId < orders.length */\n      lt\n        /* \"contracts/Modifier.sol\":2674:2732  require(_orderId < orders.length, \"Not a valid order id.\") */\n      tag_136\n      jumpi\n      mload(0x40)\n      0x08c379a000000000000000000000000000000000000000000000000000000000\n      dup2\n      mstore\n      0x04\n      add\n      tag_137\n      swap1\n      tag_45\n      jump\t// in\n    tag_137:\n      mload(0x40)\n      dup1\n      swap2\n      sub\n      swap1\n      revert\n    tag_136:\n        /* \"contracts/Modifier.sol\":1819:1825  orders */\n      0x00\n        /* \"contracts/Modifier.sol\":1826:1834  _orderId */\n      dup4\n        /* \"contracts/Modifier.sol\":1819:1835  orders[_orderId] */\n      dup2\n      sload\n      dup2\n      lt\n      tag_139\n      jumpi\n      tag_140\n      tag_49\n      jump\t// in\n    tag_140:\n    tag_139:\n      swap1\n      0x00\n      mstore\n      keccak256(0x00, 0x20)\n      swap1\n      0x04\n      mul\n      add\n        /* \"contracts/Modifier.sol\":1812:1835  return orders[_orderId] */\n      mload(0x40)\n      dup1\n      0x80\n      add\n      0x40\n      mstore\n      swap1\n      dup2\n      0x00\n      dup3\n      add\n      0x00\n      swap1\n      sload\n      swap1\n      0x0100\n      exp\n      swap1\n      div\n      0xffffffffffffffffffffffffffffffffffffffff\n      and\n      0xffffffffffffffffffffffffffffffffffffffff\n      and\n      0xffffffffffffffffffffffffffffffffffffffff\n      and\n      dup2\n      mstore\n      0x20\n      add\n      0x01\n      dup3\n      add\n      dup1\n      sload\n      tag_142\n      swap1\n      tag_88\n      jump\t// in\n    tag_142:\n      dup1\n      0x1f\n      add\n      0x20\n      dup1\n      swap2\n      div\n      mul\n      0x20\n      add\n      mload(0x40)\n      swap1\n      dup2\n      add\n      0x40\n      mstore\n      dup1\n      swap3\n      swap2\n      swap1\n      dup2\n      dup2\n      mstore\n      0x20\n      add\n      dup3\n      dup1\n      sload\n      tag_143\n      swap1\n      tag_88\n      jump\t// in\n    tag_143:\n      dup1\n      iszero\n      tag_144\n      jumpi\n      dup1\n      0x1f\n      lt\n      tag_145\n      jumpi\n      0x0100\n      dup1\n      dup4\n      sload\n      div\n      mul\n      dup4\n      mstore\n      swap2\n      0x20\n      add\n      swap2\n      jump(tag_144)\n    tag_145:\n      dup3\n      add\n      swap2\n      swap1\n      0x00\n      mstore\n      keccak256(0x00, 0x20)\n      swap1\n    tag_146:\n      dup2\n      sload\n      dup2\n      mstore\n      swap1\n      0x01\n      add\n      swap1\n      0x20\n      add\n      dup1\n      dup4\n      gt\n      tag_146\n      jumpi\n      dup3\n      swap1\n      sub\n      0x1f\n      and\n      dup3\n      add\n      swap2\n    tag_144:\n      pop\n      pop\n      pop\n      pop\n      pop\n      dup2\n      mstore\n      0x20\n      add\n      0x02\n      dup3\n      add\n      dup1\n      sload\n      dup1\n      0x20\n      mul\n      0x20\n      add\n      mload(0x40)\n      swap1\n      dup2\n      add\n      0x40\n      mstore\n      dup1\n      swap3\n      swap2\n      swap1\n      dup2\n      dup2\n      mstore\n      0x20\n      add\n      dup3\n      dup1\n      sload\n      dup1\n      iszero\n      tag_147\n      jumpi\n      0x20\n      mul\n      dup3\n      add\n      swap2\n      swap1\n      0x00\n      mstore\n      keccak256(0x00, 0x20)\n      swap1\n    tag_148:\n      dup2\n      sload\n      dup2\n      mstore\n      0x20\n      add\n      swap1\n      0x01\n      add\n      swap1\n      dup1\n      dup4\n      gt\n      tag_148\n      jumpi\n    tag_147:\n      pop\n      pop\n      pop\n      pop\n      pop\n      dup2\n      mstore\n      0x20\n      add\n      0x03\n      dup3\n      add\n      0x00\n      swap1\n      sload\n      swap1\n      0x0100\n      exp\n      swap1\n      div\n      0xff\n      and\n      0x03\n      dup2\n      gt\n      iszero\n      tag_149\n      jumpi\n      tag_150\n      tag_73\n      jump\t// in\n    tag_150:\n    tag_149:\n      0x03\n      dup2\n      gt\n      iszero\n      tag_151\n      jumpi\n      tag_152\n      tag_73\n      jump\t// in\n    tag_152:\n    tag_151:\n      dup2\n      mstore\n      pop\n      pop\n      swap2\n      pop\n        /* \"contracts/Modifier.sol\":1630:1842  function getOrder(uint256 _orderId) checkOrderId(_orderId) external view returns (Order memory) {... */\n      pop\n      swap2\n      swap1\n      pop\n      jump\t// out\n    tag_70:\n      mload(0x40)\n      dup1\n      0x80\n      add\n      0x40\n      mstore\n      dup1\n      and(0xffffffffffffffffffffffffffffffffffffffff, 0x00)\n      dup2\n      mstore\n      0x20\n      add\n      0x60\n      dup2\n      mstore\n      0x20\n      add\n      0x60\n      dup2\n      mstore\n      0x20\n      add\n      0x00\n      0x03\n      dup2\n      gt\n      iszero\n      tag_153\n      jumpi\n      tag_154\n      tag_73\n      jump\t// in\n    tag_154:\n    tag_153:\n      dup2\n      mstore\n      pop\n      swap1\n      jump\t// out\n    tag_79:\n      dup3\n      dup1\n      sload\n      dup3\n      dup3\n      sstore\n      swap1\n      0x00\n      mstore\n      keccak256(0x00, 0x20)\n      swap1\n      dup2\n      add\n      swap3\n      dup3\n      iszero\n      tag_155\n      jumpi\n      swap2\n      0x20\n      mul\n      dup3\n      add\n    tag_156:\n      dup3\n      dup2\n      gt\n      iszero\n      tag_157\n      jumpi\n      dup3\n      mload\n      dup3\n      sstore\n      swap2\n      0x20\n      add\n      swap2\n      swap1\n      0x01\n      add\n      swap1\n      jump(tag_156)\n    tag_157:\n    tag_155:\n      pop\n      swap1\n      pop\n      tag_158\n      swap2\n      swap1\n      tag_159\n      jump\t// in\n    tag_158:\n      pop\n      swap1\n      jump\t// out\n    tag_159:\n    tag_160:\n      dup1\n      dup3\n      gt\n      iszero\n      tag_161\n      jumpi\n      0x00\n      dup2\n      0x00\n      swap1\n      sstore\n      pop\n      0x01\n      add\n      jump(tag_160)\n    tag_161:\n      pop\n      swap1\n      jump\t// out\n        /* \"#utility.yul\":7:84   */\n    tag_162:\n        /* \"#utility.yul\":44:51   */\n      0x00\n        /* \"#utility.yul\":73:78   */\n      dup2\n        /* \"#utility.yul\":62:78   */\n      swap1\n      pop\n        /* \"#utility.yul\":7:84   */\n      swap2\n      swap1\n      pop\n      jump\t// out\n        /* \"#utility.yul\":90:208   */\n    tag_163:\n        /* \"#utility.yul\":177:201   */\n      tag_236\n        /* \"#utility.yul\":195:200   */\n      dup2\n        /* \"#utility.yul\":177:201   */\n      tag_162\n      jump\t// in\n    tag_236:\n        /* \"#utility.yul\":172:175   */\n      dup3\n        /* \"#utility.yul\":165:202   */\n      mstore\n        /* \"#utility.yul\":90:208   */\n      pop\n      pop\n      jump\t// out\n        /* \"#utility.yul\":214:436   */\n    tag_14:\n        /* \"#utility.yul\":307:311   */\n      0x00\n        /* \"#utility.yul\":345:347   */\n      0x20\n        /* \"#utility.yul\":334:343   */\n      dup3\n        /* \"#utility.yul\":330:348   */\n      add\n        /* \"#utility.yul\":322:348   */\n      swap1\n      pop\n        /* \"#utility.yul\":358:429   */\n      tag_238\n        /* \"#utility.yul\":426:427   */\n      0x00\n        /* \"#utility.yul\":415:424   */\n      dup4\n        /* \"#utility.yul\":411:428   */\n      add\n        /* \"#utility.yul\":402:408   */\n      dup5\n        /* \"#utility.yul\":358:429   */\n      tag_163\n      jump\t// in\n    tag_238:\n        /* \"#utility.yul\":214:436   */\n      swap3\n      swap2\n      pop\n      pop\n      jump\t// out\n        /* \"#utility.yul\":442:517   */\n    tag_164:\n        /* \"#utility.yul\":475:481   */\n      0x00\n        /* \"#utility.yul\":508:510   */\n      0x40\n        /* \"#utility.yul\":502:511   */\n      mload\n        /* \"#utility.yul\":492:511   */\n      swap1\n      pop\n        /* \"#utility.yul\":442:517   */\n      swap1\n      jump\t// out\n        /* \"#utility.yul\":523:640   */\n    tag_165:\n        /* \"#utility.yul\":632:633   */\n      0x00\n        /* \"#utility.yul\":629:630   */\n      dup1\n        /* \"#utility.yul\":622:634   */\n      revert\n        /* \"#utility.yul\":646:763   */\n    tag_166:\n        /* \"#utility.yul\":755:756   */\n      0x00\n        /* \"#utility.yul\":752:753   */\n      dup1\n        /* \"#utility.yul\":745:757   */\n      revert\n        /* \"#utility.yul\":769:891   */\n    tag_167:\n        /* \"#utility.yul\":842:866   */\n      tag_243\n        /* \"#utility.yul\":860:865   */\n      dup2\n        /* \"#utility.yul\":842:866   */\n      tag_162\n      jump\t// in\n    tag_243:\n        /* \"#utility.yul\":835:840   */\n      dup2\n        /* \"#utility.yul\":832:867   */\n      eq\n        /* \"#utility.yul\":822:885   */\n      tag_244\n      jumpi\n        /* \"#utility.yul\":881:882   */\n      0x00\n        /* \"#utility.yul\":878:879   */\n      dup1\n        /* \"#utility.yul\":871:883   */\n      revert\n        /* \"#utility.yul\":822:885   */\n    tag_244:\n        /* \"#utility.yul\":769:891   */\n      pop\n      jump\t// out\n        /* \"#utility.yul\":897:1036   */\n    tag_168:\n        /* \"#utility.yul\":943:948   */\n      0x00\n        /* \"#utility.yul\":981:987   */\n      dup2\n        /* \"#utility.yul\":968:988   */\n      calldataload\n        /* \"#utility.yul\":959:988   */\n      swap1\n      pop\n        /* \"#utility.yul\":997:1030   */\n      tag_246\n        /* \"#utility.yul\":1024:1029   */\n      dup2\n        /* \"#utility.yul\":997:1030   */\n      tag_167\n      jump\t// in\n    tag_246:\n        /* \"#utility.yul\":897:1036   */\n      swap3\n      swap2\n      pop\n      pop\n      jump\t// out\n        /* \"#utility.yul\":1042:1159   */\n    tag_169:\n        /* \"#utility.yul\":1151:1152   */\n      0x00\n        /* \"#utility.yul\":1148:1149   */\n      dup1\n        /* \"#utility.yul\":1141:1153   */\n      revert\n        /* \"#utility.yul\":1165:1282   */\n    tag_170:\n        /* \"#utility.yul\":1274:1275   */\n      0x00\n        /* \"#utility.yul\":1271:1272   */\n      dup1\n        /* \"#utility.yul\":1264:1276   */\n      revert\n        /* \"#utility.yul\":1288:1390   */\n    tag_171:\n        /* \"#utility.yul\":1329:1335   */\n      0x00\n        /* \"#utility.yul\":1380:1382   */\n      0x1f\n        /* \"#utility.yul\":1376:1383   */\n      not\n        /* \"#utility.yul\":1371:1373   */\n      0x1f\n        /* \"#utility.yul\":1364:1369   */\n      dup4\n        /* \"#utility.yul\":1360:1374   */\n      add\n        /* \"#utility.yul\":1356:1384   */\n      and\n        /* \"#utility.yul\":1346:1384   */\n      swap1\n      pop\n        /* \"#utility.yul\":1288:1390   */\n      swap2\n      swap1\n      pop\n      jump\t// out\n        /* \"#utility.yul\":1396:1576   */\n    tag_172:\n        /* \"#utility.yul\":1444:1521   */\n      0x4e487b7100000000000000000000000000000000000000000000000000000000\n        /* \"#utility.yul\":1441:1442   */\n      0x00\n        /* \"#utility.yul\":1434:1522   */\n      mstore\n        /* \"#utility.yul\":1541:1545   */\n      0x41\n        /* \"#utility.yul\":1538:1539   */\n      0x04\n        /* \"#utility.yul\":1531:1546   */\n      mstore\n        /* \"#utility.yul\":1565:1569   */\n      0x24\n        /* \"#utility.yul\":1562:1563   */\n      0x00\n        /* \"#utility.yul\":1555:1570   */\n      revert\n        /* \"#utility.yul\":1582:1863   */\n    tag_173:\n        /* \"#utility.yul\":1665:1692   */\n      tag_252\n        /* \"#utility.yul\":1687:1691   */\n      dup3\n        /* \"#utility.yul\":1665:1692   */\n      tag_171\n      jump\t// in\n    tag_252:\n        /* \"#utility.yul\":1657:1663   */\n      dup2\n        /* \"#utility.yul\":1653:1693   */\n      add\n        /* \"#utility.yul\":1795:1801   */\n      dup2\n        /* \"#utility.yul\":1783:1793   */\n      dup2\n        /* \"#utility.yul\":1780:1802   */\n      lt\n        /* \"#utility.yul\":1759:1777   */\n      0xffffffffffffffff\n        /* \"#utility.yul\":1747:1757   */\n      dup3\n        /* \"#utility.yul\":1744:1778   */\n      gt\n        /* \"#utility.yul\":1741:1803   */\n      or\n        /* \"#utility.yul\":1738:1826   */\n      iszero\n      tag_253\n      jumpi\n        /* \"#utility.yul\":1806:1824   */\n      tag_254\n      tag_172\n      jump\t// in\n    tag_254:\n        /* \"#utility.yul\":1738:1826   */\n    tag_253:\n        /* \"#utility.yul\":1846:1856   */\n      dup1\n        /* \"#utility.yul\":1842:1844   */\n      0x40\n        /* \"#utility.yul\":1835:1857   */\n      mstore\n        /* \"#utility.yul\":1625:1863   */\n      pop\n        /* \"#utility.yul\":1582:1863   */\n      pop\n      pop\n      jump\t// out\n        /* \"#utility.yul\":1869:1998   */\n    tag_174:\n        /* \"#utility.yul\":1903:1909   */\n      0x00\n        /* \"#utility.yul\":1930:1950   */\n      tag_256\n      tag_164\n      jump\t// in\n    tag_256:\n        /* \"#utility.yul\":1920:1950   */\n      swap1\n      pop\n        /* \"#utility.yul\":1959:1992   */\n      tag_257\n        /* \"#utility.yul\":1987:1991   */\n      dup3\n        /* \"#utility.yul\":1979:1985   */\n      dup3\n        /* \"#utility.yul\":1959:1992   */\n      tag_173\n      jump\t// in\n    tag_257:\n        /* \"#utility.yul\":1869:1998   */\n      swap2\n      swap1\n      pop\n      jump\t// out\n        /* \"#utility.yul\":2004:2312   */\n    tag_175:\n        /* \"#utility.yul\":2066:2070   */\n      0x00\n        /* \"#utility.yul\":2156:2174   */\n      0xffffffffffffffff\n        /* \"#utility.yul\":2148:2154   */\n      dup3\n        /* \"#utility.yul\":2145:2175   */\n      gt\n        /* \"#utility.yul\":2142:2198   */\n      iszero\n      tag_259\n      jumpi\n        /* \"#utility.yul\":2178:2196   */\n      tag_260\n      tag_172\n      jump\t// in\n    tag_260:\n        /* \"#utility.yul\":2142:2198   */\n    tag_259:\n        /* \"#utility.yul\":2216:2245   */\n      tag_261\n        /* \"#utility.yul\":2238:2244   */\n      dup3\n        /* \"#utility.yul\":2216:2245   */\n      tag_171\n      jump\t// in\n    tag_261:\n        /* \"#utility.yul\":2208:2245   */\n      swap1\n      pop\n        /* \"#utility.yul\":2300:2304   */\n      0x20\n        /* \"#utility.yul\":2294:2298   */\n      dup2\n        /* \"#utility.yul\":2290:2305   */\n      add\n        /* \"#utility.yul\":2282:2305   */\n      swap1\n      pop\n        /* \"#utility.yul\":2004:2312   */\n      swap2\n      swap1\n      pop\n      jump\t// out\n        /* \"#utility.yul\":2318:2464   */\n    tag_176:\n        /* \"#utility.yul\":2415:2421   */\n      dup3\n        /* \"#utility.yul\":2410:2413   */\n      dup2\n        /* \"#utility.yul\":2405:2408   */\n      dup4\n        /* \"#utility.yul\":2392:2422   */\n      calldatacopy\n        /* \"#utility.yul\":2456:2457   */\n      0x00\n        /* \"#utility.yul\":2447:2453   */\n      dup4\n        /* \"#utility.yul\":2442:2445   */\n      dup4\n        /* \"#utility.yul\":2438:2454   */\n      add\n        /* \"#utility.yul\":2431:2458   */\n      mstore\n        /* \"#utility.yul\":2318:2464   */\n      pop\n      pop\n      pop\n      jump\t// out\n        /* \"#utility.yul\":2470:2895   */\n    tag_177:\n        /* \"#utility.yul\":2548:2553   */\n      0x00\n        /* \"#utility.yul\":2573:2639   */\n      tag_264\n        /* \"#utility.yul\":2589:2638   */\n      tag_265\n        /* \"#utility.yul\":2631:2637   */\n      dup5\n        /* \"#utility.yul\":2589:2638   */\n      tag_175\n      jump\t// in\n    tag_265:\n        /* \"#utility.yul\":2573:2639   */\n      tag_174\n      jump\t// in\n    tag_264:\n        /* \"#utility.yul\":2564:2639   */\n      swap1\n      pop\n        /* \"#utility.yul\":2662:2668   */\n      dup3\n        /* \"#utility.yul\":2655:2660   */\n      dup2\n        /* \"#utility.yul\":2648:2669   */\n      mstore\n        /* \"#utility.yul\":2700:2704   */\n      0x20\n        /* \"#utility.yul\":2693:2698   */\n      dup2\n        /* \"#utility.yul\":2689:2705   */\n      add\n        /* \"#utility.yul\":2738:2741   */\n      dup5\n        /* \"#utility.yul\":2729:2735   */\n      dup5\n        /* \"#utility.yul\":2724:2727   */\n      dup5\n        /* \"#utility.yul\":2720:2736   */\n      add\n        /* \"#utility.yul\":2717:2742   */\n      gt\n        /* \"#utility.yul\":2714:2826   */\n      iszero\n      tag_266\n      jumpi\n        /* \"#utility.yul\":2745:2824   */\n      tag_267\n      tag_170\n      jump\t// in\n    tag_267:\n        /* \"#utility.yul\":2714:2826   */\n    tag_266:\n        /* \"#utility.yul\":2835:2889   */\n      tag_268\n        /* \"#utility.yul\":2882:2888   */\n      dup5\n        /* \"#utility.yul\":2877:2880   */\n      dup3\n        /* \"#utility.yul\":2872:2875   */\n      dup6\n        /* \"#utility.yul\":2835:2889   */\n      tag_176\n      jump\t// in\n    tag_268:\n        /* \"#utility.yul\":2554:2895   */\n      pop\n        /* \"#utility.yul\":2470:2895   */\n      swap4\n      swap3\n      pop\n      pop\n      pop\n      jump\t// out\n        /* \"#utility.yul\":2915:3255   */\n    tag_178:\n        /* \"#utility.yul\":2971:2976   */\n      0x00\n        /* \"#utility.yul\":3020:3023   */\n      dup3\n        /* \"#utility.yul\":3013:3017   */\n      0x1f\n        /* \"#utility.yul\":3005:3011   */\n      dup4\n        /* \"#utility.yul\":3001:3018   */\n      add\n        /* \"#utility.yul\":2997:3024   */\n      slt\n        /* \"#utility.yul\":2987:3109   */\n      tag_270\n      jumpi\n        /* \"#utility.yul\":3028:3107   */\n      tag_271\n      tag_169\n      jump\t// in\n    tag_271:\n        /* \"#utility.yul\":2987:3109   */\n    tag_270:\n        /* \"#utility.yul\":3145:3151   */\n      dup2\n        /* \"#utility.yul\":3132:3152   */\n      calldataload\n        /* \"#utility.yul\":3170:3249   */\n      tag_272\n        /* \"#utility.yul\":3245:3248   */\n      dup5\n        /* \"#utility.yul\":3237:3243   */\n      dup3\n        /* \"#utility.yul\":3230:3234   */\n      0x20\n        /* \"#utility.yul\":3222:3228   */\n      dup7\n        /* \"#utility.yul\":3218:3235   */\n      add\n        /* \"#utility.yul\":3170:3249   */\n      tag_177\n      jump\t// in\n    tag_272:\n        /* \"#utility.yul\":3161:3249   */\n      swap2\n      pop\n        /* \"#utility.yul\":2977:3255   */\n      pop\n        /* \"#utility.yul\":2915:3255   */\n      swap3\n      swap2\n      pop\n      pop\n      jump\t// out\n        /* \"#utility.yul\":3261:3915   */\n    tag_17:\n        /* \"#utility.yul\":3339:3345   */\n      0x00\n        /* \"#utility.yul\":3347:3353   */\n      dup1\n        /* \"#utility.yul\":3396:3398   */\n      0x40\n        /* \"#utility.yul\":3384:3393   */\n      dup4\n        /* \"#utility.yul\":3375:3382   */\n      dup6\n        /* \"#utility.yul\":3371:3394   */\n      sub\n        /* \"#utility.yul\":3367:3399   */\n      slt\n        /* \"#utility.yul\":3364:3483   */\n      iszero\n      tag_274\n      jumpi\n        /* \"#utility.yul\":3402:3481   */\n      tag_275\n      tag_165\n      jump\t// in\n    tag_275:\n        /* \"#utility.yul\":3364:3483   */\n    tag_274:\n        /* \"#utility.yul\":3522:3523   */\n      0x00\n        /* \"#utility.yul\":3547:3600   */\n      tag_276\n        /* \"#utility.yul\":3592:3599   */\n      dup6\n        /* \"#utility.yul\":3583:3589   */\n      dup3\n        /* \"#utility.yul\":3572:3581   */\n      dup7\n        /* \"#utility.yul\":3568:3590   */\n      add\n        /* \"#utility.yul\":3547:3600   */\n      tag_168\n      jump\t// in\n    tag_276:\n        /* \"#utility.yul\":3537:3600   */\n      swap3\n      pop\n        /* \"#utility.yul\":3493:3610   */\n      pop\n        /* \"#utility.yul\":3677:3679   */\n      0x20\n        /* \"#utility.yul\":3666:3675   */\n      dup4\n        /* \"#utility.yul\":3662:3680   */\n      add\n        /* \"#utility.yul\":3649:3681   */\n      calldataload\n        /* \"#utility.yul\":3708:3726   */\n      0xffffffffffffffff\n        /* \"#utility.yul\":3700:3706   */\n      dup2\n        /* \"#utility.yul\":3697:3727   */\n      gt\n        /* \"#utility.yul\":3694:3811   */\n      iszero\n      tag_277\n      jumpi\n        /* \"#utility.yul\":3730:3809   */\n      tag_278\n      tag_166\n      jump\t// in\n    tag_278:\n        /* \"#utility.yul\":3694:3811   */\n    tag_277:\n        /* \"#utility.yul\":3835:3898   */\n      tag_279\n        /* \"#utility.yul\":3890:3897   */\n      dup6\n        /* \"#utility.yul\":3881:3887   */\n      dup3\n        /* \"#utility.yul\":3870:3879   */\n      dup7\n        /* \"#utility.yul\":3866:3888   */\n      add\n        /* \"#utility.yul\":3835:3898   */\n      tag_178\n      jump\t// in\n    tag_279:\n        /* \"#utility.yul\":3825:3898   */\n      swap2\n      pop\n        /* \"#utility.yul\":3620:3908   */\n      pop\n        /* \"#utility.yul\":3261:3915   */\n      swap3\n      pop\n      swap3\n      swap1\n      pop\n      jump\t// out\n        /* \"#utility.yul\":3921:4232   */\n    tag_179:\n        /* \"#utility.yul\":3998:4002   */\n      0x00\n        /* \"#utility.yul\":4088:4106   */\n      0xffffffffffffffff\n        /* \"#utility.yul\":4080:4086   */\n      dup3\n        /* \"#utility.yul\":4077:4107   */\n      gt\n        /* \"#utility.yul\":4074:4130   */\n      iszero\n      tag_281\n      jumpi\n        /* \"#utility.yul\":4110:4128   */\n      tag_282\n      tag_172\n      jump\t// in\n    tag_282:\n        /* \"#utility.yul\":4074:4130   */\n    tag_281:\n        /* \"#utility.yul\":4160:4164   */\n      0x20\n        /* \"#utility.yul\":4152:4158   */\n      dup3\n        /* \"#utility.yul\":4148:4165   */\n      mul\n        /* \"#utility.yul\":4140:4165   */\n      swap1\n      pop\n        /* \"#utility.yul\":4220:4224   */\n      0x20\n        /* \"#utility.yul\":4214:4218   */\n      dup2\n        /* \"#utility.yul\":4210:4225   */\n      add\n        /* \"#utility.yul\":4202:4225   */\n      swap1\n      pop\n        /* \"#utility.yul\":3921:4232   */\n      swap2\n      swap1\n      pop\n      jump\t// out\n        /* \"#utility.yul\":4238:4355   */\n    tag_180:\n        /* \"#utility.yul\":4347:4348   */\n      0x00\n        /* \"#utility.yul\":4344:4345   */\n      dup1\n        /* \"#utility.yul\":4337:4349   */\n      revert\n        /* \"#utility.yul\":4378:5088   */\n    tag_181:\n        /* \"#utility.yul\":4474:4479   */\n      0x00\n        /* \"#utility.yul\":4499:4580   */\n      tag_285\n        /* \"#utility.yul\":4515:4579   */\n      tag_286\n        /* \"#utility.yul\":4572:4578   */\n      dup5\n        /* \"#utility.yul\":4515:4579   */\n      tag_179\n      jump\t// in\n    tag_286:\n        /* \"#utility.yul\":4499:4580   */\n      tag_174\n      jump\t// in\n    tag_285:\n        /* \"#utility.yul\":4490:4580   */\n      swap1\n      pop\n        /* \"#utility.yul\":4600:4605   */\n      dup1\n        /* \"#utility.yul\":4629:4635   */\n      dup4\n        /* \"#utility.yul\":4622:4627   */\n      dup3\n        /* \"#utility.yul\":4615:4636   */\n      mstore\n        /* \"#utility.yul\":4663:4667   */\n      0x20\n        /* \"#utility.yul\":4656:4661   */\n      dup3\n        /* \"#utility.yul\":4652:4668   */\n      add\n        /* \"#utility.yul\":4645:4668   */\n      swap1\n      pop\n        /* \"#utility.yul\":4716:4720   */\n      0x20\n        /* \"#utility.yul\":4708:4714   */\n      dup5\n        /* \"#utility.yul\":4704:4721   */\n      mul\n        /* \"#utility.yul\":4696:4702   */\n      dup4\n        /* \"#utility.yul\":4692:4722   */\n      add\n        /* \"#utility.yul\":4745:4748   */\n      dup6\n        /* \"#utility.yul\":4737:4743   */\n      dup2\n        /* \"#utility.yul\":4734:4749   */\n      gt\n        /* \"#utility.yul\":4731:4853   */\n      iszero\n      tag_287\n      jumpi\n        /* \"#utility.yul\":4764:4843   */\n      tag_288\n      tag_180\n      jump\t// in\n    tag_288:\n        /* \"#utility.yul\":4731:4853   */\n    tag_287:\n        /* \"#utility.yul\":4879:4885   */\n      dup4\n        /* \"#utility.yul\":4862:5082   */\n    tag_289:\n        /* \"#utility.yul\":4896:4902   */\n      dup2\n        /* \"#utility.yul\":4891:4894   */\n      dup2\n        /* \"#utility.yul\":4888:4903   */\n      lt\n        /* \"#utility.yul\":4862:5082   */\n      iszero\n      tag_291\n      jumpi\n        /* \"#utility.yul\":4971:4974   */\n      dup1\n        /* \"#utility.yul\":5000:5037   */\n      tag_292\n        /* \"#utility.yul\":5033:5036   */\n      dup9\n        /* \"#utility.yul\":5021:5031   */\n      dup3\n        /* \"#utility.yul\":5000:5037   */\n      tag_168\n      jump\t// in\n    tag_292:\n        /* \"#utility.yul\":4995:4998   */\n      dup5\n        /* \"#utility.yul\":4988:5038   */\n      mstore\n        /* \"#utility.yul\":5067:5071   */\n      0x20\n        /* \"#utility.yul\":5062:5065   */\n      dup5\n        /* \"#utility.yul\":5058:5072   */\n      add\n        /* \"#utility.yul\":5051:5072   */\n      swap4\n      pop\n        /* \"#utility.yul\":4938:5082   */\n      pop\n        /* \"#utility.yul\":4922:4926   */\n      0x20\n        /* \"#utility.yul\":4917:4920   */\n      dup2\n        /* \"#utility.yul\":4913:4927   */\n      add\n        /* \"#utility.yul\":4906:4927   */\n      swap1\n      pop\n        /* \"#utility.yul\":4862:5082   */\n      jump(tag_289)\n    tag_291:\n        /* \"#utility.yul\":4866:4887   */\n      pop\n        /* \"#utility.yul\":4480:5088   */\n      pop\n      pop\n        /* \"#utility.yul\":4378:5088   */\n      swap4\n      swap3\n      pop\n      pop\n      pop\n      jump\t// out\n        /* \"#utility.yul\":5111:5481   */\n    tag_182:\n        /* \"#utility.yul\":5182:5187   */\n      0x00\n        /* \"#utility.yul\":5231:5234   */\n      dup3\n        /* \"#utility.yul\":5224:5228   */\n      0x1f\n        /* \"#utility.yul\":5216:5222   */\n      dup4\n        /* \"#utility.yul\":5212:5229   */\n      add\n        /* \"#utility.yul\":5208:5235   */\n      slt\n        /* \"#utility.yul\":5198:5320   */\n      tag_294\n      jumpi\n        /* \"#utility.yul\":5239:5318   */\n      tag_295\n      tag_169\n      jump\t// in\n    tag_295:\n        /* \"#utility.yul\":5198:5320   */\n    tag_294:\n        /* \"#utility.yul\":5356:5362   */\n      dup2\n        /* \"#utility.yul\":5343:5363   */\n      calldataload\n        /* \"#utility.yul\":5381:5475   */\n      tag_296\n        /* \"#utility.yul\":5471:5474   */\n      dup5\n        /* \"#utility.yul\":5463:5469   */\n      dup3\n        /* \"#utility.yul\":5456:5460   */\n      0x20\n        /* \"#utility.yul\":5448:5454   */\n      dup7\n        /* \"#utility.yul\":5444:5461   */\n      add\n        /* \"#utility.yul\":5381:5475   */\n      tag_181\n      jump\t// in\n    tag_296:\n        /* \"#utility.yul\":5372:5475   */\n      swap2\n      pop\n        /* \"#utility.yul\":5188:5481   */\n      pop\n        /* \"#utility.yul\":5111:5481   */\n      swap3\n      swap2\n      pop\n      pop\n      jump\t// out\n        /* \"#utility.yul\":5487:6351   */\n    tag_21:\n        /* \"#utility.yul\":5590:5596   */\n      0x00\n        /* \"#utility.yul\":5598:5604   */\n      dup1\n        /* \"#utility.yul\":5647:5649   */\n      0x40\n        /* \"#utility.yul\":5635:5644   */\n      dup4\n        /* \"#utility.yul\":5626:5633   */\n      dup6\n        /* \"#utility.yul\":5622:5645   */\n      sub\n        /* \"#utility.yul\":5618:5650   */\n      slt\n        /* \"#utility.yul\":5615:5734   */\n      iszero\n      tag_298\n      jumpi\n        /* \"#utility.yul\":5653:5732   */\n      tag_299\n      tag_165\n      jump\t// in\n    tag_299:\n        /* \"#utility.yul\":5615:5734   */\n    tag_298:\n        /* \"#utility.yul\":5801:5802   */\n      0x00\n        /* \"#utility.yul\":5790:5799   */\n      dup4\n        /* \"#utility.yul\":5786:5803   */\n      add\n        /* \"#utility.yul\":5773:5804   */\n      calldataload\n        /* \"#utility.yul\":5831:5849   */\n      0xffffffffffffffff\n        /* \"#utility.yul\":5823:5829   */\n      dup2\n        /* \"#utility.yul\":5820:5850   */\n      gt\n        /* \"#utility.yul\":5817:5934   */\n      iszero\n      tag_300\n      jumpi\n        /* \"#utility.yul\":5853:5932   */\n      tag_301\n      tag_166\n      jump\t// in\n    tag_301:\n        /* \"#utility.yul\":5817:5934   */\n    tag_300:\n        /* \"#utility.yul\":5958:6021   */\n      tag_302\n        /* \"#utility.yul\":6013:6020   */\n      dup6\n        /* \"#utility.yul\":6004:6010   */\n      dup3\n        /* \"#utility.yul\":5993:6002   */\n      dup7\n        /* \"#utility.yul\":5989:6011   */\n      add\n        /* \"#utility.yul\":5958:6021   */\n      tag_178\n      jump\t// in\n    tag_302:\n        /* \"#utility.yul\":5948:6021   */\n      swap3\n      pop\n        /* \"#utility.yul\":5744:6031   */\n      pop\n        /* \"#utility.yul\":6098:6100   */\n      0x20\n        /* \"#utility.yul\":6087:6096   */\n      dup4\n        /* \"#utility.yul\":6083:6101   */\n      add\n        /* \"#utility.yul\":6070:6102   */\n      calldataload\n        /* \"#utility.yul\":6129:6147   */\n      0xffffffffffffffff\n        /* \"#utility.yul\":6121:6127   */\n      dup2\n        /* \"#utility.yul\":6118:6148   */\n      gt\n        /* \"#utility.yul\":6115:6232   */\n      iszero\n      tag_303\n      jumpi\n        /* \"#utility.yul\":6151:6230   */\n      tag_304\n      tag_166\n      jump\t// in\n    tag_304:\n        /* \"#utility.yul\":6115:6232   */\n    tag_303:\n        /* \"#utility.yul\":6256:6334   */\n      tag_305\n        /* \"#utility.yul\":6326:6333   */\n      dup6\n        /* \"#utility.yul\":6317:6323   */\n      dup3\n        /* \"#utility.yul\":6306:6315   */\n      dup7\n        /* \"#utility.yul\":6302:6324   */\n      add\n        /* \"#utility.yul\":6256:6334   */\n      tag_182\n      jump\t// in\n    tag_305:\n        /* \"#utility.yul\":6246:6334   */\n      swap2\n      pop\n        /* \"#utility.yul\":6041:6344   */\n      pop\n        /* \"#utility.yul\":5487:6351   */\n      swap3\n      pop\n      swap3\n      swap1\n      pop\n      jump\t// out\n        /* \"#utility.yul\":6357:6483   */\n    tag_183:\n        /* \"#utility.yul\":6394:6401   */\n      0x00\n        /* \"#utility.yul\":6434:6476   */\n      0xffffffffffffffffffffffffffffffffffffffff\n        /* \"#utility.yul\":6427:6432   */\n      dup3\n        /* \"#utility.yul\":6423:6477   */\n      and\n        /* \"#utility.yul\":6412:6477   */\n      swap1\n      pop\n        /* \"#utility.yul\":6357:6483   */\n      swap2\n      swap1\n      pop\n      jump\t// out\n        /* \"#utility.yul\":6489:6585   */\n    tag_184:\n        /* \"#utility.yul\":6526:6533   */\n      0x00\n        /* \"#utility.yul\":6555:6579   */\n      tag_308\n        /* \"#utility.yul\":6573:6578   */\n      dup3\n        /* \"#utility.yul\":6555:6579   */\n      tag_183\n      jump\t// in\n    tag_308:\n        /* \"#utility.yul\":6544:6579   */\n      swap1\n      pop\n        /* \"#utility.yul\":6489:6585   */\n      swap2\n      swap1\n      pop\n      jump\t// out\n        /* \"#utility.yul\":6591:6709   */\n    tag_185:\n        /* \"#utility.yul\":6678:6702   */\n      tag_310\n        /* \"#utility.yul\":6696:6701   */\n      dup2\n        /* \"#utility.yul\":6678:6702   */\n      tag_184\n      jump\t// in\n    tag_310:\n        /* \"#utility.yul\":6673:6676   */\n      dup3\n        /* \"#utility.yul\":6666:6703   */\n      mstore\n        /* \"#utility.yul\":6591:6709   */\n      pop\n      pop\n      jump\t// out\n        /* \"#utility.yul\":6715:6937   */\n    tag_27:\n        /* \"#utility.yul\":6808:6812   */\n      0x00\n        /* \"#utility.yul\":6846:6848   */\n      0x20\n        /* \"#utility.yul\":6835:6844   */\n      dup3\n        /* \"#utility.yul\":6831:6849   */\n      add\n        /* \"#utility.yul\":6823:6849   */\n      swap1\n      pop\n        /* \"#utility.yul\":6859:6930   */\n      tag_312\n        /* \"#utility.yul\":6927:6928   */\n      0x00\n        /* \"#utility.yul\":6916:6925   */\n      dup4\n        /* \"#utility.yul\":6912:6929   */\n      add\n        /* \"#utility.yul\":6903:6909   */\n      dup5\n        /* \"#utility.yul\":6859:6930   */\n      tag_185\n      jump\t// in\n    tag_312:\n        /* \"#utility.yul\":6715:6937   */\n      swap3\n      swap2\n      pop\n      pop\n      jump\t// out\n        /* \"#utility.yul\":6943:7272   */\n    tag_30:\n        /* \"#utility.yul\":7002:7008   */\n      0x00\n        /* \"#utility.yul\":7051:7053   */\n      0x20\n        /* \"#utility.yul\":7039:7048   */\n      dup3\n        /* \"#utility.yul\":7030:7037   */\n      dup5\n        /* \"#utility.yul\":7026:7049   */\n      sub\n        /* \"#utility.yul\":7022:7054   */\n      slt\n        /* \"#utility.yul\":7019:7138   */\n      iszero\n      tag_314\n      jumpi\n        /* \"#utility.yul\":7057:7136   */\n      tag_315\n      tag_165\n      jump\t// in\n    tag_315:\n        /* \"#utility.yul\":7019:7138   */\n    tag_314:\n        /* \"#utility.yul\":7177:7178   */\n      0x00\n        /* \"#utility.yul\":7202:7255   */\n      tag_316\n        /* \"#utility.yul\":7247:7254   */\n      dup5\n        /* \"#utility.yul\":7238:7244   */\n      dup3\n        /* \"#utility.yul\":7227:7236   */\n      dup6\n        /* \"#utility.yul\":7223:7245   */\n      add\n        /* \"#utility.yul\":7202:7255   */\n      tag_168\n      jump\t// in\n    tag_316:\n        /* \"#utility.yul\":7192:7255   */\n      swap2\n      pop\n        /* \"#utility.yul\":7148:7265   */\n      pop\n        /* \"#utility.yul\":6943:7272   */\n      swap3\n      swap2\n      pop\n      pop\n      jump\t// out\n        /* \"#utility.yul\":7278:7377   */\n    tag_186:\n        /* \"#utility.yul\":7330:7336   */\n      0x00\n        /* \"#utility.yul\":7364:7369   */\n      dup2\n        /* \"#utility.yul\":7358:7370   */\n      mload\n        /* \"#utility.yul\":7348:7370   */\n      swap1\n      pop\n        /* \"#utility.yul\":7278:7377   */\n      swap2\n      swap1\n      pop\n      jump\t// out\n        /* \"#utility.yul\":7383:7552   */\n    tag_187:\n        /* \"#utility.yul\":7467:7478   */\n      0x00\n        /* \"#utility.yul\":7501:7507   */\n      dup3\n        /* \"#utility.yul\":7496:7499   */\n      dup3\n        /* \"#utility.yul\":7489:7508   */\n      mstore\n        /* \"#utility.yul\":7541:7545   */\n      0x20\n        /* \"#utility.yul\":7536:7539   */\n      dup3\n        /* \"#utility.yul\":7532:7546   */\n      add\n        /* \"#utility.yul\":7517:7546   */\n      swap1\n      pop\n        /* \"#utility.yul\":7383:7552   */\n      swap3\n      swap2\n      pop\n      pop\n      jump\t// out\n        /* \"#utility.yul\":7558:7804   */\n    tag_188:\n        /* \"#utility.yul\":7639:7640   */\n      0x00\n        /* \"#utility.yul\":7649:7762   */\n    tag_320:\n        /* \"#utility.yul\":7663:7669   */\n      dup4\n        /* \"#utility.yul\":7660:7661   */\n      dup2\n        /* \"#utility.yul\":7657:7670   */\n      lt\n        /* \"#utility.yul\":7649:7762   */\n      iszero\n      tag_322\n      jumpi\n        /* \"#utility.yul\":7748:7749   */\n      dup1\n        /* \"#utility.yul\":7743:7746   */\n      dup3\n        /* \"#utility.yul\":7739:7750   */\n      add\n        /* \"#utility.yul\":7733:7751   */\n      mload\n        /* \"#utility.yul\":7729:7730   */\n      dup2\n        /* \"#utility.yul\":7724:7727   */\n      dup5\n        /* \"#utility.yul\":7720:7731   */\n      add\n        /* \"#utility.yul\":7713:7752   */\n      mstore\n        /* \"#utility.yul\":7685:7687   */\n      0x20\n        /* \"#utility.yul\":7682:7683   */\n      dup2\n        /* \"#utility.yul\":7678:7688   */\n      add\n        /* \"#utility.yul\":7673:7688   */\n      swap1\n      pop\n        /* \"#utility.yul\":7649:7762   */\n      jump(tag_320)\n    tag_322:\n        /* \"#utility.yul\":7796:7797   */\n      0x00\n        /* \"#utility.yul\":7787:7793   */\n      dup5\n        /* \"#utility.yul\":7782:7785   */\n      dup5\n        /* \"#utility.yul\":7778:7794   */\n      add\n        /* \"#utility.yul\":7771:7798   */\n      mstore\n        /* \"#utility.yul\":7620:7804   */\n      pop\n        /* \"#utility.yul\":7558:7804   */\n      pop\n      pop\n      pop\n      jump\t// out\n        /* \"#utility.yul\":7810:8187   */\n    tag_189:\n        /* \"#utility.yul\":7898:7901   */\n      0x00\n        /* \"#utility.yul\":7926:7965   */\n      tag_324\n        /* \"#utility.yul\":7959:7964   */\n      dup3\n        /* \"#utility.yul\":7926:7965   */\n      tag_186\n      jump\t// in\n    tag_324:\n        /* \"#utility.yul\":7981:8052   */\n      tag_325\n        /* \"#utility.yul\":8045:8051   */\n      dup2\n        /* \"#utility.yul\":8040:8043   */\n      dup6\n        /* \"#utility.yul\":7981:8052   */\n      tag_187\n      jump\t// in\n    tag_325:\n        /* \"#utility.yul\":7974:8052   */\n      swap4\n      pop\n        /* \"#utility.yul\":8061:8126   */\n      tag_326\n        /* \"#utility.yul\":8119:8125   */\n      dup2\n        /* \"#utility.yul\":8114:8117   */\n      dup6\n        /* \"#utility.yul\":8107:8111   */\n      0x20\n        /* \"#utility.yul\":8100:8105   */\n      dup7\n        /* \"#utility.yul\":8096:8112   */\n      add\n        /* \"#utility.yul\":8061:8126   */\n      tag_188\n      jump\t// in\n    tag_326:\n        /* \"#utility.yul\":8151:8180   */\n      tag_327\n        /* \"#utility.yul\":8173:8179   */\n      dup2\n        /* \"#utility.yul\":8151:8180   */\n      tag_171\n      jump\t// in\n    tag_327:\n        /* \"#utility.yul\":8146:8149   */\n      dup5\n        /* \"#utility.yul\":8142:8181   */\n      add\n        /* \"#utility.yul\":8135:8181   */\n      swap2\n      pop\n        /* \"#utility.yul\":7902:8187   */\n      pop\n        /* \"#utility.yul\":7810:8187   */\n      swap3\n      swap2\n      pop\n      pop\n      jump\t// out\n        /* \"#utility.yul\":8193:8373   */\n    tag_73:\n        /* \"#utility.yul\":8241:8318   */\n      0x4e487b7100000000000000000000000000000000000000000000000000000000\n        /* \"#utility.yul\":8238:8239   */\n      0x00\n        /* \"#utility.yul\":8231:8319   */\n      mstore\n        /* \"#utility.yul\":8338:8342   */\n      0x21\n        /* \"#utility.yul\":8335:8336   */\n      0x04\n        /* \"#utility.yul\":8328:8343   */\n      mstore\n        /* \"#utility.yul\":8362:8366   */\n      0x24\n        /* \"#utility.yul\":8359:8360   */\n      0x00\n        /* \"#utility.yul\":8352:8367   */\n      revert\n        /* \"#utility.yul\":8379:8492   */\n    tag_190:\n        /* \"#utility.yul\":8460:8461   */\n      0x04\n        /* \"#utility.yul\":8453:8458   */\n      dup2\n        /* \"#utility.yul\":8450:8462   */\n      lt\n        /* \"#utility.yul\":8440:8486   */\n      tag_330\n      jumpi\n        /* \"#utility.yul\":8466:8484   */\n      tag_331\n      tag_73\n      jump\t// in\n    tag_331:\n        /* \"#utility.yul\":8440:8486   */\n    tag_330:\n        /* \"#utility.yul\":8379:8492   */\n      pop\n      jump\t// out\n        /* \"#utility.yul\":8498:8625   */\n    tag_191:\n        /* \"#utility.yul\":8543:8550   */\n      0x00\n        /* \"#utility.yul\":8572:8577   */\n      dup2\n        /* \"#utility.yul\":8561:8577   */\n      swap1\n      pop\n        /* \"#utility.yul\":8578:8619   */\n      tag_333\n        /* \"#utility.yul\":8613:8618   */\n      dup3\n        /* \"#utility.yul\":8578:8619   */\n      tag_190\n      jump\t// in\n    tag_333:\n        /* \"#utility.yul\":8498:8625   */\n      swap2\n      swap1\n      pop\n      jump\t// out\n        /* \"#utility.yul\":8631:8758   */\n    tag_192:\n        /* \"#utility.yul\":8687:8696   */\n      0x00\n        /* \"#utility.yul\":8720:8752   */\n      tag_335\n        /* \"#utility.yul\":8746:8751   */\n      dup3\n        /* \"#utility.yul\":8720:8752   */\n      tag_191\n      jump\t// in\n    tag_335:\n        /* \"#utility.yul\":8707:8752   */\n      swap1\n      pop\n        /* \"#utility.yul\":8631:8758   */\n      swap2\n      swap1\n      pop\n      jump\t// out\n        /* \"#utility.yul\":8764:8907   */\n    tag_193:\n        /* \"#utility.yul\":8857:8900   */\n      tag_337\n        /* \"#utility.yul\":8894:8899   */\n      dup2\n        /* \"#utility.yul\":8857:8900   */\n      tag_192\n      jump\t// in\n    tag_337:\n        /* \"#utility.yul\":8852:8855   */\n      dup3\n        /* \"#utility.yul\":8845:8901   */\n      mstore\n        /* \"#utility.yul\":8764:8907   */\n      pop\n      pop\n      jump\t// out\n        /* \"#utility.yul\":8913:9458   */\n    tag_33:\n        /* \"#utility.yul\":9088:9092   */\n      0x00\n        /* \"#utility.yul\":9126:9128   */\n      0x60\n        /* \"#utility.yul\":9115:9124   */\n      dup3\n        /* \"#utility.yul\":9111:9129   */\n      add\n        /* \"#utility.yul\":9103:9129   */\n      swap1\n      pop\n        /* \"#utility.yul\":9139:9210   */\n      tag_339\n        /* \"#utility.yul\":9207:9208   */\n      0x00\n        /* \"#utility.yul\":9196:9205   */\n      dup4\n        /* \"#utility.yul\":9192:9209   */\n      add\n        /* \"#utility.yul\":9183:9189   */\n      dup7\n        /* \"#utility.yul\":9139:9210   */\n      tag_185\n      jump\t// in\n    tag_339:\n        /* \"#utility.yul\":9257:9266   */\n      dup2\n        /* \"#utility.yul\":9251:9255   */\n      dup2\n        /* \"#utility.yul\":9247:9267   */\n      sub\n        /* \"#utility.yul\":9242:9244   */\n      0x20\n        /* \"#utility.yul\":9231:9240   */\n      dup4\n        /* \"#utility.yul\":9227:9245   */\n      add\n        /* \"#utility.yul\":9220:9268   */\n      mstore\n        /* \"#utility.yul\":9285:9363   */\n      tag_340\n        /* \"#utility.yul\":9358:9362   */\n      dup2\n        /* \"#utility.yul\":9349:9355   */\n      dup6\n        /* \"#utility.yul\":9285:9363   */\n      tag_189\n      jump\t// in\n    tag_340:\n        /* \"#utility.yul\":9277:9363   */\n      swap1\n      pop\n        /* \"#utility.yul\":9373:9451   */\n      tag_341\n        /* \"#utility.yul\":9447:9449   */\n      0x40\n        /* \"#utility.yul\":9436:9445   */\n      dup4\n        /* \"#utility.yul\":9432:9450   */\n      add\n        /* \"#utility.yul\":9423:9429   */\n      dup5\n        /* \"#utility.yul\":9373:9451   */\n      tag_193\n      jump\t// in\n    tag_341:\n        /* \"#utility.yul\":8913:9458   */\n      swap5\n      swap4\n      pop\n      pop\n      pop\n      pop\n      jump\t// out\n        /* \"#utility.yul\":9464:9572   */\n    tag_194:\n        /* \"#utility.yul\":9541:9565   */\n      tag_343\n        /* \"#utility.yul\":9559:9564   */\n      dup2\n        /* \"#utility.yul\":9541:9565   */\n      tag_184\n      jump\t// in\n    tag_343:\n        /* \"#utility.yul\":9536:9539   */\n      dup3\n        /* \"#utility.yul\":9529:9566   */\n      mstore\n        /* \"#utility.yul\":9464:9572   */\n      pop\n      pop\n      jump\t// out\n        /* \"#utility.yul\":9578:9737   */\n    tag_195:\n        /* \"#utility.yul\":9652:9663   */\n      0x00\n        /* \"#utility.yul\":9686:9692   */\n      dup3\n        /* \"#utility.yul\":9681:9684   */\n      dup3\n        /* \"#utility.yul\":9674:9693   */\n      mstore\n        /* \"#utility.yul\":9726:9730   */\n      0x20\n        /* \"#utility.yul\":9721:9724   */\n      dup3\n        /* \"#utility.yul\":9717:9731   */\n      add\n        /* \"#utility.yul\":9702:9731   */\n      swap1\n      pop\n        /* \"#utility.yul\":9578:9737   */\n      swap3\n      swap2\n      pop\n      pop\n      jump\t// out\n        /* \"#utility.yul\":9743:10100   */\n    tag_196:\n        /* \"#utility.yul\":9821:9824   */\n      0x00\n        /* \"#utility.yul\":9849:9888   */\n      tag_346\n        /* \"#utility.yul\":9882:9887   */\n      dup3\n        /* \"#utility.yul\":9849:9888   */\n      tag_186\n      jump\t// in\n    tag_346:\n        /* \"#utility.yul\":9904:9965   */\n      tag_347\n        /* \"#utility.yul\":9958:9964   */\n      dup2\n        /* \"#utility.yul\":9953:9956   */\n      dup6\n        /* \"#utility.yul\":9904:9965   */\n      tag_195\n      jump\t// in\n    tag_347:\n        /* \"#utility.yul\":9897:9965   */\n      swap4\n      pop\n        /* \"#utility.yul\":9974:10039   */\n      tag_348\n        /* \"#utility.yul\":10032:10038   */\n      dup2\n        /* \"#utility.yul\":10027:10030   */\n      dup6\n        /* \"#utility.yul\":10020:10024   */\n      0x20\n        /* \"#utility.yul\":10013:10018   */\n      dup7\n        /* \"#utility.yul\":10009:10025   */\n      add\n        /* \"#utility.yul\":9974:10039   */\n      tag_188\n      jump\t// in\n    tag_348:\n        /* \"#utility.yul\":10064:10093   */\n      tag_349\n        /* \"#utility.yul\":10086:10092   */\n      dup2\n        /* \"#utility.yul\":10064:10093   */\n      tag_171\n      jump\t// in\n    tag_349:\n        /* \"#utility.yul\":10059:10062   */\n      dup5\n        /* \"#utility.yul\":10055:10094   */\n      add\n        /* \"#utility.yul\":10048:10094   */\n      swap2\n      pop\n        /* \"#utility.yul\":9825:10100   */\n      pop\n        /* \"#utility.yul\":9743:10100   */\n      swap3\n      swap2\n      pop\n      pop\n      jump\t// out\n        /* \"#utility.yul\":10106:10220   */\n    tag_197:\n        /* \"#utility.yul\":10173:10179   */\n      0x00\n        /* \"#utility.yul\":10207:10212   */\n      dup2\n        /* \"#utility.yul\":10201:10213   */\n      mload\n        /* \"#utility.yul\":10191:10213   */\n      swap1\n      pop\n        /* \"#utility.yul\":10106:10220   */\n      swap2\n      swap1\n      pop\n      jump\t// out\n        /* \"#utility.yul\":10226:10400   */\n    tag_198:\n        /* \"#utility.yul\":10315:10326   */\n      0x00\n        /* \"#utility.yul\":10349:10355   */\n      dup3\n        /* \"#utility.yul\":10344:10347   */\n      dup3\n        /* \"#utility.yul\":10337:10356   */\n      mstore\n        /* \"#utility.yul\":10389:10393   */\n      0x20\n        /* \"#utility.yul\":10384:10387   */\n      dup3\n        /* \"#utility.yul\":10380:10394   */\n      add\n        /* \"#utility.yul\":10365:10394   */\n      swap1\n      pop\n        /* \"#utility.yul\":10226:10400   */\n      swap3\n      swap2\n      pop\n      pop\n      jump\t// out\n        /* \"#utility.yul\":10406:10538   */\n    tag_199:\n        /* \"#utility.yul\":10473:10477   */\n      0x00\n        /* \"#utility.yul\":10496:10499   */\n      dup2\n        /* \"#utility.yul\":10488:10499   */\n      swap1\n      pop\n        /* \"#utility.yul\":10526:10530   */\n      0x20\n        /* \"#utility.yul\":10521:10524   */\n      dup3\n        /* \"#utility.yul\":10517:10531   */\n      add\n        /* \"#utility.yul\":10509:10531   */\n      swap1\n      pop\n        /* \"#utility.yul\":10406:10538   */\n      swap2\n      swap1\n      pop\n      jump\t// out\n        /* \"#utility.yul\":10544:10652   */\n    tag_200:\n        /* \"#utility.yul\":10621:10645   */\n      tag_354\n        /* \"#utility.yul\":10639:10644   */\n      dup2\n        /* \"#utility.yul\":10621:10645   */\n      tag_162\n      jump\t// in\n    tag_354:\n        /* \"#utility.yul\":10616:10619   */\n      dup3\n        /* \"#utility.yul\":10609:10646   */\n      mstore\n        /* \"#utility.yul\":10544:10652   */\n      pop\n      pop\n      jump\t// out\n        /* \"#utility.yul\":10658:10837   */\n    tag_201:\n        /* \"#utility.yul\":10727:10737   */\n      0x00\n        /* \"#utility.yul\":10748:10794   */\n      tag_356\n        /* \"#utility.yul\":10790:10793   */\n      dup4\n        /* \"#utility.yul\":10782:10788   */\n      dup4\n        /* \"#utility.yul\":10748:10794   */\n      tag_200\n      jump\t// in\n    tag_356:\n        /* \"#utility.yul\":10826:10830   */\n      0x20\n        /* \"#utility.yul\":10821:10824   */\n      dup4\n        /* \"#utility.yul\":10817:10831   */\n      add\n        /* \"#utility.yul\":10803:10831   */\n      swap1\n      pop\n        /* \"#utility.yul\":10658:10837   */\n      swap3\n      swap2\n      pop\n      pop\n      jump\t// out\n        /* \"#utility.yul\":10843:10956   */\n    tag_202:\n        /* \"#utility.yul\":10913:10917   */\n      0x00\n        /* \"#utility.yul\":10945:10949   */\n      0x20\n        /* \"#utility.yul\":10940:10943   */\n      dup3\n        /* \"#utility.yul\":10936:10950   */\n      add\n        /* \"#utility.yul\":10928:10950   */\n      swap1\n      pop\n        /* \"#utility.yul\":10843:10956   */\n      swap2\n      swap1\n      pop\n      jump\t// out\n        /* \"#utility.yul\":10992:11704   */\n    tag_203:\n        /* \"#utility.yul\":11101:11104   */\n      0x00\n        /* \"#utility.yul\":11130:11184   */\n      tag_359\n        /* \"#utility.yul\":11178:11183   */\n      dup3\n        /* \"#utility.yul\":11130:11184   */\n      tag_197\n      jump\t// in\n    tag_359:\n        /* \"#utility.yul\":11200:11276   */\n      tag_360\n        /* \"#utility.yul\":11269:11275   */\n      dup2\n        /* \"#utility.yul\":11264:11267   */\n      dup6\n        /* \"#utility.yul\":11200:11276   */\n      tag_198\n      jump\t// in\n    tag_360:\n        /* \"#utility.yul\":11193:11276   */\n      swap4\n      pop\n        /* \"#utility.yul\":11300:11356   */\n      tag_361\n        /* \"#utility.yul\":11350:11355   */\n      dup4\n        /* \"#utility.yul\":11300:11356   */\n      tag_199\n      jump\t// in\n    tag_361:\n        /* \"#utility.yul\":11379:11386   */\n      dup1\n        /* \"#utility.yul\":11410:11411   */\n      0x00\n        /* \"#utility.yul\":11395:11679   */\n    tag_362:\n        /* \"#utility.yul\":11420:11426   */\n      dup4\n        /* \"#utility.yul\":11417:11418   */\n      dup2\n        /* \"#utility.yul\":11414:11427   */\n      lt\n        /* \"#utility.yul\":11395:11679   */\n      iszero\n      tag_364\n      jumpi\n        /* \"#utility.yul\":11496:11502   */\n      dup2\n        /* \"#utility.yul\":11490:11503   */\n      mload\n        /* \"#utility.yul\":11523:11586   */\n      tag_365\n        /* \"#utility.yul\":11582:11585   */\n      dup9\n        /* \"#utility.yul\":11567:11580   */\n      dup3\n        /* \"#utility.yul\":11523:11586   */\n      tag_201\n      jump\t// in\n    tag_365:\n        /* \"#utility.yul\":11516:11586   */\n      swap8\n      pop\n        /* \"#utility.yul\":11609:11669   */\n      tag_366\n        /* \"#utility.yul\":11662:11668   */\n      dup4\n        /* \"#utility.yul\":11609:11669   */\n      tag_202\n      jump\t// in\n    tag_366:\n        /* \"#utility.yul\":11599:11669   */\n      swap3\n      pop\n        /* \"#utility.yul\":11455:11679   */\n      pop\n        /* \"#utility.yul\":11442:11443   */\n      0x01\n        /* \"#utility.yul\":11439:11440   */\n      dup2\n        /* \"#utility.yul\":11435:11444   */\n      add\n        /* \"#utility.yul\":11430:11444   */\n      swap1\n      pop\n        /* \"#utility.yul\":11395:11679   */\n      jump(tag_362)\n    tag_364:\n        /* \"#utility.yul\":11399:11413   */\n      pop\n        /* \"#utility.yul\":11695:11698   */\n      dup6\n        /* \"#utility.yul\":11688:11698   */\n      swap4\n      pop\n        /* \"#utility.yul\":11106:11704   */\n      pop\n      pop\n      pop\n        /* \"#utility.yul\":10992:11704   */\n      swap3\n      swap2\n      pop\n      pop\n      jump\t// out\n        /* \"#utility.yul\":11710:11843   */\n    tag_204:\n        /* \"#utility.yul\":11793:11836   */\n      tag_368\n        /* \"#utility.yul\":11830:11835   */\n      dup2\n        /* \"#utility.yul\":11793:11836   */\n      tag_192\n      jump\t// in\n    tag_368:\n        /* \"#utility.yul\":11788:11791   */\n      dup3\n        /* \"#utility.yul\":11781:11837   */\n      mstore\n        /* \"#utility.yul\":11710:11843   */\n      pop\n      pop\n      jump\t// out\n        /* \"#utility.yul\":11903:12969   */\n    tag_205:\n        /* \"#utility.yul\":12014:12017   */\n      0x00\n        /* \"#utility.yul\":12050:12054   */\n      0x80\n        /* \"#utility.yul\":12045:12048   */\n      dup4\n        /* \"#utility.yul\":12041:12055   */\n      add\n        /* \"#utility.yul\":12141:12145   */\n      0x00\n        /* \"#utility.yul\":12134:12139   */\n      dup4\n        /* \"#utility.yul\":12130:12146   */\n      add\n        /* \"#utility.yul\":12124:12147   */\n      mload\n        /* \"#utility.yul\":12160:12223   */\n      tag_370\n        /* \"#utility.yul\":12217:12221   */\n      0x00\n        /* \"#utility.yul\":12212:12215   */\n      dup7\n        /* \"#utility.yul\":12208:12222   */\n      add\n        /* \"#utility.yul\":12194:12206   */\n      dup3\n        /* \"#utility.yul\":12160:12223   */\n      tag_194\n      jump\t// in\n    tag_370:\n        /* \"#utility.yul\":12065:12233   */\n      pop\n        /* \"#utility.yul\":12318:12322   */\n      0x20\n        /* \"#utility.yul\":12311:12316   */\n      dup4\n        /* \"#utility.yul\":12307:12323   */\n      add\n        /* \"#utility.yul\":12301:12324   */\n      mload\n        /* \"#utility.yul\":12371:12374   */\n      dup5\n        /* \"#utility.yul\":12365:12369   */\n      dup3\n        /* \"#utility.yul\":12361:12375   */\n      sub\n        /* \"#utility.yul\":12354:12358   */\n      0x20\n        /* \"#utility.yul\":12349:12352   */\n      dup7\n        /* \"#utility.yul\":12345:12359   */\n      add\n        /* \"#utility.yul\":12338:12376   */\n      mstore\n        /* \"#utility.yul\":12397:12470   */\n      tag_371\n        /* \"#utility.yul\":12465:12469   */\n      dup3\n        /* \"#utility.yul\":12451:12463   */\n      dup3\n        /* \"#utility.yul\":12397:12470   */\n      tag_196\n      jump\t// in\n    tag_371:\n        /* \"#utility.yul\":12389:12470   */\n      swap2\n      pop\n        /* \"#utility.yul\":12243:12481   */\n      pop\n        /* \"#utility.yul\":12567:12571   */\n      0x40\n        /* \"#utility.yul\":12560:12565   */\n      dup4\n        /* \"#utility.yul\":12556:12572   */\n      add\n        /* \"#utility.yul\":12550:12573   */\n      mload\n        /* \"#utility.yul\":12620:12623   */\n      dup5\n        /* \"#utility.yul\":12614:12618   */\n      dup3\n        /* \"#utility.yul\":12610:12624   */\n      sub\n        /* \"#utility.yul\":12603:12607   */\n      0x40\n        /* \"#utility.yul\":12598:12601   */\n      dup7\n        /* \"#utility.yul\":12594:12608   */\n      add\n        /* \"#utility.yul\":12587:12625   */\n      mstore\n        /* \"#utility.yul\":12646:12749   */\n      tag_372\n        /* \"#utility.yul\":12744:12748   */\n      dup3\n        /* \"#utility.yul\":12730:12742   */\n      dup3\n        /* \"#utility.yul\":12646:12749   */\n      tag_203\n      jump\t// in\n    tag_372:\n        /* \"#utility.yul\":12638:12749   */\n      swap2\n      pop\n        /* \"#utility.yul\":12491:12760   */\n      pop\n        /* \"#utility.yul\":12844:12848   */\n      0x60\n        /* \"#utility.yul\":12837:12842   */\n      dup4\n        /* \"#utility.yul\":12833:12849   */\n      add\n        /* \"#utility.yul\":12827:12850   */\n      mload\n        /* \"#utility.yul\":12863:12932   */\n      tag_373\n        /* \"#utility.yul\":12926:12930   */\n      0x60\n        /* \"#utility.yul\":12921:12924   */\n      dup7\n        /* \"#utility.yul\":12917:12931   */\n      add\n        /* \"#utility.yul\":12903:12915   */\n      dup3\n        /* \"#utility.yul\":12863:12932   */\n      tag_204\n      jump\t// in\n    tag_373:\n        /* \"#utility.yul\":12770:12942   */\n      pop\n        /* \"#utility.yul\":12959:12963   */\n      dup1\n        /* \"#utility.yul\":12952:12963   */\n      swap2\n      pop\n        /* \"#utility.yul\":12019:12969   */\n      pop\n        /* \"#utility.yul\":11903:12969   */\n      swap3\n      swap2\n      pop\n      pop\n      jump\t// out\n        /* \"#utility.yul\":12975:13332   */\n    tag_41:\n        /* \"#utility.yul\":13110:13114   */\n      0x00\n        /* \"#utility.yul\":13148:13150   */\n      0x20\n        /* \"#utility.yul\":13137:13146   */\n      dup3\n        /* \"#utility.yul\":13133:13151   */\n      add\n        /* \"#utility.yul\":13125:13151   */\n      swap1\n      pop\n        /* \"#utility.yul\":13197:13206   */\n      dup2\n        /* \"#utility.yul\":13191:13195   */\n      dup2\n        /* \"#utility.yul\":13187:13207   */\n      sub\n        /* \"#utility.yul\":13183:13184   */\n      0x00\n        /* \"#utility.yul\":13172:13181   */\n      dup4\n        /* \"#utility.yul\":13168:13185   */\n      add\n        /* \"#utility.yul\":13161:13208   */\n      mstore\n        /* \"#utility.yul\":13225:13325   */\n      tag_375\n        /* \"#utility.yul\":13320:13324   */\n      dup2\n        /* \"#utility.yul\":13311:13317   */\n      dup5\n        /* \"#utility.yul\":13225:13325   */\n      tag_205\n      jump\t// in\n    tag_375:\n        /* \"#utility.yul\":13217:13325   */\n      swap1\n      pop\n        /* \"#utility.yul\":12975:13332   */\n      swap3\n      swap2\n      pop\n      pop\n      jump\t// out\n        /* \"#utility.yul\":13338:13509   */\n    tag_206:\n        /* \"#utility.yul\":13478:13501   */\n      0x4e6f7420612076616c6964206f726465722069642e0000000000000000000000\n        /* \"#utility.yul\":13474:13475   */\n      0x00\n        /* \"#utility.yul\":13466:13472   */\n      dup3\n        /* \"#utility.yul\":13462:13476   */\n      add\n        /* \"#utility.yul\":13455:13502   */\n      mstore\n        /* \"#utility.yul\":13338:13509   */\n      pop\n      jump\t// out\n        /* \"#utility.yul\":13515:13881   */\n    tag_207:\n        /* \"#utility.yul\":13657:13660   */\n      0x00\n        /* \"#utility.yul\":13678:13745   */\n      tag_378\n        /* \"#utility.yul\":13742:13744   */\n      0x15\n        /* \"#utility.yul\":13737:13740   */\n      dup4\n        /* \"#utility.yul\":13678:13745   */\n      tag_187\n      jump\t// in\n    tag_378:\n        /* \"#utility.yul\":13671:13745   */\n      swap2\n      pop\n        /* \"#utility.yul\":13754:13847   */\n      tag_379\n        /* \"#utility.yul\":13843:13846   */\n      dup3\n        /* \"#utility.yul\":13754:13847   */\n      tag_206\n      jump\t// in\n    tag_379:\n        /* \"#utility.yul\":13872:13874   */\n      0x20\n        /* \"#utility.yul\":13867:13870   */\n      dup3\n        /* \"#utility.yul\":13863:13875   */\n      add\n        /* \"#utility.yul\":13856:13875   */\n      swap1\n      pop\n        /* \"#utility.yul\":13515:13881   */\n      swap2\n      swap1\n      pop\n      jump\t// out\n        /* \"#utility.yul\":13887:14306   */\n    tag_45:\n        /* \"#utility.yul\":14053:14057   */\n      0x00\n        /* \"#utility.yul\":14091:14093   */\n      0x20\n        /* \"#utility.yul\":14080:14089   */\n      dup3\n        /* \"#utility.yul\":14076:14094   */\n      add\n        /* \"#utility.yul\":14068:14094   */\n      swap1\n      pop\n        /* \"#utility.yul\":14140:14149   */\n      dup2\n        /* \"#utility.yul\":14134:14138   */\n      dup2\n        /* \"#utility.yul\":14130:14150   */\n      sub\n        /* \"#utility.yul\":14126:14127   */\n      0x00\n        /* \"#utility.yul\":14115:14124   */\n      dup4\n        /* \"#utility.yul\":14111:14128   */\n      add\n        /* \"#utility.yul\":14104:14151   */\n      mstore\n        /* \"#utility.yul\":14168:14299   */\n      tag_381\n        /* \"#utility.yul\":14294:14298   */\n      dup2\n        /* \"#utility.yul\":14168:14299   */\n      tag_207\n      jump\t// in\n    tag_381:\n        /* \"#utility.yul\":14160:14299   */\n      swap1\n      pop\n        /* \"#utility.yul\":13887:14306   */\n      swap2\n      swap1\n      pop\n      jump\t// out\n        /* \"#utility.yul\":14312:14492   */\n    tag_49:\n        /* \"#utility.yul\":14360:14437   */\n      0x4e487b7100000000000000000000000000000000000000000000000000000000\n        /* \"#utility.yul\":14357:14358   */\n      0x00\n        /* \"#utility.yul\":14350:14438   */\n      mstore\n        /* \"#utility.yul\":14457:14461   */\n      0x32\n        /* \"#utility.yul\":14454:14455   */\n      0x04\n        /* \"#utility.yul\":14447:14462   */\n      mstore\n        /* \"#utility.yul\":14481:14485   */\n      0x24\n        /* \"#utility.yul\":14478:14479   */\n      0x00\n        /* \"#utility.yul\":14471:14486   */\n      revert\n        /* \"#utility.yul\":14498:14720   */\n    tag_208:\n        /* \"#utility.yul\":14638:14672   */\n      0x596f7520617265206e6f7420746865206f776e6572206f6620746865206f7264\n        /* \"#utility.yul\":14634:14635   */\n      0x00\n        /* \"#utility.yul\":14626:14632   */\n      dup3\n        /* \"#utility.yul\":14622:14636   */\n      add\n        /* \"#utility.yul\":14615:14673   */\n      mstore\n        /* \"#utility.yul\":14707:14712   */\n      0x65722e0000000000000000000000000000000000000000000000000000000000\n        /* \"#utility.yul\":14702:14704   */\n      0x20\n        /* \"#utility.yul\":14694:14700   */\n      dup3\n        /* \"#utility.yul\":14690:14705   */\n      add\n        /* \"#utility.yul\":14683:14713   */\n      mstore\n        /* \"#utility.yul\":14498:14720   */\n      pop\n      jump\t// out\n        /* \"#utility.yul\":14726:15092   */\n    tag_209:\n        /* \"#utility.yul\":14868:14871   */\n      0x00\n        /* \"#utility.yul\":14889:14956   */\n      tag_385\n        /* \"#utility.yul\":14953:14955   */\n      0x23\n        /* \"#utility.yul\":14948:14951   */\n      dup4\n        /* \"#utility.yul\":14889:14956   */\n      tag_187\n      jump\t// in\n    tag_385:\n        /* \"#utility.yul\":14882:14956   */\n      swap2\n      pop\n        /* \"#utility.yul\":14965:15058   */\n      tag_386\n        /* \"#utility.yul\":15054:15057   */\n      dup3\n        /* \"#utility.yul\":14965:15058   */\n      tag_208\n      jump\t// in\n    tag_386:\n        /* \"#utility.yul\":15083:15085   */\n      0x40\n        /* \"#utility.yul\":15078:15081   */\n      dup3\n        /* \"#utility.yul\":15074:15086   */\n      add\n        /* \"#utility.yul\":15067:15086   */\n      swap1\n      pop\n        /* \"#utility.yul\":14726:15092   */\n      swap2\n      swap1\n      pop\n      jump\t// out\n        /* \"#utility.yul\":15098:15517   */\n    tag_53:\n        /* \"#utility.yul\":15264:15268   */\n      0x00\n        /* \"#utility.yul\":15302:15304   */\n      0x20\n        /* \"#utility.yul\":15291:15300   */\n      dup3\n        /* \"#utility.yul\":15287:15305   */\n      add\n        /* \"#utility.yul\":15279:15305   */\n      swap1\n      pop\n        /* \"#utility.yul\":15351:15360   */\n      dup2\n        /* \"#utility.yul\":15345:15349   */\n      dup2\n        /* \"#utility.yul\":15341:15361   */\n      sub\n        /* \"#utility.yul\":15337:15338   */\n      0x00\n        /* \"#utility.yul\":15326:15335   */\n      dup4\n        /* \"#utility.yul\":15322:15339   */\n      add\n        /* \"#utility.yul\":15315:15362   */\n      mstore\n        /* \"#utility.yul\":15379:15510   */\n      tag_388\n        /* \"#utility.yul\":15505:15509   */\n      dup2\n        /* \"#utility.yul\":15379:15510   */\n      tag_209\n      jump\t// in\n    tag_388:\n        /* \"#utility.yul\":15371:15510   */\n      swap1\n      pop\n        /* \"#utility.yul\":15098:15517   */\n      swap2\n      swap1\n      pop\n      jump\t// out\n        /* \"#utility.yul\":15523:15703   */\n    tag_210:\n        /* \"#utility.yul\":15571:15648   */\n      0x4e487b7100000000000000000000000000000000000000000000000000000000\n        /* \"#utility.yul\":15568:15569   */\n      0x00\n        /* \"#utility.yul\":15561:15649   */\n      mstore\n        /* \"#utility.yul\":15668:15672   */\n      0x22\n        /* \"#utility.yul\":15665:15666   */\n      0x04\n        /* \"#utility.yul\":15658:15673   */\n      mstore\n        /* \"#utility.yul\":15692:15696   */\n      0x24\n        /* \"#utility.yul\":15689:15690   */\n      0x00\n        /* \"#utility.yul\":15682:15697   */\n      revert\n        /* \"#utility.yul\":15709:16029   */\n    tag_88:\n        /* \"#utility.yul\":15753:15759   */\n      0x00\n        /* \"#utility.yul\":15790:15791   */\n      0x02\n        /* \"#utility.yul\":15784:15788   */\n      dup3\n        /* \"#utility.yul\":15780:15792   */\n      div\n        /* \"#utility.yul\":15770:15792   */\n      swap1\n      pop\n        /* \"#utility.yul\":15837:15838   */\n      0x01\n        /* \"#utility.yul\":15831:15835   */\n      dup3\n        /* \"#utility.yul\":15827:15839   */\n      and\n        /* \"#utility.yul\":15858:15876   */\n      dup1\n        /* \"#utility.yul\":15848:15929   */\n      tag_391\n      jumpi\n        /* \"#utility.yul\":15914:15918   */\n      0x7f\n        /* \"#utility.yul\":15906:15912   */\n      dup3\n        /* \"#utility.yul\":15902:15919   */\n      and\n        /* \"#utility.yul\":15892:15919   */\n      swap2\n      pop\n        /* \"#utility.yul\":15848:15929   */\n    tag_391:\n        /* \"#utility.yul\":15976:15978   */\n      0x20\n        /* \"#utility.yul\":15968:15974   */\n      dup3\n        /* \"#utility.yul\":15965:15979   */\n      lt\n        /* \"#utility.yul\":15945:15963   */\n      dup2\n        /* \"#utility.yul\":15942:15980   */\n      sub\n        /* \"#utility.yul\":15939:16023   */\n      tag_392\n      jumpi\n        /* \"#utility.yul\":15995:16013   */\n      tag_393\n      tag_210\n      jump\t// in\n    tag_393:\n        /* \"#utility.yul\":15939:16023   */\n    tag_392:\n        /* \"#utility.yul\":15760:16029   */\n      pop\n        /* \"#utility.yul\":15709:16029   */\n      swap2\n      swap1\n      pop\n      jump\t// out\n        /* \"#utility.yul\":16035:16176   */\n    tag_211:\n        /* \"#utility.yul\":16084:16088   */\n      0x00\n        /* \"#utility.yul\":16107:16110   */\n      dup2\n        /* \"#utility.yul\":16099:16110   */\n      swap1\n      pop\n        /* \"#utility.yul\":16130:16133   */\n      dup2\n        /* \"#utility.yul\":16127:16128   */\n      0x00\n        /* \"#utility.yul\":16120:16134   */\n      mstore\n        /* \"#utility.yul\":16164:16168   */\n      0x20\n        /* \"#utility.yul\":16161:16162   */\n      0x00\n        /* \"#utility.yul\":16151:16169   */\n      keccak256\n        /* \"#utility.yul\":16143:16169   */\n      swap1\n      pop\n        /* \"#utility.yul\":16035:16176   */\n      swap2\n      swap1\n      pop\n      jump\t// out\n        /* \"#utility.yul\":16182:16275   */\n    tag_212:\n        /* \"#utility.yul\":16219:16225   */\n      0x00\n        /* \"#utility.yul\":16266:16268   */\n      0x20\n        /* \"#utility.yul\":16261:16263   */\n      0x1f\n        /* \"#utility.yul\":16254:16259   */\n      dup4\n        /* \"#utility.yul\":16250:16264   */\n      add\n        /* \"#utility.yul\":16246:16269   */\n      div\n        /* \"#utility.yul\":16236:16269   */\n      swap1\n      pop\n        /* \"#utility.yul\":16182:16275   */\n      swap2\n      swap1\n      pop\n      jump\t// out\n        /* \"#utility.yul\":16281:16388   */\n    tag_213:\n        /* \"#utility.yul\":16325:16333   */\n      0x00\n        /* \"#utility.yul\":16375:16380   */\n      dup3\n        /* \"#utility.yul\":16369:16373   */\n      dup3\n        /* \"#utility.yul\":16365:16381   */\n      shl\n        /* \"#utility.yul\":16344:16381   */\n      swap1\n      pop\n        /* \"#utility.yul\":16281:16388   */\n      swap3\n      swap2\n      pop\n      pop\n      jump\t// out\n        /* \"#utility.yul\":16394:16787   */\n    tag_214:\n        /* \"#utility.yul\":16463:16469   */\n      0x00\n        /* \"#utility.yul\":16513:16514   */\n      0x08\n        /* \"#utility.yul\":16501:16511   */\n      dup4\n        /* \"#utility.yul\":16497:16515   */\n      mul\n        /* \"#utility.yul\":16536:16633   */\n      tag_398\n        /* \"#utility.yul\":16566:16632   */\n      0xffffffffffffffffffffffffffffffffffffffffffffffffffffffffffffffff\n        /* \"#utility.yul\":16555:16564   */\n      dup3\n        /* \"#utility.yul\":16536:16633   */\n      tag_213\n      jump\t// in\n    tag_398:\n        /* \"#utility.yul\":16654:16693   */\n      tag_399\n        /* \"#utility.yul\":16684:16692   */\n      dup7\n        /* \"#utility.yul\":16673:16682   */\n      dup4\n        /* \"#utility.yul\":16654:16693   */\n      tag_213\n      jump\t// in\n    tag_399:\n        /* \"#utility.yul\":16642:16693   */\n      swap6\n      pop\n        /* \"#utility.yul\":16726:16730   */\n      dup1\n        /* \"#utility.yul\":16722:16731   */\n      not\n        /* \"#utility.yul\":16715:16720   */\n      dup5\n        /* \"#utility.yul\":16711:16732   */\n      and\n        /* \"#utility.yul\":16702:16732   */\n      swap4\n      pop\n        /* \"#utility.yul\":16775:16779   */\n      dup1\n        /* \"#utility.yul\":16765:16773   */\n      dup7\n        /* \"#utility.yul\":16761:16780   */\n      and\n        /* \"#utility.yul\":16754:16759   */\n      dup5\n        /* \"#utility.yul\":16751:16781   */\n      or\n        /* \"#utility.yul\":16741:16781   */\n      swap3\n      pop\n        /* \"#utility.yul\":16470:16787   */\n      pop\n      pop\n        /* \"#utility.yul\":16394:16787   */\n      swap4\n      swap3\n      pop\n      pop\n      pop\n      jump\t// out\n        /* \"#utility.yul\":16793:16853   */\n    tag_215:\n        /* \"#utility.yul\":16821:16824   */\n      0x00\n        /* \"#utility.yul\":16842:16847   */\n      dup2\n        /* \"#utility.yul\":16835:16847   */\n      swap1\n      pop\n        /* \"#utility.yul\":16793:16853   */\n      swap2\n      swap1\n      pop\n      jump\t// out\n        /* \"#utility.yul\":16859:17001   */\n    tag_216:\n        /* \"#utility.yul\":16909:16918   */\n      0x00\n        /* \"#utility.yul\":16942:16995   */\n      tag_402\n        /* \"#utility.yul\":16960:16994   */\n      tag_403\n        /* \"#utility.yul\":16969:16993   */\n      tag_404\n        /* \"#utility.yul\":16987:16992   */\n      dup5\n        /* \"#utility.yul\":16969:16993   */\n      tag_162\n      jump\t// in\n    tag_404:\n        /* \"#utility.yul\":16960:16994   */\n      tag_215\n      jump\t// in\n    tag_403:\n        /* \"#utility.yul\":16942:16995   */\n      tag_162\n      jump\t// in\n    tag_402:\n        /* \"#utility.yul\":16929:16995   */\n      swap1\n      pop\n        /* \"#utility.yul\":16859:17001   */\n      swap2\n      swap1\n      pop\n      jump\t// out\n        /* \"#utility.yul\":17007:17082   */\n    tag_217:\n        /* \"#utility.yul\":17050:17053   */\n      0x00\n        /* \"#utility.yul\":17071:17076   */\n      dup2\n        /* \"#utility.yul\":17064:17076   */\n      swap1\n      pop\n        /* \"#utility.yul\":17007:17082   */\n      swap2\n      swap1\n      pop\n      jump\t// out\n        /* \"#utility.yul\":17088:17357   */\n    tag_218:\n        /* \"#utility.yul\":17198:17237   */\n      tag_407\n        /* \"#utility.yul\":17229:17236   */\n      dup4\n        /* \"#utility.yul\":17198:17237   */\n      tag_216\n      jump\t// in\n    tag_407:\n        /* \"#utility.yul\":17259:17350   */\n      tag_408\n        /* \"#utility.yul\":17308:17349   */\n      tag_409\n        /* \"#utility.yul\":17332:17348   */\n      dup3\n        /* \"#utility.yul\":17308:17349   */\n      tag_217\n      jump\t// in\n    tag_409:\n        /* \"#utility.yul\":17300:17306   */\n      dup5\n        /* \"#utility.yul\":17293:17297   */\n      dup5\n        /* \"#utility.yul\":17287:17298   */\n      sload\n        /* \"#utility.yul\":17259:17350   */\n      tag_214\n      jump\t// in\n    tag_408:\n        /* \"#utility.yul\":17253:17257   */\n      dup3\n        /* \"#utility.yul\":17246:17351   */\n      sstore\n        /* \"#utility.yul\":17164:17357   */\n      pop\n        /* \"#utility.yul\":17088:17357   */\n      pop\n      pop\n      pop\n      jump\t// out\n        /* \"#utility.yul\":17363:17436   */\n    tag_219:\n        /* \"#utility.yul\":17408:17411   */\n      0x00\n        /* \"#utility.yul\":17363:17436   */\n      swap1\n      jump\t// out\n        /* \"#utility.yul\":17442:17631   */\n    tag_220:\n        /* \"#utility.yul\":17519:17551   */\n      tag_412\n      tag_219\n      jump\t// in\n    tag_412:\n        /* \"#utility.yul\":17560:17625   */\n      tag_413\n        /* \"#utility.yul\":17618:17624   */\n      dup2\n        /* \"#utility.yul\":17610:17616   */\n      dup5\n        /* \"#utility.yul\":17604:17608   */\n      dup5\n        /* \"#utility.yul\":17560:17625   */\n      tag_218\n      jump\t// in\n    tag_413:\n        /* \"#utility.yul\":17495:17631   */\n      pop\n        /* \"#utility.yul\":17442:17631   */\n      pop\n      pop\n      jump\t// out\n        /* \"#utility.yul\":17637:17823   */\n    tag_221:\n        /* \"#utility.yul\":17697:17817   */\n    tag_415:\n        /* \"#utility.yul\":17714:17717   */\n      dup2\n        /* \"#utility.yul\":17707:17712   */\n      dup2\n        /* \"#utility.yul\":17704:17718   */\n      lt\n        /* \"#utility.yul\":17697:17817   */\n      iszero\n      tag_417\n      jumpi\n        /* \"#utility.yul\":17768:17807   */\n      tag_418\n        /* \"#utility.yul\":17805:17806   */\n      0x00\n        /* \"#utility.yul\":17798:17803   */\n      dup3\n        /* \"#utility.yul\":17768:17807   */\n      tag_220\n      jump\t// in\n    tag_418:\n        /* \"#utility.yul\":17741:17742   */\n      0x01\n        /* \"#utility.yul\":17734:17739   */\n      dup2\n        /* \"#utility.yul\":17730:17743   */\n      add\n        /* \"#utility.yul\":17721:17743   */\n      swap1\n      pop\n        /* \"#utility.yul\":17697:17817   */\n      jump(tag_415)\n    tag_417:\n        /* \"#utility.yul\":17637:17823   */\n      pop\n      pop\n      jump\t// out\n        /* \"#utility.yul\":17829:18372   */\n    tag_222:\n        /* \"#utility.yul\":17930:17932   */\n      0x1f\n        /* \"#utility.yul\":17925:17928   */\n      dup3\n        /* \"#utility.yul\":17922:17933   */\n      gt\n        /* \"#utility.yul\":17919:18365   */\n      iszero\n      tag_420\n      jumpi\n        /* \"#utility.yul\":17964:18002   */\n      tag_421\n        /* \"#utility.yul\":17996:18001   */\n      dup2\n        /* \"#utility.yul\":17964:18002   */\n      tag_211\n      jump\t// in\n    tag_421:\n        /* \"#utility.yul\":18048:18077   */\n      tag_422\n        /* \"#utility.yul\":18066:18076   */\n      dup5\n        /* \"#utility.yul\":18048:18077   */\n      tag_212\n      jump\t// in\n    tag_422:\n        /* \"#utility.yul\":18038:18046   */\n      dup2\n        /* \"#utility.yul\":18034:18078   */\n      add\n        /* \"#utility.yul\":18231:18233   */\n      0x20\n        /* \"#utility.yul\":18219:18229   */\n      dup6\n        /* \"#utility.yul\":18216:18234   */\n      lt\n        /* \"#utility.yul\":18213:18262   */\n      iszero\n      tag_423\n      jumpi\n        /* \"#utility.yul\":18252:18260   */\n      dup2\n        /* \"#utility.yul\":18237:18260   */\n      swap1\n      pop\n        /* \"#utility.yul\":18213:18262   */\n    tag_423:\n        /* \"#utility.yul\":18275:18355   */\n      tag_424\n        /* \"#utility.yul\":18331:18353   */\n      tag_425\n        /* \"#utility.yul\":18349:18352   */\n      dup6\n        /* \"#utility.yul\":18331:18353   */\n      tag_212\n      jump\t// in\n    tag_425:\n        /* \"#utility.yul\":18321:18329   */\n      dup4\n        /* \"#utility.yul\":18317:18354   */\n      add\n        /* \"#utility.yul\":18304:18315   */\n      dup3\n        /* \"#utility.yul\":18275:18355   */\n      tag_221\n      jump\t// in\n    tag_424:\n        /* \"#utility.yul\":17934:18365   */\n      pop\n      pop\n        /* \"#utility.yul\":17919:18365   */\n    tag_420:\n        /* \"#utility.yul\":17829:18372   */\n      pop\n      pop\n      pop\n      jump\t// out\n        /* \"#utility.yul\":18378:18495   */\n    tag_223:\n        /* \"#utility.yul\":18432:18440   */\n      0x00\n        /* \"#utility.yul\":18482:18487   */\n      dup3\n        /* \"#utility.yul\":18476:18480   */\n      dup3\n        /* \"#utility.yul\":18472:18488   */\n      shr\n        /* \"#utility.yul\":18451:18488   */\n      swap1\n      pop\n        /* \"#utility.yul\":18378:18495   */\n      swap3\n      swap2\n      pop\n      pop\n      jump\t// out\n        /* \"#utility.yul\":18501:18670   */\n    tag_224:\n        /* \"#utility.yul\":18545:18551   */\n      0x00\n        /* \"#utility.yul\":18578:18629   */\n      tag_428\n        /* \"#utility.yul\":18626:18627   */\n      0x00\n        /* \"#utility.yul\":18622:18628   */\n      not\n        /* \"#utility.yul\":18614:18619   */\n      dup5\n        /* \"#utility.yul\":18611:18612   */\n      0x08\n        /* \"#utility.yul\":18607:18620   */\n      mul\n        /* \"#utility.yul\":18578:18629   */\n      tag_223\n      jump\t// in\n    tag_428:\n        /* \"#utility.yul\":18574:18630   */\n      not\n        /* \"#utility.yul\":18659:18663   */\n      dup1\n        /* \"#utility.yul\":18653:18657   */\n      dup4\n        /* \"#utility.yul\":18649:18664   */\n      and\n        /* \"#utility.yul\":18639:18664   */\n      swap2\n      pop\n        /* \"#utility.yul\":18552:18670   */\n      pop\n        /* \"#utility.yul\":18501:18670   */\n      swap3\n      swap2\n      pop\n      pop\n      jump\t// out\n        /* \"#utility.yul\":18675:18970   */\n    tag_225:\n        /* \"#utility.yul\":18751:18755   */\n      0x00\n        /* \"#utility.yul\":18897:18926   */\n      tag_430\n        /* \"#utility.yul\":18922:18925   */\n      dup4\n        /* \"#utility.yul\":18916:18920   */\n      dup4\n        /* \"#utility.yul\":18897:18926   */\n      tag_224\n      jump\t// in\n    tag_430:\n        /* \"#utility.yul\":18889:18926   */\n      swap2\n      pop\n        /* \"#utility.yul\":18959:18962   */\n      dup3\n        /* \"#utility.yul\":18956:18957   */\n      0x02\n        /* \"#utility.yul\":18952:18963   */\n      mul\n        /* \"#utility.yul\":18946:18950   */\n      dup3\n        /* \"#utility.yul\":18943:18964   */\n      or\n        /* \"#utility.yul\":18935:18964   */\n      swap1\n      pop\n        /* \"#utility.yul\":18675:18970   */\n      swap3\n      swap2\n      pop\n      pop\n      jump\t// out\n        /* \"#utility.yul\":18975:20370   */\n    tag_60:\n        /* \"#utility.yul\":19092:19129   */\n      tag_432\n        /* \"#utility.yul\":19125:19128   */\n      dup3\n        /* \"#utility.yul\":19092:19129   */\n      tag_186\n      jump\t// in\n    tag_432:\n        /* \"#utility.yul\":19194:19212   */\n      0xffffffffffffffff\n        /* \"#utility.yul\":19186:19192   */\n      dup2\n        /* \"#utility.yul\":19183:19213   */\n      gt\n        /* \"#utility.yul\":19180:19236   */\n      iszero\n      tag_433\n      jumpi\n        /* \"#utility.yul\":19216:19234   */\n      tag_434\n      tag_172\n      jump\t// in\n    tag_434:\n        /* \"#utility.yul\":19180:19236   */\n    tag_433:\n        /* \"#utility.yul\":19260:19298   */\n      tag_435\n        /* \"#utility.yul\":19292:19296   */\n      dup3\n        /* \"#utility.yul\":19286:19297   */\n      sload\n        /* \"#utility.yul\":19260:19298   */\n      tag_88\n      jump\t// in\n    tag_435:\n        /* \"#utility.yul\":19345:19412   */\n      tag_436\n        /* \"#utility.yul\":19405:19411   */\n      dup3\n        /* \"#utility.yul\":19397:19403   */\n      dup3\n        /* \"#utility.yul\":19391:19395   */\n      dup6\n        /* \"#utility.yul\":19345:19412   */\n      tag_222\n      jump\t// in\n    tag_436:\n        /* \"#utility.yul\":19439:19440   */\n      0x00\n        /* \"#utility.yul\":19463:19467   */\n      0x20\n        /* \"#utility.yul\":19450:19467   */\n      swap1\n      pop\n        /* \"#utility.yul\":19495:19497   */\n      0x1f\n        /* \"#utility.yul\":19487:19493   */\n      dup4\n        /* \"#utility.yul\":19484:19498   */\n      gt\n        /* \"#utility.yul\":19512:19513   */\n      0x01\n        /* \"#utility.yul\":19507:20125   */\n      dup2\n      eq\n      tag_438\n      jumpi\n        /* \"#utility.yul\":20169:20170   */\n      0x00\n        /* \"#utility.yul\":20186:20192   */\n      dup5\n        /* \"#utility.yul\":20183:20260   */\n      iszero\n      tag_439\n      jumpi\n        /* \"#utility.yul\":20235:20244   */\n      dup3\n        /* \"#utility.yul\":20230:20233   */\n      dup8\n        /* \"#utility.yul\":20226:20245   */\n      add\n        /* \"#utility.yul\":20220:20246   */\n      mload\n        /* \"#utility.yul\":20211:20246   */\n      swap1\n      pop\n        /* \"#utility.yul\":20183:20260   */\n    tag_439:\n        /* \"#utility.yul\":20286:20353   */\n      tag_440\n        /* \"#utility.yul\":20346:20352   */\n      dup6\n        /* \"#utility.yul\":20339:20344   */\n      dup3\n        /* \"#utility.yul\":20286:20353   */\n      tag_225\n      jump\t// in\n    tag_440:\n        /* \"#utility.yul\":20280:20284   */\n      dup7\n        /* \"#utility.yul\":20273:20354   */\n      sstore\n        /* \"#utility.yul\":20142:20364   */\n      pop\n        /* \"#utility.yul\":19477:20364   */\n      jump(tag_437)\n        /* \"#utility.yul\":19507:20125   */\n    tag_438:\n        /* \"#utility.yul\":19559:19563   */\n      0x1f\n        /* \"#utility.yul\":19555:19564   */\n      not\n        /* \"#utility.yul\":19547:19553   */\n      dup5\n        /* \"#utility.yul\":19543:19565   */\n      and\n        /* \"#utility.yul\":19593:19630   */\n      tag_441\n        /* \"#utility.yul\":19625:19629   */\n      dup7\n        /* \"#utility.yul\":19593:19630   */\n      tag_211\n      jump\t// in\n    tag_441:\n        /* \"#utility.yul\":19652:19653   */\n      0x00\n        /* \"#utility.yul\":19666:19874   */\n    tag_442:\n        /* \"#utility.yul\":19680:19687   */\n      dup3\n        /* \"#utility.yul\":19677:19678   */\n      dup2\n        /* \"#utility.yul\":19674:19688   */\n      lt\n        /* \"#utility.yul\":19666:19874   */\n      iszero\n      tag_444\n      jumpi\n        /* \"#utility.yul\":19759:19768   */\n      dup5\n        /* \"#utility.yul\":19754:19757   */\n      dup10\n        /* \"#utility.yul\":19750:19769   */\n      add\n        /* \"#utility.yul\":19744:19770   */\n      mload\n        /* \"#utility.yul\":19736:19742   */\n      dup3\n        /* \"#utility.yul\":19729:19771   */\n      sstore\n        /* \"#utility.yul\":19810:19811   */\n      0x01\n        /* \"#utility.yul\":19802:19808   */\n      dup3\n        /* \"#utility.yul\":19798:19812   */\n      add\n        /* \"#utility.yul\":19788:19812   */\n      swap2\n      pop\n        /* \"#utility.yul\":19857:19859   */\n      0x20\n        /* \"#utility.yul\":19846:19855   */\n      dup6\n        /* \"#utility.yul\":19842:19860   */\n      add\n        /* \"#utility.yul\":19829:19860   */\n      swap5\n      pop\n        /* \"#utility.yul\":19703:19707   */\n      0x20\n        /* \"#utility.yul\":19700:19701   */\n      dup2\n        /* \"#utility.yul\":19696:19708   */\n      add\n        /* \"#utility.yul\":19691:19708   */\n      swap1\n      pop\n        /* \"#utility.yul\":19666:19874   */\n      jump(tag_442)\n    tag_444:\n        /* \"#utility.yul\":19902:19908   */\n      dup7\n        /* \"#utility.yul\":19893:19900   */\n      dup4\n        /* \"#utility.yul\":19890:19909   */\n      lt\n        /* \"#utility.yul\":19887:20066   */\n      iszero\n      tag_445\n      jumpi\n        /* \"#utility.yul\":19960:19969   */\n      dup5\n        /* \"#utility.yul\":19955:19958   */\n      dup10\n        /* \"#utility.yul\":19951:19970   */\n      add\n        /* \"#utility.yul\":19945:19971   */\n      mload\n        /* \"#utility.yul\":20003:20051   */\n      tag_446\n        /* \"#utility.yul\":20045:20049   */\n      0x1f\n        /* \"#utility.yul\":20037:20043   */\n      dup10\n        /* \"#utility.yul\":20033:20050   */\n      and\n        /* \"#utility.yul\":20022:20031   */\n      dup3\n        /* \"#utility.yul\":20003:20051   */\n      tag_224\n      jump\t// in\n    tag_446:\n        /* \"#utility.yul\":19995:20001   */\n      dup4\n        /* \"#utility.yul\":19988:20052   */\n      sstore\n        /* \"#utility.yul\":19910:20066   */\n      pop\n        /* \"#utility.yul\":19887:20066   */\n    tag_445:\n        /* \"#utility.yul\":20112:20113   */\n      0x01\n        /* \"#utility.yul\":20108:20109   */\n      0x02\n        /* \"#utility.yul\":20100:20106   */\n      dup9\n        /* \"#utility.yul\":20096:20110   */\n      mul\n        /* \"#utility.yul\":20092:20114   */\n      add\n        /* \"#utility.yul\":20086:20090   */\n      dup9\n        /* \"#utility.yul\":20079:20115   */\n      sstore\n        /* \"#utility.yul\":19514:20125   */\n      pop\n      pop\n      pop\n        /* \"#utility.yul\":19477:20364   */\n    tag_437:\n      pop\n        /* \"#utility.yul\":19067:20370   */\n      pop\n      pop\n      pop\n        /* \"#utility.yul\":18975:20370   */\n      pop\n      pop\n      jump\t// out\n        /* \"#utility.yul\":20376:20556   */\n    tag_226:\n        /* \"#utility.yul\":20424:20501   */\n      0x4e487b7100000000000000000000000000000000000000000000000000000000\n        /* \"#utility.yul\":20421:20422   */\n      0x00\n        /* \"#utility.yul\":20414:20502   */\n      mstore\n        /* \"#utility.yul\":20521:20525   */\n      0x11\n        /* \"#utility.yul\":20518:20519   */\n      0x04\n        /* \"#utility.yul\":20511:20526   */\n      mstore\n        /* \"#utility.yul\":20545:20549   */\n      0x24\n        /* \"#utility.yul\":20542:20543   */\n      0x00\n        /* \"#utility.yul\":20535:20550   */\n      revert\n        /* \"#utility.yul\":20562:20795   */\n    tag_62:\n        /* \"#utility.yul\":20601:20604   */\n      0x00\n        /* \"#utility.yul\":20624:20648   */\n      tag_449\n        /* \"#utility.yul\":20642:20647   */\n      dup3\n        /* \"#utility.yul\":20624:20648   */\n      tag_162\n      jump\t// in\n    tag_449:\n        /* \"#utility.yul\":20615:20648   */\n      swap2\n      pop\n        /* \"#utility.yul\":20670:20736   */\n      0xffffffffffffffffffffffffffffffffffffffffffffffffffffffffffffffff\n        /* \"#utility.yul\":20663:20668   */\n      dup3\n        /* \"#utility.yul\":20660:20737   */\n      sub\n        /* \"#utility.yul\":20657:20760   */\n      tag_450\n      jumpi\n        /* \"#utility.yul\":20740:20758   */\n      tag_451\n      tag_226\n      jump\t// in\n    tag_451:\n        /* \"#utility.yul\":20657:20760   */\n    tag_450:\n        /* \"#utility.yul\":20787:20788   */\n      0x01\n        /* \"#utility.yul\":20780:20785   */\n      dup3\n        /* \"#utility.yul\":20776:20789   */\n      add\n        /* \"#utility.yul\":20769:20789   */\n      swap1\n      pop\n        /* \"#utility.yul\":20562:20795   */\n      swap2\n      swap1\n      pop\n      jump\t// out\n        /* \"#utility.yul\":20801:20963   */\n    tag_227:\n        /* \"#utility.yul\":20941:20955   */\n      0x4e6f2070726f64756374732e0000000000000000000000000000000000000000\n        /* \"#utility.yul\":20937:20938   */\n      0x00\n        /* \"#utility.yul\":20929:20935   */\n      dup3\n        /* \"#utility.yul\":20925:20939   */\n      add\n        /* \"#utility.yul\":20918:20956   */\n      mstore\n        /* \"#utility.yul\":20801:20963   */\n      pop\n      jump\t// out\n        /* \"#utility.yul\":20969:21335   */\n    tag_228:\n        /* \"#utility.yul\":21111:21114   */\n      0x00\n        /* \"#utility.yul\":21132:21199   */\n      tag_454\n        /* \"#utility.yul\":21196:21198   */\n      0x0c\n        /* \"#utility.yul\":21191:21194   */\n      dup4\n        /* \"#utility.yul\":21132:21199   */\n      tag_187\n      jump\t// in\n    tag_454:\n        /* \"#utility.yul\":21125:21199   */\n      swap2\n      pop\n        /* \"#utility.yul\":21208:21301   */\n      tag_455\n        /* \"#utility.yul\":21297:21300   */\n      dup3\n        /* \"#utility.yul\":21208:21301   */\n      tag_227\n      jump\t// in\n    tag_455:\n        /* \"#utility.yul\":21326:21328   */\n      0x20\n        /* \"#utility.yul\":21321:21324   */\n      dup3\n        /* \"#utility.yul\":21317:21329   */\n      add\n        /* \"#utility.yul\":21310:21329   */\n      swap1\n      pop\n        /* \"#utility.yul\":20969:21335   */\n      swap2\n      swap1\n      pop\n      jump\t// out\n        /* \"#utility.yul\":21341:21760   */\n    tag_66:\n        /* \"#utility.yul\":21507:21511   */\n      0x00\n        /* \"#utility.yul\":21545:21547   */\n      0x20\n        /* \"#utility.yul\":21534:21543   */\n      dup3\n        /* \"#utility.yul\":21530:21548   */\n      add\n        /* \"#utility.yul\":21522:21548   */\n      swap1\n      pop\n        /* \"#utility.yul\":21594:21603   */\n      dup2\n        /* \"#utility.yul\":21588:21592   */\n      dup2\n        /* \"#utility.yul\":21584:21604   */\n      sub\n        /* \"#utility.yul\":21580:21581   */\n      0x00\n        /* \"#utility.yul\":21569:21578   */\n      dup4\n        /* \"#utility.yul\":21565:21582   */\n      add\n        /* \"#utility.yul\":21558:21605   */\n      mstore\n        /* \"#utility.yul\":21622:21753   */\n      tag_457\n        /* \"#utility.yul\":21748:21752   */\n      dup2\n        /* \"#utility.yul\":21622:21753   */\n      tag_228\n      jump\t// in\n    tag_457:\n        /* \"#utility.yul\":21614:21753   */\n      swap1\n      pop\n        /* \"#utility.yul\":21341:21760   */\n      swap2\n      swap1\n      pop\n      jump\t// out\n        /* \"#utility.yul\":21766:21960   */\n    tag_83:\n        /* \"#utility.yul\":21806:21810   */\n      0x00\n        /* \"#utility.yul\":21826:21846   */\n      tag_459\n        /* \"#utility.yul\":21844:21845   */\n      dup3\n        /* \"#utility.yul\":21826:21846   */\n      tag_162\n      jump\t// in\n    tag_459:\n        /* \"#utility.yul\":21821:21846   */\n      swap2\n      pop\n        /* \"#utility.yul\":21860:21880   */\n      tag_460\n        /* \"#utility.yul\":21878:21879   */\n      dup4\n        /* \"#utility.yul\":21860:21880   */\n      tag_162\n      jump\t// in\n    tag_460:\n        /* \"#utility.yul\":21855:21880   */\n      swap3\n      pop\n        /* \"#utility.yul\":21904:21905   */\n      dup3\n        /* \"#utility.yul\":21901:21902   */\n      dup3\n        /* \"#utility.yul\":21897:21906   */\n      sub\n        /* \"#utility.yul\":21889:21906   */\n      swap1\n      pop\n        /* \"#utility.yul\":21928:21929   */\n      dup2\n        /* \"#utility.yul\":21922:21926   */\n      dup2\n        /* \"#utility.yul\":21919:21930   */\n      gt\n        /* \"#utility.yul\":21916:21953   */\n      iszero\n      tag_461\n      jumpi\n        /* \"#utility.yul\":21933:21951   */\n      tag_462\n      tag_226\n      jump\t// in\n    tag_462:\n        /* \"#utility.yul\":21916:21953   */\n    tag_461:\n        /* \"#utility.yul\":21766:21960   */\n      swap3\n      swap2\n      pop\n      pop\n      jump\t// out\n        /* \"#utility.yul\":21966:22139   */\n    tag_229:\n        /* \"#utility.yul\":22106:22131   */\n      0x596f7520617265206e6f7420617574686f72697a65642e000000000000000000\n        /* \"#utility.yul\":22102:22103   */\n      0x00\n        /* \"#utility.yul\":22094:22100   */\n      dup3\n        /* \"#utility.yul\":22090:22104   */\n      add\n        /* \"#utility.yul\":22083:22132   */\n      mstore\n        /* \"#utility.yul\":21966:22139   */\n      pop\n      jump\t// out\n        /* \"#utility.yul\":22145:22511   */\n    tag_230:\n        /* \"#utility.yul\":22287:22290   */\n      0x00\n        /* \"#utility.yul\":22308:22375   */\n      tag_465\n        /* \"#utility.yul\":22372:22374   */\n      0x17\n        /* \"#utility.yul\":22367:22370   */\n      dup4\n        /* \"#utility.yul\":22308:22375   */\n      tag_187\n      jump\t// in\n    tag_465:\n        /* \"#utility.yul\":22301:22375   */\n      swap2\n      pop\n        /* \"#utility.yul\":22384:22477   */\n      tag_466\n        /* \"#utility.yul\":22473:22476   */\n      dup3\n        /* \"#utility.yul\":22384:22477   */\n      tag_229\n      jump\t// in\n    tag_466:\n        /* \"#utility.yul\":22502:22504   */\n      0x20\n        /* \"#utility.yul\":22497:22500   */\n      dup3\n        /* \"#utility.yul\":22493:22505   */\n      add\n        /* \"#utility.yul\":22486:22505   */\n      swap1\n      pop\n        /* \"#utility.yul\":22145:22511   */\n      swap2\n      swap1\n      pop\n      jump\t// out\n        /* \"#utility.yul\":22517:22936   */\n    tag_99:\n        /* \"#utility.yul\":22683:22687   */\n      0x00\n        /* \"#utility.yul\":22721:22723   */\n      0x20\n        /* \"#utility.yul\":22710:22719   */\n      dup3\n        /* \"#utility.yul\":22706:22724   */\n      add\n        /* \"#utility.yul\":22698:22724   */\n      swap1\n      pop\n        /* \"#utility.yul\":22770:22779   */\n      dup2\n        /* \"#utility.yul\":22764:22768   */\n      dup2\n        /* \"#utility.yul\":22760:22780   */\n      sub\n        /* \"#utility.yul\":22756:22757   */\n      0x00\n        /* \"#utility.yul\":22745:22754   */\n      dup4\n        /* \"#utility.yul\":22741:22758   */\n      add\n        /* \"#utility.yul\":22734:22781   */\n      mstore\n        /* \"#utility.yul\":22798:22929   */\n      tag_468\n        /* \"#utility.yul\":22924:22928   */\n      dup2\n        /* \"#utility.yul\":22798:22929   */\n      tag_230\n      jump\t// in\n    tag_468:\n        /* \"#utility.yul\":22790:22929   */\n      swap1\n      pop\n        /* \"#utility.yul\":22517:22936   */\n      swap2\n      swap1\n      pop\n      jump\t// out\n        /* \"#utility.yul\":22942:23117   */\n    tag_231:\n        /* \"#utility.yul\":23082:23109   */\n      0x4f7264657220697320616c726561647920736869707065642e00000000000000\n        /* \"#utility.yul\":23078:23079   */\n      0x00\n        /* \"#utility.yul\":23070:23076   */\n      dup3\n        /* \"#utility.yul\":23066:23080   */\n      add\n        /* \"#utility.yul\":23059:23110   */\n      mstore\n        /* \"#utility.yul\":22942:23117   */\n      pop\n      jump\t// out\n        /* \"#utility.yul\":23123:23489   */\n    tag_232:\n        /* \"#utility.yul\":23265:23268   */\n      0x00\n        /* \"#utility.yul\":23286:23353   */\n      tag_471\n        /* \"#utility.yul\":23350:23352   */\n      0x19\n        /* \"#utility.yul\":23345:23348   */\n      dup4\n        /* \"#utility.yul\":23286:23353   */\n      tag_187\n      jump\t// in\n    tag_471:\n        /* \"#utility.yul\":23279:23353   */\n      swap2\n      pop\n        /* \"#utility.yul\":23362:23455   */\n      tag_472\n        /* \"#utility.yul\":23451:23454   */\n      dup3\n        /* \"#utility.yul\":23362:23455   */\n      tag_231\n      jump\t// in\n    tag_472:\n        /* \"#utility.yul\":23480:23482   */\n      0x20\n        /* \"#utility.yul\":23475:23478   */\n      dup3\n        /* \"#utility.yul\":23471:23483   */\n      add\n        /* \"#utility.yul\":23464:23483   */\n      swap1\n      pop\n        /* \"#utility.yul\":23123:23489   */\n      swap2\n      swap1\n      pop\n      jump\t// out\n        /* \"#utility.yul\":23495:23914   */\n    tag_110:\n        /* \"#utility.yul\":23661:23665   */\n      0x00\n        /* \"#utility.yul\":23699:23701   */\n      0x20\n        /* \"#utility.yul\":23688:23697   */\n      dup3\n        /* \"#utility.yul\":23684:23702   */\n      add\n        /* \"#utility.yul\":23676:23702   */\n      swap1\n      pop\n        /* \"#utility.yul\":23748:23757   */\n      dup2\n        /* \"#utility.yul\":23742:23746   */\n      dup2\n        /* \"#utility.yul\":23738:23758   */\n      sub\n        /* \"#utility.yul\":23734:23735   */\n      0x00\n        /* \"#utility.yul\":23723:23732   */\n      dup4\n        /* \"#utility.yul\":23719:23736   */\n      add\n        /* \"#utility.yul\":23712:23759   */\n      mstore\n        /* \"#utility.yul\":23776:23907   */\n      tag_474\n        /* \"#utility.yul\":23902:23906   */\n      dup2\n        /* \"#utility.yul\":23776:23907   */\n      tag_232\n      jump\t// in\n    tag_474:\n        /* \"#utility.yul\":23768:23907   */\n      swap1\n      pop\n        /* \"#utility.yul\":23495:23914   */\n      swap2\n      swap1\n      pop\n      jump\t// out\n\n    auxdata: 0xa26469706673582212206619d0b5db8b41d2fd0841438581265ab6274e1bd2e04b66f0c613908f5ef07764736f6c63430008180033\n}\n",
				"bytecode": {
					"linkReferences": {},
					"object": "608060405234801561000f575f80fd5b503360015f6101000a81548173ffffffffffffffffffffffffffffffffffffffff021916908373ffffffffffffffffffffffffffffffffffffffff1602179055506117928061005d5f395ff3fe608060405234801561000f575f80fd5b506004361061007b575f3560e01c80638da5cb5b116100595780638da5cb5b146100e9578063a85c38ef14610107578063afe13a6214610139578063d09ef241146101555761007b565b80633c5406871461007f578063577dc0a01461009d5780636d9a65d8146100b9575b5f80fd5b610087610185565b6040516100949190610b1d565b60405180910390f35b6100b760048036038101906100b29190610cad565b61018b565b005b6100d360048036038101906100ce9190610dcb565b6102d3565b6040516100e09190610b1d565b60405180910390f35b6100f161049b565b6040516100fe9190610e80565b60405180910390f35b610121600480360381019061011c9190610e99565b6104c0565b60405161013093929190610fb1565b60405180910390f35b610153600480360381019061014e9190610e99565b6105a5565b005b61016f600480360381019061016a9190610e99565b61085c565b60405161017c9190611171565b60405180910390f35b60025481565b815f8054905081106101d2576040517f08c379a00000000000000000000000000000000000000000000000000000000081526004016101c9906111db565b60405180910390fd5b823373ffffffffffffffffffffffffffffffffffffffff165f82815481106101fd576101fc6111f9565b5b905f5260205f2090600402015f015f9054906101000a900473ffffffffffffffffffffffffffffffffffffffff1673ffffffffffffffffffffffffffffffffffffffff1614610281576040517f08c379a000000000000000000000000000000000000000000000000000000000815260040161027890611296565b60405180910390fd5b5f808581548110610295576102946111f9565b5b905f5260205f2090600402019050838160010190816102b491906114ae565b505060025f8154809291906102c8906115aa565b919050555050505050565b5f815f815111610318576040517f08c379a000000000000000000000000000000000000000000000000000000000815260040161030f9061163b565b60405180910390fd5b610320610a51565b33815f019073ffffffffffffffffffffffffffffffffffffffff16908173ffffffffffffffffffffffffffffffffffffffff16815250508481602001819052508381604001819052505f8160600190600381111561038157610380610f3e565b5b9081600381111561039557610394610f3e565b5b815250505f81908060018154018082558091505060019003905f5260205f2090600402015f909190919091505f820151815f015f6101000a81548173ffffffffffffffffffffffffffffffffffffffff021916908373ffffffffffffffffffffffffffffffffffffffff160217905550602082015181600101908161041a91906114ae565b506040820151816002019080519060200190610437929190610a9f565b506060820151816003015f6101000a81548160ff0219169083600381111561046257610461610f3e565b5b0217905550505060015f8054905061047a9190611659565b92505060025f81548092919061048f906115aa565b91905055505092915050565b60015f9054906101000a900473ffffffffffffffffffffffffffffffffffffffff1681565b5f81815481106104ce575f80fd5b905f5260205f2090600402015f91509050805f015f9054906101000a900473ffffffffffffffffffffffffffffffffffffffff1690806001018054610512906112e1565b80601f016020809104026020016040519081016040528092919081815260200182805461053e906112e1565b80156105895780601f1061056057610100808354040283529160200191610589565b820191905f5260205f20905b81548152906001019060200180831161056c57829003601f168201915b505050505090806003015f9054906101000a900460ff16905083565b805f8054905081106105ec576040517f08c379a00000000000000000000000000000000000000000000000000000000081526004016105e3906111db565b60405180910390fd5b3373ffffffffffffffffffffffffffffffffffffffff1660015f9054906101000a900473ffffffffffffffffffffffffffffffffffffffff1673ffffffffffffffffffffffffffffffffffffffff161461067b576040517f08c379a0000000000000000000000000000000000000000000000000000000008152600401610672906116d6565b60405180910390fd5b5f80838154811061068f5761068e6111f9565b5b905f5260205f20906004020190506003808111156106b0576106af610f3e565b5b816003015f9054906101000a900460ff1660038111156106d3576106d2610f3e565b5b03610713576040517f08c379a000000000000000000000000000000000000000000000000000000000815260040161070a9061173e565b60405180910390fd5b5f600381111561072657610725610f3e565b5b816003015f9054906101000a900460ff16600381111561074957610748610f3e565b5b0361077f576001816003015f6101000a81548160ff0219169083600381111561077557610774610f3e565b5b0217905550610857565b6001600381111561079357610792610f3e565b5b816003015f9054906101000a900460ff1660038111156107b6576107b5610f3e565b5b036107ec576002816003015f6101000a81548160ff021916908360038111156107e2576107e1610f3e565b5b0217905550610856565b60026003811115610800576107ff610f3e565b5b816003015f9054906101000a900460ff16600381111561082357610822610f3e565b5b03610855576003816003015f6101000a81548160ff0219169083600381111561084f5761084e610f3e565b5b02179055505b5b5b505050565b610864610a51565b815f8054905081106108ab576040517f08c379a00000000000000000000000000000000000000000000000000000000081526004016108a2906111db565b60405180910390fd5b5f83815481106108be576108bd6111f9565b5b905f5260205f2090600402016040518060800160405290815f82015f9054906101000a900473ffffffffffffffffffffffffffffffffffffffff1673ffffffffffffffffffffffffffffffffffffffff1673ffffffffffffffffffffffffffffffffffffffff168152602001600182018054610939906112e1565b80601f0160208091040260200160405190810160405280929190818152602001828054610965906112e1565b80156109b05780601f10610987576101008083540402835291602001916109b0565b820191905f5260205f20905b81548152906001019060200180831161099357829003601f168201915b5050505050815260200160028201805480602002602001604051908101604052809291908181526020018280548015610a0657602002820191905f5260205f20905b8154815260200190600101908083116109f2575b50505050508152602001600382015f9054906101000a900460ff166003811115610a3357610a32610f3e565b5b6003811115610a4557610a44610f3e565b5b81525050915050919050565b60405180608001604052805f73ffffffffffffffffffffffffffffffffffffffff16815260200160608152602001606081526020015f6003811115610a9957610a98610f3e565b5b81525090565b828054828255905f5260205f20908101928215610ad9579160200282015b82811115610ad8578251825591602001919060010190610abd565b5b509050610ae69190610aea565b5090565b5b80821115610b01575f815f905550600101610aeb565b5090565b5f819050919050565b610b1781610b05565b82525050565b5f602082019050610b305f830184610b0e565b92915050565b5f604051905090565b5f80fd5b5f80fd5b610b5081610b05565b8114610b5a575f80fd5b50565b5f81359050610b6b81610b47565b92915050565b5f80fd5b5f80fd5b5f601f19601f8301169050919050565b7f4e487b71000000000000000000000000000000000000000000000000000000005f52604160045260245ffd5b610bbf82610b79565b810181811067ffffffffffffffff82111715610bde57610bdd610b89565b5b80604052505050565b5f610bf0610b36565b9050610bfc8282610bb6565b919050565b5f67ffffffffffffffff821115610c1b57610c1a610b89565b5b610c2482610b79565b9050602081019050919050565b828183375f83830152505050565b5f610c51610c4c84610c01565b610be7565b905082815260208101848484011115610c6d57610c6c610b75565b5b610c78848285610c31565b509392505050565b5f82601f830112610c9457610c93610b71565b5b8135610ca4848260208601610c3f565b91505092915050565b5f8060408385031215610cc357610cc2610b3f565b5b5f610cd085828601610b5d565b925050602083013567ffffffffffffffff811115610cf157610cf0610b43565b5b610cfd85828601610c80565b9150509250929050565b5f67ffffffffffffffff821115610d2157610d20610b89565b5b602082029050602081019050919050565b5f80fd5b5f610d48610d4384610d07565b610be7565b90508083825260208201905060208402830185811115610d6b57610d6a610d32565b5b835b81811015610d945780610d808882610b5d565b845260208401935050602081019050610d6d565b5050509392505050565b5f82601f830112610db257610db1610b71565b5b8135610dc2848260208601610d36565b91505092915050565b5f8060408385031215610de157610de0610b3f565b5b5f83013567ffffffffffffffff811115610dfe57610dfd610b43565b5b610e0a85828601610c80565b925050602083013567ffffffffffffffff811115610e2b57610e2a610b43565b5b610e3785828601610d9e565b9150509250929050565b5f73ffffffffffffffffffffffffffffffffffffffff82169050919050565b5f610e6a82610e41565b9050919050565b610e7a81610e60565b82525050565b5f602082019050610e935f830184610e71565b92915050565b5f60208284031215610eae57610ead610b3f565b5b5f610ebb84828501610b5d565b91505092915050565b5f81519050919050565b5f82825260208201905092915050565b5f5b83811015610efb578082015181840152602081019050610ee0565b5f8484015250505050565b5f610f1082610ec4565b610f1a8185610ece565b9350610f2a818560208601610ede565b610f3381610b79565b840191505092915050565b7f4e487b71000000000000000000000000000000000000000000000000000000005f52602160045260245ffd5b60048110610f7c57610f7b610f3e565b5b50565b5f819050610f8c82610f6b565b919050565b5f610f9b82610f7f565b9050919050565b610fab81610f91565b82525050565b5f606082019050610fc45f830186610e71565b8181036020830152610fd68185610f06565b9050610fe56040830184610fa2565b949350505050565b610ff681610e60565b82525050565b5f82825260208201905092915050565b5f61101682610ec4565b6110208185610ffc565b9350611030818560208601610ede565b61103981610b79565b840191505092915050565b5f81519050919050565b5f82825260208201905092915050565b5f819050602082019050919050565b61107681610b05565b82525050565b5f611087838361106d565b60208301905092915050565b5f602082019050919050565b5f6110a982611044565b6110b3818561104e565b93506110be8361105e565b805f5b838110156110ee5781516110d5888261107c565b97506110e083611093565b9250506001810190506110c1565b5085935050505092915050565b61110481610f91565b82525050565b5f608083015f83015161111f5f860182610fed565b5060208301518482036020860152611137828261100c565b91505060408301518482036040860152611151828261109f565b915050606083015161116660608601826110fb565b508091505092915050565b5f6020820190508181035f830152611189818461110a565b905092915050565b7f4e6f7420612076616c6964206f726465722069642e00000000000000000000005f82015250565b5f6111c5601583610ece565b91506111d082611191565b602082019050919050565b5f6020820190508181035f8301526111f2816111b9565b9050919050565b7f4e487b71000000000000000000000000000000000000000000000000000000005f52603260045260245ffd5b7f596f7520617265206e6f7420746865206f776e6572206f6620746865206f72645f8201527f65722e0000000000000000000000000000000000000000000000000000000000602082015250565b5f611280602383610ece565b915061128b82611226565b604082019050919050565b5f6020820190508181035f8301526112ad81611274565b9050919050565b7f4e487b71000000000000000000000000000000000000000000000000000000005f52602260045260245ffd5b5f60028204905060018216806112f857607f821691505b60208210810361130b5761130a6112b4565b5b50919050565b5f819050815f5260205f209050919050565b5f6020601f8301049050919050565b5f82821b905092915050565b5f6008830261136d7fffffffffffffffffffffffffffffffffffffffffffffffffffffffffffffffff82611332565b6113778683611332565b95508019841693508086168417925050509392505050565b5f819050919050565b5f6113b26113ad6113a884610b05565b61138f565b610b05565b9050919050565b5f819050919050565b6113cb83611398565b6113df6113d7826113b9565b84845461133e565b825550505050565b5f90565b6113f36113e7565b6113fe8184846113c2565b505050565b5b81811015611421576114165f826113eb565b600181019050611404565b5050565b601f8211156114665761143781611311565b61144084611323565b8101602085101561144f578190505b61146361145b85611323565b830182611403565b50505b505050565b5f82821c905092915050565b5f6114865f198460080261146b565b1980831691505092915050565b5f61149e8383611477565b9150826002028217905092915050565b6114b782610ec4565b67ffffffffffffffff8111156114d0576114cf610b89565b5b6114da82546112e1565b6114e5828285611425565b5f60209050601f831160018114611516575f8415611504578287015190505b61150e8582611493565b865550611575565b601f19841661152486611311565b5f5b8281101561154b57848901518255600182019150602085019450602081019050611526565b868310156115685784890151611564601f891682611477565b8355505b6001600288020188555050505b505050505050565b7f4e487b71000000000000000000000000000000000000000000000000000000005f52601160045260245ffd5b5f6115b482610b05565b91507fffffffffffffffffffffffffffffffffffffffffffffffffffffffffffffffff82036115e6576115e561157d565b5b600182019050919050565b7f4e6f2070726f64756374732e00000000000000000000000000000000000000005f82015250565b5f611625600c83610ece565b9150611630826115f1565b602082019050919050565b5f6020820190508181035f83015261165281611619565b9050919050565b5f61166382610b05565b915061166e83610b05565b92508282039050818111156116865761168561157d565b5b92915050565b7f596f7520617265206e6f7420617574686f72697a65642e0000000000000000005f82015250565b5f6116c0601783610ece565b91506116cb8261168c565b602082019050919050565b5f6020820190508181035f8301526116ed816116b4565b9050919050565b7f4f7264657220697320616c726561647920736869707065642e000000000000005f82015250565b5f611728601983610ece565b9150611733826116f4565b602082019050919050565b5f6020820190508181035f8301526117558161171c565b905091905056fea26469706673582212206619d0b5db8b41d2fd0841438581265ab6274e1bd2e04b66f0c613908f5ef07764736f6c63430008180033",
					"opcodes": "PUSH1 0x80 PUSH1 0x40 MSTORE CALLVALUE DUP1 ISZERO PUSH2 0xF JUMPI PUSH0 DUP1 REVERT JUMPDEST POP CALLER PUSH1 0x1 PUSH0 PUSH2 0x100 EXP DUP2 SLOAD DUP2 PUSH20 0xFFFFFFFFFFFFFFFFFFFFFFFFFFFFFFFFFFFFFFFF MUL NOT AND SWAP1 DUP4 PUSH20 0xFFFFFFFFFFFFFFFFFFFFFFFFFFFFFFFFFFFFFFFF AND MUL OR SWAP1 SSTORE POP PUSH2 0x1792 DUP1 PUSH2 0x5D PUSH0 CODECOPY PUSH0 RETURN INVALID PUSH1 0x80 PUSH1 0x40 MSTORE CALLVALUE DUP1 ISZERO PUSH2 0xF JUMPI PUSH0 DUP1 REVERT JUMPDEST POP PUSH1 0x4 CALLDATASIZE LT PUSH2 0x7B JUMPI PUSH0 CALLDATALOAD PUSH1 0xE0 SHR DUP1 PUSH4 0x8DA5CB5B GT PUSH2 0x59 JUMPI DUP1 PUSH4 0x8DA5CB5B EQ PUSH2 0xE9 JUMPI DUP1 PUSH4 0xA85C38EF EQ PUSH2 0x107 JUMPI DUP1 PUSH4 0xAFE13A62 EQ PUSH2 0x139 JUMPI DUP1 PUSH4 0xD09EF241 EQ PUSH2 0x155 JUMPI PUSH2 0x7B JUMP JUMPDEST DUP1 PUSH4 0x3C540687 EQ PUSH2 0x7F JUMPI DUP1 PUSH4 0x577DC0A0 EQ PUSH2 0x9D JUMPI DUP1 PUSH4 0x6D9A65D8 EQ PUSH2 0xB9 JUMPI JUMPDEST PUSH0 DUP1 REVERT JUMPDEST PUSH2 0x87 PUSH2 0x185 JUMP JUMPDEST PUSH1 0x40 MLOAD PUSH2 0x94 SWAP2 SWAP1 PUSH2 0xB1D JUMP JUMPDEST PUSH1 0x40 MLOAD DUP1 SWAP2 SUB SWAP1 RETURN JUMPDEST PUSH2 0xB7 PUSH1 0x4 DUP1 CALLDATASIZE SUB DUP2 ADD SWAP1 PUSH2 0xB2 SWAP2 SWAP1 PUSH2 0xCAD JUMP JUMPDEST PUSH2 0x18B JUMP JUMPDEST STOP JUMPDEST PUSH2 0xD3 PUSH1 0x4 DUP1 CALLDATASIZE SUB DUP2 ADD SWAP1 PUSH2 0xCE SWAP2 SWAP1 PUSH2 0xDCB JUMP JUMPDEST PUSH2 0x2D3 JUMP JUMPDEST PUSH1 0x40 MLOAD PUSH2 0xE0 SWAP2 SWAP1 PUSH2 0xB1D JUMP JUMPDEST PUSH1 0x40 MLOAD DUP1 SWAP2 SUB SWAP1 RETURN JUMPDEST PUSH2 0xF1 PUSH2 0x49B JUMP JUMPDEST PUSH1 0x40 MLOAD PUSH2 0xFE SWAP2 SWAP1 PUSH2 0xE80 JUMP JUMPDEST PUSH1 0x40 MLOAD DUP1 SWAP2 SUB SWAP1 RETURN JUMPDEST PUSH2 0x121 PUSH1 0x4 DUP1 CALLDATASIZE SUB DUP2 ADD SWAP1 PUSH2 0x11C SWAP2 SWAP1 PUSH2 0xE99 JUMP JUMPDEST PUSH2 0x4C0 JUMP JUMPDEST PUSH1 0x40 MLOAD PUSH2 0x130 SWAP4 SWAP3 SWAP2 SWAP1 PUSH2 0xFB1 JUMP JUMPDEST PUSH1 0x40 MLOAD DUP1 SWAP2 SUB SWAP1 RETURN JUMPDEST PUSH2 0x153 PUSH1 0x4 DUP1 CALLDATASIZE SUB DUP2 ADD SWAP1 PUSH2 0x14E SWAP2 SWAP1 PUSH2 0xE99 JUMP JUMPDEST PUSH2 0x5A5 JUMP JUMPDEST STOP JUMPDEST PUSH2 0x16F PUSH1 0x4 DUP1 CALLDATASIZE SUB DUP2 ADD SWAP1 PUSH2 0x16A SWAP2 SWAP1 PUSH2 0xE99 JUMP JUMPDEST PUSH2 0x85C JUMP JUMPDEST PUSH1 0x40 MLOAD PUSH2 0x17C SWAP2 SWAP1 PUSH2 0x1171 JUMP JUMPDEST PUSH1 0x40 MLOAD DUP1 SWAP2 SUB SWAP1 RETURN JUMPDEST PUSH1 0x2 SLOAD DUP2 JUMP JUMPDEST DUP2 PUSH0 DUP1 SLOAD SWAP1 POP DUP2 LT PUSH2 0x1D2 JUMPI PUSH1 0x40 MLOAD PUSH32 0x8C379A000000000000000000000000000000000000000000000000000000000 DUP2 MSTORE PUSH1 0x4 ADD PUSH2 0x1C9 SWAP1 PUSH2 0x11DB JUMP JUMPDEST PUSH1 0x40 MLOAD DUP1 SWAP2 SUB SWAP1 REVERT JUMPDEST DUP3 CALLER PUSH20 0xFFFFFFFFFFFFFFFFFFFFFFFFFFFFFFFFFFFFFFFF AND PUSH0 DUP3 DUP2 SLOAD DUP2 LT PUSH2 0x1FD JUMPI PUSH2 0x1FC PUSH2 0x11F9 JUMP JUMPDEST JUMPDEST SWAP1 PUSH0 MSTORE PUSH1 0x20 PUSH0 KECCAK256 SWAP1 PUSH1 0x4 MUL ADD PUSH0 ADD PUSH0 SWAP1 SLOAD SWAP1 PUSH2 0x100 EXP SWAP1 DIV PUSH20 0xFFFFFFFFFFFFFFFFFFFFFFFFFFFFFFFFFFFFFFFF AND PUSH20 0xFFFFFFFFFFFFFFFFFFFFFFFFFFFFFFFFFFFFFFFF AND EQ PUSH2 0x281 JUMPI PUSH1 0x40 MLOAD PUSH32 0x8C379A000000000000000000000000000000000000000000000000000000000 DUP2 MSTORE PUSH1 0x4 ADD PUSH2 0x278 SWAP1 PUSH2 0x1296 JUMP JUMPDEST PUSH1 0x40 MLOAD DUP1 SWAP2 SUB SWAP1 REVERT JUMPDEST PUSH0 DUP1 DUP6 DUP2 SLOAD DUP2 LT PUSH2 0x295 JUMPI PUSH2 0x294 PUSH2 0x11F9 JUMP JUMPDEST JUMPDEST SWAP1 PUSH0 MSTORE PUSH1 0x20 PUSH0 KECCAK256 SWAP1 PUSH1 0x4 MUL ADD SWAP1 POP DUP4 DUP2 PUSH1 0x1 ADD SWAP1 DUP2 PUSH2 0x2B4 SWAP2 SWAP1 PUSH2 0x14AE JUMP JUMPDEST POP POP PUSH1 0x2 PUSH0 DUP2 SLOAD DUP1 SWAP3 SWAP2 SWAP1 PUSH2 0x2C8 SWAP1 PUSH2 0x15AA JUMP JUMPDEST SWAP2 SWAP1 POP SSTORE POP POP POP POP POP JUMP JUMPDEST PUSH0 DUP2 PUSH0 DUP2 MLOAD GT PUSH2 0x318 JUMPI PUSH1 0x40 MLOAD PUSH32 0x8C379A000000000000000000000000000000000000000000000000000000000 DUP2 MSTORE PUSH1 0x4 ADD PUSH2 0x30F SWAP1 PUSH2 0x163B JUMP JUMPDEST PUSH1 0x40 MLOAD DUP1 SWAP2 SUB SWAP1 REVERT JUMPDEST PUSH2 0x320 PUSH2 0xA51 JUMP JUMPDEST CALLER DUP2 PUSH0 ADD SWAP1 PUSH20 0xFFFFFFFFFFFFFFFFFFFFFFFFFFFFFFFFFFFFFFFF AND SWAP1 DUP2 PUSH20 0xFFFFFFFFFFFFFFFFFFFFFFFFFFFFFFFFFFFFFFFF AND DUP2 MSTORE POP POP DUP5 DUP2 PUSH1 0x20 ADD DUP2 SWAP1 MSTORE POP DUP4 DUP2 PUSH1 0x40 ADD DUP2 SWAP1 MSTORE POP PUSH0 DUP2 PUSH1 0x60 ADD SWAP1 PUSH1 0x3 DUP2 GT ISZERO PUSH2 0x381 JUMPI PUSH2 0x380 PUSH2 0xF3E JUMP JUMPDEST JUMPDEST SWAP1 DUP2 PUSH1 0x3 DUP2 GT ISZERO PUSH2 0x395 JUMPI PUSH2 0x394 PUSH2 0xF3E JUMP JUMPDEST JUMPDEST DUP2 MSTORE POP POP PUSH0 DUP2 SWAP1 DUP1 PUSH1 0x1 DUP2 SLOAD ADD DUP1 DUP3 SSTORE DUP1 SWAP2 POP POP PUSH1 0x1 SWAP1 SUB SWAP1 PUSH0 MSTORE PUSH1 0x20 PUSH0 KECCAK256 SWAP1 PUSH1 0x4 MUL ADD PUSH0 SWAP1 SWAP2 SWAP1 SWAP2 SWAP1 SWAP2 POP PUSH0 DUP3 ADD MLOAD DUP2 PUSH0 ADD PUSH0 PUSH2 0x100 EXP DUP2 SLOAD DUP2 PUSH20 0xFFFFFFFFFFFFFFFFFFFFFFFFFFFFFFFFFFFFFFFF MUL NOT AND SWAP1 DUP4 PUSH20 0xFFFFFFFFFFFFFFFFFFFFFFFFFFFFFFFFFFFFFFFF AND MUL OR SWAP1 SSTORE POP PUSH1 0x20 DUP3 ADD MLOAD DUP2 PUSH1 0x1 ADD SWAP1 DUP2 PUSH2 0x41A SWAP2 SWAP1 PUSH2 0x14AE JUMP JUMPDEST POP PUSH1 0x40 DUP3 ADD MLOAD DUP2 PUSH1 0x2 ADD SWAP1 DUP1 MLOAD SWAP1 PUSH1 0x20 ADD SWAP1 PUSH2 0x437 SWAP3 SWAP2 SWAP1 PUSH2 0xA9F JUMP JUMPDEST POP PUSH1 0x60 DUP3 ADD MLOAD DUP2 PUSH1 0x3 ADD PUSH0 PUSH2 0x100 EXP DUP2 SLOAD DUP2 PUSH1 0xFF MUL NOT AND SWAP1 DUP4 PUSH1 0x3 DUP2 GT ISZERO PUSH2 0x462 JUMPI PUSH2 0x461 PUSH2 0xF3E JUMP JUMPDEST JUMPDEST MUL OR SWAP1 SSTORE POP POP POP PUSH1 0x1 PUSH0 DUP1 SLOAD SWAP1 POP PUSH2 0x47A SWAP2 SWAP1 PUSH2 0x1659 JUMP JUMPDEST SWAP3 POP POP PUSH1 0x2 PUSH0 DUP2 SLOAD DUP1 SWAP3 SWAP2 SWAP1 PUSH2 0x48F SWAP1 PUSH2 0x15AA JUMP JUMPDEST SWAP2 SWAP1 POP SSTORE POP POP SWAP3 SWAP2 POP POP JUMP JUMPDEST PUSH1 0x1 PUSH0 SWAP1 SLOAD SWAP1 PUSH2 0x100 EXP SWAP1 DIV PUSH20 0xFFFFFFFFFFFFFFFFFFFFFFFFFFFFFFFFFFFFFFFF AND DUP2 JUMP JUMPDEST PUSH0 DUP2 DUP2 SLOAD DUP2 LT PUSH2 0x4CE JUMPI PUSH0 DUP1 REVERT JUMPDEST SWAP1 PUSH0 MSTORE PUSH1 0x20 PUSH0 KECCAK256 SWAP1 PUSH1 0x4 MUL ADD PUSH0 SWAP2 POP SWAP1 POP DUP1 PUSH0 ADD PUSH0 SWAP1 SLOAD SWAP1 PUSH2 0x100 EXP SWAP1 DIV PUSH20 0xFFFFFFFFFFFFFFFFFFFFFFFFFFFFFFFFFFFFFFFF AND SWAP1 DUP1 PUSH1 0x1 ADD DUP1 SLOAD PUSH2 0x512 SWAP1 PUSH2 0x12E1 JUMP JUMPDEST DUP1 PUSH1 0x1F ADD PUSH1 0x20 DUP1 SWAP2 DIV MUL PUSH1 0x20 ADD PUSH1 0x40 MLOAD SWAP1 DUP2 ADD PUSH1 0x40 MSTORE DUP1 SWAP3 SWAP2 SWAP1 DUP2 DUP2 MSTORE PUSH1 0x20 ADD DUP3 DUP1 SLOAD PUSH2 0x53E SWAP1 PUSH2 0x12E1 JUMP JUMPDEST DUP1 ISZERO PUSH2 0x589 JUMPI DUP1 PUSH1 0x1F LT PUSH2 0x560 JUMPI PUSH2 0x100 DUP1 DUP4 SLOAD DIV MUL DUP4 MSTORE SWAP2 PUSH1 0x20 ADD SWAP2 PUSH2 0x589 JUMP JUMPDEST DUP3 ADD SWAP2 SWAP1 PUSH0 MSTORE PUSH1 0x20 PUSH0 KECCAK256 SWAP1 JUMPDEST DUP2 SLOAD DUP2 MSTORE SWAP1 PUSH1 0x1 ADD SWAP1 PUSH1 0x20 ADD DUP1 DUP4 GT PUSH2 0x56C JUMPI DUP3 SWAP1 SUB PUSH1 0x1F AND DUP3 ADD SWAP2 JUMPDEST POP POP POP POP POP SWAP1 DUP1 PUSH1 0x3 ADD PUSH0 SWAP1 SLOAD SWAP1 PUSH2 0x100 EXP SWAP1 DIV PUSH1 0xFF AND SWAP1 POP DUP4 JUMP JUMPDEST DUP1 PUSH0 DUP1 SLOAD SWAP1 POP DUP2 LT PUSH2 0x5EC JUMPI PUSH1 0x40 MLOAD PUSH32 0x8C379A000000000000000000000000000000000000000000000000000000000 DUP2 MSTORE PUSH1 0x4 ADD PUSH2 0x5E3 SWAP1 PUSH2 0x11DB JUMP JUMPDEST PUSH1 0x40 MLOAD DUP1 SWAP2 SUB SWAP1 REVERT JUMPDEST CALLER PUSH20 0xFFFFFFFFFFFFFFFFFFFFFFFFFFFFFFFFFFFFFFFF AND PUSH1 0x1 PUSH0 SWAP1 SLOAD SWAP1 PUSH2 0x100 EXP SWAP1 DIV PUSH20 0xFFFFFFFFFFFFFFFFFFFFFFFFFFFFFFFFFFFFFFFF AND PUSH20 0xFFFFFFFFFFFFFFFFFFFFFFFFFFFFFFFFFFFFFFFF AND EQ PUSH2 0x67B JUMPI PUSH1 0x40 MLOAD PUSH32 0x8C379A000000000000000000000000000000000000000000000000000000000 DUP2 MSTORE PUSH1 0x4 ADD PUSH2 0x672 SWAP1 PUSH2 0x16D6 JUMP JUMPDEST PUSH1 0x40 MLOAD DUP1 SWAP2 SUB SWAP1 REVERT JUMPDEST PUSH0 DUP1 DUP4 DUP2 SLOAD DUP2 LT PUSH2 0x68F JUMPI PUSH2 0x68E PUSH2 0x11F9 JUMP JUMPDEST JUMPDEST SWAP1 PUSH0 MSTORE PUSH1 0x20 PUSH0 KECCAK256 SWAP1 PUSH1 0x4 MUL ADD SWAP1 POP PUSH1 0x3 DUP1 DUP2 GT ISZERO PUSH2 0x6B0 JUMPI PUSH2 0x6AF PUSH2 0xF3E JUMP JUMPDEST JUMPDEST DUP2 PUSH1 0x3 ADD PUSH0 SWAP1 SLOAD SWAP1 PUSH2 0x100 EXP SWAP1 DIV PUSH1 0xFF AND PUSH1 0x3 DUP2 GT ISZERO PUSH2 0x6D3 JUMPI PUSH2 0x6D2 PUSH2 0xF3E JUMP JUMPDEST JUMPDEST SUB PUSH2 0x713 JUMPI PUSH1 0x40 MLOAD PUSH32 0x8C379A000000000000000000000000000000000000000000000000000000000 DUP2 MSTORE PUSH1 0x4 ADD PUSH2 0x70A SWAP1 PUSH2 0x173E JUMP JUMPDEST PUSH1 0x40 MLOAD DUP1 SWAP2 SUB SWAP1 REVERT JUMPDEST PUSH0 PUSH1 0x3 DUP2 GT ISZERO PUSH2 0x726 JUMPI PUSH2 0x725 PUSH2 0xF3E JUMP JUMPDEST JUMPDEST DUP2 PUSH1 0x3 ADD PUSH0 SWAP1 SLOAD SWAP1 PUSH2 0x100 EXP SWAP1 DIV PUSH1 0xFF AND PUSH1 0x3 DUP2 GT ISZERO PUSH2 0x749 JUMPI PUSH2 0x748 PUSH2 0xF3E JUMP JUMPDEST JUMPDEST SUB PUSH2 0x77F JUMPI PUSH1 0x1 DUP2 PUSH1 0x3 ADD PUSH0 PUSH2 0x100 EXP DUP2 SLOAD DUP2 PUSH1 0xFF MUL NOT AND SWAP1 DUP4 PUSH1 0x3 DUP2 GT ISZERO PUSH2 0x775 JUMPI PUSH2 0x774 PUSH2 0xF3E JUMP JUMPDEST JUMPDEST MUL OR SWAP1 SSTORE POP PUSH2 0x857 JUMP JUMPDEST PUSH1 0x1 PUSH1 0x3 DUP2 GT ISZERO PUSH2 0x793 JUMPI PUSH2 0x792 PUSH2 0xF3E JUMP JUMPDEST JUMPDEST DUP2 PUSH1 0x3 ADD PUSH0 SWAP1 SLOAD SWAP1 PUSH2 0x100 EXP SWAP1 DIV PUSH1 0xFF AND PUSH1 0x3 DUP2 GT ISZERO PUSH2 0x7B6 JUMPI PUSH2 0x7B5 PUSH2 0xF3E JUMP JUMPDEST JUMPDEST SUB PUSH2 0x7EC JUMPI PUSH1 0x2 DUP2 PUSH1 0x3 ADD PUSH0 PUSH2 0x100 EXP DUP2 SLOAD DUP2 PUSH1 0xFF MUL NOT AND SWAP1 DUP4 PUSH1 0x3 DUP2 GT ISZERO PUSH2 0x7E2 JUMPI PUSH2 0x7E1 PUSH2 0xF3E JUMP JUMPDEST JUMPDEST MUL OR SWAP1 SSTORE POP PUSH2 0x856 JUMP JUMPDEST PUSH1 0x2 PUSH1 0x3 DUP2 GT ISZERO PUSH2 0x800 JUMPI PUSH2 0x7FF PUSH2 0xF3E JUMP JUMPDEST JUMPDEST DUP2 PUSH1 0x3 ADD PUSH0 SWAP1 SLOAD SWAP1 PUSH2 0x100 EXP SWAP1 DIV PUSH1 0xFF AND PUSH1 0x3 DUP2 GT ISZERO PUSH2 0x823 JUMPI PUSH2 0x822 PUSH2 0xF3E JUMP JUMPDEST JUMPDEST SUB PUSH2 0x855 JUMPI PUSH1 0x3 DUP2 PUSH1 0x3 ADD PUSH0 PUSH2 0x100 EXP DUP2 SLOAD DUP2 PUSH1 0xFF MUL NOT AND SWAP1 DUP4 PUSH1 0x3 DUP2 GT ISZERO PUSH2 0x84F JUMPI PUSH2 0x84E PUSH2 0xF3E JUMP JUMPDEST JUMPDEST MUL OR SWAP1 SSTORE POP JUMPDEST JUMPDEST JUMPDEST POP POP POP JUMP JUMPDEST PUSH2 0x864 PUSH2 0xA51 JUMP JUMPDEST DUP2 PUSH0 DUP1 SLOAD SWAP1 POP DUP2 LT PUSH2 0x8AB JUMPI PUSH1 0x40 MLOAD PUSH32 0x8C379A000000000000000000000000000000000000000000000000000000000 DUP2 MSTORE PUSH1 0x4 ADD PUSH2 0x8A2 SWAP1 PUSH2 0x11DB JUMP JUMPDEST PUSH1 0x40 MLOAD DUP1 SWAP2 SUB SWAP1 REVERT JUMPDEST PUSH0 DUP4 DUP2 SLOAD DUP2 LT PUSH2 0x8BE JUMPI PUSH2 0x8BD PUSH2 0x11F9 JUMP JUMPDEST JUMPDEST SWAP1 PUSH0 MSTORE PUSH1 0x20 PUSH0 KECCAK256 SWAP1 PUSH1 0x4 MUL ADD PUSH1 0x40 MLOAD DUP1 PUSH1 0x80 ADD PUSH1 0x40 MSTORE SWAP1 DUP2 PUSH0 DUP3 ADD PUSH0 SWAP1 SLOAD SWAP1 PUSH2 0x100 EXP SWAP1 DIV PUSH20 0xFFFFFFFFFFFFFFFFFFFFFFFFFFFFFFFFFFFFFFFF AND PUSH20 0xFFFFFFFFFFFFFFFFFFFFFFFFFFFFFFFFFFFFFFFF AND PUSH20 0xFFFFFFFFFFFFFFFFFFFFFFFFFFFFFFFFFFFFFFFF AND DUP2 MSTORE PUSH1 0x20 ADD PUSH1 0x1 DUP3 ADD DUP1 SLOAD PUSH2 0x939 SWAP1 PUSH2 0x12E1 JUMP JUMPDEST DUP1 PUSH1 0x1F ADD PUSH1 0x20 DUP1 SWAP2 DIV MUL PUSH1 0x20 ADD PUSH1 0x40 MLOAD SWAP1 DUP2 ADD PUSH1 0x40 MSTORE DUP1 SWAP3 SWAP2 SWAP1 DUP2 DUP2 MSTORE PUSH1 0x20 ADD DUP3 DUP1 SLOAD PUSH2 0x965 SWAP1 PUSH2 0x12E1 JUMP JUMPDEST DUP1 ISZERO PUSH2 0x9B0 JUMPI DUP1 PUSH1 0x1F LT PUSH2 0x987 JUMPI PUSH2 0x100 DUP1 DUP4 SLOAD DIV MUL DUP4 MSTORE SWAP2 PUSH1 0x20 ADD SWAP2 PUSH2 0x9B0 JUMP JUMPDEST DUP3 ADD SWAP2 SWAP1 PUSH0 MSTORE PUSH1 0x20 PUSH0 KECCAK256 SWAP1 JUMPDEST DUP2 SLOAD DUP2 MSTORE SWAP1 PUSH1 0x1 ADD SWAP1 PUSH1 0x20 ADD DUP1 DUP4 GT PUSH2 0x993 JUMPI DUP3 SWAP1 SUB PUSH1 0x1F AND DUP3 ADD SWAP2 JUMPDEST POP POP POP POP POP DUP2 MSTORE PUSH1 0x20 ADD PUSH1 0x2 DUP3 ADD DUP1 SLOAD DUP1 PUSH1 0x20 MUL PUSH1 0x20 ADD PUSH1 0x40 MLOAD SWAP1 DUP2 ADD PUSH1 0x40 MSTORE DUP1 SWAP3 SWAP2 SWAP1 DUP2 DUP2 MSTORE PUSH1 0x20 ADD DUP3 DUP1 SLOAD DUP1 ISZERO PUSH2 0xA06 JUMPI PUSH1 0x20 MUL DUP3 ADD SWAP2 SWAP1 PUSH0 MSTORE PUSH1 0x20 PUSH0 KECCAK256 SWAP1 JUMPDEST DUP2 SLOAD DUP2 MSTORE PUSH1 0x20 ADD SWAP1 PUSH1 0x1 ADD SWAP1 DUP1 DUP4 GT PUSH2 0x9F2 JUMPI JUMPDEST POP POP POP POP POP DUP2 MSTORE PUSH1 0x20 ADD PUSH1 0x3 DUP3 ADD PUSH0 SWAP1 SLOAD SWAP1 PUSH2 0x100 EXP SWAP1 DIV PUSH1 0xFF AND PUSH1 0x3 DUP2 GT ISZERO PUSH2 0xA33 JUMPI PUSH2 0xA32 PUSH2 0xF3E JUMP JUMPDEST JUMPDEST PUSH1 0x3 DUP2 GT ISZERO PUSH2 0xA45 JUMPI PUSH2 0xA44 PUSH2 0xF3E JUMP JUMPDEST JUMPDEST DUP2 MSTORE POP POP SWAP2 POP POP SWAP2 SWAP1 POP JUMP JUMPDEST PUSH1 0x40 MLOAD DUP1 PUSH1 0x80 ADD PUSH1 0x40 MSTORE DUP1 PUSH0 PUSH20 0xFFFFFFFFFFFFFFFFFFFFFFFFFFFFFFFFFFFFFFFF AND DUP2 MSTORE PUSH1 0x20 ADD PUSH1 0x60 DUP2 MSTORE PUSH1 0x20 ADD PUSH1 0x60 DUP2 MSTORE PUSH1 0x20 ADD PUSH0 PUSH1 0x3 DUP2 GT ISZERO PUSH2 0xA99 JUMPI PUSH2 0xA98 PUSH2 0xF3E JUMP JUMPDEST JUMPDEST DUP2 MSTORE POP SWAP1 JUMP JUMPDEST DUP3 DUP1 SLOAD DUP3 DUP3 SSTORE SWAP1 PUSH0 MSTORE PUSH1 0x20 PUSH0 KECCAK256 SWAP1 DUP2 ADD SWAP3 DUP3 ISZERO PUSH2 0xAD9 JUMPI SWAP2 PUSH1 0x20 MUL DUP3 ADD JUMPDEST DUP3 DUP2 GT ISZERO PUSH2 0xAD8 JUMPI DUP3 MLOAD DUP3 SSTORE SWAP2 PUSH1 0x20 ADD SWAP2 SWAP1 PUSH1 0x1 ADD SWAP1 PUSH2 0xABD JUMP JUMPDEST JUMPDEST POP SWAP1 POP PUSH2 0xAE6 SWAP2 SWAP1 PUSH2 0xAEA JUMP JUMPDEST POP SWAP1 JUMP JUMPDEST JUMPDEST DUP1 DUP3 GT ISZERO PUSH2 0xB01 JUMPI PUSH0 DUP2 PUSH0 SWAP1 SSTORE POP PUSH1 0x1 ADD PUSH2 0xAEB JUMP JUMPDEST POP SWAP1 JUMP JUMPDEST PUSH0 DUP2 SWAP1 POP SWAP2 SWAP1 POP JUMP JUMPDEST PUSH2 0xB17 DUP2 PUSH2 0xB05 JUMP JUMPDEST DUP3 MSTORE POP POP JUMP JUMPDEST PUSH0 PUSH1 0x20 DUP3 ADD SWAP1 POP PUSH2 0xB30 PUSH0 DUP4 ADD DUP5 PUSH2 0xB0E JUMP JUMPDEST SWAP3 SWAP2 POP POP JUMP JUMPDEST PUSH0 PUSH1 0x40 MLOAD SWAP1 POP SWAP1 JUMP JUMPDEST PUSH0 DUP1 REVERT JUMPDEST PUSH0 DUP1 REVERT JUMPDEST PUSH2 0xB50 DUP2 PUSH2 0xB05 JUMP JUMPDEST DUP2 EQ PUSH2 0xB5A JUMPI PUSH0 DUP1 REVERT JUMPDEST POP JUMP JUMPDEST PUSH0 DUP2 CALLDATALOAD SWAP1 POP PUSH2 0xB6B DUP2 PUSH2 0xB47 JUMP JUMPDEST SWAP3 SWAP2 POP POP JUMP JUMPDEST PUSH0 DUP1 REVERT JUMPDEST PUSH0 DUP1 REVERT JUMPDEST PUSH0 PUSH1 0x1F NOT PUSH1 0x1F DUP4 ADD AND SWAP1 POP SWAP2 SWAP1 POP JUMP JUMPDEST PUSH32 0x4E487B7100000000000000000000000000000000000000000000000000000000 PUSH0 MSTORE PUSH1 0x41 PUSH1 0x4 MSTORE PUSH1 0x24 PUSH0 REVERT JUMPDEST PUSH2 0xBBF DUP3 PUSH2 0xB79 JUMP JUMPDEST DUP2 ADD DUP2 DUP2 LT PUSH8 0xFFFFFFFFFFFFFFFF DUP3 GT OR ISZERO PUSH2 0xBDE JUMPI PUSH2 0xBDD PUSH2 0xB89 JUMP JUMPDEST JUMPDEST DUP1 PUSH1 0x40 MSTORE POP POP POP JUMP JUMPDEST PUSH0 PUSH2 0xBF0 PUSH2 0xB36 JUMP JUMPDEST SWAP1 POP PUSH2 0xBFC DUP3 DUP3 PUSH2 0xBB6 JUMP JUMPDEST SWAP2 SWAP1 POP JUMP JUMPDEST PUSH0 PUSH8 0xFFFFFFFFFFFFFFFF DUP3 GT ISZERO PUSH2 0xC1B JUMPI PUSH2 0xC1A PUSH2 0xB89 JUMP JUMPDEST JUMPDEST PUSH2 0xC24 DUP3 PUSH2 0xB79 JUMP JUMPDEST SWAP1 POP PUSH1 0x20 DUP2 ADD SWAP1 POP SWAP2 SWAP1 POP JUMP JUMPDEST DUP3 DUP2 DUP4 CALLDATACOPY PUSH0 DUP4 DUP4 ADD MSTORE POP POP POP JUMP JUMPDEST PUSH0 PUSH2 0xC51 PUSH2 0xC4C DUP5 PUSH2 0xC01 JUMP JUMPDEST PUSH2 0xBE7 JUMP JUMPDEST SWAP1 POP DUP3 DUP2 MSTORE PUSH1 0x20 DUP2 ADD DUP5 DUP5 DUP5 ADD GT ISZERO PUSH2 0xC6D JUMPI PUSH2 0xC6C PUSH2 0xB75 JUMP JUMPDEST JUMPDEST PUSH2 0xC78 DUP5 DUP3 DUP6 PUSH2 0xC31 JUMP JUMPDEST POP SWAP4 SWAP3 POP POP POP JUMP JUMPDEST PUSH0 DUP3 PUSH1 0x1F DUP4 ADD SLT PUSH2 0xC94 JUMPI PUSH2 0xC93 PUSH2 0xB71 JUMP JUMPDEST JUMPDEST DUP2 CALLDATALOAD PUSH2 0xCA4 DUP5 DUP3 PUSH1 0x20 DUP7 ADD PUSH2 0xC3F JUMP JUMPDEST SWAP2 POP POP SWAP3 SWAP2 POP POP JUMP JUMPDEST PUSH0 DUP1 PUSH1 0x40 DUP4 DUP6 SUB SLT ISZERO PUSH2 0xCC3 JUMPI PUSH2 0xCC2 PUSH2 0xB3F JUMP JUMPDEST JUMPDEST PUSH0 PUSH2 0xCD0 DUP6 DUP3 DUP7 ADD PUSH2 0xB5D JUMP JUMPDEST SWAP3 POP POP PUSH1 0x20 DUP4 ADD CALLDATALOAD PUSH8 0xFFFFFFFFFFFFFFFF DUP2 GT ISZERO PUSH2 0xCF1 JUMPI PUSH2 0xCF0 PUSH2 0xB43 JUMP JUMPDEST JUMPDEST PUSH2 0xCFD DUP6 DUP3 DUP7 ADD PUSH2 0xC80 JUMP JUMPDEST SWAP2 POP POP SWAP3 POP SWAP3 SWAP1 POP JUMP JUMPDEST PUSH0 PUSH8 0xFFFFFFFFFFFFFFFF DUP3 GT ISZERO PUSH2 0xD21 JUMPI PUSH2 0xD20 PUSH2 0xB89 JUMP JUMPDEST JUMPDEST PUSH1 0x20 DUP3 MUL SWAP1 POP PUSH1 0x20 DUP2 ADD SWAP1 POP SWAP2 SWAP1 POP JUMP JUMPDEST PUSH0 DUP1 REVERT JUMPDEST PUSH0 PUSH2 0xD48 PUSH2 0xD43 DUP5 PUSH2 0xD07 JUMP JUMPDEST PUSH2 0xBE7 JUMP JUMPDEST SWAP1 POP DUP1 DUP4 DUP3 MSTORE PUSH1 0x20 DUP3 ADD SWAP1 POP PUSH1 0x20 DUP5 MUL DUP4 ADD DUP6 DUP2 GT ISZERO PUSH2 0xD6B JUMPI PUSH2 0xD6A PUSH2 0xD32 JUMP JUMPDEST JUMPDEST DUP4 JUMPDEST DUP2 DUP2 LT ISZERO PUSH2 0xD94 JUMPI DUP1 PUSH2 0xD80 DUP9 DUP3 PUSH2 0xB5D JUMP JUMPDEST DUP5 MSTORE PUSH1 0x20 DUP5 ADD SWAP4 POP POP PUSH1 0x20 DUP2 ADD SWAP1 POP PUSH2 0xD6D JUMP JUMPDEST POP POP POP SWAP4 SWAP3 POP POP POP JUMP JUMPDEST PUSH0 DUP3 PUSH1 0x1F DUP4 ADD SLT PUSH2 0xDB2 JUMPI PUSH2 0xDB1 PUSH2 0xB71 JUMP JUMPDEST JUMPDEST DUP2 CALLDATALOAD PUSH2 0xDC2 DUP5 DUP3 PUSH1 0x20 DUP7 ADD PUSH2 0xD36 JUMP JUMPDEST SWAP2 POP POP SWAP3 SWAP2 POP POP JUMP JUMPDEST PUSH0 DUP1 PUSH1 0x40 DUP4 DUP6 SUB SLT ISZERO PUSH2 0xDE1 JUMPI PUSH2 0xDE0 PUSH2 0xB3F JUMP JUMPDEST JUMPDEST PUSH0 DUP4 ADD CALLDATALOAD PUSH8 0xFFFFFFFFFFFFFFFF DUP2 GT ISZERO PUSH2 0xDFE JUMPI PUSH2 0xDFD PUSH2 0xB43 JUMP JUMPDEST JUMPDEST PUSH2 0xE0A DUP6 DUP3 DUP7 ADD PUSH2 0xC80 JUMP JUMPDEST SWAP3 POP POP PUSH1 0x20 DUP4 ADD CALLDATALOAD PUSH8 0xFFFFFFFFFFFFFFFF DUP2 GT ISZERO PUSH2 0xE2B JUMPI PUSH2 0xE2A PUSH2 0xB43 JUMP JUMPDEST JUMPDEST PUSH2 0xE37 DUP6 DUP3 DUP7 ADD PUSH2 0xD9E JUMP JUMPDEST SWAP2 POP POP SWAP3 POP SWAP3 SWAP1 POP JUMP JUMPDEST PUSH0 PUSH20 0xFFFFFFFFFFFFFFFFFFFFFFFFFFFFFFFFFFFFFFFF DUP3 AND SWAP1 POP SWAP2 SWAP1 POP JUMP JUMPDEST PUSH0 PUSH2 0xE6A DUP3 PUSH2 0xE41 JUMP JUMPDEST SWAP1 POP SWAP2 SWAP1 POP JUMP JUMPDEST PUSH2 0xE7A DUP2 PUSH2 0xE60 JUMP JUMPDEST DUP3 MSTORE POP POP JUMP JUMPDEST PUSH0 PUSH1 0x20 DUP3 ADD SWAP1 POP PUSH2 0xE93 PUSH0 DUP4 ADD DUP5 PUSH2 0xE71 JUMP JUMPDEST SWAP3 SWAP2 POP POP JUMP JUMPDEST PUSH0 PUSH1 0x20 DUP3 DUP5 SUB SLT ISZERO PUSH2 0xEAE JUMPI PUSH2 0xEAD PUSH2 0xB3F JUMP JUMPDEST JUMPDEST PUSH0 PUSH2 0xEBB DUP5 DUP3 DUP6 ADD PUSH2 0xB5D JUMP JUMPDEST SWAP2 POP POP SWAP3 SWAP2 POP POP JUMP JUMPDEST PUSH0 DUP2 MLOAD SWAP1 POP SWAP2 SWAP1 POP JUMP JUMPDEST PUSH0 DUP3 DUP3 MSTORE PUSH1 0x20 DUP3 ADD SWAP1 POP SWAP3 SWAP2 POP POP JUMP JUMPDEST PUSH0 JUMPDEST DUP4 DUP2 LT ISZERO PUSH2 0xEFB JUMPI DUP1 DUP3 ADD MLOAD DUP2 DUP5 ADD MSTORE PUSH1 0x20 DUP2 ADD SWAP1 POP PUSH2 0xEE0 JUMP JUMPDEST PUSH0 DUP5 DUP5 ADD MSTORE POP POP POP POP JUMP JUMPDEST PUSH0 PUSH2 0xF10 DUP3 PUSH2 0xEC4 JUMP JUMPDEST PUSH2 0xF1A DUP2 DUP6 PUSH2 0xECE JUMP JUMPDEST SWAP4 POP PUSH2 0xF2A DUP2 DUP6 PUSH1 0x20 DUP7 ADD PUSH2 0xEDE JUMP JUMPDEST PUSH2 0xF33 DUP2 PUSH2 0xB79 JUMP JUMPDEST DUP5 ADD SWAP2 POP POP SWAP3 SWAP2 POP POP JUMP JUMPDEST PUSH32 0x4E487B7100000000000000000000000000000000000000000000000000000000 PUSH0 MSTORE PUSH1 0x21 PUSH1 0x4 MSTORE PUSH1 0x24 PUSH0 REVERT JUMPDEST PUSH1 0x4 DUP2 LT PUSH2 0xF7C JUMPI PUSH2 0xF7B PUSH2 0xF3E JUMP JUMPDEST JUMPDEST POP JUMP JUMPDEST PUSH0 DUP2 SWAP1 POP PUSH2 0xF8C DUP3 PUSH2 0xF6B JUMP JUMPDEST SWAP2 SWAP1 POP JUMP JUMPDEST PUSH0 PUSH2 0xF9B DUP3 PUSH2 0xF7F JUMP JUMPDEST SWAP1 POP SWAP2 SWAP1 POP JUMP JUMPDEST PUSH2 0xFAB DUP2 PUSH2 0xF91 JUMP JUMPDEST DUP3 MSTORE POP POP JUMP JUMPDEST PUSH0 PUSH1 0x60 DUP3 ADD SWAP1 POP PUSH2 0xFC4 PUSH0 DUP4 ADD DUP7 PUSH2 0xE71 JUMP JUMPDEST DUP2 DUP2 SUB PUSH1 0x20 DUP4 ADD MSTORE PUSH2 0xFD6 DUP2 DUP6 PUSH2 0xF06 JUMP JUMPDEST SWAP1 POP PUSH2 0xFE5 PUSH1 0x40 DUP4 ADD DUP5 PUSH2 0xFA2 JUMP JUMPDEST SWAP5 SWAP4 POP POP POP POP JUMP JUMPDEST PUSH2 0xFF6 DUP2 PUSH2 0xE60 JUMP JUMPDEST DUP3 MSTORE POP POP JUMP JUMPDEST PUSH0 DUP3 DUP3 MSTORE PUSH1 0x20 DUP3 ADD SWAP1 POP SWAP3 SWAP2 POP POP JUMP JUMPDEST PUSH0 PUSH2 0x1016 DUP3 PUSH2 0xEC4 JUMP JUMPDEST PUSH2 0x1020 DUP2 DUP6 PUSH2 0xFFC JUMP JUMPDEST SWAP4 POP PUSH2 0x1030 DUP2 DUP6 PUSH1 0x20 DUP7 ADD PUSH2 0xEDE JUMP JUMPDEST PUSH2 0x1039 DUP2 PUSH2 0xB79 JUMP JUMPDEST DUP5 ADD SWAP2 POP POP SWAP3 SWAP2 POP POP JUMP JUMPDEST PUSH0 DUP2 MLOAD SWAP1 POP SWAP2 SWAP1 POP JUMP JUMPDEST PUSH0 DUP3 DUP3 MSTORE PUSH1 0x20 DUP3 ADD SWAP1 POP SWAP3 SWAP2 POP POP JUMP JUMPDEST PUSH0 DUP2 SWAP1 POP PUSH1 0x20 DUP3 ADD SWAP1 POP SWAP2 SWAP1 POP JUMP JUMPDEST PUSH2 0x1076 DUP2 PUSH2 0xB05 JUMP JUMPDEST DUP3 MSTORE POP POP JUMP JUMPDEST PUSH0 PUSH2 0x1087 DUP4 DUP4 PUSH2 0x106D JUMP JUMPDEST PUSH1 0x20 DUP4 ADD SWAP1 POP SWAP3 SWAP2 POP POP JUMP JUMPDEST PUSH0 PUSH1 0x20 DUP3 ADD SWAP1 POP SWAP2 SWAP1 POP JUMP JUMPDEST PUSH0 PUSH2 0x10A9 DUP3 PUSH2 0x1044 JUMP JUMPDEST PUSH2 0x10B3 DUP2 DUP6 PUSH2 0x104E JUMP JUMPDEST SWAP4 POP PUSH2 0x10BE DUP4 PUSH2 0x105E JUMP JUMPDEST DUP1 PUSH0 JUMPDEST DUP4 DUP2 LT ISZERO PUSH2 0x10EE JUMPI DUP2 MLOAD PUSH2 0x10D5 DUP9 DUP3 PUSH2 0x107C JUMP JUMPDEST SWAP8 POP PUSH2 0x10E0 DUP4 PUSH2 0x1093 JUMP JUMPDEST SWAP3 POP POP PUSH1 0x1 DUP2 ADD SWAP1 POP PUSH2 0x10C1 JUMP JUMPDEST POP DUP6 SWAP4 POP POP POP POP SWAP3 SWAP2 POP POP JUMP JUMPDEST PUSH2 0x1104 DUP2 PUSH2 0xF91 JUMP JUMPDEST DUP3 MSTORE POP POP JUMP JUMPDEST PUSH0 PUSH1 0x80 DUP4 ADD PUSH0 DUP4 ADD MLOAD PUSH2 0x111F PUSH0 DUP7 ADD DUP3 PUSH2 0xFED JUMP JUMPDEST POP PUSH1 0x20 DUP4 ADD MLOAD DUP5 DUP3 SUB PUSH1 0x20 DUP7 ADD MSTORE PUSH2 0x1137 DUP3 DUP3 PUSH2 0x100C JUMP JUMPDEST SWAP2 POP POP PUSH1 0x40 DUP4 ADD MLOAD DUP5 DUP3 SUB PUSH1 0x40 DUP7 ADD MSTORE PUSH2 0x1151 DUP3 DUP3 PUSH2 0x109F JUMP JUMPDEST SWAP2 POP POP PUSH1 0x60 DUP4 ADD MLOAD PUSH2 0x1166 PUSH1 0x60 DUP7 ADD DUP3 PUSH2 0x10FB JUMP JUMPDEST POP DUP1 SWAP2 POP POP SWAP3 SWAP2 POP POP JUMP JUMPDEST PUSH0 PUSH1 0x20 DUP3 ADD SWAP1 POP DUP2 DUP2 SUB PUSH0 DUP4 ADD MSTORE PUSH2 0x1189 DUP2 DUP5 PUSH2 0x110A JUMP JUMPDEST SWAP1 POP SWAP3 SWAP2 POP POP JUMP JUMPDEST PUSH32 0x4E6F7420612076616C6964206F726465722069642E0000000000000000000000 PUSH0 DUP3 ADD MSTORE POP JUMP JUMPDEST PUSH0 PUSH2 0x11C5 PUSH1 0x15 DUP4 PUSH2 0xECE JUMP JUMPDEST SWAP2 POP PUSH2 0x11D0 DUP3 PUSH2 0x1191 JUMP JUMPDEST PUSH1 0x20 DUP3 ADD SWAP1 POP SWAP2 SWAP1 POP JUMP JUMPDEST PUSH0 PUSH1 0x20 DUP3 ADD SWAP1 POP DUP2 DUP2 SUB PUSH0 DUP4 ADD MSTORE PUSH2 0x11F2 DUP2 PUSH2 0x11B9 JUMP JUMPDEST SWAP1 POP SWAP2 SWAP1 POP JUMP JUMPDEST PUSH32 0x4E487B7100000000000000000000000000000000000000000000000000000000 PUSH0 MSTORE PUSH1 0x32 PUSH1 0x4 MSTORE PUSH1 0x24 PUSH0 REVERT JUMPDEST PUSH32 0x596F7520617265206E6F7420746865206F776E6572206F6620746865206F7264 PUSH0 DUP3 ADD MSTORE PUSH32 0x65722E0000000000000000000000000000000000000000000000000000000000 PUSH1 0x20 DUP3 ADD MSTORE POP JUMP JUMPDEST PUSH0 PUSH2 0x1280 PUSH1 0x23 DUP4 PUSH2 0xECE JUMP JUMPDEST SWAP2 POP PUSH2 0x128B DUP3 PUSH2 0x1226 JUMP JUMPDEST PUSH1 0x40 DUP3 ADD SWAP1 POP SWAP2 SWAP1 POP JUMP JUMPDEST PUSH0 PUSH1 0x20 DUP3 ADD SWAP1 POP DUP2 DUP2 SUB PUSH0 DUP4 ADD MSTORE PUSH2 0x12AD DUP2 PUSH2 0x1274 JUMP JUMPDEST SWAP1 POP SWAP2 SWAP1 POP JUMP JUMPDEST PUSH32 0x4E487B7100000000000000000000000000000000000000000000000000000000 PUSH0 MSTORE PUSH1 0x22 PUSH1 0x4 MSTORE PUSH1 0x24 PUSH0 REVERT JUMPDEST PUSH0 PUSH1 0x2 DUP3 DIV SWAP1 POP PUSH1 0x1 DUP3 AND DUP1 PUSH2 0x12F8 JUMPI PUSH1 0x7F DUP3 AND SWAP2 POP JUMPDEST PUSH1 0x20 DUP3 LT DUP2 SUB PUSH2 0x130B JUMPI PUSH2 0x130A PUSH2 0x12B4 JUMP JUMPDEST JUMPDEST POP SWAP2 SWAP1 POP JUMP JUMPDEST PUSH0 DUP2 SWAP1 POP DUP2 PUSH0 MSTORE PUSH1 0x20 PUSH0 KECCAK256 SWAP1 POP SWAP2 SWAP1 POP JUMP JUMPDEST PUSH0 PUSH1 0x20 PUSH1 0x1F DUP4 ADD DIV SWAP1 POP SWAP2 SWAP1 POP JUMP JUMPDEST PUSH0 DUP3 DUP3 SHL SWAP1 POP SWAP3 SWAP2 POP POP JUMP JUMPDEST PUSH0 PUSH1 0x8 DUP4 MUL PUSH2 0x136D PUSH32 0xFFFFFFFFFFFFFFFFFFFFFFFFFFFFFFFFFFFFFFFFFFFFFFFFFFFFFFFFFFFFFFFF DUP3 PUSH2 0x1332 JUMP JUMPDEST PUSH2 0x1377 DUP7 DUP4 PUSH2 0x1332 JUMP JUMPDEST SWAP6 POP DUP1 NOT DUP5 AND SWAP4 POP DUP1 DUP7 AND DUP5 OR SWAP3 POP POP POP SWAP4 SWAP3 POP POP POP JUMP JUMPDEST PUSH0 DUP2 SWAP1 POP SWAP2 SWAP1 POP JUMP JUMPDEST PUSH0 PUSH2 0x13B2 PUSH2 0x13AD PUSH2 0x13A8 DUP5 PUSH2 0xB05 JUMP JUMPDEST PUSH2 0x138F JUMP JUMPDEST PUSH2 0xB05 JUMP JUMPDEST SWAP1 POP SWAP2 SWAP1 POP JUMP JUMPDEST PUSH0 DUP2 SWAP1 POP SWAP2 SWAP1 POP JUMP JUMPDEST PUSH2 0x13CB DUP4 PUSH2 0x1398 JUMP JUMPDEST PUSH2 0x13DF PUSH2 0x13D7 DUP3 PUSH2 0x13B9 JUMP JUMPDEST DUP5 DUP5 SLOAD PUSH2 0x133E JUMP JUMPDEST DUP3 SSTORE POP POP POP POP JUMP JUMPDEST PUSH0 SWAP1 JUMP JUMPDEST PUSH2 0x13F3 PUSH2 0x13E7 JUMP JUMPDEST PUSH2 0x13FE DUP2 DUP5 DUP5 PUSH2 0x13C2 JUMP JUMPDEST POP POP POP JUMP JUMPDEST JUMPDEST DUP2 DUP2 LT ISZERO PUSH2 0x1421 JUMPI PUSH2 0x1416 PUSH0 DUP3 PUSH2 0x13EB JUMP JUMPDEST PUSH1 0x1 DUP2 ADD SWAP1 POP PUSH2 0x1404 JUMP JUMPDEST POP POP JUMP JUMPDEST PUSH1 0x1F DUP3 GT ISZERO PUSH2 0x1466 JUMPI PUSH2 0x1437 DUP2 PUSH2 0x1311 JUMP JUMPDEST PUSH2 0x1440 DUP5 PUSH2 0x1323 JUMP JUMPDEST DUP2 ADD PUSH1 0x20 DUP6 LT ISZERO PUSH2 0x144F JUMPI DUP2 SWAP1 POP JUMPDEST PUSH2 0x1463 PUSH2 0x145B DUP6 PUSH2 0x1323 JUMP JUMPDEST DUP4 ADD DUP3 PUSH2 0x1403 JUMP JUMPDEST POP POP JUMPDEST POP POP POP JUMP JUMPDEST PUSH0 DUP3 DUP3 SHR SWAP1 POP SWAP3 SWAP2 POP POP JUMP JUMPDEST PUSH0 PUSH2 0x1486 PUSH0 NOT DUP5 PUSH1 0x8 MUL PUSH2 0x146B JUMP JUMPDEST NOT DUP1 DUP4 AND SWAP2 POP POP SWAP3 SWAP2 POP POP JUMP JUMPDEST PUSH0 PUSH2 0x149E DUP4 DUP4 PUSH2 0x1477 JUMP JUMPDEST SWAP2 POP DUP3 PUSH1 0x2 MUL DUP3 OR SWAP1 POP SWAP3 SWAP2 POP POP JUMP JUMPDEST PUSH2 0x14B7 DUP3 PUSH2 0xEC4 JUMP JUMPDEST PUSH8 0xFFFFFFFFFFFFFFFF DUP2 GT ISZERO PUSH2 0x14D0 JUMPI PUSH2 0x14CF PUSH2 0xB89 JUMP JUMPDEST JUMPDEST PUSH2 0x14DA DUP3 SLOAD PUSH2 0x12E1 JUMP JUMPDEST PUSH2 0x14E5 DUP3 DUP3 DUP6 PUSH2 0x1425 JUMP JUMPDEST PUSH0 PUSH1 0x20 SWAP1 POP PUSH1 0x1F DUP4 GT PUSH1 0x1 DUP2 EQ PUSH2 0x1516 JUMPI PUSH0 DUP5 ISZERO PUSH2 0x1504 JUMPI DUP3 DUP8 ADD MLOAD SWAP1 POP JUMPDEST PUSH2 0x150E DUP6 DUP3 PUSH2 0x1493 JUMP JUMPDEST DUP7 SSTORE POP PUSH2 0x1575 JUMP JUMPDEST PUSH1 0x1F NOT DUP5 AND PUSH2 0x1524 DUP7 PUSH2 0x1311 JUMP JUMPDEST PUSH0 JUMPDEST DUP3 DUP2 LT ISZERO PUSH2 0x154B JUMPI DUP5 DUP10 ADD MLOAD DUP3 SSTORE PUSH1 0x1 DUP3 ADD SWAP2 POP PUSH1 0x20 DUP6 ADD SWAP5 POP PUSH1 0x20 DUP2 ADD SWAP1 POP PUSH2 0x1526 JUMP JUMPDEST DUP7 DUP4 LT ISZERO PUSH2 0x1568 JUMPI DUP5 DUP10 ADD MLOAD PUSH2 0x1564 PUSH1 0x1F DUP10 AND DUP3 PUSH2 0x1477 JUMP JUMPDEST DUP4 SSTORE POP JUMPDEST PUSH1 0x1 PUSH1 0x2 DUP9 MUL ADD DUP9 SSTORE POP POP POP JUMPDEST POP POP POP POP POP POP JUMP JUMPDEST PUSH32 0x4E487B7100000000000000000000000000000000000000000000000000000000 PUSH0 MSTORE PUSH1 0x11 PUSH1 0x4 MSTORE PUSH1 0x24 PUSH0 REVERT JUMPDEST PUSH0 PUSH2 0x15B4 DUP3 PUSH2 0xB05 JUMP JUMPDEST SWAP2 POP PUSH32 0xFFFFFFFFFFFFFFFFFFFFFFFFFFFFFFFFFFFFFFFFFFFFFFFFFFFFFFFFFFFFFFFF DUP3 SUB PUSH2 0x15E6 JUMPI PUSH2 0x15E5 PUSH2 0x157D JUMP JUMPDEST JUMPDEST PUSH1 0x1 DUP3 ADD SWAP1 POP SWAP2 SWAP1 POP JUMP JUMPDEST PUSH32 0x4E6F2070726F64756374732E0000000000000000000000000000000000000000 PUSH0 DUP3 ADD MSTORE POP JUMP JUMPDEST PUSH0 PUSH2 0x1625 PUSH1 0xC DUP4 PUSH2 0xECE JUMP JUMPDEST SWAP2 POP PUSH2 0x1630 DUP3 PUSH2 0x15F1 JUMP JUMPDEST PUSH1 0x20 DUP3 ADD SWAP1 POP SWAP2 SWAP1 POP JUMP JUMPDEST PUSH0 PUSH1 0x20 DUP3 ADD SWAP1 POP DUP2 DUP2 SUB PUSH0 DUP4 ADD MSTORE PUSH2 0x1652 DUP2 PUSH2 0x1619 JUMP JUMPDEST SWAP1 POP SWAP2 SWAP1 POP JUMP JUMPDEST PUSH0 PUSH2 0x1663 DUP3 PUSH2 0xB05 JUMP JUMPDEST SWAP2 POP PUSH2 0x166E DUP4 PUSH2 0xB05 JUMP JUMPDEST SWAP3 POP DUP3 DUP3 SUB SWAP1 POP DUP2 DUP2 GT ISZERO PUSH2 0x1686 JUMPI PUSH2 0x1685 PUSH2 0x157D JUMP JUMPDEST JUMPDEST SWAP3 SWAP2 POP POP JUMP JUMPDEST PUSH32 0x596F7520617265206E6F7420617574686F72697A65642E000000000000000000 PUSH0 DUP3 ADD MSTORE POP JUMP JUMPDEST PUSH0 PUSH2 0x16C0 PUSH1 0x17 DUP4 PUSH2 0xECE JUMP JUMPDEST SWAP2 POP PUSH2 0x16CB DUP3 PUSH2 0x168C JUMP JUMPDEST PUSH1 0x20 DUP3 ADD SWAP1 POP SWAP2 SWAP1 POP JUMP JUMPDEST PUSH0 PUSH1 0x20 DUP3 ADD SWAP1 POP DUP2 DUP2 SUB PUSH0 DUP4 ADD MSTORE PUSH2 0x16ED DUP2 PUSH2 0x16B4 JUMP JUMPDEST SWAP1 POP SWAP2 SWAP1 POP JUMP JUMPDEST PUSH32 0x4F7264657220697320616C726561647920736869707065642E00000000000000 PUSH0 DUP3 ADD MSTORE POP JUMP JUMPDEST PUSH0 PUSH2 0x1728 PUSH1 0x19 DUP4 PUSH2 0xECE JUMP JUMPDEST SWAP2 POP PUSH2 0x1733 DUP3 PUSH2 0x16F4 JUMP JUMPDEST PUSH1 0x20 DUP3 ADD SWAP1 POP SWAP2 SWAP1 POP JUMP JUMPDEST PUSH0 PUSH1 0x20 DUP3 ADD SWAP1 POP DUP2 DUP2 SUB PUSH0 DUP4 ADD MSTORE PUSH2 0x1755 DUP2 PUSH2 0x171C JUMP JUMPDEST SWAP1 POP SWAP2 SWAP1 POP JUMP INVALID LOG2 PUSH5 0x6970667358 0x22 SLT KECCAK256 PUSH7 0x19D0B5DB8B41D2 REVERT ADDMOD COINBASE NUMBER DUP6 DUP2 0x26 GAS 0xB6 0x27 0x4E SHL 0xD2 0xE0 0x4B PUSH7 0xF0C613908F5EF0 PUSH24 0x64736F6C6343000818003300000000000000000000000000 "
				},
				"gasEstimates": {
					"creation": {
						"codeDepositCost": "1206800",
						"executionCost": "25517",
						"totalCost": "1232317"
					},
					"external": {
						"advanceOrder(uint256)": "40107",
						"createOrder(string,uint256[])": "infinite",
						"getOrder(uint256)": "infinite",
						"orders(uint256)": "infinite",
						"owner()": "2508",
						"txCount()": "2426",
						"updateZip(uint256,string)": "infinite"
					}
				},
				"methodIdentifiers": {
					"advanceOrder(uint256)": "afe13a62",
					"createOrder(string,uint256[])": "6d9a65d8",
					"getOrder(uint256)": "d09ef241",
					"orders(uint256)": "a85c38ef",
					"owner()": "8da5cb5b",
					"txCount()": "3c540687",
					"updateZip(uint256,string)": "577dc0a0"
				}
			},
			"storageLayout": {
				"storage": [
					{
						"astId": 21,
						"contract": "contracts/Modifier.sol:Modifier",
						"label": "orders",
						"offset": 0,
						"slot": "0",
						"type": "t_array(t_struct(Order)17_storage)dyn_storage"
					},
					{
						"astId": 23,
						"contract": "contracts/Modifier.sol:Modifier",
						"label": "owner",
						"offset": 0,
						"slot": "1",
						"type": "t_address"
					},
					{
						"astId": 25,
						"contract": "contracts/Modifier.sol:Modifier",
						"label": "txCount",
						"offset": 0,
						"slot": "2",
						"type": "t_uint256"
					}
				],
				"types": {
					"t_address": {
						"encoding": "inplace",
						"label": "address",
						"numberOfBytes": "20"
					},
					"t_array(t_struct(Order)17_storage)dyn_storage": {
						"base": "t_struct(Order)17_storage",
						"encoding": "dynamic_array",
						"label": "struct Modifier.Order[]",
						"numberOfBytes": "32"
					},
					"t_array(t_uint256)dyn_storage": {
						"base": "t_uint256",
						"encoding": "dynamic_array",
						"label": "uint256[]",
						"numberOfBytes": "32"
					},
					"t_enum(Status)6": {
						"encoding": "inplace",
						"label": "enum Modifier.Status",
						"numberOfBytes": "1"
					},
					"t_string_storage": {
						"encoding": "bytes",
						"label": "string",
						"numberOfBytes": "32"
					},
					"t_struct(Order)17_storage": {
						"encoding": "inplace",
						"label": "struct Modifier.Order",
						"members": [
							{
								"astId": 8,
								"contract": "contracts/Modifier.sol:Modifier",
								"label": "customer",
								"offset": 0,
								"slot": "0",
								"type": "t_address"
							},
							{
								"astId": 10,
								"contract": "contracts/Modifier.sol:Modifier",
								"label": "zipCode",
								"offset": 0,
								"slot": "1",
								"type": "t_string_storage"
							},
							{
								"astId": 13,
								"contract": "contracts/Modifier.sol:Modifier",
								"label": "products",
								"offset": 0,
								"slot": "2",
								"type": "t_array(t_uint256)dyn_storage"
							},
							{
								"astId": 16,
								"contract": "contracts/Modifier.sol:Modifier",
								"label": "status",
								"offset": 0,
								"slot": "3",
								"type": "t_enum(Status)6"
							}
						],
						"numberOfBytes": "128"
					},
					"t_uint256": {
						"encoding": "inplace",
						"label": "uint256",
						"numberOfBytes": "32"
					}
				}
			},
			"userdoc": {
				"kind": "user",
				"methods": {},
				"version": 1
			}
		}
	}
}