{
	"contracts/Transfers.sol": {
		"Bank": {
			"abi": [
				{
					"stateMutability": "payable",
					"type": "fallback"
				},
				{
					"inputs": [],
					"name": "fallbackCount",
					"outputs": [
						{
							"internalType": "uint256",
							"name": "",
							"type": "uint256"
						}
					],
					"stateMutability": "view",
					"type": "function"
				},
				{
					"inputs": [],
					"name": "receiveCount",
					"outputs": [
						{
							"internalType": "uint256",
							"name": "",
							"type": "uint256"
						}
					],
					"stateMutability": "view",
					"type": "function"
				},
				{
					"inputs": [],
					"name": "sendEthersToContract",
					"outputs": [],
					"stateMutability": "payable",
					"type": "function"
				},
				{
					"inputs": [],
					"name": "showBalance",
					"outputs": [
						{
							"internalType": "uint256",
							"name": "",
							"type": "uint256"
						}
					],
					"stateMutability": "view",
					"type": "function"
				},
				{
					"inputs": [
						{
							"internalType": "address payable",
							"name": "to",
							"type": "address"
						},
						{
							"internalType": "uint256",
							"name": "amount",
							"type": "uint256"
						}
					],
					"name": "withdraw",
					"outputs": [],
					"stateMutability": "nonpayable",
					"type": "function"
				},
				{
					"inputs": [
						{
							"internalType": "address payable",
							"name": "to",
							"type": "address"
						},
						{
							"internalType": "uint256",
							"name": "amount",
							"type": "uint256"
						}
					],
					"name": "withdrawCall",
					"outputs": [
						{
							"internalType": "bool",
							"name": "",
							"type": "bool"
						}
					],
					"stateMutability": "nonpayable",
					"type": "function"
				},
				{
					"inputs": [
						{
							"internalType": "address payable",
							"name": "to",
							"type": "address"
						},
						{
							"internalType": "uint256",
							"name": "amount",
							"type": "uint256"
						}
					],
					"name": "withdrawSend",
					"outputs": [
						{
							"internalType": "bool",
							"name": "",
							"type": "bool"
						}
					],
					"stateMutability": "nonpayable",
					"type": "function"
				},
				{
					"stateMutability": "payable",
					"type": "receive"
				}
			],
			"devdoc": {
				"kind": "dev",
				"methods": {},
				"version": 1
			},
			"evm": {
				"assembly": "    /* \"contracts/Transfers.sol\":57:2304  contract Bank{... */\n  mstore(0x40, 0x80)\n    /* \"contracts/Transfers.sol\":1927:1928  0 */\n  0x00\n    /* \"contracts/Transfers.sol\":1900:1928  uint public receiveCount = 0 */\n  0x01\n  sstore\n    /* \"contracts/Transfers.sol\":2232:2233  0 */\n  0x00\n    /* \"contracts/Transfers.sol\":2204:2233  uint public fallbackCount = 0 */\n  0x02\n  sstore\n    /* \"contracts/Transfers.sol\":57:2304  contract Bank{... */\n  callvalue\n  dup1\n  iszero\n  tag_1\n  jumpi\n  0x00\n  dup1\n  revert\ntag_1:\n  pop\n  dataSize(sub_0)\n  dup1\n  dataOffset(sub_0)\n  0x00\n  codecopy\n  0x00\n  return\nstop\n\nsub_0: assembly {\n        /* \"contracts/Transfers.sol\":57:2304  contract Bank{... */\n      mstore(0x40, 0x80)\n      jumpi(tag_1, lt(calldatasize, 0x04))\n      shr(0xe0, calldataload(0x00))\n      dup1\n      0x81b2d07b\n      gt\n      tag_10\n      jumpi\n      dup1\n      0x81b2d07b\n      eq\n      tag_6\n      jumpi\n      dup1\n      0xd2038ae3\n      eq\n      tag_7\n      jumpi\n      dup1\n      0xf3fef3a3\n      eq\n      tag_8\n      jumpi\n      dup1\n      0xf776bd06\n      eq\n      tag_9\n      jumpi\n      jump(tag_2)\n    tag_10:\n      dup1\n      0x3830ea6c\n      eq\n      tag_3\n      jumpi\n      dup1\n      0x453c1c35\n      eq\n      tag_4\n      jumpi\n      dup1\n      0x7ba85592\n      eq\n      tag_5\n      jumpi\n      jump(tag_2)\n    tag_1:\n      jumpi(tag_2, calldatasize)\n        /* \"contracts/Transfers.sol\":1971:1983  receiveCount */\n      0x01\n      0x00\n        /* \"contracts/Transfers.sol\":1971:1985  receiveCount++ */\n      dup2\n      sload\n      dup1\n      swap3\n      swap2\n      swap1\n      tag_13\n      swap1\n      tag_14\n      jump\t// in\n    tag_13:\n      swap2\n      swap1\n      pop\n      sstore\n      stop\n        /* \"contracts/Transfers.sol\":57:2304  contract Bank{... */\n    tag_2:\n        /* \"contracts/Transfers.sol\":2278:2291  fallbackCount */\n      0x02\n      0x00\n        /* \"contracts/Transfers.sol\":2278:2293  fallbackCount++ */\n      dup2\n      sload\n      dup1\n      swap3\n      swap2\n      swap1\n      tag_17\n      swap1\n      tag_14\n      jump\t// in\n    tag_17:\n      swap2\n      swap1\n      pop\n      sstore\n      stop\n        /* \"contracts/Transfers.sol\":1258:1472  function withdrawSend(address payable to,uint amount) external returns(bool){... */\n    tag_3:\n      callvalue\n      dup1\n      iszero\n      tag_18\n      jumpi\n      0x00\n      dup1\n      revert\n    tag_18:\n      pop\n      tag_19\n      0x04\n      dup1\n      calldatasize\n      sub\n      dup2\n      add\n      swap1\n      tag_20\n      swap2\n      swap1\n      tag_21\n      jump\t// in\n    tag_20:\n      tag_22\n      jump\t// in\n    tag_19:\n      mload(0x40)\n      tag_23\n      swap2\n      swap1\n      tag_24\n      jump\t// in\n    tag_23:\n      mload(0x40)\n      dup1\n      swap2\n      sub\n      swap1\n      return\n        /* \"contracts/Transfers.sol\":1495:1811  function withdrawCall(address payable to,uint amount) external returns(bool){... */\n    tag_4:\n      callvalue\n      dup1\n      iszero\n      tag_25\n      jumpi\n      0x00\n      dup1\n      revert\n    tag_25:\n      pop\n      tag_26\n      0x04\n      dup1\n      calldatasize\n      sub\n      dup2\n      add\n      swap1\n      tag_27\n      swap2\n      swap1\n      tag_21\n      jump\t// in\n    tag_27:\n      tag_28\n      jump\t// in\n    tag_26:\n      mload(0x40)\n      tag_29\n      swap2\n      swap1\n      tag_24\n      jump\t// in\n    tag_29:\n      mload(0x40)\n      dup1\n      swap2\n      sub\n      swap1\n      return\n        /* \"contracts/Transfers.sol\":1900:1928  uint public receiveCount = 0 */\n    tag_5:\n      callvalue\n      dup1\n      iszero\n      tag_30\n      jumpi\n      0x00\n      dup1\n      revert\n    tag_30:\n      pop\n      tag_31\n      tag_32\n      jump\t// in\n    tag_31:\n      mload(0x40)\n      tag_33\n      swap2\n      swap1\n      tag_34\n      jump\t// in\n    tag_33:\n      mload(0x40)\n      dup1\n      swap2\n      sub\n      swap1\n      return\n        /* \"contracts/Transfers.sol\":368:462  function showBalance() external view returns(uint){... */\n    tag_6:\n      callvalue\n      dup1\n      iszero\n      tag_35\n      jumpi\n      0x00\n      dup1\n      revert\n    tag_35:\n      pop\n      tag_36\n      tag_37\n      jump\t// in\n    tag_36:\n      mload(0x40)\n      tag_38\n      swap2\n      swap1\n      tag_34\n      jump\t// in\n    tag_38:\n      mload(0x40)\n      dup1\n      swap2\n      sub\n      swap1\n      return\n        /* \"contracts/Transfers.sol\":264:362  function sendEthersToContract() payable external {... */\n    tag_7:\n      tag_39\n      tag_40\n      jump\t// in\n    tag_39:\n      stop\n        /* \"contracts/Transfers.sol\":559:963  function withdraw(address payable to,uint amount) external {... */\n    tag_8:\n      callvalue\n      dup1\n      iszero\n      tag_41\n      jumpi\n      0x00\n      dup1\n      revert\n    tag_41:\n      pop\n      tag_42\n      0x04\n      dup1\n      calldatasize\n      sub\n      dup2\n      add\n      swap1\n      tag_43\n      swap2\n      swap1\n      tag_21\n      jump\t// in\n    tag_43:\n      tag_44\n      jump\t// in\n    tag_42:\n      stop\n        /* \"contracts/Transfers.sol\":2204:2233  uint public fallbackCount = 0 */\n    tag_9:\n      callvalue\n      dup1\n      iszero\n      tag_45\n      jumpi\n      0x00\n      dup1\n      revert\n    tag_45:\n      pop\n      tag_46\n      tag_47\n      jump\t// in\n    tag_46:\n      mload(0x40)\n      tag_48\n      swap2\n      swap1\n      tag_34\n      jump\t// in\n    tag_48:\n      mload(0x40)\n      dup1\n      swap2\n      sub\n      swap1\n      return\n        /* \"contracts/Transfers.sol\":1258:1472  function withdrawSend(address payable to,uint amount) external returns(bool){... */\n    tag_22:\n        /* \"contracts/Transfers.sol\":1329:1333  bool */\n      0x00\n        /* \"contracts/Transfers.sol\":1344:1355  bool status */\n      dup1\n        /* \"contracts/Transfers.sol\":1358:1360  to */\n      dup4\n        /* \"contracts/Transfers.sol\":1358:1365  to.send */\n      0xffffffffffffffffffffffffffffffffffffffff\n      and\n        /* \"contracts/Transfers.sol\":1358:1373  to.send(amount) */\n      0x08fc\n        /* \"contracts/Transfers.sol\":1366:1372  amount */\n      dup5\n        /* \"contracts/Transfers.sol\":1358:1373  to.send(amount) */\n      swap1\n      dup2\n      iszero\n      mul\n      swap1\n      mload(0x40)\n      0x00\n      mload(0x40)\n      dup1\n      dup4\n      sub\n      dup2\n      dup6\n      dup9\n      dup9\n      call\n      swap4\n      pop\n      pop\n      pop\n      pop\n        /* \"contracts/Transfers.sol\":1344:1373  bool status = to.send(amount) */\n      swap1\n      pop\n        /* \"contracts/Transfers.sol\":1407:1413  amount */\n      dup3\n        /* \"contracts/Transfers.sol\":1383:1391  balances */\n      0x00\n        /* \"contracts/Transfers.sol\":1383:1403  balances[msg.sender] */\n      dup1\n        /* \"contracts/Transfers.sol\":1392:1402  msg.sender */\n      caller\n        /* \"contracts/Transfers.sol\":1383:1403  balances[msg.sender] */\n      0xffffffffffffffffffffffffffffffffffffffff\n      and\n      0xffffffffffffffffffffffffffffffffffffffff\n      and\n      dup2\n      mstore\n      0x20\n      add\n      swap1\n      dup2\n      mstore\n      0x20\n      add\n      0x00\n      keccak256\n      0x00\n        /* \"contracts/Transfers.sol\":1383:1413  balances[msg.sender] -= amount */\n      dup3\n      dup3\n      sload\n      tag_51\n      swap2\n      swap1\n      tag_52\n      jump\t// in\n    tag_51:\n      swap3\n      pop\n      pop\n      dup2\n      swap1\n      sstore\n      pop\n        /* \"contracts/Transfers.sol\":1459:1465  status */\n      dup1\n        /* \"contracts/Transfers.sol\":1452:1465  return status */\n      swap2\n      pop\n      pop\n        /* \"contracts/Transfers.sol\":1258:1472  function withdrawSend(address payable to,uint amount) external returns(bool){... */\n      swap3\n      swap2\n      pop\n      pop\n      jump\t// out\n        /* \"contracts/Transfers.sol\":1495:1811  function withdrawCall(address payable to,uint amount) external returns(bool){... */\n    tag_28:\n        /* \"contracts/Transfers.sol\":1566:1570  bool */\n      0x00\n        /* \"contracts/Transfers.sol\":1582:1593  bool status */\n      dup1\n        /* \"contracts/Transfers.sol\":1598:1600  to */\n      dup4\n        /* \"contracts/Transfers.sol\":1598:1605  to.call */\n      0xffffffffffffffffffffffffffffffffffffffff\n      and\n        /* \"contracts/Transfers.sol\":1613:1619  amount */\n      dup4\n        /* \"contracts/Transfers.sol\":1598:1624  to.call{value: amount}(\"\") */\n      mload(0x40)\n      tag_54\n      swap1\n      tag_55\n      jump\t// in\n    tag_54:\n      0x00\n      mload(0x40)\n      dup1\n      dup4\n      sub\n      dup2\n      dup6\n      dup8\n      gas\n      call\n      swap3\n      pop\n      pop\n      pop\n      returndatasize\n      dup1\n      0x00\n      dup2\n      eq\n      tag_58\n      jumpi\n      mload(0x40)\n      swap2\n      pop\n      and(add(returndatasize, 0x3f), not(0x1f))\n      dup3\n      add\n      0x40\n      mstore\n      returndatasize\n      dup3\n      mstore\n      returndatasize\n      0x00\n      0x20\n      dup5\n      add\n      returndatacopy\n      jump(tag_57)\n    tag_58:\n      0x60\n      swap2\n      pop\n    tag_57:\n      pop\n        /* \"contracts/Transfers.sol\":1581:1624  (bool status,) = to.call{value: amount}(\"\") */\n      pop\n      swap1\n      pop\n        /* \"contracts/Transfers.sol\":1746:1752  amount */\n      dup3\n        /* \"contracts/Transfers.sol\":1722:1730  balances */\n      0x00\n        /* \"contracts/Transfers.sol\":1722:1742  balances[msg.sender] */\n      dup1\n        /* \"contracts/Transfers.sol\":1731:1741  msg.sender */\n      caller\n        /* \"contracts/Transfers.sol\":1722:1742  balances[msg.sender] */\n      0xffffffffffffffffffffffffffffffffffffffff\n      and\n      0xffffffffffffffffffffffffffffffffffffffff\n      and\n      dup2\n      mstore\n      0x20\n      add\n      swap1\n      dup2\n      mstore\n      0x20\n      add\n      0x00\n      keccak256\n      0x00\n        /* \"contracts/Transfers.sol\":1722:1752  balances[msg.sender] -= amount */\n      dup3\n      dup3\n      sload\n      tag_59\n      swap2\n      swap1\n      tag_52\n      jump\t// in\n    tag_59:\n      swap3\n      pop\n      pop\n      dup2\n      swap1\n      sstore\n      pop\n        /* \"contracts/Transfers.sol\":1798:1804  status */\n      dup1\n        /* \"contracts/Transfers.sol\":1791:1804  return status */\n      swap2\n      pop\n      pop\n        /* \"contracts/Transfers.sol\":1495:1811  function withdrawCall(address payable to,uint amount) external returns(bool){... */\n      swap3\n      swap2\n      pop\n      pop\n      jump\t// out\n        /* \"contracts/Transfers.sol\":1900:1928  uint public receiveCount = 0 */\n    tag_32:\n      sload(0x01)\n      dup2\n      jump\t// out\n        /* \"contracts/Transfers.sol\":368:462  function showBalance() external view returns(uint){... */\n    tag_37:\n        /* \"contracts/Transfers.sol\":413:417  uint */\n      0x00\n        /* \"contracts/Transfers.sol\":435:443  balances */\n      dup1\n        /* \"contracts/Transfers.sol\":435:455  balances[msg.sender] */\n      0x00\n        /* \"contracts/Transfers.sol\":444:454  msg.sender */\n      caller\n        /* \"contracts/Transfers.sol\":435:455  balances[msg.sender] */\n      0xffffffffffffffffffffffffffffffffffffffff\n      and\n      0xffffffffffffffffffffffffffffffffffffffff\n      and\n      dup2\n      mstore\n      0x20\n      add\n      swap1\n      dup2\n      mstore\n      0x20\n      add\n      0x00\n      keccak256\n      sload\n        /* \"contracts/Transfers.sol\":428:455  return balances[msg.sender] */\n      swap1\n      pop\n        /* \"contracts/Transfers.sol\":368:462  function showBalance() external view returns(uint){... */\n      swap1\n      jump\t// out\n        /* \"contracts/Transfers.sol\":264:362  function sendEthersToContract() payable external {... */\n    tag_40:\n        /* \"contracts/Transfers.sol\":346:355  msg.value */\n      callvalue\n        /* \"contracts/Transfers.sol\":323:331  balances */\n      0x00\n        /* \"contracts/Transfers.sol\":323:343  balances[msg.sender] */\n      dup1\n        /* \"contracts/Transfers.sol\":332:342  msg.sender */\n      caller\n        /* \"contracts/Transfers.sol\":323:343  balances[msg.sender] */\n      0xffffffffffffffffffffffffffffffffffffffff\n      and\n      0xffffffffffffffffffffffffffffffffffffffff\n      and\n      dup2\n      mstore\n      0x20\n      add\n      swap1\n      dup2\n      mstore\n      0x20\n      add\n      0x00\n      keccak256\n        /* \"contracts/Transfers.sol\":323:355  balances[msg.sender] = msg.value */\n      dup2\n      swap1\n      sstore\n      pop\n        /* \"contracts/Transfers.sol\":264:362  function sendEthersToContract() payable external {... */\n      jump\t// out\n        /* \"contracts/Transfers.sol\":559:963  function withdraw(address payable to,uint amount) external {... */\n    tag_44:\n        /* \"contracts/Transfers.sol\":660:666  amount */\n      dup1\n        /* \"contracts/Transfers.sol\":636:644  balances */\n      0x00\n        /* \"contracts/Transfers.sol\":636:656  balances[msg.sender] */\n      dup1\n        /* \"contracts/Transfers.sol\":645:655  msg.sender */\n      caller\n        /* \"contracts/Transfers.sol\":636:656  balances[msg.sender] */\n      0xffffffffffffffffffffffffffffffffffffffff\n      and\n      0xffffffffffffffffffffffffffffffffffffffff\n      and\n      dup2\n      mstore\n      0x20\n      add\n      swap1\n      dup2\n      mstore\n      0x20\n      add\n      0x00\n      keccak256\n      sload\n        /* \"contracts/Transfers.sol\":636:666  balances[msg.sender] >= amount */\n      lt\n      iszero\n        /* \"contracts/Transfers.sol\":628:689  require(balances[msg.sender] >= amount, \"insufficient funds\") */\n      tag_63\n      jumpi\n      mload(0x40)\n      0x08c379a000000000000000000000000000000000000000000000000000000000\n      dup2\n      mstore\n      0x04\n      add\n      tag_64\n      swap1\n      tag_65\n      jump\t// in\n    tag_64:\n      mload(0x40)\n      dup1\n      swap2\n      sub\n      swap1\n      revert\n    tag_63:\n        /* \"contracts/Transfers.sol\":868:870  to */\n      dup2\n        /* \"contracts/Transfers.sol\":868:879  to.transfer */\n      0xffffffffffffffffffffffffffffffffffffffff\n      and\n        /* \"contracts/Transfers.sol\":868:887  to.transfer(amount) */\n      0x08fc\n        /* \"contracts/Transfers.sol\":880:886  amount */\n      dup3\n        /* \"contracts/Transfers.sol\":868:887  to.transfer(amount) */\n      swap1\n      dup2\n      iszero\n      mul\n      swap1\n      mload(0x40)\n      0x00\n      mload(0x40)\n      dup1\n      dup4\n      sub\n      dup2\n      dup6\n      dup9\n      dup9\n      call\n      swap4\n      pop\n      pop\n      pop\n      pop\n      iszero\n      dup1\n      iszero\n      tag_67\n      jumpi\n      returndatasize\n      0x00\n      dup1\n      returndatacopy\n      revert(0x00, returndatasize)\n    tag_67:\n      pop\n        /* \"contracts/Transfers.sol\":921:927  amount */\n      dup1\n        /* \"contracts/Transfers.sol\":897:905  balances */\n      0x00\n        /* \"contracts/Transfers.sol\":897:917  balances[msg.sender] */\n      dup1\n        /* \"contracts/Transfers.sol\":906:916  msg.sender */\n      caller\n        /* \"contracts/Transfers.sol\":897:917  balances[msg.sender] */\n      0xffffffffffffffffffffffffffffffffffffffff\n      and\n      0xffffffffffffffffffffffffffffffffffffffff\n      and\n      dup2\n      mstore\n      0x20\n      add\n      swap1\n      dup2\n      mstore\n      0x20\n      add\n      0x00\n      keccak256\n      0x00\n        /* \"contracts/Transfers.sol\":897:927  balances[msg.sender] -= amount */\n      dup3\n      dup3\n      sload\n      tag_68\n      swap2\n      swap1\n      tag_52\n      jump\t// in\n    tag_68:\n      swap3\n      pop\n      pop\n      dup2\n      swap1\n      sstore\n      pop\n        /* \"contracts/Transfers.sol\":559:963  function withdraw(address payable to,uint amount) external {... */\n      pop\n      pop\n      jump\t// out\n        /* \"contracts/Transfers.sol\":2204:2233  uint public fallbackCount = 0 */\n    tag_47:\n      sload(0x02)\n      dup2\n      jump\t// out\n        /* \"#utility.yul\":7:187   */\n    tag_69:\n        /* \"#utility.yul\":55:132   */\n      0x4e487b7100000000000000000000000000000000000000000000000000000000\n        /* \"#utility.yul\":52:53   */\n      0x00\n        /* \"#utility.yul\":45:133   */\n      mstore\n        /* \"#utility.yul\":152:156   */\n      0x11\n        /* \"#utility.yul\":149:150   */\n      0x04\n        /* \"#utility.yul\":142:157   */\n      mstore\n        /* \"#utility.yul\":176:180   */\n      0x24\n        /* \"#utility.yul\":173:174   */\n      0x00\n        /* \"#utility.yul\":166:181   */\n      revert\n        /* \"#utility.yul\":193:270   */\n    tag_70:\n        /* \"#utility.yul\":230:237   */\n      0x00\n        /* \"#utility.yul\":259:264   */\n      dup2\n        /* \"#utility.yul\":248:264   */\n      swap1\n      pop\n        /* \"#utility.yul\":193:270   */\n      swap2\n      swap1\n      pop\n      jump\t// out\n        /* \"#utility.yul\":276:509   */\n    tag_14:\n        /* \"#utility.yul\":315:318   */\n      0x00\n        /* \"#utility.yul\":338:362   */\n      tag_93\n        /* \"#utility.yul\":356:361   */\n      dup3\n        /* \"#utility.yul\":338:362   */\n      tag_70\n      jump\t// in\n    tag_93:\n        /* \"#utility.yul\":329:362   */\n      swap2\n      pop\n        /* \"#utility.yul\":384:450   */\n      0xffffffffffffffffffffffffffffffffffffffffffffffffffffffffffffffff\n        /* \"#utility.yul\":377:382   */\n      dup3\n        /* \"#utility.yul\":374:451   */\n      sub\n        /* \"#utility.yul\":371:474   */\n      tag_94\n      jumpi\n        /* \"#utility.yul\":454:472   */\n      tag_95\n      tag_69\n      jump\t// in\n    tag_95:\n        /* \"#utility.yul\":371:474   */\n    tag_94:\n        /* \"#utility.yul\":501:502   */\n      0x01\n        /* \"#utility.yul\":494:499   */\n      dup3\n        /* \"#utility.yul\":490:503   */\n      add\n        /* \"#utility.yul\":483:503   */\n      swap1\n      pop\n        /* \"#utility.yul\":276:509   */\n      swap2\n      swap1\n      pop\n      jump\t// out\n        /* \"#utility.yul\":596:713   */\n    tag_72:\n        /* \"#utility.yul\":705:706   */\n      0x00\n        /* \"#utility.yul\":702:703   */\n      dup1\n        /* \"#utility.yul\":695:707   */\n      revert\n        /* \"#utility.yul\":842:968   */\n    tag_74:\n        /* \"#utility.yul\":879:886   */\n      0x00\n        /* \"#utility.yul\":919:961   */\n      0xffffffffffffffffffffffffffffffffffffffff\n        /* \"#utility.yul\":912:917   */\n      dup3\n        /* \"#utility.yul\":908:962   */\n      and\n        /* \"#utility.yul\":897:962   */\n      swap1\n      pop\n        /* \"#utility.yul\":842:968   */\n      swap2\n      swap1\n      pop\n      jump\t// out\n        /* \"#utility.yul\":974:1078   */\n    tag_75:\n        /* \"#utility.yul\":1019:1026   */\n      0x00\n        /* \"#utility.yul\":1048:1072   */\n      tag_101\n        /* \"#utility.yul\":1066:1071   */\n      dup3\n        /* \"#utility.yul\":1048:1072   */\n      tag_74\n      jump\t// in\n    tag_101:\n        /* \"#utility.yul\":1037:1072   */\n      swap1\n      pop\n        /* \"#utility.yul\":974:1078   */\n      swap2\n      swap1\n      pop\n      jump\t// out\n        /* \"#utility.yul\":1084:1222   */\n    tag_76:\n        /* \"#utility.yul\":1165:1197   */\n      tag_103\n        /* \"#utility.yul\":1191:1196   */\n      dup2\n        /* \"#utility.yul\":1165:1197   */\n      tag_75\n      jump\t// in\n    tag_103:\n        /* \"#utility.yul\":1158:1163   */\n      dup2\n        /* \"#utility.yul\":1155:1198   */\n      eq\n        /* \"#utility.yul\":1145:1216   */\n      tag_104\n      jumpi\n        /* \"#utility.yul\":1212:1213   */\n      0x00\n        /* \"#utility.yul\":1209:1210   */\n      dup1\n        /* \"#utility.yul\":1202:1214   */\n      revert\n        /* \"#utility.yul\":1145:1216   */\n    tag_104:\n        /* \"#utility.yul\":1084:1222   */\n      pop\n      jump\t// out\n        /* \"#utility.yul\":1228:1383   */\n    tag_77:\n        /* \"#utility.yul\":1282:1287   */\n      0x00\n        /* \"#utility.yul\":1320:1326   */\n      dup2\n        /* \"#utility.yul\":1307:1327   */\n      calldataload\n        /* \"#utility.yul\":1298:1327   */\n      swap1\n      pop\n        /* \"#utility.yul\":1336:1377   */\n      tag_106\n        /* \"#utility.yul\":1371:1376   */\n      dup2\n        /* \"#utility.yul\":1336:1377   */\n      tag_76\n      jump\t// in\n    tag_106:\n        /* \"#utility.yul\":1228:1383   */\n      swap3\n      swap2\n      pop\n      pop\n      jump\t// out\n        /* \"#utility.yul\":1389:1511   */\n    tag_78:\n        /* \"#utility.yul\":1462:1486   */\n      tag_108\n        /* \"#utility.yul\":1480:1485   */\n      dup2\n        /* \"#utility.yul\":1462:1486   */\n      tag_70\n      jump\t// in\n    tag_108:\n        /* \"#utility.yul\":1455:1460   */\n      dup2\n        /* \"#utility.yul\":1452:1487   */\n      eq\n        /* \"#utility.yul\":1442:1505   */\n      tag_109\n      jumpi\n        /* \"#utility.yul\":1501:1502   */\n      0x00\n        /* \"#utility.yul\":1498:1499   */\n      dup1\n        /* \"#utility.yul\":1491:1503   */\n      revert\n        /* \"#utility.yul\":1442:1505   */\n    tag_109:\n        /* \"#utility.yul\":1389:1511   */\n      pop\n      jump\t// out\n        /* \"#utility.yul\":1517:1656   */\n    tag_79:\n        /* \"#utility.yul\":1563:1568   */\n      0x00\n        /* \"#utility.yul\":1601:1607   */\n      dup2\n        /* \"#utility.yul\":1588:1608   */\n      calldataload\n        /* \"#utility.yul\":1579:1608   */\n      swap1\n      pop\n        /* \"#utility.yul\":1617:1650   */\n      tag_111\n        /* \"#utility.yul\":1644:1649   */\n      dup2\n        /* \"#utility.yul\":1617:1650   */\n      tag_78\n      jump\t// in\n    tag_111:\n        /* \"#utility.yul\":1517:1656   */\n      swap3\n      swap2\n      pop\n      pop\n      jump\t// out\n        /* \"#utility.yul\":1662:2152   */\n    tag_21:\n        /* \"#utility.yul\":1738:1744   */\n      0x00\n        /* \"#utility.yul\":1746:1752   */\n      dup1\n        /* \"#utility.yul\":1795:1797   */\n      0x40\n        /* \"#utility.yul\":1783:1792   */\n      dup4\n        /* \"#utility.yul\":1774:1781   */\n      dup6\n        /* \"#utility.yul\":1770:1793   */\n      sub\n        /* \"#utility.yul\":1766:1798   */\n      slt\n        /* \"#utility.yul\":1763:1882   */\n      iszero\n      tag_113\n      jumpi\n        /* \"#utility.yul\":1801:1880   */\n      tag_114\n      tag_72\n      jump\t// in\n    tag_114:\n        /* \"#utility.yul\":1763:1882   */\n    tag_113:\n        /* \"#utility.yul\":1921:1922   */\n      0x00\n        /* \"#utility.yul\":1946:2007   */\n      tag_115\n        /* \"#utility.yul\":1999:2006   */\n      dup6\n        /* \"#utility.yul\":1990:1996   */\n      dup3\n        /* \"#utility.yul\":1979:1988   */\n      dup7\n        /* \"#utility.yul\":1975:1997   */\n      add\n        /* \"#utility.yul\":1946:2007   */\n      tag_77\n      jump\t// in\n    tag_115:\n        /* \"#utility.yul\":1936:2007   */\n      swap3\n      pop\n        /* \"#utility.yul\":1892:2017   */\n      pop\n        /* \"#utility.yul\":2056:2058   */\n      0x20\n        /* \"#utility.yul\":2082:2135   */\n      tag_116\n        /* \"#utility.yul\":2127:2134   */\n      dup6\n        /* \"#utility.yul\":2118:2124   */\n      dup3\n        /* \"#utility.yul\":2107:2116   */\n      dup7\n        /* \"#utility.yul\":2103:2125   */\n      add\n        /* \"#utility.yul\":2082:2135   */\n      tag_79\n      jump\t// in\n    tag_116:\n        /* \"#utility.yul\":2072:2135   */\n      swap2\n      pop\n        /* \"#utility.yul\":2027:2145   */\n      pop\n        /* \"#utility.yul\":1662:2152   */\n      swap3\n      pop\n      swap3\n      swap1\n      pop\n      jump\t// out\n        /* \"#utility.yul\":2158:2248   */\n    tag_80:\n        /* \"#utility.yul\":2192:2199   */\n      0x00\n        /* \"#utility.yul\":2235:2240   */\n      dup2\n        /* \"#utility.yul\":2228:2241   */\n      iszero\n        /* \"#utility.yul\":2221:2242   */\n      iszero\n        /* \"#utility.yul\":2210:2242   */\n      swap1\n      pop\n        /* \"#utility.yul\":2158:2248   */\n      swap2\n      swap1\n      pop\n      jump\t// out\n        /* \"#utility.yul\":2254:2363   */\n    tag_81:\n        /* \"#utility.yul\":2335:2356   */\n      tag_119\n        /* \"#utility.yul\":2350:2355   */\n      dup2\n        /* \"#utility.yul\":2335:2356   */\n      tag_80\n      jump\t// in\n    tag_119:\n        /* \"#utility.yul\":2330:2333   */\n      dup3\n        /* \"#utility.yul\":2323:2357   */\n      mstore\n        /* \"#utility.yul\":2254:2363   */\n      pop\n      pop\n      jump\t// out\n        /* \"#utility.yul\":2369:2579   */\n    tag_24:\n        /* \"#utility.yul\":2456:2460   */\n      0x00\n        /* \"#utility.yul\":2494:2496   */\n      0x20\n        /* \"#utility.yul\":2483:2492   */\n      dup3\n        /* \"#utility.yul\":2479:2497   */\n      add\n        /* \"#utility.yul\":2471:2497   */\n      swap1\n      pop\n        /* \"#utility.yul\":2507:2572   */\n      tag_121\n        /* \"#utility.yul\":2569:2570   */\n      0x00\n        /* \"#utility.yul\":2558:2567   */\n      dup4\n        /* \"#utility.yul\":2554:2571   */\n      add\n        /* \"#utility.yul\":2545:2551   */\n      dup5\n        /* \"#utility.yul\":2507:2572   */\n      tag_81\n      jump\t// in\n    tag_121:\n        /* \"#utility.yul\":2369:2579   */\n      swap3\n      swap2\n      pop\n      pop\n      jump\t// out\n        /* \"#utility.yul\":2585:2703   */\n    tag_82:\n        /* \"#utility.yul\":2672:2696   */\n      tag_123\n        /* \"#utility.yul\":2690:2695   */\n      dup2\n        /* \"#utility.yul\":2672:2696   */\n      tag_70\n      jump\t// in\n    tag_123:\n        /* \"#utility.yul\":2667:2670   */\n      dup3\n        /* \"#utility.yul\":2660:2697   */\n      mstore\n        /* \"#utility.yul\":2585:2703   */\n      pop\n      pop\n      jump\t// out\n        /* \"#utility.yul\":2709:2931   */\n    tag_34:\n        /* \"#utility.yul\":2802:2806   */\n      0x00\n        /* \"#utility.yul\":2840:2842   */\n      0x20\n        /* \"#utility.yul\":2829:2838   */\n      dup3\n        /* \"#utility.yul\":2825:2843   */\n      add\n        /* \"#utility.yul\":2817:2843   */\n      swap1\n      pop\n        /* \"#utility.yul\":2853:2924   */\n      tag_125\n        /* \"#utility.yul\":2921:2922   */\n      0x00\n        /* \"#utility.yul\":2910:2919   */\n      dup4\n        /* \"#utility.yul\":2906:2923   */\n      add\n        /* \"#utility.yul\":2897:2903   */\n      dup5\n        /* \"#utility.yul\":2853:2924   */\n      tag_82\n      jump\t// in\n    tag_125:\n        /* \"#utility.yul\":2709:2931   */\n      swap3\n      swap2\n      pop\n      pop\n      jump\t// out\n        /* \"#utility.yul\":2937:3131   */\n    tag_52:\n        /* \"#utility.yul\":2977:2981   */\n      0x00\n        /* \"#utility.yul\":2997:3017   */\n      tag_127\n        /* \"#utility.yul\":3015:3016   */\n      dup3\n        /* \"#utility.yul\":2997:3017   */\n      tag_70\n      jump\t// in\n    tag_127:\n        /* \"#utility.yul\":2992:3017   */\n      swap2\n      pop\n        /* \"#utility.yul\":3031:3051   */\n      tag_128\n        /* \"#utility.yul\":3049:3050   */\n      dup4\n        /* \"#utility.yul\":3031:3051   */\n      tag_70\n      jump\t// in\n    tag_128:\n        /* \"#utility.yul\":3026:3051   */\n      swap3\n      pop\n        /* \"#utility.yul\":3075:3076   */\n      dup3\n        /* \"#utility.yul\":3072:3073   */\n      dup3\n        /* \"#utility.yul\":3068:3077   */\n      sub\n        /* \"#utility.yul\":3060:3077   */\n      swap1\n      pop\n        /* \"#utility.yul\":3099:3100   */\n      dup2\n        /* \"#utility.yul\":3093:3097   */\n      dup2\n        /* \"#utility.yul\":3090:3101   */\n      gt\n        /* \"#utility.yul\":3087:3124   */\n      iszero\n      tag_129\n      jumpi\n        /* \"#utility.yul\":3104:3122   */\n      tag_130\n      tag_69\n      jump\t// in\n    tag_130:\n        /* \"#utility.yul\":3087:3124   */\n    tag_129:\n        /* \"#utility.yul\":2937:3131   */\n      swap3\n      swap2\n      pop\n      pop\n      jump\t// out\n        /* \"#utility.yul\":3137:3284   */\n    tag_83:\n        /* \"#utility.yul\":3238:3249   */\n      0x00\n        /* \"#utility.yul\":3275:3278   */\n      dup2\n        /* \"#utility.yul\":3260:3278   */\n      swap1\n      pop\n        /* \"#utility.yul\":3137:3284   */\n      swap3\n      swap2\n      pop\n      pop\n      jump\t// out\n        /* \"#utility.yul\":3290:3404   */\n    tag_84:\n      pop\n      jump\t// out\n        /* \"#utility.yul\":3410:3808   */\n    tag_85:\n        /* \"#utility.yul\":3569:3572   */\n      0x00\n        /* \"#utility.yul\":3590:3673   */\n      tag_134\n        /* \"#utility.yul\":3671:3672   */\n      0x00\n        /* \"#utility.yul\":3666:3669   */\n      dup4\n        /* \"#utility.yul\":3590:3673   */\n      tag_83\n      jump\t// in\n    tag_134:\n        /* \"#utility.yul\":3583:3673   */\n      swap2\n      pop\n        /* \"#utility.yul\":3682:3775   */\n      tag_135\n        /* \"#utility.yul\":3771:3774   */\n      dup3\n        /* \"#utility.yul\":3682:3775   */\n      tag_84\n      jump\t// in\n    tag_135:\n        /* \"#utility.yul\":3800:3801   */\n      0x00\n        /* \"#utility.yul\":3795:3798   */\n      dup3\n        /* \"#utility.yul\":3791:3802   */\n      add\n        /* \"#utility.yul\":3784:3802   */\n      swap1\n      pop\n        /* \"#utility.yul\":3410:3808   */\n      swap2\n      swap1\n      pop\n      jump\t// out\n        /* \"#utility.yul\":3814:4193   */\n    tag_55:\n        /* \"#utility.yul\":3998:4001   */\n      0x00\n        /* \"#utility.yul\":4020:4167   */\n      tag_137\n        /* \"#utility.yul\":4163:4166   */\n      dup3\n        /* \"#utility.yul\":4020:4167   */\n      tag_85\n      jump\t// in\n    tag_137:\n        /* \"#utility.yul\":4013:4167   */\n      swap2\n      pop\n        /* \"#utility.yul\":4184:4187   */\n      dup2\n        /* \"#utility.yul\":4177:4187   */\n      swap1\n      pop\n        /* \"#utility.yul\":3814:4193   */\n      swap2\n      swap1\n      pop\n      jump\t// out\n        /* \"#utility.yul\":4199:4368   */\n    tag_86:\n        /* \"#utility.yul\":4283:4294   */\n      0x00\n        /* \"#utility.yul\":4317:4323   */\n      dup3\n        /* \"#utility.yul\":4312:4315   */\n      dup3\n        /* \"#utility.yul\":4305:4324   */\n      mstore\n        /* \"#utility.yul\":4357:4361   */\n      0x20\n        /* \"#utility.yul\":4352:4355   */\n      dup3\n        /* \"#utility.yul\":4348:4362   */\n      add\n        /* \"#utility.yul\":4333:4362   */\n      swap1\n      pop\n        /* \"#utility.yul\":4199:4368   */\n      swap3\n      swap2\n      pop\n      pop\n      jump\t// out\n        /* \"#utility.yul\":4374:4542   */\n    tag_87:\n        /* \"#utility.yul\":4514:4534   */\n      0x696e73756666696369656e742066756e64730000000000000000000000000000\n        /* \"#utility.yul\":4510:4511   */\n      0x00\n        /* \"#utility.yul\":4502:4508   */\n      dup3\n        /* \"#utility.yul\":4498:4512   */\n      add\n        /* \"#utility.yul\":4491:4535   */\n      mstore\n        /* \"#utility.yul\":4374:4542   */\n      pop\n      jump\t// out\n        /* \"#utility.yul\":4548:4914   */\n    tag_88:\n        /* \"#utility.yul\":4690:4693   */\n      0x00\n        /* \"#utility.yul\":4711:4778   */\n      tag_141\n        /* \"#utility.yul\":4775:4777   */\n      0x12\n        /* \"#utility.yul\":4770:4773   */\n      dup4\n        /* \"#utility.yul\":4711:4778   */\n      tag_86\n      jump\t// in\n    tag_141:\n        /* \"#utility.yul\":4704:4778   */\n      swap2\n      pop\n        /* \"#utility.yul\":4787:4880   */\n      tag_142\n        /* \"#utility.yul\":4876:4879   */\n      dup3\n        /* \"#utility.yul\":4787:4880   */\n      tag_87\n      jump\t// in\n    tag_142:\n        /* \"#utility.yul\":4905:4907   */\n      0x20\n        /* \"#utility.yul\":4900:4903   */\n      dup3\n        /* \"#utility.yul\":4896:4908   */\n      add\n        /* \"#utility.yul\":4889:4908   */\n      swap1\n      pop\n        /* \"#utility.yul\":4548:4914   */\n      swap2\n      swap1\n      pop\n      jump\t// out\n        /* \"#utility.yul\":4920:5339   */\n    tag_65:\n        /* \"#utility.yul\":5086:5090   */\n      0x00\n        /* \"#utility.yul\":5124:5126   */\n      0x20\n        /* \"#utility.yul\":5113:5122   */\n      dup3\n        /* \"#utility.yul\":5109:5127   */\n      add\n        /* \"#utility.yul\":5101:5127   */\n      swap1\n      pop\n        /* \"#utility.yul\":5173:5182   */\n      dup2\n        /* \"#utility.yul\":5167:5171   */\n      dup2\n        /* \"#utility.yul\":5163:5183   */\n      sub\n        /* \"#utility.yul\":5159:5160   */\n      0x00\n        /* \"#utility.yul\":5148:5157   */\n      dup4\n        /* \"#utility.yul\":5144:5161   */\n      add\n        /* \"#utility.yul\":5137:5184   */\n      mstore\n        /* \"#utility.yul\":5201:5332   */\n      tag_144\n        /* \"#utility.yul\":5327:5331   */\n      dup2\n        /* \"#utility.yul\":5201:5332   */\n      tag_88\n      jump\t// in\n    tag_144:\n        /* \"#utility.yul\":5193:5332   */\n      swap1\n      pop\n        /* \"#utility.yul\":4920:5339   */\n      swap2\n      swap1\n      pop\n      jump\t// out\n\n    auxdata: 0xa2646970667358221220dda2fb22a3f7b02ab14d4038b58345d5349482525dbbe58733b353707a35fe7964736f6c63430008180033\n}\n",
				"bytecode": {
					"linkReferences": {},
					"object": "60806040525f6001555f600255348015610017575f80fd5b50610794806100255f395ff3fe608060405260043610610073575f3560e01c806381b2d07b1161004d57806381b2d07b1461014a578063d2038ae314610174578063f3fef3a31461017e578063f776bd06146101a657610090565b80633830ea6c146100a8578063453c1c35146100e45780637ba855921461012057610090565b366100905760015f81548092919061008a9061050a565b91905055005b60025f8154809291906100a29061050a565b91905055005b3480156100b3575f80fd5b506100ce60048036038101906100c991906105d9565b6101d0565b6040516100db9190610631565b60405180910390f35b3480156100ef575f80fd5b5061010a600480360381019061010591906105d9565b610264565b6040516101179190610631565b60405180910390f35b34801561012b575f80fd5b50610134610329565b6040516101419190610659565b60405180910390f35b348015610155575f80fd5b5061015e61032f565b60405161016b9190610659565b60405180910390f35b61017c610372565b005b348015610189575f80fd5b506101a4600480360381019061019f91906105d9565b6103b5565b005b3480156101b1575f80fd5b506101ba6104ce565b6040516101c79190610659565b60405180910390f35b5f808373ffffffffffffffffffffffffffffffffffffffff166108fc8490811502906040515f60405180830381858888f193505050509050825f803373ffffffffffffffffffffffffffffffffffffffff1673ffffffffffffffffffffffffffffffffffffffff1681526020019081526020015f205f8282546102539190610672565b925050819055508091505092915050565b5f808373ffffffffffffffffffffffffffffffffffffffff168360405161028a906106d2565b5f6040518083038185875af1925050503d805f81146102c4576040519150601f19603f3d011682016040523d82523d5f602084013e6102c9565b606091505b50509050825f803373ffffffffffffffffffffffffffffffffffffffff1673ffffffffffffffffffffffffffffffffffffffff1681526020019081526020015f205f8282546103189190610672565b925050819055508091505092915050565b60015481565b5f805f3373ffffffffffffffffffffffffffffffffffffffff1673ffffffffffffffffffffffffffffffffffffffff1681526020019081526020015f2054905090565b345f803373ffffffffffffffffffffffffffffffffffffffff1673ffffffffffffffffffffffffffffffffffffffff1681526020019081526020015f2081905550565b805f803373ffffffffffffffffffffffffffffffffffffffff1673ffffffffffffffffffffffffffffffffffffffff1681526020019081526020015f20541015610434576040517f08c379a000000000000000000000000000000000000000000000000000000000815260040161042b90610740565b60405180910390fd5b8173ffffffffffffffffffffffffffffffffffffffff166108fc8290811502906040515f60405180830381858888f19350505050158015610477573d5f803e3d5ffd5b50805f803373ffffffffffffffffffffffffffffffffffffffff1673ffffffffffffffffffffffffffffffffffffffff1681526020019081526020015f205f8282546104c39190610672565b925050819055505050565b60025481565b7f4e487b71000000000000000000000000000000000000000000000000000000005f52601160045260245ffd5b5f819050919050565b5f61051482610501565b91507fffffffffffffffffffffffffffffffffffffffffffffffffffffffffffffffff8203610546576105456104d4565b5b600182019050919050565b5f80fd5b5f73ffffffffffffffffffffffffffffffffffffffff82169050919050565b5f61057e82610555565b9050919050565b61058e81610574565b8114610598575f80fd5b50565b5f813590506105a981610585565b92915050565b6105b881610501565b81146105c2575f80fd5b50565b5f813590506105d3816105af565b92915050565b5f80604083850312156105ef576105ee610551565b5b5f6105fc8582860161059b565b925050602061060d858286016105c5565b9150509250929050565b5f8115159050919050565b61062b81610617565b82525050565b5f6020820190506106445f830184610622565b92915050565b61065381610501565b82525050565b5f60208201905061066c5f83018461064a565b92915050565b5f61067c82610501565b915061068783610501565b925082820390508181111561069f5761069e6104d4565b5b92915050565b5f81905092915050565b50565b5f6106bd5f836106a5565b91506106c8826106af565b5f82019050919050565b5f6106dc826106b2565b9150819050919050565b5f82825260208201905092915050565b7f696e73756666696369656e742066756e647300000000000000000000000000005f82015250565b5f61072a6012836106e6565b9150610735826106f6565b602082019050919050565b5f6020820190508181035f8301526107578161071e565b905091905056fea2646970667358221220dda2fb22a3f7b02ab14d4038b58345d5349482525dbbe58733b353707a35fe7964736f6c63430008180033",
					"opcodes": "PUSH1 0x80 PUSH1 0x40 MSTORE PUSH0 PUSH1 0x1 SSTORE PUSH0 PUSH1 0x2 SSTORE CALLVALUE DUP1 ISZERO PUSH2 0x17 JUMPI PUSH0 DUP1 REVERT JUMPDEST POP PUSH2 0x794 DUP1 PUSH2 0x25 PUSH0 CODECOPY PUSH0 RETURN INVALID PUSH1 0x80 PUSH1 0x40 MSTORE PUSH1 0x4 CALLDATASIZE LT PUSH2 0x73 JUMPI PUSH0 CALLDATALOAD PUSH1 0xE0 SHR DUP1 PUSH4 0x81B2D07B GT PUSH2 0x4D JUMPI DUP1 PUSH4 0x81B2D07B EQ PUSH2 0x14A JUMPI DUP1 PUSH4 0xD2038AE3 EQ PUSH2 0x174 JUMPI DUP1 PUSH4 0xF3FEF3A3 EQ PUSH2 0x17E JUMPI DUP1 PUSH4 0xF776BD06 EQ PUSH2 0x1A6 JUMPI PUSH2 0x90 JUMP JUMPDEST DUP1 PUSH4 0x3830EA6C EQ PUSH2 0xA8 JUMPI DUP1 PUSH4 0x453C1C35 EQ PUSH2 0xE4 JUMPI DUP1 PUSH4 0x7BA85592 EQ PUSH2 0x120 JUMPI PUSH2 0x90 JUMP JUMPDEST CALLDATASIZE PUSH2 0x90 JUMPI PUSH1 0x1 PUSH0 DUP2 SLOAD DUP1 SWAP3 SWAP2 SWAP1 PUSH2 0x8A SWAP1 PUSH2 0x50A JUMP JUMPDEST SWAP2 SWAP1 POP SSTORE STOP JUMPDEST PUSH1 0x2 PUSH0 DUP2 SLOAD DUP1 SWAP3 SWAP2 SWAP1 PUSH2 0xA2 SWAP1 PUSH2 0x50A JUMP JUMPDEST SWAP2 SWAP1 POP SSTORE STOP JUMPDEST CALLVALUE DUP1 ISZERO PUSH2 0xB3 JUMPI PUSH0 DUP1 REVERT JUMPDEST POP PUSH2 0xCE PUSH1 0x4 DUP1 CALLDATASIZE SUB DUP2 ADD SWAP1 PUSH2 0xC9 SWAP2 SWAP1 PUSH2 0x5D9 JUMP JUMPDEST PUSH2 0x1D0 JUMP JUMPDEST PUSH1 0x40 MLOAD PUSH2 0xDB SWAP2 SWAP1 PUSH2 0x631 JUMP JUMPDEST PUSH1 0x40 MLOAD DUP1 SWAP2 SUB SWAP1 RETURN JUMPDEST CALLVALUE DUP1 ISZERO PUSH2 0xEF JUMPI PUSH0 DUP1 REVERT JUMPDEST POP PUSH2 0x10A PUSH1 0x4 DUP1 CALLDATASIZE SUB DUP2 ADD SWAP1 PUSH2 0x105 SWAP2 SWAP1 PUSH2 0x5D9 JUMP JUMPDEST PUSH2 0x264 JUMP JUMPDEST PUSH1 0x40 MLOAD PUSH2 0x117 SWAP2 SWAP1 PUSH2 0x631 JUMP JUMPDEST PUSH1 0x40 MLOAD DUP1 SWAP2 SUB SWAP1 RETURN JUMPDEST CALLVALUE DUP1 ISZERO PUSH2 0x12B JUMPI PUSH0 DUP1 REVERT JUMPDEST POP PUSH2 0x134 PUSH2 0x329 JUMP JUMPDEST PUSH1 0x40 MLOAD PUSH2 0x141 SWAP2 SWAP1 PUSH2 0x659 JUMP JUMPDEST PUSH1 0x40 MLOAD DUP1 SWAP2 SUB SWAP1 RETURN JUMPDEST CALLVALUE DUP1 ISZERO PUSH2 0x155 JUMPI PUSH0 DUP1 REVERT JUMPDEST POP PUSH2 0x15E PUSH2 0x32F JUMP JUMPDEST PUSH1 0x40 MLOAD PUSH2 0x16B SWAP2 SWAP1 PUSH2 0x659 JUMP JUMPDEST PUSH1 0x40 MLOAD DUP1 SWAP2 SUB SWAP1 RETURN JUMPDEST PUSH2 0x17C PUSH2 0x372 JUMP JUMPDEST STOP JUMPDEST CALLVALUE DUP1 ISZERO PUSH2 0x189 JUMPI PUSH0 DUP1 REVERT JUMPDEST POP PUSH2 0x1A4 PUSH1 0x4 DUP1 CALLDATASIZE SUB DUP2 ADD SWAP1 PUSH2 0x19F SWAP2 SWAP1 PUSH2 0x5D9 JUMP JUMPDEST PUSH2 0x3B5 JUMP JUMPDEST STOP JUMPDEST CALLVALUE DUP1 ISZERO PUSH2 0x1B1 JUMPI PUSH0 DUP1 REVERT JUMPDEST POP PUSH2 0x1BA PUSH2 0x4CE JUMP JUMPDEST PUSH1 0x40 MLOAD PUSH2 0x1C7 SWAP2 SWAP1 PUSH2 0x659 JUMP JUMPDEST PUSH1 0x40 MLOAD DUP1 SWAP2 SUB SWAP1 RETURN JUMPDEST PUSH0 DUP1 DUP4 PUSH20 0xFFFFFFFFFFFFFFFFFFFFFFFFFFFFFFFFFFFFFFFF AND PUSH2 0x8FC DUP5 SWAP1 DUP2 ISZERO MUL SWAP1 PUSH1 0x40 MLOAD PUSH0 PUSH1 0x40 MLOAD DUP1 DUP4 SUB DUP2 DUP6 DUP9 DUP9 CALL SWAP4 POP POP POP POP SWAP1 POP DUP3 PUSH0 DUP1 CALLER PUSH20 0xFFFFFFFFFFFFFFFFFFFFFFFFFFFFFFFFFFFFFFFF AND PUSH20 0xFFFFFFFFFFFFFFFFFFFFFFFFFFFFFFFFFFFFFFFF AND DUP2 MSTORE PUSH1 0x20 ADD SWAP1 DUP2 MSTORE PUSH1 0x20 ADD PUSH0 KECCAK256 PUSH0 DUP3 DUP3 SLOAD PUSH2 0x253 SWAP2 SWAP1 PUSH2 0x672 JUMP JUMPDEST SWAP3 POP POP DUP2 SWAP1 SSTORE POP DUP1 SWAP2 POP POP SWAP3 SWAP2 POP POP JUMP JUMPDEST PUSH0 DUP1 DUP4 PUSH20 0xFFFFFFFFFFFFFFFFFFFFFFFFFFFFFFFFFFFFFFFF AND DUP4 PUSH1 0x40 MLOAD PUSH2 0x28A SWAP1 PUSH2 0x6D2 JUMP JUMPDEST PUSH0 PUSH1 0x40 MLOAD DUP1 DUP4 SUB DUP2 DUP6 DUP8 GAS CALL SWAP3 POP POP POP RETURNDATASIZE DUP1 PUSH0 DUP2 EQ PUSH2 0x2C4 JUMPI PUSH1 0x40 MLOAD SWAP2 POP PUSH1 0x1F NOT PUSH1 0x3F RETURNDATASIZE ADD AND DUP3 ADD PUSH1 0x40 MSTORE RETURNDATASIZE DUP3 MSTORE RETURNDATASIZE PUSH0 PUSH1 0x20 DUP5 ADD RETURNDATACOPY PUSH2 0x2C9 JUMP JUMPDEST PUSH1 0x60 SWAP2 POP JUMPDEST POP POP SWAP1 POP DUP3 PUSH0 DUP1 CALLER PUSH20 0xFFFFFFFFFFFFFFFFFFFFFFFFFFFFFFFFFFFFFFFF AND PUSH20 0xFFFFFFFFFFFFFFFFFFFFFFFFFFFFFFFFFFFFFFFF AND DUP2 MSTORE PUSH1 0x20 ADD SWAP1 DUP2 MSTORE PUSH1 0x20 ADD PUSH0 KECCAK256 PUSH0 DUP3 DUP3 SLOAD PUSH2 0x318 SWAP2 SWAP1 PUSH2 0x672 JUMP JUMPDEST SWAP3 POP POP DUP2 SWAP1 SSTORE POP DUP1 SWAP2 POP POP SWAP3 SWAP2 POP POP JUMP JUMPDEST PUSH1 0x1 SLOAD DUP2 JUMP JUMPDEST PUSH0 DUP1 PUSH0 CALLER PUSH20 0xFFFFFFFFFFFFFFFFFFFFFFFFFFFFFFFFFFFFFFFF AND PUSH20 0xFFFFFFFFFFFFFFFFFFFFFFFFFFFFFFFFFFFFFFFF AND DUP2 MSTORE PUSH1 0x20 ADD SWAP1 DUP2 MSTORE PUSH1 0x20 ADD PUSH0 KECCAK256 SLOAD SWAP1 POP SWAP1 JUMP JUMPDEST CALLVALUE PUSH0 DUP1 CALLER PUSH20 0xFFFFFFFFFFFFFFFFFFFFFFFFFFFFFFFFFFFFFFFF AND PUSH20 0xFFFFFFFFFFFFFFFFFFFFFFFFFFFFFFFFFFFFFFFF AND DUP2 MSTORE PUSH1 0x20 ADD SWAP1 DUP2 MSTORE PUSH1 0x20 ADD PUSH0 KECCAK256 DUP2 SWAP1 SSTORE POP JUMP JUMPDEST DUP1 PUSH0 DUP1 CALLER PUSH20 0xFFFFFFFFFFFFFFFFFFFFFFFFFFFFFFFFFFFFFFFF AND PUSH20 0xFFFFFFFFFFFFFFFFFFFFFFFFFFFFFFFFFFFFFFFF AND DUP2 MSTORE PUSH1 0x20 ADD SWAP1 DUP2 MSTORE PUSH1 0x20 ADD PUSH0 KECCAK256 SLOAD LT ISZERO PUSH2 0x434 JUMPI PUSH1 0x40 MLOAD PUSH32 0x8C379A000000000000000000000000000000000000000000000000000000000 DUP2 MSTORE PUSH1 0x4 ADD PUSH2 0x42B SWAP1 PUSH2 0x740 JUMP JUMPDEST PUSH1 0x40 MLOAD DUP1 SWAP2 SUB SWAP1 REVERT JUMPDEST DUP2 PUSH20 0xFFFFFFFFFFFFFFFFFFFFFFFFFFFFFFFFFFFFFFFF AND PUSH2 0x8FC DUP3 SWAP1 DUP2 ISZERO MUL SWAP1 PUSH1 0x40 MLOAD PUSH0 PUSH1 0x40 MLOAD DUP1 DUP4 SUB DUP2 DUP6 DUP9 DUP9 CALL SWAP4 POP POP POP POP ISZERO DUP1 ISZERO PUSH2 0x477 JUMPI RETURNDATASIZE PUSH0 DUP1 RETURNDATACOPY RETURNDATASIZE PUSH0 REVERT JUMPDEST POP DUP1 PUSH0 DUP1 CALLER PUSH20 0xFFFFFFFFFFFFFFFFFFFFFFFFFFFFFFFFFFFFFFFF AND PUSH20 0xFFFFFFFFFFFFFFFFFFFFFFFFFFFFFFFFFFFFFFFF AND DUP2 MSTORE PUSH1 0x20 ADD SWAP1 DUP2 MSTORE PUSH1 0x20 ADD PUSH0 KECCAK256 PUSH0 DUP3 DUP3 SLOAD PUSH2 0x4C3 SWAP2 SWAP1 PUSH2 0x672 JUMP JUMPDEST SWAP3 POP POP DUP2 SWAP1 SSTORE POP POP POP JUMP JUMPDEST PUSH1 0x2 SLOAD DUP2 JUMP JUMPDEST PUSH32 0x4E487B7100000000000000000000000000000000000000000000000000000000 PUSH0 MSTORE PUSH1 0x11 PUSH1 0x4 MSTORE PUSH1 0x24 PUSH0 REVERT JUMPDEST PUSH0 DUP2 SWAP1 POP SWAP2 SWAP1 POP JUMP JUMPDEST PUSH0 PUSH2 0x514 DUP3 PUSH2 0x501 JUMP JUMPDEST SWAP2 POP PUSH32 0xFFFFFFFFFFFFFFFFFFFFFFFFFFFFFFFFFFFFFFFFFFFFFFFFFFFFFFFFFFFFFFFF DUP3 SUB PUSH2 0x546 JUMPI PUSH2 0x545 PUSH2 0x4D4 JUMP JUMPDEST JUMPDEST PUSH1 0x1 DUP3 ADD SWAP1 POP SWAP2 SWAP1 POP JUMP JUMPDEST PUSH0 DUP1 REVERT JUMPDEST PUSH0 PUSH20 0xFFFFFFFFFFFFFFFFFFFFFFFFFFFFFFFFFFFFFFFF DUP3 AND SWAP1 POP SWAP2 SWAP1 POP JUMP JUMPDEST PUSH0 PUSH2 0x57E DUP3 PUSH2 0x555 JUMP JUMPDEST SWAP1 POP SWAP2 SWAP1 POP JUMP JUMPDEST PUSH2 0x58E DUP2 PUSH2 0x574 JUMP JUMPDEST DUP2 EQ PUSH2 0x598 JUMPI PUSH0 DUP1 REVERT JUMPDEST POP JUMP JUMPDEST PUSH0 DUP2 CALLDATALOAD SWAP1 POP PUSH2 0x5A9 DUP2 PUSH2 0x585 JUMP JUMPDEST SWAP3 SWAP2 POP POP JUMP JUMPDEST PUSH2 0x5B8 DUP2 PUSH2 0x501 JUMP JUMPDEST DUP2 EQ PUSH2 0x5C2 JUMPI PUSH0 DUP1 REVERT JUMPDEST POP JUMP JUMPDEST PUSH0 DUP2 CALLDATALOAD SWAP1 POP PUSH2 0x5D3 DUP2 PUSH2 0x5AF JUMP JUMPDEST SWAP3 SWAP2 POP POP JUMP JUMPDEST PUSH0 DUP1 PUSH1 0x40 DUP4 DUP6 SUB SLT ISZERO PUSH2 0x5EF JUMPI PUSH2 0x5EE PUSH2 0x551 JUMP JUMPDEST JUMPDEST PUSH0 PUSH2 0x5FC DUP6 DUP3 DUP7 ADD PUSH2 0x59B JUMP JUMPDEST SWAP3 POP POP PUSH1 0x20 PUSH2 0x60D DUP6 DUP3 DUP7 ADD PUSH2 0x5C5 JUMP JUMPDEST SWAP2 POP POP SWAP3 POP SWAP3 SWAP1 POP JUMP JUMPDEST PUSH0 DUP2 ISZERO ISZERO SWAP1 POP SWAP2 SWAP1 POP JUMP JUMPDEST PUSH2 0x62B DUP2 PUSH2 0x617 JUMP JUMPDEST DUP3 MSTORE POP POP JUMP JUMPDEST PUSH0 PUSH1 0x20 DUP3 ADD SWAP1 POP PUSH2 0x644 PUSH0 DUP4 ADD DUP5 PUSH2 0x622 JUMP JUMPDEST SWAP3 SWAP2 POP POP JUMP JUMPDEST PUSH2 0x653 DUP2 PUSH2 0x501 JUMP JUMPDEST DUP3 MSTORE POP POP JUMP JUMPDEST PUSH0 PUSH1 0x20 DUP3 ADD SWAP1 POP PUSH2 0x66C PUSH0 DUP4 ADD DUP5 PUSH2 0x64A JUMP JUMPDEST SWAP3 SWAP2 POP POP JUMP JUMPDEST PUSH0 PUSH2 0x67C DUP3 PUSH2 0x501 JUMP JUMPDEST SWAP2 POP PUSH2 0x687 DUP4 PUSH2 0x501 JUMP JUMPDEST SWAP3 POP DUP3 DUP3 SUB SWAP1 POP DUP2 DUP2 GT ISZERO PUSH2 0x69F JUMPI PUSH2 0x69E PUSH2 0x4D4 JUMP JUMPDEST JUMPDEST SWAP3 SWAP2 POP POP JUMP JUMPDEST PUSH0 DUP2 SWAP1 POP SWAP3 SWAP2 POP POP JUMP JUMPDEST POP JUMP JUMPDEST PUSH0 PUSH2 0x6BD PUSH0 DUP4 PUSH2 0x6A5 JUMP JUMPDEST SWAP2 POP PUSH2 0x6C8 DUP3 PUSH2 0x6AF JUMP JUMPDEST PUSH0 DUP3 ADD SWAP1 POP SWAP2 SWAP1 POP JUMP JUMPDEST PUSH0 PUSH2 0x6DC DUP3 PUSH2 0x6B2 JUMP JUMPDEST SWAP2 POP DUP2 SWAP1 POP SWAP2 SWAP1 POP JUMP JUMPDEST PUSH0 DUP3 DUP3 MSTORE PUSH1 0x20 DUP3 ADD SWAP1 POP SWAP3 SWAP2 POP POP JUMP JUMPDEST PUSH32 0x696E73756666696369656E742066756E64730000000000000000000000000000 PUSH0 DUP3 ADD MSTORE POP JUMP JUMPDEST PUSH0 PUSH2 0x72A PUSH1 0x12 DUP4 PUSH2 0x6E6 JUMP JUMPDEST SWAP2 POP PUSH2 0x735 DUP3 PUSH2 0x6F6 JUMP JUMPDEST PUSH1 0x20 DUP3 ADD SWAP1 POP SWAP2 SWAP1 POP JUMP JUMPDEST PUSH0 PUSH1 0x20 DUP3 ADD SWAP1 POP DUP2 DUP2 SUB PUSH0 DUP4 ADD MSTORE PUSH2 0x757 DUP2 PUSH2 0x71E JUMP JUMPDEST SWAP1 POP SWAP2 SWAP1 POP JUMP INVALID LOG2 PUSH5 0x6970667358 0x22 SLT KECCAK256 0xDD LOG2 0xFB 0x22 LOG3 0xF7 0xB0 0x2A 0xB1 0x4D BLOCKHASH CODESIZE 0xB5 DUP4 GASLIMIT 0xD5 CALLVALUE SWAP5 DUP3 MSTORE TSTORE 0xBB 0xE5 DUP8 CALLER 0xB3 MSTORE8 PUSH17 0x7A35FE7964736F6C634300081800330000 "
				},
				"gasEstimates": {
					"creation": {
						"codeDepositCost": "388000",
						"executionCost": "10432",
						"totalCost": "398432"
					},
					"external": {
						"": "24503",
						"fallbackCount()": "2491",
						"receiveCount()": "2470",
						"sendEthersToContract()": "22341",
						"showBalance()": "2519",
						"withdraw(address,uint256)": "infinite",
						"withdrawCall(address,uint256)": "infinite",
						"withdrawSend(address,uint256)": "infinite"
					}
				},
				"methodIdentifiers": {
					"fallbackCount()": "f776bd06",
					"receiveCount()": "7ba85592",
					"sendEthersToContract()": "d2038ae3",
					"showBalance()": "81b2d07b",
					"withdraw(address,uint256)": "f3fef3a3",
					"withdrawCall(address,uint256)": "453c1c35",
					"withdrawSend(address,uint256)": "3830ea6c"
				}
			},
			"storageLayout": {
				"storage": [
					{
						"astId": 5,
						"contract": "contracts/Transfers.sol:Bank",
						"label": "balances",
						"offset": 0,
						"slot": "0",
						"type": "t_mapping(t_address,t_uint256)"
					},
					{
						"astId": 116,
						"contract": "contracts/Transfers.sol:Bank",
						"label": "receiveCount",
						"offset": 0,
						"slot": "1",
						"type": "t_uint256"
					},
					{
						"astId": 126,
						"contract": "contracts/Transfers.sol:Bank",
						"label": "fallbackCount",
						"offset": 0,
						"slot": "2",
						"type": "t_uint256"
					}
				],
				"types": {
					"t_address": {
						"encoding": "inplace",
						"label": "address",
						"numberOfBytes": "20"
					},
					"t_mapping(t_address,t_uint256)": {
						"encoding": "mapping",
						"key": "t_address",
						"label": "mapping(address => uint256)",
						"numberOfBytes": "32",
						"value": "t_uint256"
					},
					"t_uint256": {
						"encoding": "inplace",
						"label": "uint256",
						"numberOfBytes": "32"
					}
				}
			},
			"userdoc": {
				"kind": "user",
				"methods": {},
				"version": 1
			}
		}
	}
}