{
	"contracts/Library.sol": {
		"Math": {
			"abi": [
				{
					"inputs": [
						{
							"internalType": "uint256",
							"name": "x",
							"type": "uint256"
						},
						{
							"internalType": "uint256",
							"name": "y",
							"type": "uint256"
						}
					],
					"name": "divide",
					"outputs": [
						{
							"internalType": "uint256",
							"name": "",
							"type": "uint256"
						}
					],
					"stateMutability": "pure",
					"type": "function"
				},
				{
					"inputs": [
						{
							"internalType": "uint256",
							"name": "x",
							"type": "uint256"
						},
						{
							"internalType": "uint256",
							"name": "y",
							"type": "uint256"
						}
					],
					"name": "max",
					"outputs": [
						{
							"internalType": "uint256",
							"name": "",
							"type": "uint256"
						}
					],
					"stateMutability": "pure",
					"type": "function"
				},
				{
					"inputs": [
						{
							"internalType": "uint256",
							"name": "x",
							"type": "uint256"
						},
						{
							"internalType": "uint256",
							"name": "y",
							"type": "uint256"
						}
					],
					"name": "min",
					"outputs": [
						{
							"internalType": "uint256",
							"name": "",
							"type": "uint256"
						}
					],
					"stateMutability": "pure",
					"type": "function"
				},
				{
					"inputs": [
						{
							"internalType": "uint256",
							"name": "x",
							"type": "uint256"
						},
						{
							"internalType": "uint256",
							"name": "y",
							"type": "uint256"
						}
					],
					"name": "minus",
					"outputs": [
						{
							"internalType": "uint256",
							"name": "",
							"type": "uint256"
						}
					],
					"stateMutability": "pure",
					"type": "function"
				},
				{
					"inputs": [
						{
							"internalType": "uint256",
							"name": "x",
							"type": "uint256"
						},
						{
							"internalType": "uint256",
							"name": "y",
							"type": "uint256"
						}
					],
					"name": "multi",
					"outputs": [
						{
							"internalType": "uint256",
							"name": "",
							"type": "uint256"
						}
					],
					"stateMutability": "pure",
					"type": "function"
				},
				{
					"inputs": [
						{
							"internalType": "uint256",
							"name": "x",
							"type": "uint256"
						},
						{
							"internalType": "uint256",
							"name": "y",
							"type": "uint256"
						}
					],
					"name": "plus",
					"outputs": [
						{
							"internalType": "uint256",
							"name": "",
							"type": "uint256"
						}
					],
					"stateMutability": "pure",
					"type": "function"
				}
			],
			"devdoc": {
				"kind": "dev",
				"methods": {},
				"version": 1
			},
			"evm": {
				"assembly": "    /* \"contracts/Library.sol\":57:813  library Math {... */\n  dataSize(sub_0)\n  dataOffset(sub_0)\n  0x0b\n  dup3\n  dup3\n  dup3\n  codecopy\n  dup1\n  mload\n  0x00\n  byte\n  0x73\n  eq\n  tag_1\n  jumpi\n  mstore(0x00, 0x4e487b7100000000000000000000000000000000000000000000000000000000)\n  mstore(0x04, 0x00)\n  revert(0x00, 0x24)\ntag_1:\n  mstore(0x00, address)\n  0x73\n  dup2\n  mstore8\n  dup3\n  dup2\n  return\nstop\n\nsub_0: assembly {\n        /* \"contracts/Library.sol\":57:813  library Math {... */\n      eq(address, deployTimeAddress())\n      mstore(0x40, 0x80)\n      jumpi(tag_1, lt(calldatasize, 0x04))\n      shr(0xe0, calldataload(0x00))\n      dup1\n      0x5171762c\n      eq\n      tag_2\n      jumpi\n      dup1\n      0x66098d4f\n      eq\n      tag_3\n      jumpi\n      dup1\n      0x6d5433e6\n      eq\n      tag_4\n      jumpi\n      dup1\n      0x7ae2b5c7\n      eq\n      tag_5\n      jumpi\n      dup1\n      0xf4f3bdc1\n      eq\n      tag_6\n      jumpi\n      dup1\n      0xf88e9fbf\n      eq\n      tag_7\n      jumpi\n    tag_1:\n      0x00\n      dup1\n      revert\n        /* \"contracts/Library.sol\":264:350  function multi(uint x, uint y) public pure returns(uint) {... */\n    tag_2:\n      tag_8\n      0x04\n      dup1\n      calldatasize\n      sub\n      dup2\n      add\n      swap1\n      tag_9\n      swap2\n      swap1\n      tag_10\n      jump\t// in\n    tag_9:\n      tag_11\n      jump\t// in\n    tag_8:\n      mload(0x40)\n      tag_12\n      swap2\n      swap1\n      tag_13\n      jump\t// in\n    tag_12:\n      mload(0x40)\n      dup1\n      swap2\n      sub\n      swap1\n      return\n        /* \"contracts/Library.sol\":77:162  function plus(uint x, uint y) public pure returns(uint) {... */\n    tag_3:\n      tag_14\n      0x04\n      dup1\n      calldatasize\n      sub\n      dup2\n      add\n      swap1\n      tag_15\n      swap2\n      swap1\n      tag_10\n      jump\t// in\n    tag_15:\n      tag_16\n      jump\t// in\n    tag_14:\n      mload(0x40)\n      tag_17\n      swap2\n      swap1\n      tag_13\n      jump\t// in\n    tag_17:\n      mload(0x40)\n      dup1\n      swap2\n      sub\n      swap1\n      return\n        /* \"contracts/Library.sol\":657:810  function max(uint x, uint y) public pure returns(uint) {... */\n    tag_4:\n      tag_18\n      0x04\n      dup1\n      calldatasize\n      sub\n      dup2\n      add\n      swap1\n      tag_19\n      swap2\n      swap1\n      tag_10\n      jump\t// in\n    tag_19:\n      tag_20\n      jump\t// in\n    tag_18:\n      mload(0x40)\n      tag_21\n      swap2\n      swap1\n      tag_13\n      jump\t// in\n    tag_21:\n      mload(0x40)\n      dup1\n      swap2\n      sub\n      swap1\n      return\n        /* \"contracts/Library.sol\":498:651  function min(uint x, uint y) public pure returns(uint) {... */\n    tag_5:\n      tag_22\n      0x04\n      dup1\n      calldatasize\n      sub\n      dup2\n      add\n      swap1\n      tag_23\n      swap2\n      swap1\n      tag_10\n      jump\t// in\n    tag_23:\n      tag_24\n      jump\t// in\n    tag_22:\n      mload(0x40)\n      tag_25\n      swap2\n      swap1\n      tag_13\n      jump\t// in\n    tag_25:\n      mload(0x40)\n      dup1\n      swap2\n      sub\n      swap1\n      return\n        /* \"contracts/Library.sol\":168:254  function minus(uint x, uint y) public pure returns(uint) {... */\n    tag_6:\n      tag_26\n      0x04\n      dup1\n      calldatasize\n      sub\n      dup2\n      add\n      swap1\n      tag_27\n      swap2\n      swap1\n      tag_10\n      jump\t// in\n    tag_27:\n      tag_28\n      jump\t// in\n    tag_26:\n      mload(0x40)\n      tag_29\n      swap2\n      swap1\n      tag_13\n      jump\t// in\n    tag_29:\n      mload(0x40)\n      dup1\n      swap2\n      sub\n      swap1\n      return\n        /* \"contracts/Library.sol\":356:492  function divide(uint x, uint y) public pure returns(uint) {... */\n    tag_7:\n      tag_30\n      0x04\n      dup1\n      calldatasize\n      sub\n      dup2\n      add\n      swap1\n      tag_31\n      swap2\n      swap1\n      tag_10\n      jump\t// in\n    tag_31:\n      tag_32\n      jump\t// in\n    tag_30:\n      mload(0x40)\n      tag_33\n      swap2\n      swap1\n      tag_13\n      jump\t// in\n    tag_33:\n      mload(0x40)\n      dup1\n      swap2\n      sub\n      swap1\n      return\n        /* \"contracts/Library.sol\":264:350  function multi(uint x, uint y) public pure returns(uint) {... */\n    tag_11:\n        /* \"contracts/Library.sol\":315:319  uint */\n      0x00\n        /* \"contracts/Library.sol\":342:343  y */\n      dup2\n        /* \"contracts/Library.sol\":338:339  x */\n      dup4\n        /* \"contracts/Library.sol\":338:343  x * y */\n      tag_35\n      swap2\n      swap1\n      tag_36\n      jump\t// in\n    tag_35:\n        /* \"contracts/Library.sol\":331:343  return x * y */\n      swap1\n      pop\n        /* \"contracts/Library.sol\":264:350  function multi(uint x, uint y) public pure returns(uint) {... */\n      swap3\n      swap2\n      pop\n      pop\n      jump\t// out\n        /* \"contracts/Library.sol\":77:162  function plus(uint x, uint y) public pure returns(uint) {... */\n    tag_16:\n        /* \"contracts/Library.sol\":127:131  uint */\n      0x00\n        /* \"contracts/Library.sol\":154:155  y */\n      dup2\n        /* \"contracts/Library.sol\":150:151  x */\n      dup4\n        /* \"contracts/Library.sol\":150:155  x + y */\n      tag_38\n      swap2\n      swap1\n      tag_39\n      jump\t// in\n    tag_38:\n        /* \"contracts/Library.sol\":143:155  return x + y */\n      swap1\n      pop\n        /* \"contracts/Library.sol\":77:162  function plus(uint x, uint y) public pure returns(uint) {... */\n      swap3\n      swap2\n      pop\n      pop\n      jump\t// out\n        /* \"contracts/Library.sol\":657:810  function max(uint x, uint y) public pure returns(uint) {... */\n    tag_20:\n        /* \"contracts/Library.sol\":706:710  uint */\n      0x00\n        /* \"contracts/Library.sol\":731:732  y */\n      dup2\n        /* \"contracts/Library.sol\":726:727  x */\n      dup4\n        /* \"contracts/Library.sol\":726:732  x >= y */\n      lt\n        /* \"contracts/Library.sol\":722:804  if( x >= y){... */\n      tag_41\n      jumpi\n        /* \"contracts/Library.sol\":754:755  x */\n      dup3\n        /* \"contracts/Library.sol\":747:755  return x */\n      swap1\n      pop\n      jump(tag_40)\n        /* \"contracts/Library.sol\":722:804  if( x >= y){... */\n    tag_41:\n        /* \"contracts/Library.sol\":792:793  y */\n      dup2\n        /* \"contracts/Library.sol\":785:793  return y */\n      swap1\n      pop\n        /* \"contracts/Library.sol\":657:810  function max(uint x, uint y) public pure returns(uint) {... */\n    tag_40:\n      swap3\n      swap2\n      pop\n      pop\n      jump\t// out\n        /* \"contracts/Library.sol\":498:651  function min(uint x, uint y) public pure returns(uint) {... */\n    tag_24:\n        /* \"contracts/Library.sol\":547:551  uint */\n      0x00\n        /* \"contracts/Library.sol\":572:573  y */\n      dup2\n        /* \"contracts/Library.sol\":567:568  x */\n      dup4\n        /* \"contracts/Library.sol\":567:573  x <= y */\n      gt\n        /* \"contracts/Library.sol\":563:645  if( x <= y){... */\n      tag_44\n      jumpi\n        /* \"contracts/Library.sol\":595:596  x */\n      dup3\n        /* \"contracts/Library.sol\":588:596  return x */\n      swap1\n      pop\n      jump(tag_43)\n        /* \"contracts/Library.sol\":563:645  if( x <= y){... */\n    tag_44:\n        /* \"contracts/Library.sol\":633:634  y */\n      dup2\n        /* \"contracts/Library.sol\":626:634  return y */\n      swap1\n      pop\n        /* \"contracts/Library.sol\":498:651  function min(uint x, uint y) public pure returns(uint) {... */\n    tag_43:\n      swap3\n      swap2\n      pop\n      pop\n      jump\t// out\n        /* \"contracts/Library.sol\":168:254  function minus(uint x, uint y) public pure returns(uint) {... */\n    tag_28:\n        /* \"contracts/Library.sol\":219:223  uint */\n      0x00\n        /* \"contracts/Library.sol\":246:247  y */\n      dup2\n        /* \"contracts/Library.sol\":242:243  x */\n      dup4\n        /* \"contracts/Library.sol\":242:247  x - y */\n      tag_47\n      swap2\n      swap1\n      tag_48\n      jump\t// in\n    tag_47:\n        /* \"contracts/Library.sol\":235:247  return x - y */\n      swap1\n      pop\n        /* \"contracts/Library.sol\":168:254  function minus(uint x, uint y) public pure returns(uint) {... */\n      swap3\n      swap2\n      pop\n      pop\n      jump\t// out\n        /* \"contracts/Library.sol\":356:492  function divide(uint x, uint y) public pure returns(uint) {... */\n    tag_32:\n        /* \"contracts/Library.sol\":408:412  uint */\n      0x00\n        /* \"contracts/Library.sol\":437:438  0 */\n      dup1\n        /* \"contracts/Library.sol\":432:433  y */\n      dup3\n        /* \"contracts/Library.sol\":432:438  y != 0 */\n      sub\n        /* \"contracts/Library.sol\":424:463  require(y != 0,\"bu sayisi begenmedim!\") */\n      tag_50\n      jumpi\n      mload(0x40)\n      0x08c379a000000000000000000000000000000000000000000000000000000000\n      dup2\n      mstore\n      0x04\n      add\n      tag_51\n      swap1\n      tag_52\n      jump\t// in\n    tag_51:\n      mload(0x40)\n      dup1\n      swap2\n      sub\n      swap1\n      revert\n    tag_50:\n        /* \"contracts/Library.sol\":484:485  y */\n      dup2\n        /* \"contracts/Library.sol\":480:481  x */\n      dup4\n        /* \"contracts/Library.sol\":480:485  x / y */\n      tag_53\n      swap2\n      swap1\n      tag_54\n      jump\t// in\n    tag_53:\n        /* \"contracts/Library.sol\":473:485  return x / y */\n      swap1\n      pop\n        /* \"contracts/Library.sol\":356:492  function divide(uint x, uint y) public pure returns(uint) {... */\n      swap3\n      swap2\n      pop\n      pop\n      jump\t// out\n        /* \"#utility.yul\":88:205   */\n    tag_56:\n        /* \"#utility.yul\":197:198   */\n      0x00\n        /* \"#utility.yul\":194:195   */\n      dup1\n        /* \"#utility.yul\":187:199   */\n      revert\n        /* \"#utility.yul\":334:411   */\n    tag_58:\n        /* \"#utility.yul\":371:378   */\n      0x00\n        /* \"#utility.yul\":400:405   */\n      dup2\n        /* \"#utility.yul\":389:405   */\n      swap1\n      pop\n        /* \"#utility.yul\":334:411   */\n      swap2\n      swap1\n      pop\n      jump\t// out\n        /* \"#utility.yul\":417:539   */\n    tag_59:\n        /* \"#utility.yul\":490:514   */\n      tag_73\n        /* \"#utility.yul\":508:513   */\n      dup2\n        /* \"#utility.yul\":490:514   */\n      tag_58\n      jump\t// in\n    tag_73:\n        /* \"#utility.yul\":483:488   */\n      dup2\n        /* \"#utility.yul\":480:515   */\n      eq\n        /* \"#utility.yul\":470:533   */\n      tag_74\n      jumpi\n        /* \"#utility.yul\":529:530   */\n      0x00\n        /* \"#utility.yul\":526:527   */\n      dup1\n        /* \"#utility.yul\":519:531   */\n      revert\n        /* \"#utility.yul\":470:533   */\n    tag_74:\n        /* \"#utility.yul\":417:539   */\n      pop\n      jump\t// out\n        /* \"#utility.yul\":545:684   */\n    tag_60:\n        /* \"#utility.yul\":591:596   */\n      0x00\n        /* \"#utility.yul\":629:635   */\n      dup2\n        /* \"#utility.yul\":616:636   */\n      calldataload\n        /* \"#utility.yul\":607:636   */\n      swap1\n      pop\n        /* \"#utility.yul\":645:678   */\n      tag_76\n        /* \"#utility.yul\":672:677   */\n      dup2\n        /* \"#utility.yul\":645:678   */\n      tag_59\n      jump\t// in\n    tag_76:\n        /* \"#utility.yul\":545:684   */\n      swap3\n      swap2\n      pop\n      pop\n      jump\t// out\n        /* \"#utility.yul\":690:1164   */\n    tag_10:\n        /* \"#utility.yul\":758:764   */\n      0x00\n        /* \"#utility.yul\":766:772   */\n      dup1\n        /* \"#utility.yul\":815:817   */\n      0x40\n        /* \"#utility.yul\":803:812   */\n      dup4\n        /* \"#utility.yul\":794:801   */\n      dup6\n        /* \"#utility.yul\":790:813   */\n      sub\n        /* \"#utility.yul\":786:818   */\n      slt\n        /* \"#utility.yul\":783:902   */\n      iszero\n      tag_78\n      jumpi\n        /* \"#utility.yul\":821:900   */\n      tag_79\n      tag_56\n      jump\t// in\n    tag_79:\n        /* \"#utility.yul\":783:902   */\n    tag_78:\n        /* \"#utility.yul\":941:942   */\n      0x00\n        /* \"#utility.yul\":966:1019   */\n      tag_80\n        /* \"#utility.yul\":1011:1018   */\n      dup6\n        /* \"#utility.yul\":1002:1008   */\n      dup3\n        /* \"#utility.yul\":991:1000   */\n      dup7\n        /* \"#utility.yul\":987:1009   */\n      add\n        /* \"#utility.yul\":966:1019   */\n      tag_60\n      jump\t// in\n    tag_80:\n        /* \"#utility.yul\":956:1019   */\n      swap3\n      pop\n        /* \"#utility.yul\":912:1029   */\n      pop\n        /* \"#utility.yul\":1068:1070   */\n      0x20\n        /* \"#utility.yul\":1094:1147   */\n      tag_81\n        /* \"#utility.yul\":1139:1146   */\n      dup6\n        /* \"#utility.yul\":1130:1136   */\n      dup3\n        /* \"#utility.yul\":1119:1128   */\n      dup7\n        /* \"#utility.yul\":1115:1137   */\n      add\n        /* \"#utility.yul\":1094:1147   */\n      tag_60\n      jump\t// in\n    tag_81:\n        /* \"#utility.yul\":1084:1147   */\n      swap2\n      pop\n        /* \"#utility.yul\":1039:1157   */\n      pop\n        /* \"#utility.yul\":690:1164   */\n      swap3\n      pop\n      swap3\n      swap1\n      pop\n      jump\t// out\n        /* \"#utility.yul\":1170:1296   */\n    tag_61:\n        /* \"#utility.yul\":1265:1289   */\n      tag_83\n        /* \"#utility.yul\":1283:1288   */\n      dup2\n        /* \"#utility.yul\":1265:1289   */\n      tag_58\n      jump\t// in\n    tag_83:\n        /* \"#utility.yul\":1260:1263   */\n      dup3\n        /* \"#utility.yul\":1253:1290   */\n      mstore\n        /* \"#utility.yul\":1170:1296   */\n      pop\n      pop\n      jump\t// out\n        /* \"#utility.yul\":1302:1540   */\n    tag_13:\n        /* \"#utility.yul\":1403:1407   */\n      0x00\n        /* \"#utility.yul\":1441:1443   */\n      0x20\n        /* \"#utility.yul\":1430:1439   */\n      dup3\n        /* \"#utility.yul\":1426:1444   */\n      add\n        /* \"#utility.yul\":1418:1444   */\n      swap1\n      pop\n        /* \"#utility.yul\":1454:1533   */\n      tag_85\n        /* \"#utility.yul\":1530:1531   */\n      0x00\n        /* \"#utility.yul\":1519:1528   */\n      dup4\n        /* \"#utility.yul\":1515:1532   */\n      add\n        /* \"#utility.yul\":1506:1512   */\n      dup5\n        /* \"#utility.yul\":1454:1533   */\n      tag_61\n      jump\t// in\n    tag_85:\n        /* \"#utility.yul\":1302:1540   */\n      swap3\n      swap2\n      pop\n      pop\n      jump\t// out\n        /* \"#utility.yul\":1546:1726   */\n    tag_62:\n        /* \"#utility.yul\":1594:1671   */\n      0x4e487b7100000000000000000000000000000000000000000000000000000000\n        /* \"#utility.yul\":1591:1592   */\n      0x00\n        /* \"#utility.yul\":1584:1672   */\n      mstore\n        /* \"#utility.yul\":1691:1695   */\n      0x11\n        /* \"#utility.yul\":1688:1689   */\n      0x04\n        /* \"#utility.yul\":1681:1696   */\n      mstore\n        /* \"#utility.yul\":1715:1719   */\n      0x24\n        /* \"#utility.yul\":1712:1713   */\n      0x00\n        /* \"#utility.yul\":1705:1720   */\n      revert\n        /* \"#utility.yul\":1732:2142   */\n    tag_36:\n        /* \"#utility.yul\":1772:1779   */\n      0x00\n        /* \"#utility.yul\":1795:1815   */\n      tag_88\n        /* \"#utility.yul\":1813:1814   */\n      dup3\n        /* \"#utility.yul\":1795:1815   */\n      tag_58\n      jump\t// in\n    tag_88:\n        /* \"#utility.yul\":1790:1815   */\n      swap2\n      pop\n        /* \"#utility.yul\":1829:1849   */\n      tag_89\n        /* \"#utility.yul\":1847:1848   */\n      dup4\n        /* \"#utility.yul\":1829:1849   */\n      tag_58\n      jump\t// in\n    tag_89:\n        /* \"#utility.yul\":1824:1849   */\n      swap3\n      pop\n        /* \"#utility.yul\":1884:1885   */\n      dup3\n        /* \"#utility.yul\":1881:1882   */\n      dup3\n        /* \"#utility.yul\":1877:1886   */\n      mul\n        /* \"#utility.yul\":1906:1936   */\n      tag_90\n        /* \"#utility.yul\":1924:1935   */\n      dup2\n        /* \"#utility.yul\":1906:1936   */\n      tag_58\n      jump\t// in\n    tag_90:\n        /* \"#utility.yul\":1895:1936   */\n      swap2\n      pop\n        /* \"#utility.yul\":2085:2086   */\n      dup3\n        /* \"#utility.yul\":2076:2083   */\n      dup3\n        /* \"#utility.yul\":2072:2087   */\n      div\n        /* \"#utility.yul\":2069:2070   */\n      dup5\n        /* \"#utility.yul\":2066:2088   */\n      eq\n        /* \"#utility.yul\":2046:2047   */\n      dup4\n        /* \"#utility.yul\":2039:2048   */\n      iszero\n        /* \"#utility.yul\":2019:2102   */\n      or\n        /* \"#utility.yul\":1996:2135   */\n      tag_91\n      jumpi\n        /* \"#utility.yul\":2115:2133   */\n      tag_92\n      tag_62\n      jump\t// in\n    tag_92:\n        /* \"#utility.yul\":1996:2135   */\n    tag_91:\n        /* \"#utility.yul\":1780:2142   */\n      pop\n        /* \"#utility.yul\":1732:2142   */\n      swap3\n      swap2\n      pop\n      pop\n      jump\t// out\n        /* \"#utility.yul\":2148:2339   */\n    tag_39:\n        /* \"#utility.yul\":2188:2191   */\n      0x00\n        /* \"#utility.yul\":2207:2227   */\n      tag_94\n        /* \"#utility.yul\":2225:2226   */\n      dup3\n        /* \"#utility.yul\":2207:2227   */\n      tag_58\n      jump\t// in\n    tag_94:\n        /* \"#utility.yul\":2202:2227   */\n      swap2\n      pop\n        /* \"#utility.yul\":2241:2261   */\n      tag_95\n        /* \"#utility.yul\":2259:2260   */\n      dup4\n        /* \"#utility.yul\":2241:2261   */\n      tag_58\n      jump\t// in\n    tag_95:\n        /* \"#utility.yul\":2236:2261   */\n      swap3\n      pop\n        /* \"#utility.yul\":2284:2285   */\n      dup3\n        /* \"#utility.yul\":2281:2282   */\n      dup3\n        /* \"#utility.yul\":2277:2286   */\n      add\n        /* \"#utility.yul\":2270:2286   */\n      swap1\n      pop\n        /* \"#utility.yul\":2305:2308   */\n      dup1\n        /* \"#utility.yul\":2302:2303   */\n      dup3\n        /* \"#utility.yul\":2299:2309   */\n      gt\n        /* \"#utility.yul\":2296:2332   */\n      iszero\n      tag_96\n      jumpi\n        /* \"#utility.yul\":2312:2330   */\n      tag_97\n      tag_62\n      jump\t// in\n    tag_97:\n        /* \"#utility.yul\":2296:2332   */\n    tag_96:\n        /* \"#utility.yul\":2148:2339   */\n      swap3\n      swap2\n      pop\n      pop\n      jump\t// out\n        /* \"#utility.yul\":2345:2539   */\n    tag_48:\n        /* \"#utility.yul\":2385:2389   */\n      0x00\n        /* \"#utility.yul\":2405:2425   */\n      tag_99\n        /* \"#utility.yul\":2423:2424   */\n      dup3\n        /* \"#utility.yul\":2405:2425   */\n      tag_58\n      jump\t// in\n    tag_99:\n        /* \"#utility.yul\":2400:2425   */\n      swap2\n      pop\n        /* \"#utility.yul\":2439:2459   */\n      tag_100\n        /* \"#utility.yul\":2457:2458   */\n      dup4\n        /* \"#utility.yul\":2439:2459   */\n      tag_58\n      jump\t// in\n    tag_100:\n        /* \"#utility.yul\":2434:2459   */\n      swap3\n      pop\n        /* \"#utility.yul\":2483:2484   */\n      dup3\n        /* \"#utility.yul\":2480:2481   */\n      dup3\n        /* \"#utility.yul\":2476:2485   */\n      sub\n        /* \"#utility.yul\":2468:2485   */\n      swap1\n      pop\n        /* \"#utility.yul\":2507:2508   */\n      dup2\n        /* \"#utility.yul\":2501:2505   */\n      dup2\n        /* \"#utility.yul\":2498:2509   */\n      gt\n        /* \"#utility.yul\":2495:2532   */\n      iszero\n      tag_101\n      jumpi\n        /* \"#utility.yul\":2512:2530   */\n      tag_102\n      tag_62\n      jump\t// in\n    tag_102:\n        /* \"#utility.yul\":2495:2532   */\n    tag_101:\n        /* \"#utility.yul\":2345:2539   */\n      swap3\n      swap2\n      pop\n      pop\n      jump\t// out\n        /* \"#utility.yul\":2545:2714   */\n    tag_63:\n        /* \"#utility.yul\":2629:2640   */\n      0x00\n        /* \"#utility.yul\":2663:2669   */\n      dup3\n        /* \"#utility.yul\":2658:2661   */\n      dup3\n        /* \"#utility.yul\":2651:2670   */\n      mstore\n        /* \"#utility.yul\":2703:2707   */\n      0x20\n        /* \"#utility.yul\":2698:2701   */\n      dup3\n        /* \"#utility.yul\":2694:2708   */\n      add\n        /* \"#utility.yul\":2679:2708   */\n      swap1\n      pop\n        /* \"#utility.yul\":2545:2714   */\n      swap3\n      swap2\n      pop\n      pop\n      jump\t// out\n        /* \"#utility.yul\":2720:2891   */\n    tag_64:\n        /* \"#utility.yul\":2860:2883   */\n      0x62752073617969736920626567656e6d6564696d210000000000000000000000\n        /* \"#utility.yul\":2856:2857   */\n      0x00\n        /* \"#utility.yul\":2848:2854   */\n      dup3\n        /* \"#utility.yul\":2844:2858   */\n      add\n        /* \"#utility.yul\":2837:2884   */\n      mstore\n        /* \"#utility.yul\":2720:2891   */\n      pop\n      jump\t// out\n        /* \"#utility.yul\":2897:3263   */\n    tag_65:\n        /* \"#utility.yul\":3039:3042   */\n      0x00\n        /* \"#utility.yul\":3060:3127   */\n      tag_106\n        /* \"#utility.yul\":3124:3126   */\n      0x15\n        /* \"#utility.yul\":3119:3122   */\n      dup4\n        /* \"#utility.yul\":3060:3127   */\n      tag_63\n      jump\t// in\n    tag_106:\n        /* \"#utility.yul\":3053:3127   */\n      swap2\n      pop\n        /* \"#utility.yul\":3136:3229   */\n      tag_107\n        /* \"#utility.yul\":3225:3228   */\n      dup3\n        /* \"#utility.yul\":3136:3229   */\n      tag_64\n      jump\t// in\n    tag_107:\n        /* \"#utility.yul\":3254:3256   */\n      0x20\n        /* \"#utility.yul\":3249:3252   */\n      dup3\n        /* \"#utility.yul\":3245:3257   */\n      add\n        /* \"#utility.yul\":3238:3257   */\n      swap1\n      pop\n        /* \"#utility.yul\":2897:3263   */\n      swap2\n      swap1\n      pop\n      jump\t// out\n        /* \"#utility.yul\":3269:3688   */\n    tag_52:\n        /* \"#utility.yul\":3435:3439   */\n      0x00\n        /* \"#utility.yul\":3473:3475   */\n      0x20\n        /* \"#utility.yul\":3462:3471   */\n      dup3\n        /* \"#utility.yul\":3458:3476   */\n      add\n        /* \"#utility.yul\":3450:3476   */\n      swap1\n      pop\n        /* \"#utility.yul\":3522:3531   */\n      dup2\n        /* \"#utility.yul\":3516:3520   */\n      dup2\n        /* \"#utility.yul\":3512:3532   */\n      sub\n        /* \"#utility.yul\":3508:3509   */\n      0x00\n        /* \"#utility.yul\":3497:3506   */\n      dup4\n        /* \"#utility.yul\":3493:3510   */\n      add\n        /* \"#utility.yul\":3486:3533   */\n      mstore\n        /* \"#utility.yul\":3550:3681   */\n      tag_109\n        /* \"#utility.yul\":3676:3680   */\n      dup2\n        /* \"#utility.yul\":3550:3681   */\n      tag_65\n      jump\t// in\n    tag_109:\n        /* \"#utility.yul\":3542:3681   */\n      swap1\n      pop\n        /* \"#utility.yul\":3269:3688   */\n      swap2\n      swap1\n      pop\n      jump\t// out\n        /* \"#utility.yul\":3694:3874   */\n    tag_66:\n        /* \"#utility.yul\":3742:3819   */\n      0x4e487b7100000000000000000000000000000000000000000000000000000000\n        /* \"#utility.yul\":3739:3740   */\n      0x00\n        /* \"#utility.yul\":3732:3820   */\n      mstore\n        /* \"#utility.yul\":3839:3843   */\n      0x12\n        /* \"#utility.yul\":3836:3837   */\n      0x04\n        /* \"#utility.yul\":3829:3844   */\n      mstore\n        /* \"#utility.yul\":3863:3867   */\n      0x24\n        /* \"#utility.yul\":3860:3861   */\n      0x00\n        /* \"#utility.yul\":3853:3868   */\n      revert\n        /* \"#utility.yul\":3880:4065   */\n    tag_54:\n        /* \"#utility.yul\":3920:3921   */\n      0x00\n        /* \"#utility.yul\":3937:3957   */\n      tag_112\n        /* \"#utility.yul\":3955:3956   */\n      dup3\n        /* \"#utility.yul\":3937:3957   */\n      tag_58\n      jump\t// in\n    tag_112:\n        /* \"#utility.yul\":3932:3957   */\n      swap2\n      pop\n        /* \"#utility.yul\":3971:3991   */\n      tag_113\n        /* \"#utility.yul\":3989:3990   */\n      dup4\n        /* \"#utility.yul\":3971:3991   */\n      tag_58\n      jump\t// in\n    tag_113:\n        /* \"#utility.yul\":3966:3991   */\n      swap3\n      pop\n        /* \"#utility.yul\":4010:4011   */\n      dup3\n        /* \"#utility.yul\":4000:4035   */\n      tag_114\n      jumpi\n        /* \"#utility.yul\":4015:4033   */\n      tag_115\n      tag_66\n      jump\t// in\n    tag_115:\n        /* \"#utility.yul\":4000:4035   */\n    tag_114:\n        /* \"#utility.yul\":4057:4058   */\n      dup3\n        /* \"#utility.yul\":4054:4055   */\n      dup3\n        /* \"#utility.yul\":4050:4059   */\n      div\n        /* \"#utility.yul\":4045:4059   */\n      swap1\n      pop\n        /* \"#utility.yul\":3880:4065   */\n      swap3\n      swap2\n      pop\n      pop\n      jump\t// out\n\n    auxdata: 0xa26469706673582212207b0753f5e7a4e86d0c61ffaee1a2f54bc161451add8853cd9a3cc29b0643240964736f6c63430008180033\n}\n",
				"bytecode": {
					"linkReferences": {},
					"object": "6104d561004e600b8282823980515f1a607314610042577f4e487b71000000000000000000000000000000000000000000000000000000005f525f60045260245ffd5b305f52607381538281f3fe730000000000000000000000000000000000000000301460806040526004361061006b575f3560e01c80635171762c1461006f57806366098d4f1461009f5780636d5433e6146100cf5780637ae2b5c7146100ff578063f4f3bdc11461012f578063f88e9fbf1461015f575b5f80fd5b61008960048036038101906100849190610290565b61018f565b60405161009691906102dd565b60405180910390f35b6100b960048036038101906100b49190610290565b6101a4565b6040516100c691906102dd565b60405180910390f35b6100e960048036038101906100e49190610290565b6101b9565b6040516100f691906102dd565b60405180910390f35b61011960048036038101906101149190610290565b6101d3565b60405161012691906102dd565b60405180910390f35b61014960048036038101906101449190610290565b6101ed565b60405161015691906102dd565b60405180910390f35b61017960048036038101906101749190610290565b610202565b60405161018691906102dd565b60405180910390f35b5f818361019c9190610323565b905092915050565b5f81836101b19190610364565b905092915050565b5f8183106101c9578290506101cd565b8190505b92915050565b5f8183116101e3578290506101e7565b8190505b92915050565b5f81836101fa9190610397565b905092915050565b5f808203610245576040517f08c379a000000000000000000000000000000000000000000000000000000000815260040161023c90610424565b60405180910390fd5b8183610251919061046f565b905092915050565b5f80fd5b5f819050919050565b61026f8161025d565b8114610279575f80fd5b50565b5f8135905061028a81610266565b92915050565b5f80604083850312156102a6576102a5610259565b5b5f6102b38582860161027c565b92505060206102c48582860161027c565b9150509250929050565b6102d78161025d565b82525050565b5f6020820190506102f05f8301846102ce565b92915050565b7f4e487b71000000000000000000000000000000000000000000000000000000005f52601160045260245ffd5b5f61032d8261025d565b91506103388361025d565b92508282026103468161025d565b9150828204841483151761035d5761035c6102f6565b5b5092915050565b5f61036e8261025d565b91506103798361025d565b9250828201905080821115610391576103906102f6565b5b92915050565b5f6103a18261025d565b91506103ac8361025d565b92508282039050818111156103c4576103c36102f6565b5b92915050565b5f82825260208201905092915050565b7f62752073617969736920626567656e6d6564696d2100000000000000000000005f82015250565b5f61040e6015836103ca565b9150610419826103da565b602082019050919050565b5f6020820190508181035f83015261043b81610402565b9050919050565b7f4e487b71000000000000000000000000000000000000000000000000000000005f52601260045260245ffd5b5f6104798261025d565b91506104848361025d565b92508261049457610493610442565b5b82820490509291505056fea26469706673582212207b0753f5e7a4e86d0c61ffaee1a2f54bc161451add8853cd9a3cc29b0643240964736f6c63430008180033",
					"opcodes": "PUSH2 0x4D5 PUSH2 0x4E PUSH1 0xB DUP3 DUP3 DUP3 CODECOPY DUP1 MLOAD PUSH0 BYTE PUSH1 0x73 EQ PUSH2 0x42 JUMPI PUSH32 0x4E487B7100000000000000000000000000000000000000000000000000000000 PUSH0 MSTORE PUSH0 PUSH1 0x4 MSTORE PUSH1 0x24 PUSH0 REVERT JUMPDEST ADDRESS PUSH0 MSTORE PUSH1 0x73 DUP2 MSTORE8 DUP3 DUP2 RETURN INVALID PUSH20 0x0 ADDRESS EQ PUSH1 0x80 PUSH1 0x40 MSTORE PUSH1 0x4 CALLDATASIZE LT PUSH2 0x6B JUMPI PUSH0 CALLDATALOAD PUSH1 0xE0 SHR DUP1 PUSH4 0x5171762C EQ PUSH2 0x6F JUMPI DUP1 PUSH4 0x66098D4F EQ PUSH2 0x9F JUMPI DUP1 PUSH4 0x6D5433E6 EQ PUSH2 0xCF JUMPI DUP1 PUSH4 0x7AE2B5C7 EQ PUSH2 0xFF JUMPI DUP1 PUSH4 0xF4F3BDC1 EQ PUSH2 0x12F JUMPI DUP1 PUSH4 0xF88E9FBF EQ PUSH2 0x15F JUMPI JUMPDEST PUSH0 DUP1 REVERT JUMPDEST PUSH2 0x89 PUSH1 0x4 DUP1 CALLDATASIZE SUB DUP2 ADD SWAP1 PUSH2 0x84 SWAP2 SWAP1 PUSH2 0x290 JUMP JUMPDEST PUSH2 0x18F JUMP JUMPDEST PUSH1 0x40 MLOAD PUSH2 0x96 SWAP2 SWAP1 PUSH2 0x2DD JUMP JUMPDEST PUSH1 0x40 MLOAD DUP1 SWAP2 SUB SWAP1 RETURN JUMPDEST PUSH2 0xB9 PUSH1 0x4 DUP1 CALLDATASIZE SUB DUP2 ADD SWAP1 PUSH2 0xB4 SWAP2 SWAP1 PUSH2 0x290 JUMP JUMPDEST PUSH2 0x1A4 JUMP JUMPDEST PUSH1 0x40 MLOAD PUSH2 0xC6 SWAP2 SWAP1 PUSH2 0x2DD JUMP JUMPDEST PUSH1 0x40 MLOAD DUP1 SWAP2 SUB SWAP1 RETURN JUMPDEST PUSH2 0xE9 PUSH1 0x4 DUP1 CALLDATASIZE SUB DUP2 ADD SWAP1 PUSH2 0xE4 SWAP2 SWAP1 PUSH2 0x290 JUMP JUMPDEST PUSH2 0x1B9 JUMP JUMPDEST PUSH1 0x40 MLOAD PUSH2 0xF6 SWAP2 SWAP1 PUSH2 0x2DD JUMP JUMPDEST PUSH1 0x40 MLOAD DUP1 SWAP2 SUB SWAP1 RETURN JUMPDEST PUSH2 0x119 PUSH1 0x4 DUP1 CALLDATASIZE SUB DUP2 ADD SWAP1 PUSH2 0x114 SWAP2 SWAP1 PUSH2 0x290 JUMP JUMPDEST PUSH2 0x1D3 JUMP JUMPDEST PUSH1 0x40 MLOAD PUSH2 0x126 SWAP2 SWAP1 PUSH2 0x2DD JUMP JUMPDEST PUSH1 0x40 MLOAD DUP1 SWAP2 SUB SWAP1 RETURN JUMPDEST PUSH2 0x149 PUSH1 0x4 DUP1 CALLDATASIZE SUB DUP2 ADD SWAP1 PUSH2 0x144 SWAP2 SWAP1 PUSH2 0x290 JUMP JUMPDEST PUSH2 0x1ED JUMP JUMPDEST PUSH1 0x40 MLOAD PUSH2 0x156 SWAP2 SWAP1 PUSH2 0x2DD JUMP JUMPDEST PUSH1 0x40 MLOAD DUP1 SWAP2 SUB SWAP1 RETURN JUMPDEST PUSH2 0x179 PUSH1 0x4 DUP1 CALLDATASIZE SUB DUP2 ADD SWAP1 PUSH2 0x174 SWAP2 SWAP1 PUSH2 0x290 JUMP JUMPDEST PUSH2 0x202 JUMP JUMPDEST PUSH1 0x40 MLOAD PUSH2 0x186 SWAP2 SWAP1 PUSH2 0x2DD JUMP JUMPDEST PUSH1 0x40 MLOAD DUP1 SWAP2 SUB SWAP1 RETURN JUMPDEST PUSH0 DUP2 DUP4 PUSH2 0x19C SWAP2 SWAP1 PUSH2 0x323 JUMP JUMPDEST SWAP1 POP SWAP3 SWAP2 POP POP JUMP JUMPDEST PUSH0 DUP2 DUP4 PUSH2 0x1B1 SWAP2 SWAP1 PUSH2 0x364 JUMP JUMPDEST SWAP1 POP SWAP3 SWAP2 POP POP JUMP JUMPDEST PUSH0 DUP2 DUP4 LT PUSH2 0x1C9 JUMPI DUP3 SWAP1 POP PUSH2 0x1CD JUMP JUMPDEST DUP2 SWAP1 POP JUMPDEST SWAP3 SWAP2 POP POP JUMP JUMPDEST PUSH0 DUP2 DUP4 GT PUSH2 0x1E3 JUMPI DUP3 SWAP1 POP PUSH2 0x1E7 JUMP JUMPDEST DUP2 SWAP1 POP JUMPDEST SWAP3 SWAP2 POP POP JUMP JUMPDEST PUSH0 DUP2 DUP4 PUSH2 0x1FA SWAP2 SWAP1 PUSH2 0x397 JUMP JUMPDEST SWAP1 POP SWAP3 SWAP2 POP POP JUMP JUMPDEST PUSH0 DUP1 DUP3 SUB PUSH2 0x245 JUMPI PUSH1 0x40 MLOAD PUSH32 0x8C379A000000000000000000000000000000000000000000000000000000000 DUP2 MSTORE PUSH1 0x4 ADD PUSH2 0x23C SWAP1 PUSH2 0x424 JUMP JUMPDEST PUSH1 0x40 MLOAD DUP1 SWAP2 SUB SWAP1 REVERT JUMPDEST DUP2 DUP4 PUSH2 0x251 SWAP2 SWAP1 PUSH2 0x46F JUMP JUMPDEST SWAP1 POP SWAP3 SWAP2 POP POP JUMP JUMPDEST PUSH0 DUP1 REVERT JUMPDEST PUSH0 DUP2 SWAP1 POP SWAP2 SWAP1 POP JUMP JUMPDEST PUSH2 0x26F DUP2 PUSH2 0x25D JUMP JUMPDEST DUP2 EQ PUSH2 0x279 JUMPI PUSH0 DUP1 REVERT JUMPDEST POP JUMP JUMPDEST PUSH0 DUP2 CALLDATALOAD SWAP1 POP PUSH2 0x28A DUP2 PUSH2 0x266 JUMP JUMPDEST SWAP3 SWAP2 POP POP JUMP JUMPDEST PUSH0 DUP1 PUSH1 0x40 DUP4 DUP6 SUB SLT ISZERO PUSH2 0x2A6 JUMPI PUSH2 0x2A5 PUSH2 0x259 JUMP JUMPDEST JUMPDEST PUSH0 PUSH2 0x2B3 DUP6 DUP3 DUP7 ADD PUSH2 0x27C JUMP JUMPDEST SWAP3 POP POP PUSH1 0x20 PUSH2 0x2C4 DUP6 DUP3 DUP7 ADD PUSH2 0x27C JUMP JUMPDEST SWAP2 POP POP SWAP3 POP SWAP3 SWAP1 POP JUMP JUMPDEST PUSH2 0x2D7 DUP2 PUSH2 0x25D JUMP JUMPDEST DUP3 MSTORE POP POP JUMP JUMPDEST PUSH0 PUSH1 0x20 DUP3 ADD SWAP1 POP PUSH2 0x2F0 PUSH0 DUP4 ADD DUP5 PUSH2 0x2CE JUMP JUMPDEST SWAP3 SWAP2 POP POP JUMP JUMPDEST PUSH32 0x4E487B7100000000000000000000000000000000000000000000000000000000 PUSH0 MSTORE PUSH1 0x11 PUSH1 0x4 MSTORE PUSH1 0x24 PUSH0 REVERT JUMPDEST PUSH0 PUSH2 0x32D DUP3 PUSH2 0x25D JUMP JUMPDEST SWAP2 POP PUSH2 0x338 DUP4 PUSH2 0x25D JUMP JUMPDEST SWAP3 POP DUP3 DUP3 MUL PUSH2 0x346 DUP2 PUSH2 0x25D JUMP JUMPDEST SWAP2 POP DUP3 DUP3 DIV DUP5 EQ DUP4 ISZERO OR PUSH2 0x35D JUMPI PUSH2 0x35C PUSH2 0x2F6 JUMP JUMPDEST JUMPDEST POP SWAP3 SWAP2 POP POP JUMP JUMPDEST PUSH0 PUSH2 0x36E DUP3 PUSH2 0x25D JUMP JUMPDEST SWAP2 POP PUSH2 0x379 DUP4 PUSH2 0x25D JUMP JUMPDEST SWAP3 POP DUP3 DUP3 ADD SWAP1 POP DUP1 DUP3 GT ISZERO PUSH2 0x391 JUMPI PUSH2 0x390 PUSH2 0x2F6 JUMP JUMPDEST JUMPDEST SWAP3 SWAP2 POP POP JUMP JUMPDEST PUSH0 PUSH2 0x3A1 DUP3 PUSH2 0x25D JUMP JUMPDEST SWAP2 POP PUSH2 0x3AC DUP4 PUSH2 0x25D JUMP JUMPDEST SWAP3 POP DUP3 DUP3 SUB SWAP1 POP DUP2 DUP2 GT ISZERO PUSH2 0x3C4 JUMPI PUSH2 0x3C3 PUSH2 0x2F6 JUMP JUMPDEST JUMPDEST SWAP3 SWAP2 POP POP JUMP JUMPDEST PUSH0 DUP3 DUP3 MSTORE PUSH1 0x20 DUP3 ADD SWAP1 POP SWAP3 SWAP2 POP POP JUMP JUMPDEST PUSH32 0x62752073617969736920626567656E6D6564696D210000000000000000000000 PUSH0 DUP3 ADD MSTORE POP JUMP JUMPDEST PUSH0 PUSH2 0x40E PUSH1 0x15 DUP4 PUSH2 0x3CA JUMP JUMPDEST SWAP2 POP PUSH2 0x419 DUP3 PUSH2 0x3DA JUMP JUMPDEST PUSH1 0x20 DUP3 ADD SWAP1 POP SWAP2 SWAP1 POP JUMP JUMPDEST PUSH0 PUSH1 0x20 DUP3 ADD SWAP1 POP DUP2 DUP2 SUB PUSH0 DUP4 ADD MSTORE PUSH2 0x43B DUP2 PUSH2 0x402 JUMP JUMPDEST SWAP1 POP SWAP2 SWAP1 POP JUMP JUMPDEST PUSH32 0x4E487B7100000000000000000000000000000000000000000000000000000000 PUSH0 MSTORE PUSH1 0x12 PUSH1 0x4 MSTORE PUSH1 0x24 PUSH0 REVERT JUMPDEST PUSH0 PUSH2 0x479 DUP3 PUSH2 0x25D JUMP JUMPDEST SWAP2 POP PUSH2 0x484 DUP4 PUSH2 0x25D JUMP JUMPDEST SWAP3 POP DUP3 PUSH2 0x494 JUMPI PUSH2 0x493 PUSH2 0x442 JUMP JUMPDEST JUMPDEST DUP3 DUP3 DIV SWAP1 POP SWAP3 SWAP2 POP POP JUMP INVALID LOG2 PUSH5 0x6970667358 0x22 SLT KECCAK256 PUSH28 0x753F5E7A4E86D0C61FFAEE1A2F54BC161451ADD8853CD9A3CC29B06 NUMBER 0x24 MULMOD PUSH5 0x736F6C6343 STOP ADDMOD XOR STOP CALLER "
				},
				"gasEstimates": {
					"creation": {
						"codeDepositCost": "247400",
						"executionCost": "310",
						"totalCost": "247710"
					},
					"external": {
						"divide(uint256,uint256)": "infinite",
						"max(uint256,uint256)": "infinite",
						"min(uint256,uint256)": "infinite",
						"minus(uint256,uint256)": "infinite",
						"multi(uint256,uint256)": "infinite",
						"plus(uint256,uint256)": "infinite"
					}
				},
				"methodIdentifiers": {
					"divide(uint256,uint256)": "f88e9fbf",
					"max(uint256,uint256)": "6d5433e6",
					"min(uint256,uint256)": "7ae2b5c7",
					"minus(uint256,uint256)": "f4f3bdc1",
					"multi(uint256,uint256)": "5171762c",
					"plus(uint256,uint256)": "66098d4f"
				}
			},
			"storageLayout": {
				"storage": [],
				"types": null
			},
			"userdoc": {
				"kind": "user",
				"methods": {},
				"version": 1
			}
		}
	}
}