{
	"contracts/Inheritence.sol": {
		"SuperHuman": {
			"abi": [
				{
					"inputs": [],
					"name": "sayHello",
					"outputs": [
						{
							"internalType": "string",
							"name": "",
							"type": "string"
						}
					],
					"stateMutability": "pure",
					"type": "function"
				},
				{
					"inputs": [
						{
							"internalType": "bool",
							"name": "isMember",
							"type": "bool"
						}
					],
					"name": "welcomeMsg",
					"outputs": [
						{
							"internalType": "string",
							"name": "",
							"type": "string"
						}
					],
					"stateMutability": "pure",
					"type": "function"
				}
			],
			"devdoc": {
				"kind": "dev",
				"methods": {},
				"version": 1
			},
			"evm": {
				"assembly": "    /* \"contracts/Inheritence.sol\":758:1069  contract SuperHuman is Human {... */\n  mstore(0x40, 0x80)\n  callvalue\n  dup1\n  iszero\n  tag_1\n  jumpi\n  0x00\n  dup1\n  revert\ntag_1:\n  pop\n  dataSize(sub_0)\n  dup1\n  dataOffset(sub_0)\n  0x00\n  codecopy\n  0x00\n  return\nstop\n\nsub_0: assembly {\n        /* \"contracts/Inheritence.sol\":758:1069  contract SuperHuman is Human {... */\n      mstore(0x40, 0x80)\n      callvalue\n      dup1\n      iszero\n      tag_1\n      jumpi\n      0x00\n      dup1\n      revert\n    tag_1:\n      pop\n      jumpi(tag_2, lt(calldatasize, 0x04))\n      shr(0xe0, calldataload(0x00))\n      dup1\n      0x8163604a\n      eq\n      tag_3\n      jumpi\n      dup1\n      0xef5fb05b\n      eq\n      tag_4\n      jumpi\n    tag_2:\n      0x00\n      dup1\n      revert\n        /* \"contracts/Inheritence.sol\":933:1067  function welcomeMsg(bool isMember) public pure returns(string memory) {... */\n    tag_3:\n      tag_5\n      0x04\n      dup1\n      calldatasize\n      sub\n      dup2\n      add\n      swap1\n      tag_6\n      swap2\n      swap1\n      tag_7\n      jump\t// in\n    tag_6:\n      tag_8\n      jump\t// in\n    tag_5:\n      mload(0x40)\n      tag_9\n      swap2\n      swap1\n      tag_10\n      jump\t// in\n    tag_9:\n      mload(0x40)\n      dup1\n      swap2\n      sub\n      swap1\n      return\n        /* \"contracts/Inheritence.sol\":793:927  function sayHello() public pure override returns(string memory) {... */\n    tag_4:\n      tag_11\n      tag_12\n      jump\t// in\n    tag_11:\n      mload(0x40)\n      tag_13\n      swap2\n      swap1\n      tag_10\n      jump\t// in\n    tag_13:\n      mload(0x40)\n      dup1\n      swap2\n      sub\n      swap1\n      return\n        /* \"contracts/Inheritence.sol\":933:1067  function welcomeMsg(bool isMember) public pure returns(string memory) {... */\n    tag_8:\n        /* \"contracts/Inheritence.sol\":988:1001  string memory */\n      0x60\n        /* \"contracts/Inheritence.sol\":1020:1028  isMember */\n      dup2\n        /* \"contracts/Inheritence.sol\":1020:1060  isMember ? sayHello() : super.sayHello() */\n      tag_15\n      jumpi\n        /* \"contracts/Inheritence.sol\":1044:1060  super.sayHello() */\n      tag_16\n        /* \"contracts/Inheritence.sol\":1044:1058  super.sayHello */\n      tag_17\n        /* \"contracts/Inheritence.sol\":1044:1060  super.sayHello() */\n      jump\t// in\n    tag_16:\n        /* \"contracts/Inheritence.sol\":1020:1060  isMember ? sayHello() : super.sayHello() */\n      jump(tag_18)\n    tag_15:\n        /* \"contracts/Inheritence.sol\":1031:1041  sayHello() */\n      tag_19\n        /* \"contracts/Inheritence.sol\":1031:1039  sayHello */\n      tag_12\n        /* \"contracts/Inheritence.sol\":1031:1041  sayHello() */\n      jump\t// in\n    tag_19:\n        /* \"contracts/Inheritence.sol\":1020:1060  isMember ? sayHello() : super.sayHello() */\n    tag_18:\n        /* \"contracts/Inheritence.sol\":1013:1060  return isMember ? sayHello() : super.sayHello() */\n      swap1\n      pop\n        /* \"contracts/Inheritence.sol\":933:1067  function welcomeMsg(bool isMember) public pure returns(string memory) {... */\n      swap2\n      swap1\n      pop\n      jump\t// out\n        /* \"contracts/Inheritence.sol\":793:927  function sayHello() public pure override returns(string memory) {... */\n    tag_12:\n        /* \"contracts/Inheritence.sol\":842:855  string memory */\n      0x60\n        /* \"contracts/Inheritence.sol\":867:920  return \"Selamlar itu blockchain uyesi, nasilsin ? :)\" */\n      mload(0x40)\n      dup1\n      0x60\n      add\n      0x40\n      mstore\n      dup1\n      0x2c\n      dup2\n      mstore\n      0x20\n      add\n      data_7cf16e5e88d1a8e27a7dc9e9d441f1e8fe1c8d5bafca9438508620601a99b7bc\n      0x2c\n      swap2\n      codecopy\n      swap1\n      pop\n        /* \"contracts/Inheritence.sol\":793:927  function sayHello() public pure override returns(string memory) {... */\n      swap1\n      jump\t// out\n        /* \"contracts/Inheritence.sol\":603:754  function sayHello() public pure virtual returns(string memory) {... */\n    tag_17:\n        /* \"contracts/Inheritence.sol\":651:664  string memory */\n      0x60\n        /* \"contracts/Inheritence.sol\":676:747  return \"itublockchain.com adresi uzerinden kulube uye olabilirsiniz :)\" */\n      mload(0x40)\n      dup1\n      0x60\n      add\n      0x40\n      mstore\n      dup1\n      0x3e\n      dup2\n      mstore\n      0x20\n      add\n      data_21d9e59d7b932fa9522054d2353c2cc3a5ef5536b2468dfd58e2095208144532\n      0x3e\n      swap2\n      codecopy\n      swap1\n      pop\n        /* \"contracts/Inheritence.sol\":603:754  function sayHello() public pure virtual returns(string memory) {... */\n      swap1\n      jump\t// out\n        /* \"#utility.yul\":88:205   */\n    tag_23:\n        /* \"#utility.yul\":197:198   */\n      0x00\n        /* \"#utility.yul\":194:195   */\n      dup1\n        /* \"#utility.yul\":187:199   */\n      revert\n        /* \"#utility.yul\":334:424   */\n    tag_25:\n        /* \"#utility.yul\":368:375   */\n      0x00\n        /* \"#utility.yul\":411:416   */\n      dup2\n        /* \"#utility.yul\":404:417   */\n      iszero\n        /* \"#utility.yul\":397:418   */\n      iszero\n        /* \"#utility.yul\":386:418   */\n      swap1\n      pop\n        /* \"#utility.yul\":334:424   */\n      swap2\n      swap1\n      pop\n      jump\t// out\n        /* \"#utility.yul\":430:546   */\n    tag_26:\n        /* \"#utility.yul\":500:521   */\n      tag_39\n        /* \"#utility.yul\":515:520   */\n      dup2\n        /* \"#utility.yul\":500:521   */\n      tag_25\n      jump\t// in\n    tag_39:\n        /* \"#utility.yul\":493:498   */\n      dup2\n        /* \"#utility.yul\":490:522   */\n      eq\n        /* \"#utility.yul\":480:540   */\n      tag_40\n      jumpi\n        /* \"#utility.yul\":536:537   */\n      0x00\n        /* \"#utility.yul\":533:534   */\n      dup1\n        /* \"#utility.yul\":526:538   */\n      revert\n        /* \"#utility.yul\":480:540   */\n    tag_40:\n        /* \"#utility.yul\":430:546   */\n      pop\n      jump\t// out\n        /* \"#utility.yul\":552:685   */\n    tag_27:\n        /* \"#utility.yul\":595:600   */\n      0x00\n        /* \"#utility.yul\":633:639   */\n      dup2\n        /* \"#utility.yul\":620:640   */\n      calldataload\n        /* \"#utility.yul\":611:640   */\n      swap1\n      pop\n        /* \"#utility.yul\":649:679   */\n      tag_42\n        /* \"#utility.yul\":673:678   */\n      dup2\n        /* \"#utility.yul\":649:679   */\n      tag_26\n      jump\t// in\n    tag_42:\n        /* \"#utility.yul\":552:685   */\n      swap3\n      swap2\n      pop\n      pop\n      jump\t// out\n        /* \"#utility.yul\":691:1014   */\n    tag_7:\n        /* \"#utility.yul\":747:753   */\n      0x00\n        /* \"#utility.yul\":796:798   */\n      0x20\n        /* \"#utility.yul\":784:793   */\n      dup3\n        /* \"#utility.yul\":775:782   */\n      dup5\n        /* \"#utility.yul\":771:794   */\n      sub\n        /* \"#utility.yul\":767:799   */\n      slt\n        /* \"#utility.yul\":764:883   */\n      iszero\n      tag_44\n      jumpi\n        /* \"#utility.yul\":802:881   */\n      tag_45\n      tag_23\n      jump\t// in\n    tag_45:\n        /* \"#utility.yul\":764:883   */\n    tag_44:\n        /* \"#utility.yul\":922:923   */\n      0x00\n        /* \"#utility.yul\":947:997   */\n      tag_46\n        /* \"#utility.yul\":989:996   */\n      dup5\n        /* \"#utility.yul\":980:986   */\n      dup3\n        /* \"#utility.yul\":969:978   */\n      dup6\n        /* \"#utility.yul\":965:987   */\n      add\n        /* \"#utility.yul\":947:997   */\n      tag_27\n      jump\t// in\n    tag_46:\n        /* \"#utility.yul\":937:997   */\n      swap2\n      pop\n        /* \"#utility.yul\":893:1007   */\n      pop\n        /* \"#utility.yul\":691:1014   */\n      swap3\n      swap2\n      pop\n      pop\n      jump\t// out\n        /* \"#utility.yul\":1020:1119   */\n    tag_28:\n        /* \"#utility.yul\":1072:1078   */\n      0x00\n        /* \"#utility.yul\":1106:1111   */\n      dup2\n        /* \"#utility.yul\":1100:1112   */\n      mload\n        /* \"#utility.yul\":1090:1112   */\n      swap1\n      pop\n        /* \"#utility.yul\":1020:1119   */\n      swap2\n      swap1\n      pop\n      jump\t// out\n        /* \"#utility.yul\":1125:1294   */\n    tag_29:\n        /* \"#utility.yul\":1209:1220   */\n      0x00\n        /* \"#utility.yul\":1243:1249   */\n      dup3\n        /* \"#utility.yul\":1238:1241   */\n      dup3\n        /* \"#utility.yul\":1231:1250   */\n      mstore\n        /* \"#utility.yul\":1283:1287   */\n      0x20\n        /* \"#utility.yul\":1278:1281   */\n      dup3\n        /* \"#utility.yul\":1274:1288   */\n      add\n        /* \"#utility.yul\":1259:1288   */\n      swap1\n      pop\n        /* \"#utility.yul\":1125:1294   */\n      swap3\n      swap2\n      pop\n      pop\n      jump\t// out\n        /* \"#utility.yul\":1300:1546   */\n    tag_30:\n        /* \"#utility.yul\":1381:1382   */\n      0x00\n        /* \"#utility.yul\":1391:1504   */\n    tag_50:\n        /* \"#utility.yul\":1405:1411   */\n      dup4\n        /* \"#utility.yul\":1402:1403   */\n      dup2\n        /* \"#utility.yul\":1399:1412   */\n      lt\n        /* \"#utility.yul\":1391:1504   */\n      iszero\n      tag_52\n      jumpi\n        /* \"#utility.yul\":1490:1491   */\n      dup1\n        /* \"#utility.yul\":1485:1488   */\n      dup3\n        /* \"#utility.yul\":1481:1492   */\n      add\n        /* \"#utility.yul\":1475:1493   */\n      mload\n        /* \"#utility.yul\":1471:1472   */\n      dup2\n        /* \"#utility.yul\":1466:1469   */\n      dup5\n        /* \"#utility.yul\":1462:1473   */\n      add\n        /* \"#utility.yul\":1455:1494   */\n      mstore\n        /* \"#utility.yul\":1427:1429   */\n      0x20\n        /* \"#utility.yul\":1424:1425   */\n      dup2\n        /* \"#utility.yul\":1420:1430   */\n      add\n        /* \"#utility.yul\":1415:1430   */\n      swap1\n      pop\n        /* \"#utility.yul\":1391:1504   */\n      jump(tag_50)\n    tag_52:\n        /* \"#utility.yul\":1538:1539   */\n      0x00\n        /* \"#utility.yul\":1529:1535   */\n      dup5\n        /* \"#utility.yul\":1524:1527   */\n      dup5\n        /* \"#utility.yul\":1520:1536   */\n      add\n        /* \"#utility.yul\":1513:1540   */\n      mstore\n        /* \"#utility.yul\":1362:1546   */\n      pop\n        /* \"#utility.yul\":1300:1546   */\n      pop\n      pop\n      pop\n      jump\t// out\n        /* \"#utility.yul\":1552:1654   */\n    tag_31:\n        /* \"#utility.yul\":1593:1599   */\n      0x00\n        /* \"#utility.yul\":1644:1646   */\n      0x1f\n        /* \"#utility.yul\":1640:1647   */\n      not\n        /* \"#utility.yul\":1635:1637   */\n      0x1f\n        /* \"#utility.yul\":1628:1633   */\n      dup4\n        /* \"#utility.yul\":1624:1638   */\n      add\n        /* \"#utility.yul\":1620:1648   */\n      and\n        /* \"#utility.yul\":1610:1648   */\n      swap1\n      pop\n        /* \"#utility.yul\":1552:1654   */\n      swap2\n      swap1\n      pop\n      jump\t// out\n        /* \"#utility.yul\":1660:2037   */\n    tag_32:\n        /* \"#utility.yul\":1748:1751   */\n      0x00\n        /* \"#utility.yul\":1776:1815   */\n      tag_55\n        /* \"#utility.yul\":1809:1814   */\n      dup3\n        /* \"#utility.yul\":1776:1815   */\n      tag_28\n      jump\t// in\n    tag_55:\n        /* \"#utility.yul\":1831:1902   */\n      tag_56\n        /* \"#utility.yul\":1895:1901   */\n      dup2\n        /* \"#utility.yul\":1890:1893   */\n      dup6\n        /* \"#utility.yul\":1831:1902   */\n      tag_29\n      jump\t// in\n    tag_56:\n        /* \"#utility.yul\":1824:1902   */\n      swap4\n      pop\n        /* \"#utility.yul\":1911:1976   */\n      tag_57\n        /* \"#utility.yul\":1969:1975   */\n      dup2\n        /* \"#utility.yul\":1964:1967   */\n      dup6\n        /* \"#utility.yul\":1957:1961   */\n      0x20\n        /* \"#utility.yul\":1950:1955   */\n      dup7\n        /* \"#utility.yul\":1946:1962   */\n      add\n        /* \"#utility.yul\":1911:1976   */\n      tag_30\n      jump\t// in\n    tag_57:\n        /* \"#utility.yul\":2001:2030   */\n      tag_58\n        /* \"#utility.yul\":2023:2029   */\n      dup2\n        /* \"#utility.yul\":2001:2030   */\n      tag_31\n      jump\t// in\n    tag_58:\n        /* \"#utility.yul\":1996:1999   */\n      dup5\n        /* \"#utility.yul\":1992:2031   */\n      add\n        /* \"#utility.yul\":1985:2031   */\n      swap2\n      pop\n        /* \"#utility.yul\":1752:2037   */\n      pop\n        /* \"#utility.yul\":1660:2037   */\n      swap3\n      swap2\n      pop\n      pop\n      jump\t// out\n        /* \"#utility.yul\":2043:2356   */\n    tag_10:\n        /* \"#utility.yul\":2156:2160   */\n      0x00\n        /* \"#utility.yul\":2194:2196   */\n      0x20\n        /* \"#utility.yul\":2183:2192   */\n      dup3\n        /* \"#utility.yul\":2179:2197   */\n      add\n        /* \"#utility.yul\":2171:2197   */\n      swap1\n      pop\n        /* \"#utility.yul\":2243:2252   */\n      dup2\n        /* \"#utility.yul\":2237:2241   */\n      dup2\n        /* \"#utility.yul\":2233:2253   */\n      sub\n        /* \"#utility.yul\":2229:2230   */\n      0x00\n        /* \"#utility.yul\":2218:2227   */\n      dup4\n        /* \"#utility.yul\":2214:2231   */\n      add\n        /* \"#utility.yul\":2207:2254   */\n      mstore\n        /* \"#utility.yul\":2271:2349   */\n      tag_60\n        /* \"#utility.yul\":2344:2348   */\n      dup2\n        /* \"#utility.yul\":2335:2341   */\n      dup5\n        /* \"#utility.yul\":2271:2349   */\n      tag_32\n      jump\t// in\n    tag_60:\n        /* \"#utility.yul\":2263:2349   */\n      swap1\n      pop\n        /* \"#utility.yul\":2043:2356   */\n      swap3\n      swap2\n      pop\n      pop\n      jump\t// out\n    stop\n    data_21d9e59d7b932fa9522054d2353c2cc3a5ef5536b2468dfd58e2095208144532 697475626c6f636b636861696e2e636f6d2061647265736920757a6572696e64656e206b756c75626520757965206f6c6162696c697273696e697a203a29\n    data_7cf16e5e88d1a8e27a7dc9e9d441f1e8fe1c8d5bafca9438508620601a99b7bc 53656c616d6c61722069747520626c6f636b636861696e2075796573692c206e6173696c73696e203f203a29\n\n    auxdata: 0xa26469706673582212205dc234f7989916689b0ad8f364e2e9aba7f29067aaa27b6ee95c025d001be2ca64736f6c63430008180033\n}\n",
				"bytecode": {
					"linkReferences": {},
					"object": "608060405234801561000f575f80fd5b506102988061001d5f395ff3fe608060405234801561000f575f80fd5b5060043610610034575f3560e01c80638163604a14610038578063ef5fb05b14610068575b5f80fd5b610052600480360381019061004d9190610123565b610086565b60405161005f91906101d8565b60405180910390f35b6100706100aa565b60405161007d91906101d8565b60405180910390f35b60608161009a576100956100ca565b6100a3565b6100a26100aa565b5b9050919050565b60606040518060600160405280602c8152602001610237602c9139905090565b60606040518060600160405280603e81526020016101f9603e9139905090565b5f80fd5b5f8115159050919050565b610102816100ee565b811461010c575f80fd5b50565b5f8135905061011d816100f9565b92915050565b5f60208284031215610138576101376100ea565b5b5f6101458482850161010f565b91505092915050565b5f81519050919050565b5f82825260208201905092915050565b5f5b8381101561018557808201518184015260208101905061016a565b5f8484015250505050565b5f601f19601f8301169050919050565b5f6101aa8261014e565b6101b48185610158565b93506101c4818560208601610168565b6101cd81610190565b840191505092915050565b5f6020820190508181035f8301526101f081846101a0565b90509291505056fe697475626c6f636b636861696e2e636f6d2061647265736920757a6572696e64656e206b756c75626520757965206f6c6162696c697273696e697a203a2953656c616d6c61722069747520626c6f636b636861696e2075796573692c206e6173696c73696e203f203a29a26469706673582212205dc234f7989916689b0ad8f364e2e9aba7f29067aaa27b6ee95c025d001be2ca64736f6c63430008180033",
					"opcodes": "PUSH1 0x80 PUSH1 0x40 MSTORE CALLVALUE DUP1 ISZERO PUSH2 0xF JUMPI PUSH0 DUP1 REVERT JUMPDEST POP PUSH2 0x298 DUP1 PUSH2 0x1D PUSH0 CODECOPY PUSH0 RETURN INVALID PUSH1 0x80 PUSH1 0x40 MSTORE CALLVALUE DUP1 ISZERO PUSH2 0xF JUMPI PUSH0 DUP1 REVERT JUMPDEST POP PUSH1 0x4 CALLDATASIZE LT PUSH2 0x34 JUMPI PUSH0 CALLDATALOAD PUSH1 0xE0 SHR DUP1 PUSH4 0x8163604A EQ PUSH2 0x38 JUMPI DUP1 PUSH4 0xEF5FB05B EQ PUSH2 0x68 JUMPI JUMPDEST PUSH0 DUP1 REVERT JUMPDEST PUSH2 0x52 PUSH1 0x4 DUP1 CALLDATASIZE SUB DUP2 ADD SWAP1 PUSH2 0x4D SWAP2 SWAP1 PUSH2 0x123 JUMP JUMPDEST PUSH2 0x86 JUMP JUMPDEST PUSH1 0x40 MLOAD PUSH2 0x5F SWAP2 SWAP1 PUSH2 0x1D8 JUMP JUMPDEST PUSH1 0x40 MLOAD DUP1 SWAP2 SUB SWAP1 RETURN JUMPDEST PUSH2 0x70 PUSH2 0xAA JUMP JUMPDEST PUSH1 0x40 MLOAD PUSH2 0x7D SWAP2 SWAP1 PUSH2 0x1D8 JUMP JUMPDEST PUSH1 0x40 MLOAD DUP1 SWAP2 SUB SWAP1 RETURN JUMPDEST PUSH1 0x60 DUP2 PUSH2 0x9A JUMPI PUSH2 0x95 PUSH2 0xCA JUMP JUMPDEST PUSH2 0xA3 JUMP JUMPDEST PUSH2 0xA2 PUSH2 0xAA JUMP JUMPDEST JUMPDEST SWAP1 POP SWAP2 SWAP1 POP JUMP JUMPDEST PUSH1 0x60 PUSH1 0x40 MLOAD DUP1 PUSH1 0x60 ADD PUSH1 0x40 MSTORE DUP1 PUSH1 0x2C DUP2 MSTORE PUSH1 0x20 ADD PUSH2 0x237 PUSH1 0x2C SWAP2 CODECOPY SWAP1 POP SWAP1 JUMP JUMPDEST PUSH1 0x60 PUSH1 0x40 MLOAD DUP1 PUSH1 0x60 ADD PUSH1 0x40 MSTORE DUP1 PUSH1 0x3E DUP2 MSTORE PUSH1 0x20 ADD PUSH2 0x1F9 PUSH1 0x3E SWAP2 CODECOPY SWAP1 POP SWAP1 JUMP JUMPDEST PUSH0 DUP1 REVERT JUMPDEST PUSH0 DUP2 ISZERO ISZERO SWAP1 POP SWAP2 SWAP1 POP JUMP JUMPDEST PUSH2 0x102 DUP2 PUSH2 0xEE JUMP JUMPDEST DUP2 EQ PUSH2 0x10C JUMPI PUSH0 DUP1 REVERT JUMPDEST POP JUMP JUMPDEST PUSH0 DUP2 CALLDATALOAD SWAP1 POP PUSH2 0x11D DUP2 PUSH2 0xF9 JUMP JUMPDEST SWAP3 SWAP2 POP POP JUMP JUMPDEST PUSH0 PUSH1 0x20 DUP3 DUP5 SUB SLT ISZERO PUSH2 0x138 JUMPI PUSH2 0x137 PUSH2 0xEA JUMP JUMPDEST JUMPDEST PUSH0 PUSH2 0x145 DUP5 DUP3 DUP6 ADD PUSH2 0x10F JUMP JUMPDEST SWAP2 POP POP SWAP3 SWAP2 POP POP JUMP JUMPDEST PUSH0 DUP2 MLOAD SWAP1 POP SWAP2 SWAP1 POP JUMP JUMPDEST PUSH0 DUP3 DUP3 MSTORE PUSH1 0x20 DUP3 ADD SWAP1 POP SWAP3 SWAP2 POP POP JUMP JUMPDEST PUSH0 JUMPDEST DUP4 DUP2 LT ISZERO PUSH2 0x185 JUMPI DUP1 DUP3 ADD MLOAD DUP2 DUP5 ADD MSTORE PUSH1 0x20 DUP2 ADD SWAP1 POP PUSH2 0x16A JUMP JUMPDEST PUSH0 DUP5 DUP5 ADD MSTORE POP POP POP POP JUMP JUMPDEST PUSH0 PUSH1 0x1F NOT PUSH1 0x1F DUP4 ADD AND SWAP1 POP SWAP2 SWAP1 POP JUMP JUMPDEST PUSH0 PUSH2 0x1AA DUP3 PUSH2 0x14E JUMP JUMPDEST PUSH2 0x1B4 DUP2 DUP6 PUSH2 0x158 JUMP JUMPDEST SWAP4 POP PUSH2 0x1C4 DUP2 DUP6 PUSH1 0x20 DUP7 ADD PUSH2 0x168 JUMP JUMPDEST PUSH2 0x1CD DUP2 PUSH2 0x190 JUMP JUMPDEST DUP5 ADD SWAP2 POP POP SWAP3 SWAP2 POP POP JUMP JUMPDEST PUSH0 PUSH1 0x20 DUP3 ADD SWAP1 POP DUP2 DUP2 SUB PUSH0 DUP4 ADD MSTORE PUSH2 0x1F0 DUP2 DUP5 PUSH2 0x1A0 JUMP JUMPDEST SWAP1 POP SWAP3 SWAP2 POP POP JUMP INVALID PUSH10 0x7475626C6F636B636861 PUSH10 0x6E2E636F6D2061647265 PUSH20 0x6920757A6572696E64656E206B756C7562652075 PUSH26 0x65206F6C6162696C697273696E697A203A2953656C616D6C6172 KECCAK256 PUSH10 0x747520626C6F636B6368 PUSH2 0x696E KECCAK256 PUSH22 0x796573692C206E6173696C73696E203F203A29A26469 PUSH17 0x6673582212205DC234F7989916689B0AD8 RETURN PUSH5 0xE2E9ABA7F2 SWAP1 PUSH8 0xAAA27B6EE95C025D STOP SHL 0xE2 0xCA PUSH5 0x736F6C6343 STOP ADDMOD XOR STOP CALLER "
				},
				"gasEstimates": {
					"creation": {
						"codeDepositCost": "132800",
						"executionCost": "175",
						"totalCost": "132975"
					},
					"external": {
						"sayHello()": "infinite",
						"welcomeMsg(bool)": "infinite"
					}
				},
				"methodIdentifiers": {
					"sayHello()": "ef5fb05b",
					"welcomeMsg(bool)": "8163604a"
				}
			},
			"storageLayout": {
				"storage": [],
				"types": null
			},
			"userdoc": {
				"kind": "user",
				"methods": {},
				"version": 1
			}
		}
	}
}