{
	"data": {
		"bytecode": {
			"linkReferences": {},
			"object": "60806040526040518060400160405280600c81526020017f48656c6c6f20576f726c642100000000000000000000000000000000000000008152505f9081620000499190620002c6565b5060036001553480156200005b575f80fd5b50620003aa565b5f81519050919050565b7f4e487b71000000000000000000000000000000000000000000000000000000005f52604160045260245ffd5b7f4e487b71000000000000000000000000000000000000000000000000000000005f52602260045260245ffd5b5f6002820490506001821680620000de57607f821691505b602082108103620000f457620000f362000099565b5b50919050565b5f819050815f5260205f209050919050565b5f6020601f8301049050919050565b5f82821b905092915050565b5f60088302620001587fffffffffffffffffffffffffffffffffffffffffffffffffffffffffffffffff826200011b565b6200016486836200011b565b95508019841693508086168417925050509392505050565b5f819050919050565b5f819050919050565b5f620001ae620001a8620001a2846200017c565b62000185565b6200017c565b9050919050565b5f819050919050565b620001c9836200018e565b620001e1620001d882620001b5565b84845462000127565b825550505050565b5f90565b620001f7620001e9565b62000204818484620001be565b505050565b5b818110156200022b576200021f5f82620001ed565b6001810190506200020a565b5050565b601f8211156200027a576200024481620000fa565b6200024f846200010c565b810160208510156200025f578190505b620002776200026e856200010c565b83018262000209565b50505b505050565b5f82821c905092915050565b5f6200029c5f19846008026200027f565b1980831691505092915050565b5f620002b683836200028b565b9150826002028217905092915050565b620002d18262000062565b67ffffffffffffffff811115620002ed57620002ec6200006c565b5b620002f98254620000c6565b620003068282856200022f565b5f60209050601f8311600181146200033c575f841562000327578287015190505b620003338582620002a9565b865550620003a2565b601f1984166200034c86620000fa565b5f5b8281101562000375578489015182556001820191506020850194506020810190506200034e565b8683101562000395578489015162000391601f8916826200028b565b8355505b6001600288020188555050505b505050505050565b61058180620003b85f395ff3fe608060405234801561000f575f80fd5b5060043610610086575f3560e01c806379697ecc1161005957806379697ecc14610114578063cc80f6f314610132578063d100532e14610150578063ef5fb05b1461016e57610086565b80631003e2d21461008a578063148bc9e2146100ba57806320d6e703146100d8578063513e18ce146100f6575b5f80fd5b6100a4600480360381019061009f9190610391565b61018c565b6040516100b191906103cb565b60405180910390f35b6100c26101a2565b6040516100cf919061046e565b60405180910390f35b6100e06101b1565b6040516100ed919061046e565b60405180910390f35b6100fe6101c0565b60405161010b919061046e565b60405180910390f35b61011c6101cf565b604051610129919061046e565b60405180910390f35b61013a61020c565b604051610147919061046e565b60405180910390f35b61015861024e565b60405161016591906103cb565b60405180910390f35b610176610255565b604051610183919061046e565b60405180910390f35b5f8160015461019b91906104bb565b9050919050565b60606101ac6101cf565b905090565b60606101bb6102e0565b905090565b60606101ca61031d565b905090565b60606040518060400160405280600f81526020017f5075626c69632046756e6374696f6e0000000000000000000000000000000000815250905090565b60605f6040518060400160405280600f81526020017f4d79204c6f63616c20537472696e67000000000000000000000000000000000081525090508091505090565b5f43905090565b5f80546102619061051b565b80601f016020809104026020016040519081016040528092919081815260200182805461028d9061051b565b80156102d85780601f106102af576101008083540402835291602001916102d8565b820191905f5260205f20905b8154815290600101906020018083116102bb57829003601f168201915b505050505081565b60606040518060400160405280601181526020017f496e7465726e616c2046756e6374696f6e000000000000000000000000000000815250905090565b60606040518060400160405280601081526020017f507269766174652066756e6374696f6e00000000000000000000000000000000815250905090565b5f80fd5b5f819050919050565b6103708161035e565b811461037a575f80fd5b50565b5f8135905061038b81610367565b92915050565b5f602082840312156103a6576103a561035a565b5b5f6103b38482850161037d565b91505092915050565b6103c58161035e565b82525050565b5f6020820190506103de5f8301846103bc565b92915050565b5f81519050919050565b5f82825260208201905092915050565b5f5b8381101561041b578082015181840152602081019050610400565b5f8484015250505050565b5f601f19601f8301169050919050565b5f610440826103e4565b61044a81856103ee565b935061045a8185602086016103fe565b61046381610426565b840191505092915050565b5f6020820190508181035f8301526104868184610436565b905092915050565b7f4e487b71000000000000000000000000000000000000000000000000000000005f52601160045260245ffd5b5f6104c58261035e565b91506104d08361035e565b92508282019050808211156104e8576104e761048e565b5b92915050565b7f4e487b71000000000000000000000000000000000000000000000000000000005f52602260045260245ffd5b5f600282049050600182168061053257607f821691505b602082108103610545576105446104ee565b5b5091905056fea26469706673582212202c297901bc4215835e7169c040c50c71481f797aef596ad9db8c57b148977d6464736f6c63430008180033",
			"opcodes": "PUSH1 0x80 PUSH1 0x40 MSTORE PUSH1 0x40 MLOAD DUP1 PUSH1 0x40 ADD PUSH1 0x40 MSTORE DUP1 PUSH1 0xC DUP2 MSTORE PUSH1 0x20 ADD PUSH32 0x48656C6C6F20576F726C64210000000000000000000000000000000000000000 DUP2 MSTORE POP PUSH0 SWAP1 DUP2 PUSH3 0x49 SWAP2 SWAP1 PUSH3 0x2C6 JUMP JUMPDEST POP PUSH1 0x3 PUSH1 0x1 SSTORE CALLVALUE DUP1 ISZERO PUSH3 0x5B JUMPI PUSH0 DUP1 REVERT JUMPDEST POP PUSH3 0x3AA JUMP JUMPDEST PUSH0 DUP2 MLOAD SWAP1 POP SWAP2 SWAP1 POP JUMP JUMPDEST PUSH32 0x4E487B7100000000000000000000000000000000000000000000000000000000 PUSH0 MSTORE PUSH1 0x41 PUSH1 0x4 MSTORE PUSH1 0x24 PUSH0 REVERT JUMPDEST PUSH32 0x4E487B7100000000000000000000000000000000000000000000000000000000 PUSH0 MSTORE PUSH1 0x22 PUSH1 0x4 MSTORE PUSH1 0x24 PUSH0 REVERT JUMPDEST PUSH0 PUSH1 0x2 DUP3 DIV SWAP1 POP PUSH1 0x1 DUP3 AND DUP1 PUSH3 0xDE JUMPI PUSH1 0x7F DUP3 AND SWAP2 POP JUMPDEST PUSH1 0x20 DUP3 LT DUP2 SUB PUSH3 0xF4 JUMPI PUSH3 0xF3 PUSH3 0x99 JUMP JUMPDEST JUMPDEST POP SWAP2 SWAP1 POP JUMP JUMPDEST PUSH0 DUP2 SWAP1 POP DUP2 PUSH0 MSTORE PUSH1 0x20 PUSH0 KECCAK256 SWAP1 POP SWAP2 SWAP1 POP JUMP JUMPDEST PUSH0 PUSH1 0x20 PUSH1 0x1F DUP4 ADD DIV SWAP1 POP SWAP2 SWAP1 POP JUMP JUMPDEST PUSH0 DUP3 DUP3 SHL SWAP1 POP SWAP3 SWAP2 POP POP JUMP JUMPDEST PUSH0 PUSH1 0x8 DUP4 MUL PUSH3 0x158 PUSH32 0xFFFFFFFFFFFFFFFFFFFFFFFFFFFFFFFFFFFFFFFFFFFFFFFFFFFFFFFFFFFFFFFF DUP3 PUSH3 0x11B JUMP JUMPDEST PUSH3 0x164 DUP7 DUP4 PUSH3 0x11B JUMP JUMPDEST SWAP6 POP DUP1 NOT DUP5 AND SWAP4 POP DUP1 DUP7 AND DUP5 OR SWAP3 POP POP POP SWAP4 SWAP3 POP POP POP JUMP JUMPDEST PUSH0 DUP2 SWAP1 POP SWAP2 SWAP1 POP JUMP JUMPDEST PUSH0 DUP2 SWAP1 POP SWAP2 SWAP1 POP JUMP JUMPDEST PUSH0 PUSH3 0x1AE PUSH3 0x1A8 PUSH3 0x1A2 DUP5 PUSH3 0x17C JUMP JUMPDEST PUSH3 0x185 JUMP JUMPDEST PUSH3 0x17C JUMP JUMPDEST SWAP1 POP SWAP2 SWAP1 POP JUMP JUMPDEST PUSH0 DUP2 SWAP1 POP SWAP2 SWAP1 POP JUMP JUMPDEST PUSH3 0x1C9 DUP4 PUSH3 0x18E JUMP JUMPDEST PUSH3 0x1E1 PUSH3 0x1D8 DUP3 PUSH3 0x1B5 JUMP JUMPDEST DUP5 DUP5 SLOAD PUSH3 0x127 JUMP JUMPDEST DUP3 SSTORE POP POP POP POP JUMP JUMPDEST PUSH0 SWAP1 JUMP JUMPDEST PUSH3 0x1F7 PUSH3 0x1E9 JUMP JUMPDEST PUSH3 0x204 DUP2 DUP5 DUP5 PUSH3 0x1BE JUMP JUMPDEST POP POP POP JUMP JUMPDEST JUMPDEST DUP2 DUP2 LT ISZERO PUSH3 0x22B JUMPI PUSH3 0x21F PUSH0 DUP3 PUSH3 0x1ED JUMP JUMPDEST PUSH1 0x1 DUP2 ADD SWAP1 POP PUSH3 0x20A JUMP JUMPDEST POP POP JUMP JUMPDEST PUSH1 0x1F DUP3 GT ISZERO PUSH3 0x27A JUMPI PUSH3 0x244 DUP2 PUSH3 0xFA JUMP JUMPDEST PUSH3 0x24F DUP5 PUSH3 0x10C JUMP JUMPDEST DUP2 ADD PUSH1 0x20 DUP6 LT ISZERO PUSH3 0x25F JUMPI DUP2 SWAP1 POP JUMPDEST PUSH3 0x277 PUSH3 0x26E DUP6 PUSH3 0x10C JUMP JUMPDEST DUP4 ADD DUP3 PUSH3 0x209 JUMP JUMPDEST POP POP JUMPDEST POP POP POP JUMP JUMPDEST PUSH0 DUP3 DUP3 SHR SWAP1 POP SWAP3 SWAP2 POP POP JUMP JUMPDEST PUSH0 PUSH3 0x29C PUSH0 NOT DUP5 PUSH1 0x8 MUL PUSH3 0x27F JUMP JUMPDEST NOT DUP1 DUP4 AND SWAP2 POP POP SWAP3 SWAP2 POP POP JUMP JUMPDEST PUSH0 PUSH3 0x2B6 DUP4 DUP4 PUSH3 0x28B JUMP JUMPDEST SWAP2 POP DUP3 PUSH1 0x2 MUL DUP3 OR SWAP1 POP SWAP3 SWAP2 POP POP JUMP JUMPDEST PUSH3 0x2D1 DUP3 PUSH3 0x62 JUMP JUMPDEST PUSH8 0xFFFFFFFFFFFFFFFF DUP2 GT ISZERO PUSH3 0x2ED JUMPI PUSH3 0x2EC PUSH3 0x6C JUMP JUMPDEST JUMPDEST PUSH3 0x2F9 DUP3 SLOAD PUSH3 0xC6 JUMP JUMPDEST PUSH3 0x306 DUP3 DUP3 DUP6 PUSH3 0x22F JUMP JUMPDEST PUSH0 PUSH1 0x20 SWAP1 POP PUSH1 0x1F DUP4 GT PUSH1 0x1 DUP2 EQ PUSH3 0x33C JUMPI PUSH0 DUP5 ISZERO PUSH3 0x327 JUMPI DUP3 DUP8 ADD MLOAD SWAP1 POP JUMPDEST PUSH3 0x333 DUP6 DUP3 PUSH3 0x2A9 JUMP JUMPDEST DUP7 SSTORE POP PUSH3 0x3A2 JUMP JUMPDEST PUSH1 0x1F NOT DUP5 AND PUSH3 0x34C DUP7 PUSH3 0xFA JUMP JUMPDEST PUSH0 JUMPDEST DUP3 DUP2 LT ISZERO PUSH3 0x375 JUMPI DUP5 DUP10 ADD MLOAD DUP3 SSTORE PUSH1 0x1 DUP3 ADD SWAP2 POP PUSH1 0x20 DUP6 ADD SWAP5 POP PUSH1 0x20 DUP2 ADD SWAP1 POP PUSH3 0x34E JUMP JUMPDEST DUP7 DUP4 LT ISZERO PUSH3 0x395 JUMPI DUP5 DUP10 ADD MLOAD PUSH3 0x391 PUSH1 0x1F DUP10 AND DUP3 PUSH3 0x28B JUMP JUMPDEST DUP4 SSTORE POP JUMPDEST PUSH1 0x1 PUSH1 0x2 DUP9 MUL ADD DUP9 SSTORE POP POP POP JUMPDEST POP POP POP POP POP POP JUMP JUMPDEST PUSH2 0x581 DUP1 PUSH3 0x3B8 PUSH0 CODECOPY PUSH0 RETURN INVALID PUSH1 0x80 PUSH1 0x40 MSTORE CALLVALUE DUP1 ISZERO PUSH2 0xF JUMPI PUSH0 DUP1 REVERT JUMPDEST POP PUSH1 0x4 CALLDATASIZE LT PUSH2 0x86 JUMPI PUSH0 CALLDATALOAD PUSH1 0xE0 SHR DUP1 PUSH4 0x79697ECC GT PUSH2 0x59 JUMPI DUP1 PUSH4 0x79697ECC EQ PUSH2 0x114 JUMPI DUP1 PUSH4 0xCC80F6F3 EQ PUSH2 0x132 JUMPI DUP1 PUSH4 0xD100532E EQ PUSH2 0x150 JUMPI DUP1 PUSH4 0xEF5FB05B EQ PUSH2 0x16E JUMPI PUSH2 0x86 JUMP JUMPDEST DUP1 PUSH4 0x1003E2D2 EQ PUSH2 0x8A JUMPI DUP1 PUSH4 0x148BC9E2 EQ PUSH2 0xBA JUMPI DUP1 PUSH4 0x20D6E703 EQ PUSH2 0xD8 JUMPI DUP1 PUSH4 0x513E18CE EQ PUSH2 0xF6 JUMPI JUMPDEST PUSH0 DUP1 REVERT JUMPDEST PUSH2 0xA4 PUSH1 0x4 DUP1 CALLDATASIZE SUB DUP2 ADD SWAP1 PUSH2 0x9F SWAP2 SWAP1 PUSH2 0x391 JUMP JUMPDEST PUSH2 0x18C JUMP JUMPDEST PUSH1 0x40 MLOAD PUSH2 0xB1 SWAP2 SWAP1 PUSH2 0x3CB JUMP JUMPDEST PUSH1 0x40 MLOAD DUP1 SWAP2 SUB SWAP1 RETURN JUMPDEST PUSH2 0xC2 PUSH2 0x1A2 JUMP JUMPDEST PUSH1 0x40 MLOAD PUSH2 0xCF SWAP2 SWAP1 PUSH2 0x46E JUMP JUMPDEST PUSH1 0x40 MLOAD DUP1 SWAP2 SUB SWAP1 RETURN JUMPDEST PUSH2 0xE0 PUSH2 0x1B1 JUMP JUMPDEST PUSH1 0x40 MLOAD PUSH2 0xED SWAP2 SWAP1 PUSH2 0x46E JUMP JUMPDEST PUSH1 0x40 MLOAD DUP1 SWAP2 SUB SWAP1 RETURN JUMPDEST PUSH2 0xFE PUSH2 0x1C0 JUMP JUMPDEST PUSH1 0x40 MLOAD PUSH2 0x10B SWAP2 SWAP1 PUSH2 0x46E JUMP JUMPDEST PUSH1 0x40 MLOAD DUP1 SWAP2 SUB SWAP1 RETURN JUMPDEST PUSH2 0x11C PUSH2 0x1CF JUMP JUMPDEST PUSH1 0x40 MLOAD PUSH2 0x129 SWAP2 SWAP1 PUSH2 0x46E JUMP JUMPDEST PUSH1 0x40 MLOAD DUP1 SWAP2 SUB SWAP1 RETURN JUMPDEST PUSH2 0x13A PUSH2 0x20C JUMP JUMPDEST PUSH1 0x40 MLOAD PUSH2 0x147 SWAP2 SWAP1 PUSH2 0x46E JUMP JUMPDEST PUSH1 0x40 MLOAD DUP1 SWAP2 SUB SWAP1 RETURN JUMPDEST PUSH2 0x158 PUSH2 0x24E JUMP JUMPDEST PUSH1 0x40 MLOAD PUSH2 0x165 SWAP2 SWAP1 PUSH2 0x3CB JUMP JUMPDEST PUSH1 0x40 MLOAD DUP1 SWAP2 SUB SWAP1 RETURN JUMPDEST PUSH2 0x176 PUSH2 0x255 JUMP JUMPDEST PUSH1 0x40 MLOAD PUSH2 0x183 SWAP2 SWAP1 PUSH2 0x46E JUMP JUMPDEST PUSH1 0x40 MLOAD DUP1 SWAP2 SUB SWAP1 RETURN JUMPDEST PUSH0 DUP2 PUSH1 0x1 SLOAD PUSH2 0x19B SWAP2 SWAP1 PUSH2 0x4BB JUMP JUMPDEST SWAP1 POP SWAP2 SWAP1 POP JUMP JUMPDEST PUSH1 0x60 PUSH2 0x1AC PUSH2 0x1CF JUMP JUMPDEST SWAP1 POP SWAP1 JUMP JUMPDEST PUSH1 0x60 PUSH2 0x1BB PUSH2 0x2E0 JUMP JUMPDEST SWAP1 POP SWAP1 JUMP JUMPDEST PUSH1 0x60 PUSH2 0x1CA PUSH2 0x31D JUMP JUMPDEST SWAP1 POP SWAP1 JUMP JUMPDEST PUSH1 0x60 PUSH1 0x40 MLOAD DUP1 PUSH1 0x40 ADD PUSH1 0x40 MSTORE DUP1 PUSH1 0xF DUP2 MSTORE PUSH1 0x20 ADD PUSH32 0x5075626C69632046756E6374696F6E0000000000000000000000000000000000 DUP2 MSTORE POP SWAP1 POP SWAP1 JUMP JUMPDEST PUSH1 0x60 PUSH0 PUSH1 0x40 MLOAD DUP1 PUSH1 0x40 ADD PUSH1 0x40 MSTORE DUP1 PUSH1 0xF DUP2 MSTORE PUSH1 0x20 ADD PUSH32 0x4D79204C6F63616C20537472696E670000000000000000000000000000000000 DUP2 MSTORE POP SWAP1 POP DUP1 SWAP2 POP POP SWAP1 JUMP JUMPDEST PUSH0 NUMBER SWAP1 POP SWAP1 JUMP JUMPDEST PUSH0 DUP1 SLOAD PUSH2 0x261 SWAP1 PUSH2 0x51B JUMP JUMPDEST DUP1 PUSH1 0x1F ADD PUSH1 0x20 DUP1 SWAP2 DIV MUL PUSH1 0x20 ADD PUSH1 0x40 MLOAD SWAP1 DUP2 ADD PUSH1 0x40 MSTORE DUP1 SWAP3 SWAP2 SWAP1 DUP2 DUP2 MSTORE PUSH1 0x20 ADD DUP3 DUP1 SLOAD PUSH2 0x28D SWAP1 PUSH2 0x51B JUMP JUMPDEST DUP1 ISZERO PUSH2 0x2D8 JUMPI DUP1 PUSH1 0x1F LT PUSH2 0x2AF JUMPI PUSH2 0x100 DUP1 DUP4 SLOAD DIV MUL DUP4 MSTORE SWAP2 PUSH1 0x20 ADD SWAP2 PUSH2 0x2D8 JUMP JUMPDEST DUP3 ADD SWAP2 SWAP1 PUSH0 MSTORE PUSH1 0x20 PUSH0 KECCAK256 SWAP1 JUMPDEST DUP2 SLOAD DUP2 MSTORE SWAP1 PUSH1 0x1 ADD SWAP1 PUSH1 0x20 ADD DUP1 DUP4 GT PUSH2 0x2BB JUMPI DUP3 SWAP1 SUB PUSH1 0x1F AND DUP3 ADD SWAP2 JUMPDEST POP POP POP POP POP DUP2 JUMP JUMPDEST PUSH1 0x60 PUSH1 0x40 MLOAD DUP1 PUSH1 0x40 ADD PUSH1 0x40 MSTORE DUP1 PUSH1 0x11 DUP2 MSTORE PUSH1 0x20 ADD PUSH32 0x496E7465726E616C2046756E6374696F6E000000000000000000000000000000 DUP2 MSTORE POP SWAP1 POP SWAP1 JUMP JUMPDEST PUSH1 0x60 PUSH1 0x40 MLOAD DUP1 PUSH1 0x40 ADD PUSH1 0x40 MSTORE DUP1 PUSH1 0x10 DUP2 MSTORE PUSH1 0x20 ADD PUSH32 0x507269766174652066756E6374696F6E00000000000000000000000000000000 DUP2 MSTORE POP SWAP1 POP SWAP1 JUMP JUMPDEST PUSH0 DUP1 REVERT JUMPDEST PUSH0 DUP2 SWAP1 POP SWAP2 SWAP1 POP JUMP JUMPDEST PUSH2 0x370 DUP2 PUSH2 0x35E JUMP JUMPDEST DUP2 EQ PUSH2 0x37A JUMPI PUSH0 DUP1 REVERT JUMPDEST POP JUMP JUMPDEST PUSH0 DUP2 CALLDATALOAD SWAP1 POP PUSH2 0x38B DUP2 PUSH2 0x367 JUMP JUMPDEST SWAP3 SWAP2 POP POP JUMP JUMPDEST PUSH0 PUSH1 0x20 DUP3 DUP5 SUB SLT ISZERO PUSH2 0x3A6 JUMPI PUSH2 0x3A5 PUSH2 0x35A JUMP JUMPDEST JUMPDEST PUSH0 PUSH2 0x3B3 DUP5 DUP3 DUP6 ADD PUSH2 0x37D JUMP JUMPDEST SWAP2 POP POP SWAP3 SWAP2 POP POP JUMP JUMPDEST PUSH2 0x3C5 DUP2 PUSH2 0x35E JUMP JUMPDEST DUP3 MSTORE POP POP JUMP JUMPDEST PUSH0 PUSH1 0x20 DUP3 ADD SWAP1 POP PUSH2 0x3DE PUSH0 DUP4 ADD DUP5 PUSH2 0x3BC JUMP JUMPDEST SWAP3 SWAP2 POP POP JUMP JUMPDEST PUSH0 DUP2 MLOAD SWAP1 POP SWAP2 SWAP1 POP JUMP JUMPDEST PUSH0 DUP3 DUP3 MSTORE PUSH1 0x20 DUP3 ADD SWAP1 POP SWAP3 SWAP2 POP POP JUMP JUMPDEST PUSH0 JUMPDEST DUP4 DUP2 LT ISZERO PUSH2 0x41B JUMPI DUP1 DUP3 ADD MLOAD DUP2 DUP5 ADD MSTORE PUSH1 0x20 DUP2 ADD SWAP1 POP PUSH2 0x400 JUMP JUMPDEST PUSH0 DUP5 DUP5 ADD MSTORE POP POP POP POP JUMP JUMPDEST PUSH0 PUSH1 0x1F NOT PUSH1 0x1F DUP4 ADD AND SWAP1 POP SWAP2 SWAP1 POP JUMP JUMPDEST PUSH0 PUSH2 0x440 DUP3 PUSH2 0x3E4 JUMP JUMPDEST PUSH2 0x44A DUP2 DUP6 PUSH2 0x3EE JUMP JUMPDEST SWAP4 POP PUSH2 0x45A DUP2 DUP6 PUSH1 0x20 DUP7 ADD PUSH2 0x3FE JUMP JUMPDEST PUSH2 0x463 DUP2 PUSH2 0x426 JUMP JUMPDEST DUP5 ADD SWAP2 POP POP SWAP3 SWAP2 POP POP JUMP JUMPDEST PUSH0 PUSH1 0x20 DUP3 ADD SWAP1 POP DUP2 DUP2 SUB PUSH0 DUP4 ADD MSTORE PUSH2 0x486 DUP2 DUP5 PUSH2 0x436 JUMP JUMPDEST SWAP1 POP SWAP3 SWAP2 POP POP JUMP JUMPDEST PUSH32 0x4E487B7100000000000000000000000000000000000000000000000000000000 PUSH0 MSTORE PUSH1 0x11 PUSH1 0x4 MSTORE PUSH1 0x24 PUSH0 REVERT JUMPDEST PUSH0 PUSH2 0x4C5 DUP3 PUSH2 0x35E JUMP JUMPDEST SWAP2 POP PUSH2 0x4D0 DUP4 PUSH2 0x35E JUMP JUMPDEST SWAP3 POP DUP3 DUP3 ADD SWAP1 POP DUP1 DUP3 GT ISZERO PUSH2 0x4E8 JUMPI PUSH2 0x4E7 PUSH2 0x48E JUMP JUMPDEST JUMPDEST SWAP3 SWAP2 POP POP JUMP JUMPDEST PUSH32 0x4E487B7100000000000000000000000000000000000000000000000000000000 PUSH0 MSTORE PUSH1 0x22 PUSH1 0x4 MSTORE PUSH1 0x24 PUSH0 REVERT JUMPDEST PUSH0 PUSH1 0x2 DUP3 DIV SWAP1 POP PUSH1 0x1 DUP3 AND DUP1 PUSH2 0x532 JUMPI PUSH1 0x7F DUP3 AND SWAP2 POP JUMPDEST PUSH1 0x20 DUP3 LT DUP2 SUB PUSH2 0x545 JUMPI PUSH2 0x544 PUSH2 0x4EE JUMP JUMPDEST JUMPDEST POP SWAP2 SWAP1 POP JUMP INVALID LOG2 PUSH5 0x6970667358 0x22 SLT KECCAK256 0x2C 0x29 PUSH26 0x1BC4215835E7169C040C50C71481F797AEF596AD9DB8C57B148 SWAP8 PUSH30 0x6464736F6C63430008180033000000000000000000000000000000000000 "
		},
		"gasEstimates": {
			"creation": {
				"codeDepositCost": "281800",
				"executionCost": "infinite",
				"totalCost": "infinite"
			},
			"external": {
				"add(uint256)": "infinite",
				"callInternalKeyword()": "infinite",
				"callPrivateKeyword()": "infinite",
				"callPublicKeyword()": "infinite",
				"publicKeyword()": "infinite",
				"sayHello()": "infinite",
				"show()": "infinite",
				"showBlockNumber()": "375"
			},
			"internal": {
				"internalKeyword()": "infinite",
				"privateKeyword()": "infinite"
			}
		},
		"methodIdentifiers": {
			"add(uint256)": "1003e2d2",
			"callInternalKeyword()": "20d6e703",
			"callPrivateKeyword()": "513e18ce",
			"callPublicKeyword()": "148bc9e2",
			"publicKeyword()": "79697ecc",
			"sayHello()": "ef5fb05b",
			"show()": "cc80f6f3",
			"showBlockNumber()": "d100532e"
		}
	},
	"abi": [
		{
			"inputs": [
				{
					"internalType": "uint256",
					"name": "y",
					"type": "uint256"
				}
			],
			"name": "add",
			"outputs": [
				{
					"internalType": "uint256",
					"name": "",
					"type": "uint256"
				}
			],
			"stateMutability": "view",
			"type": "function"
		},
		{
			"inputs": [],
			"name": "callInternalKeyword",
			"outputs": [
				{
					"internalType": "string",
					"name": "",
					"type": "string"
				}
			],
			"stateMutability": "pure",
			"type": "function"
		},
		{
			"inputs": [],
			"name": "callPrivateKeyword",
			"outputs": [
				{
					"internalType": "string",
					"name": "",
					"type": "string"
				}
			],
			"stateMutability": "pure",
			"type": "function"
		},
		{
			"inputs": [],
			"name": "callPublicKeyword",
			"outputs": [
				{
					"internalType": "string",
					"name": "",
					"type": "string"
				}
			],
			"stateMutability": "pure",
			"type": "function"
		},
		{
			"inputs": [],
			"name": "publicKeyword",
			"outputs": [
				{
					"internalType": "string",
					"name": "",
					"type": "string"
				}
			],
			"stateMutability": "pure",
			"type": "function"
		},
		{
			"inputs": [],
			"name": "sayHello",
			"outputs": [
				{
					"internalType": "string",
					"name": "",
					"type": "string"
				}
			],
			"stateMutability": "view",
			"type": "function"
		},
		{
			"inputs": [],
			"name": "show",
			"outputs": [
				{
					"internalType": "string",
					"name": "",
					"type": "string"
				}
			],
			"stateMutability": "pure",
			"type": "function"
		},
		{
			"inputs": [],
			"name": "showBlockNumber",
			"outputs": [
				{
					"internalType": "uint256",
					"name": "",
					"type": "uint256"
				}
			],
			"stateMutability": "view",
			"type": "function"
		}
	]
}