{
	"data": {
		"bytecode": {
			"linkReferences": {},
			"object": "60806040525f80555f600155348015610016575f80fd5b50610820806100245f395ff3fe608060405260043610610042575f3560e01c80631da5772d1461005b5780632ddbd13a14610085578063aa2c4b02146100af578063c87b285a146100d957610043565b5b60015f81548092919061005590610214565b91905055005b348015610066575f80fd5b5061006f610115565b60405161007c91906102e5565b60405180910390f35b348015610090575f80fd5b506100996101a1565b6040516100a69190610314565b60405180910390f35b3480156100ba575f80fd5b506100c36101a6565b6040516100d09190610314565b60405180910390f35b3480156100e4575f80fd5b506100ff60048036038101906100fa9190610494565b6101ac565b60405161010c9190610314565b60405180910390f35b600280546101229061051b565b80601f016020809104026020016040519081016040528092919081815260200182805461014e9061051b565b80156101995780601f1061017057610100808354040283529160200191610199565b820191905f5260205f20905b81548152906001019060200180831161017c57829003601f168201915b505050505081565b5f5481565b60015481565b5f825f808282546101bd919061054b565b9250508190555081600290816101d3919061071b565b505f54905092915050565b7f4e487b71000000000000000000000000000000000000000000000000000000005f52601160045260245ffd5b5f819050919050565b5f61021e8261020b565b91507fffffffffffffffffffffffffffffffffffffffffffffffffffffffffffffffff82036102505761024f6101de565b5b600182019050919050565b5f81519050919050565b5f82825260208201905092915050565b5f5b83811015610292578082015181840152602081019050610277565b5f8484015250505050565b5f601f19601f8301169050919050565b5f6102b78261025b565b6102c18185610265565b93506102d1818560208601610275565b6102da8161029d565b840191505092915050565b5f6020820190508181035f8301526102fd81846102ad565b905092915050565b61030e8161020b565b82525050565b5f6020820190506103275f830184610305565b92915050565b5f604051905090565b5f80fd5b5f80fd5b6103478161020b565b8114610351575f80fd5b50565b5f813590506103628161033e565b92915050565b5f80fd5b5f80fd5b7f4e487b71000000000000000000000000000000000000000000000000000000005f52604160045260245ffd5b6103a68261029d565b810181811067ffffffffffffffff821117156103c5576103c4610370565b5b80604052505050565b5f6103d761032d565b90506103e3828261039d565b919050565b5f67ffffffffffffffff82111561040257610401610370565b5b61040b8261029d565b9050602081019050919050565b828183375f83830152505050565b5f610438610433846103e8565b6103ce565b9050828152602081018484840111156104545761045361036c565b5b61045f848285610418565b509392505050565b5f82601f83011261047b5761047a610368565b5b813561048b848260208601610426565b91505092915050565b5f80604083850312156104aa576104a9610336565b5b5f6104b785828601610354565b925050602083013567ffffffffffffffff8111156104d8576104d761033a565b5b6104e485828601610467565b9150509250929050565b7f4e487b71000000000000000000000000000000000000000000000000000000005f52602260045260245ffd5b5f600282049050600182168061053257607f821691505b602082108103610545576105446104ee565b5b50919050565b5f6105558261020b565b91506105608361020b565b9250828201905080821115610578576105776101de565b5b92915050565b5f819050815f5260205f209050919050565b5f6020601f8301049050919050565b5f82821b905092915050565b5f600883026105da7fffffffffffffffffffffffffffffffffffffffffffffffffffffffffffffffff8261059f565b6105e4868361059f565b95508019841693508086168417925050509392505050565b5f819050919050565b5f61061f61061a6106158461020b565b6105fc565b61020b565b9050919050565b5f819050919050565b61063883610605565b61064c61064482610626565b8484546105ab565b825550505050565b5f90565b610660610654565b61066b81848461062f565b505050565b5b8181101561068e576106835f82610658565b600181019050610671565b5050565b601f8211156106d3576106a48161057e565b6106ad84610590565b810160208510156106bc578190505b6106d06106c885610590565b830182610670565b50505b505050565b5f82821c905092915050565b5f6106f35f19846008026106d8565b1980831691505092915050565b5f61070b83836106e4565b9150826002028217905092915050565b6107248261025b565b67ffffffffffffffff81111561073d5761073c610370565b5b610747825461051b565b610752828285610692565b5f60209050601f831160018114610783575f8415610771578287015190505b61077b8582610700565b8655506107e2565b601f1984166107918661057e565b5f5b828110156107b857848901518255600182019150602085019450602081019050610793565b868310156107d557848901516107d1601f8916826106e4565b8355505b6001600288020188555050505b50505050505056fea26469706673582212209aff967b81631af7d95159536c541fc1931e6342a770f3184e38b6a1ed57446264736f6c63430008180033",
			"opcodes": "PUSH1 0x80 PUSH1 0x40 MSTORE PUSH0 DUP1 SSTORE PUSH0 PUSH1 0x1 SSTORE CALLVALUE DUP1 ISZERO PUSH2 0x16 JUMPI PUSH0 DUP1 REVERT JUMPDEST POP PUSH2 0x820 DUP1 PUSH2 0x24 PUSH0 CODECOPY PUSH0 RETURN INVALID PUSH1 0x80 PUSH1 0x40 MSTORE PUSH1 0x4 CALLDATASIZE LT PUSH2 0x42 JUMPI PUSH0 CALLDATALOAD PUSH1 0xE0 SHR DUP1 PUSH4 0x1DA5772D EQ PUSH2 0x5B JUMPI DUP1 PUSH4 0x2DDBD13A EQ PUSH2 0x85 JUMPI DUP1 PUSH4 0xAA2C4B02 EQ PUSH2 0xAF JUMPI DUP1 PUSH4 0xC87B285A EQ PUSH2 0xD9 JUMPI PUSH2 0x43 JUMP JUMPDEST JUMPDEST PUSH1 0x1 PUSH0 DUP2 SLOAD DUP1 SWAP3 SWAP2 SWAP1 PUSH2 0x55 SWAP1 PUSH2 0x214 JUMP JUMPDEST SWAP2 SWAP1 POP SSTORE STOP JUMPDEST CALLVALUE DUP1 ISZERO PUSH2 0x66 JUMPI PUSH0 DUP1 REVERT JUMPDEST POP PUSH2 0x6F PUSH2 0x115 JUMP JUMPDEST PUSH1 0x40 MLOAD PUSH2 0x7C SWAP2 SWAP1 PUSH2 0x2E5 JUMP JUMPDEST PUSH1 0x40 MLOAD DUP1 SWAP2 SUB SWAP1 RETURN JUMPDEST CALLVALUE DUP1 ISZERO PUSH2 0x90 JUMPI PUSH0 DUP1 REVERT JUMPDEST POP PUSH2 0x99 PUSH2 0x1A1 JUMP JUMPDEST PUSH1 0x40 MLOAD PUSH2 0xA6 SWAP2 SWAP1 PUSH2 0x314 JUMP JUMPDEST PUSH1 0x40 MLOAD DUP1 SWAP2 SUB SWAP1 RETURN JUMPDEST CALLVALUE DUP1 ISZERO PUSH2 0xBA JUMPI PUSH0 DUP1 REVERT JUMPDEST POP PUSH2 0xC3 PUSH2 0x1A6 JUMP JUMPDEST PUSH1 0x40 MLOAD PUSH2 0xD0 SWAP2 SWAP1 PUSH2 0x314 JUMP JUMPDEST PUSH1 0x40 MLOAD DUP1 SWAP2 SUB SWAP1 RETURN JUMPDEST CALLVALUE DUP1 ISZERO PUSH2 0xE4 JUMPI PUSH0 DUP1 REVERT JUMPDEST POP PUSH2 0xFF PUSH1 0x4 DUP1 CALLDATASIZE SUB DUP2 ADD SWAP1 PUSH2 0xFA SWAP2 SWAP1 PUSH2 0x494 JUMP JUMPDEST PUSH2 0x1AC JUMP JUMPDEST PUSH1 0x40 MLOAD PUSH2 0x10C SWAP2 SWAP1 PUSH2 0x314 JUMP JUMPDEST PUSH1 0x40 MLOAD DUP1 SWAP2 SUB SWAP1 RETURN JUMPDEST PUSH1 0x2 DUP1 SLOAD PUSH2 0x122 SWAP1 PUSH2 0x51B JUMP JUMPDEST DUP1 PUSH1 0x1F ADD PUSH1 0x20 DUP1 SWAP2 DIV MUL PUSH1 0x20 ADD PUSH1 0x40 MLOAD SWAP1 DUP2 ADD PUSH1 0x40 MSTORE DUP1 SWAP3 SWAP2 SWAP1 DUP2 DUP2 MSTORE PUSH1 0x20 ADD DUP3 DUP1 SLOAD PUSH2 0x14E SWAP1 PUSH2 0x51B JUMP JUMPDEST DUP1 ISZERO PUSH2 0x199 JUMPI DUP1 PUSH1 0x1F LT PUSH2 0x170 JUMPI PUSH2 0x100 DUP1 DUP4 SLOAD DIV MUL DUP4 MSTORE SWAP2 PUSH1 0x20 ADD SWAP2 PUSH2 0x199 JUMP JUMPDEST DUP3 ADD SWAP2 SWAP1 PUSH0 MSTORE PUSH1 0x20 PUSH0 KECCAK256 SWAP1 JUMPDEST DUP2 SLOAD DUP2 MSTORE SWAP1 PUSH1 0x1 ADD SWAP1 PUSH1 0x20 ADD DUP1 DUP4 GT PUSH2 0x17C JUMPI DUP3 SWAP1 SUB PUSH1 0x1F AND DUP3 ADD SWAP2 JUMPDEST POP POP POP POP POP DUP2 JUMP JUMPDEST PUSH0 SLOAD DUP2 JUMP JUMPDEST PUSH1 0x1 SLOAD DUP2 JUMP JUMPDEST PUSH0 DUP3 PUSH0 DUP1 DUP3 DUP3 SLOAD PUSH2 0x1BD SWAP2 SWAP1 PUSH2 0x54B JUMP JUMPDEST SWAP3 POP POP DUP2 SWAP1 SSTORE POP DUP2 PUSH1 0x2 SWAP1 DUP2 PUSH2 0x1D3 SWAP2 SWAP1 PUSH2 0x71B JUMP JUMPDEST POP PUSH0 SLOAD SWAP1 POP SWAP3 SWAP2 POP POP JUMP JUMPDEST PUSH32 0x4E487B7100000000000000000000000000000000000000000000000000000000 PUSH0 MSTORE PUSH1 0x11 PUSH1 0x4 MSTORE PUSH1 0x24 PUSH0 REVERT JUMPDEST PUSH0 DUP2 SWAP1 POP SWAP2 SWAP1 POP JUMP JUMPDEST PUSH0 PUSH2 0x21E DUP3 PUSH2 0x20B JUMP JUMPDEST SWAP2 POP PUSH32 0xFFFFFFFFFFFFFFFFFFFFFFFFFFFFFFFFFFFFFFFFFFFFFFFFFFFFFFFFFFFFFFFF DUP3 SUB PUSH2 0x250 JUMPI PUSH2 0x24F PUSH2 0x1DE JUMP JUMPDEST JUMPDEST PUSH1 0x1 DUP3 ADD SWAP1 POP SWAP2 SWAP1 POP JUMP JUMPDEST PUSH0 DUP2 MLOAD SWAP1 POP SWAP2 SWAP1 POP JUMP JUMPDEST PUSH0 DUP3 DUP3 MSTORE PUSH1 0x20 DUP3 ADD SWAP1 POP SWAP3 SWAP2 POP POP JUMP JUMPDEST PUSH0 JUMPDEST DUP4 DUP2 LT ISZERO PUSH2 0x292 JUMPI DUP1 DUP3 ADD MLOAD DUP2 DUP5 ADD MSTORE PUSH1 0x20 DUP2 ADD SWAP1 POP PUSH2 0x277 JUMP JUMPDEST PUSH0 DUP5 DUP5 ADD MSTORE POP POP POP POP JUMP JUMPDEST PUSH0 PUSH1 0x1F NOT PUSH1 0x1F DUP4 ADD AND SWAP1 POP SWAP2 SWAP1 POP JUMP JUMPDEST PUSH0 PUSH2 0x2B7 DUP3 PUSH2 0x25B JUMP JUMPDEST PUSH2 0x2C1 DUP2 DUP6 PUSH2 0x265 JUMP JUMPDEST SWAP4 POP PUSH2 0x2D1 DUP2 DUP6 PUSH1 0x20 DUP7 ADD PUSH2 0x275 JUMP JUMPDEST PUSH2 0x2DA DUP2 PUSH2 0x29D JUMP JUMPDEST DUP5 ADD SWAP2 POP POP SWAP3 SWAP2 POP POP JUMP JUMPDEST PUSH0 PUSH1 0x20 DUP3 ADD SWAP1 POP DUP2 DUP2 SUB PUSH0 DUP4 ADD MSTORE PUSH2 0x2FD DUP2 DUP5 PUSH2 0x2AD JUMP JUMPDEST SWAP1 POP SWAP3 SWAP2 POP POP JUMP JUMPDEST PUSH2 0x30E DUP2 PUSH2 0x20B JUMP JUMPDEST DUP3 MSTORE POP POP JUMP JUMPDEST PUSH0 PUSH1 0x20 DUP3 ADD SWAP1 POP PUSH2 0x327 PUSH0 DUP4 ADD DUP5 PUSH2 0x305 JUMP JUMPDEST SWAP3 SWAP2 POP POP JUMP JUMPDEST PUSH0 PUSH1 0x40 MLOAD SWAP1 POP SWAP1 JUMP JUMPDEST PUSH0 DUP1 REVERT JUMPDEST PUSH0 DUP1 REVERT JUMPDEST PUSH2 0x347 DUP2 PUSH2 0x20B JUMP JUMPDEST DUP2 EQ PUSH2 0x351 JUMPI PUSH0 DUP1 REVERT JUMPDEST POP JUMP JUMPDEST PUSH0 DUP2 CALLDATALOAD SWAP1 POP PUSH2 0x362 DUP2 PUSH2 0x33E JUMP JUMPDEST SWAP3 SWAP2 POP POP JUMP JUMPDEST PUSH0 DUP1 REVERT JUMPDEST PUSH0 DUP1 REVERT JUMPDEST PUSH32 0x4E487B7100000000000000000000000000000000000000000000000000000000 PUSH0 MSTORE PUSH1 0x41 PUSH1 0x4 MSTORE PUSH1 0x24 PUSH0 REVERT JUMPDEST PUSH2 0x3A6 DUP3 PUSH2 0x29D JUMP JUMPDEST DUP2 ADD DUP2 DUP2 LT PUSH8 0xFFFFFFFFFFFFFFFF DUP3 GT OR ISZERO PUSH2 0x3C5 JUMPI PUSH2 0x3C4 PUSH2 0x370 JUMP JUMPDEST JUMPDEST DUP1 PUSH1 0x40 MSTORE POP POP POP JUMP JUMPDEST PUSH0 PUSH2 0x3D7 PUSH2 0x32D JUMP JUMPDEST SWAP1 POP PUSH2 0x3E3 DUP3 DUP3 PUSH2 0x39D JUMP JUMPDEST SWAP2 SWAP1 POP JUMP JUMPDEST PUSH0 PUSH8 0xFFFFFFFFFFFFFFFF DUP3 GT ISZERO PUSH2 0x402 JUMPI PUSH2 0x401 PUSH2 0x370 JUMP JUMPDEST JUMPDEST PUSH2 0x40B DUP3 PUSH2 0x29D JUMP JUMPDEST SWAP1 POP PUSH1 0x20 DUP2 ADD SWAP1 POP SWAP2 SWAP1 POP JUMP JUMPDEST DUP3 DUP2 DUP4 CALLDATACOPY PUSH0 DUP4 DUP4 ADD MSTORE POP POP POP JUMP JUMPDEST PUSH0 PUSH2 0x438 PUSH2 0x433 DUP5 PUSH2 0x3E8 JUMP JUMPDEST PUSH2 0x3CE JUMP JUMPDEST SWAP1 POP DUP3 DUP2 MSTORE PUSH1 0x20 DUP2 ADD DUP5 DUP5 DUP5 ADD GT ISZERO PUSH2 0x454 JUMPI PUSH2 0x453 PUSH2 0x36C JUMP JUMPDEST JUMPDEST PUSH2 0x45F DUP5 DUP3 DUP6 PUSH2 0x418 JUMP JUMPDEST POP SWAP4 SWAP3 POP POP POP JUMP JUMPDEST PUSH0 DUP3 PUSH1 0x1F DUP4 ADD SLT PUSH2 0x47B JUMPI PUSH2 0x47A PUSH2 0x368 JUMP JUMPDEST JUMPDEST DUP2 CALLDATALOAD PUSH2 0x48B DUP5 DUP3 PUSH1 0x20 DUP7 ADD PUSH2 0x426 JUMP JUMPDEST SWAP2 POP POP SWAP3 SWAP2 POP POP JUMP JUMPDEST PUSH0 DUP1 PUSH1 0x40 DUP4 DUP6 SUB SLT ISZERO PUSH2 0x4AA JUMPI PUSH2 0x4A9 PUSH2 0x336 JUMP JUMPDEST JUMPDEST PUSH0 PUSH2 0x4B7 DUP6 DUP3 DUP7 ADD PUSH2 0x354 JUMP JUMPDEST SWAP3 POP POP PUSH1 0x20 DUP4 ADD CALLDATALOAD PUSH8 0xFFFFFFFFFFFFFFFF DUP2 GT ISZERO PUSH2 0x4D8 JUMPI PUSH2 0x4D7 PUSH2 0x33A JUMP JUMPDEST JUMPDEST PUSH2 0x4E4 DUP6 DUP3 DUP7 ADD PUSH2 0x467 JUMP JUMPDEST SWAP2 POP POP SWAP3 POP SWAP3 SWAP1 POP JUMP JUMPDEST PUSH32 0x4E487B7100000000000000000000000000000000000000000000000000000000 PUSH0 MSTORE PUSH1 0x22 PUSH1 0x4 MSTORE PUSH1 0x24 PUSH0 REVERT JUMPDEST PUSH0 PUSH1 0x2 DUP3 DIV SWAP1 POP PUSH1 0x1 DUP3 AND DUP1 PUSH2 0x532 JUMPI PUSH1 0x7F DUP3 AND SWAP2 POP JUMPDEST PUSH1 0x20 DUP3 LT DUP2 SUB PUSH2 0x545 JUMPI PUSH2 0x544 PUSH2 0x4EE JUMP JUMPDEST JUMPDEST POP SWAP2 SWAP1 POP JUMP JUMPDEST PUSH0 PUSH2 0x555 DUP3 PUSH2 0x20B JUMP JUMPDEST SWAP2 POP PUSH2 0x560 DUP4 PUSH2 0x20B JUMP JUMPDEST SWAP3 POP DUP3 DUP3 ADD SWAP1 POP DUP1 DUP3 GT ISZERO PUSH2 0x578 JUMPI PUSH2 0x577 PUSH2 0x1DE JUMP JUMPDEST JUMPDEST SWAP3 SWAP2 POP POP JUMP JUMPDEST PUSH0 DUP2 SWAP1 POP DUP2 PUSH0 MSTORE PUSH1 0x20 PUSH0 KECCAK256 SWAP1 POP SWAP2 SWAP1 POP JUMP JUMPDEST PUSH0 PUSH1 0x20 PUSH1 0x1F DUP4 ADD DIV SWAP1 POP SWAP2 SWAP1 POP JUMP JUMPDEST PUSH0 DUP3 DUP3 SHL SWAP1 POP SWAP3 SWAP2 POP POP JUMP JUMPDEST PUSH0 PUSH1 0x8 DUP4 MUL PUSH2 0x5DA PUSH32 0xFFFFFFFFFFFFFFFFFFFFFFFFFFFFFFFFFFFFFFFFFFFFFFFFFFFFFFFFFFFFFFFF DUP3 PUSH2 0x59F JUMP JUMPDEST PUSH2 0x5E4 DUP7 DUP4 PUSH2 0x59F JUMP JUMPDEST SWAP6 POP DUP1 NOT DUP5 AND SWAP4 POP DUP1 DUP7 AND DUP5 OR SWAP3 POP POP POP SWAP4 SWAP3 POP POP POP JUMP JUMPDEST PUSH0 DUP2 SWAP1 POP SWAP2 SWAP1 POP JUMP JUMPDEST PUSH0 PUSH2 0x61F PUSH2 0x61A PUSH2 0x615 DUP5 PUSH2 0x20B JUMP JUMPDEST PUSH2 0x5FC JUMP JUMPDEST PUSH2 0x20B JUMP JUMPDEST SWAP1 POP SWAP2 SWAP1 POP JUMP JUMPDEST PUSH0 DUP2 SWAP1 POP SWAP2 SWAP1 POP JUMP JUMPDEST PUSH2 0x638 DUP4 PUSH2 0x605 JUMP JUMPDEST PUSH2 0x64C PUSH2 0x644 DUP3 PUSH2 0x626 JUMP JUMPDEST DUP5 DUP5 SLOAD PUSH2 0x5AB JUMP JUMPDEST DUP3 SSTORE POP POP POP POP JUMP JUMPDEST PUSH0 SWAP1 JUMP JUMPDEST PUSH2 0x660 PUSH2 0x654 JUMP JUMPDEST PUSH2 0x66B DUP2 DUP5 DUP5 PUSH2 0x62F JUMP JUMPDEST POP POP POP JUMP JUMPDEST JUMPDEST DUP2 DUP2 LT ISZERO PUSH2 0x68E JUMPI PUSH2 0x683 PUSH0 DUP3 PUSH2 0x658 JUMP JUMPDEST PUSH1 0x1 DUP2 ADD SWAP1 POP PUSH2 0x671 JUMP JUMPDEST POP POP JUMP JUMPDEST PUSH1 0x1F DUP3 GT ISZERO PUSH2 0x6D3 JUMPI PUSH2 0x6A4 DUP2 PUSH2 0x57E JUMP JUMPDEST PUSH2 0x6AD DUP5 PUSH2 0x590 JUMP JUMPDEST DUP2 ADD PUSH1 0x20 DUP6 LT ISZERO PUSH2 0x6BC JUMPI DUP2 SWAP1 POP JUMPDEST PUSH2 0x6D0 PUSH2 0x6C8 DUP6 PUSH2 0x590 JUMP JUMPDEST DUP4 ADD DUP3 PUSH2 0x670 JUMP JUMPDEST POP POP JUMPDEST POP POP POP JUMP JUMPDEST PUSH0 DUP3 DUP3 SHR SWAP1 POP SWAP3 SWAP2 POP POP JUMP JUMPDEST PUSH0 PUSH2 0x6F3 PUSH0 NOT DUP5 PUSH1 0x8 MUL PUSH2 0x6D8 JUMP JUMPDEST NOT DUP1 DUP4 AND SWAP2 POP POP SWAP3 SWAP2 POP POP JUMP JUMPDEST PUSH0 PUSH2 0x70B DUP4 DUP4 PUSH2 0x6E4 JUMP JUMPDEST SWAP2 POP DUP3 PUSH1 0x2 MUL DUP3 OR SWAP1 POP SWAP3 SWAP2 POP POP JUMP JUMPDEST PUSH2 0x724 DUP3 PUSH2 0x25B JUMP JUMPDEST PUSH8 0xFFFFFFFFFFFFFFFF DUP2 GT ISZERO PUSH2 0x73D JUMPI PUSH2 0x73C PUSH2 0x370 JUMP JUMPDEST JUMPDEST PUSH2 0x747 DUP3 SLOAD PUSH2 0x51B JUMP JUMPDEST PUSH2 0x752 DUP3 DUP3 DUP6 PUSH2 0x692 JUMP JUMPDEST PUSH0 PUSH1 0x20 SWAP1 POP PUSH1 0x1F DUP4 GT PUSH1 0x1 DUP2 EQ PUSH2 0x783 JUMPI PUSH0 DUP5 ISZERO PUSH2 0x771 JUMPI DUP3 DUP8 ADD MLOAD SWAP1 POP JUMPDEST PUSH2 0x77B DUP6 DUP3 PUSH2 0x700 JUMP JUMPDEST DUP7 SSTORE POP PUSH2 0x7E2 JUMP JUMPDEST PUSH1 0x1F NOT DUP5 AND PUSH2 0x791 DUP7 PUSH2 0x57E JUMP JUMPDEST PUSH0 JUMPDEST DUP3 DUP2 LT ISZERO PUSH2 0x7B8 JUMPI DUP5 DUP10 ADD MLOAD DUP3 SSTORE PUSH1 0x1 DUP3 ADD SWAP2 POP PUSH1 0x20 DUP6 ADD SWAP5 POP PUSH1 0x20 DUP2 ADD SWAP1 POP PUSH2 0x793 JUMP JUMPDEST DUP7 DUP4 LT ISZERO PUSH2 0x7D5 JUMPI DUP5 DUP10 ADD MLOAD PUSH2 0x7D1 PUSH1 0x1F DUP10 AND DUP3 PUSH2 0x6E4 JUMP JUMPDEST DUP4 SSTORE POP JUMPDEST PUSH1 0x1 PUSH1 0x2 DUP9 MUL ADD DUP9 SSTORE POP POP POP JUMPDEST POP POP POP POP POP POP JUMP INVALID LOG2 PUSH5 0x6970667358 0x22 SLT KECCAK256 SWAP11 SELFDESTRUCT SWAP7 PUSH28 0x81631AF7D95159536C541FC1931E6342A770F3184E38B6A1ED574462 PUSH5 0x736F6C6343 STOP ADDMOD XOR STOP CALLER "
		},
		"gasEstimates": {
			"creation": {
				"codeDepositCost": "416000",
				"executionCost": "10457",
				"totalCost": "426457"
			},
			"external": {
				"": "24502",
				"fallbackCalled()": "2447",
				"increment(uint256,string)": "infinite",
				"incrementer()": "infinite",
				"total()": "2424"
			}
		},
		"methodIdentifiers": {
			"fallbackCalled()": "aa2c4b02",
			"increment(uint256,string)": "c87b285a",
			"incrementer()": "1da5772d",
			"total()": "2ddbd13a"
		}
	},
	"abi": [
		{
			"stateMutability": "payable",
			"type": "fallback"
		},
		{
			"inputs": [],
			"name": "fallbackCalled",
			"outputs": [
				{
					"internalType": "uint256",
					"name": "",
					"type": "uint256"
				}
			],
			"stateMutability": "view",
			"type": "function"
		},
		{
			"inputs": [
				{
					"internalType": "uint256",
					"name": "_amount",
					"type": "uint256"
				},
				{
					"internalType": "string",
					"name": "_incrementer",
					"type": "string"
				}
			],
			"name": "increment",
			"outputs": [
				{
					"internalType": "uint256",
					"name": "",
					"type": "uint256"
				}
			],
			"stateMutability": "nonpayable",
			"type": "function"
		},
		{
			"inputs": [],
			"name": "incrementer",
			"outputs": [
				{
					"internalType": "string",
					"name": "",
					"type": "string"
				}
			],
			"stateMutability": "view",
			"type": "function"
		},
		{
			"inputs": [],
			"name": "total",
			"outputs": [
				{
					"internalType": "uint256",
					"name": "",
					"type": "uint256"
				}
			],
			"stateMutability": "view",
			"type": "function"
		}
	]
}