{
	"contracts/Interface/interface.sol": {
		"EthSender": {
			"abi": [
				{
					"inputs": [
						{
							"internalType": "address",
							"name": "strategyAddress",
							"type": "address"
						}
					],
					"name": "sendWithStrategy",
					"outputs": [],
					"stateMutability": "nonpayable",
					"type": "function"
				},
				{
					"stateMutability": "payable",
					"type": "receive"
				}
			],
			"devdoc": {
				"kind": "dev",
				"methods": {},
				"version": 1
			},
			"evm": {
				"assembly": "    /* \"contracts/Interface/interface.sol\":459:814  contract EthSender {... */\n  mstore(0x40, 0x80)\n  callvalue\n  dup1\n  iszero\n  tag_1\n  jumpi\n  0x00\n  dup1\n  revert\ntag_1:\n  pop\n  dataSize(sub_0)\n  dup1\n  dataOffset(sub_0)\n  0x00\n  codecopy\n  0x00\n  return\nstop\n\nsub_0: assembly {\n        /* \"contracts/Interface/interface.sol\":459:814  contract EthSender {... */\n      mstore(0x40, 0x80)\n      jumpi(tag_1, lt(calldatasize, 0x04))\n      shr(0xe0, calldataload(0x00))\n      dup1\n      0x5722bc14\n      eq\n      tag_3\n      jumpi\n      jump(tag_2)\n    tag_1:\n      jumpi(tag_2, calldatasize)\n      stop\n    tag_2:\n      0x00\n      dup1\n      revert\n        /* \"contracts/Interface/interface.sol\":585:776  function sendWithStrategy(address strategyAddress) external {... */\n    tag_3:\n      callvalue\n      dup1\n      iszero\n      tag_6\n      jumpi\n      0x00\n      dup1\n      revert\n    tag_6:\n      pop\n      tag_7\n      0x04\n      dup1\n      calldatasize\n      sub\n      dup2\n      add\n      swap1\n      tag_8\n      swap2\n      swap1\n      tag_9\n      jump\t// in\n    tag_8:\n      tag_10\n      jump\t// in\n    tag_7:\n      stop\n    tag_10:\n        /* \"contracts/Interface/interface.sol\":656:674  address payable to */\n      0x00\n        /* \"contracts/Interface/interface.sol\":676:690  uint256 amount */\n      dup1\n        /* \"contracts/Interface/interface.sol\":704:719  strategyAddress */\n      dup3\n        /* \"contracts/Interface/interface.sol\":694:740  IStrategy(strategyAddress).getAddressAndAmount */\n      0xffffffffffffffffffffffffffffffffffffffff\n      and\n      0xd24903d9\n        /* \"contracts/Interface/interface.sol\":694:742  IStrategy(strategyAddress).getAddressAndAmount() */\n      mload(0x40)\n      dup2\n      0xffffffff\n      and\n      0xe0\n      shl\n      dup2\n      mstore\n      0x04\n      add\n      0x40\n      dup1\n      mload\n      dup1\n      dup4\n      sub\n      dup2\n      dup7\n      gas\n      staticcall\n      iszero\n      dup1\n      iszero\n      tag_13\n      jumpi\n      returndatasize\n      0x00\n      dup1\n      returndatacopy\n      revert(0x00, returndatasize)\n    tag_13:\n      pop\n      pop\n      pop\n      pop\n      mload(0x40)\n      returndatasize\n      not(0x1f)\n      0x1f\n      dup3\n      add\n      and\n      dup3\n      add\n      dup1\n      0x40\n      mstore\n      pop\n      dup2\n      add\n      swap1\n      tag_14\n      swap2\n      swap1\n      tag_15\n      jump\t// in\n    tag_14:\n        /* \"contracts/Interface/interface.sol\":655:742  (address payable to, uint256 amount) = IStrategy(strategyAddress).getAddressAndAmount() */\n      swap2\n      pop\n      swap2\n      pop\n        /* \"contracts/Interface/interface.sol\":752:769  _send(to, amount) */\n      tag_16\n        /* \"contracts/Interface/interface.sol\":758:760  to */\n      dup3\n        /* \"contracts/Interface/interface.sol\":762:768  amount */\n      dup3\n        /* \"contracts/Interface/interface.sol\":752:757  _send */\n      tag_17\n        /* \"contracts/Interface/interface.sol\":752:769  _send(to, amount) */\n      jump\t// in\n    tag_16:\n        /* \"contracts/Interface/interface.sol\":645:776  {... */\n      pop\n      pop\n        /* \"contracts/Interface/interface.sol\":585:776  function sendWithStrategy(address strategyAddress) external {... */\n      pop\n      jump\t// out\n        /* \"contracts/Interface/interface.sol\":484:579  function _send(address payable to, uint256 amount) private {... */\n    tag_17:\n        /* \"contracts/Interface/interface.sol\":553:555  to */\n      dup2\n        /* \"contracts/Interface/interface.sol\":553:564  to.transfer */\n      0xffffffffffffffffffffffffffffffffffffffff\n      and\n        /* \"contracts/Interface/interface.sol\":553:572  to.transfer(amount) */\n      0x08fc\n        /* \"contracts/Interface/interface.sol\":565:571  amount */\n      dup3\n        /* \"contracts/Interface/interface.sol\":553:572  to.transfer(amount) */\n      swap1\n      dup2\n      iszero\n      mul\n      swap1\n      mload(0x40)\n      0x00\n      mload(0x40)\n      dup1\n      dup4\n      sub\n      dup2\n      dup6\n      dup9\n      dup9\n      call\n      swap4\n      pop\n      pop\n      pop\n      pop\n      iszero\n      dup1\n      iszero\n      tag_20\n      jumpi\n      returndatasize\n      0x00\n      dup1\n      returndatacopy\n      revert(0x00, returndatasize)\n    tag_20:\n      pop\n        /* \"contracts/Interface/interface.sol\":484:579  function _send(address payable to, uint256 amount) private {... */\n      pop\n      pop\n      jump\t// out\n        /* \"#utility.yul\":88:205   */\n    tag_22:\n        /* \"#utility.yul\":197:198   */\n      0x00\n        /* \"#utility.yul\":194:195   */\n      dup1\n        /* \"#utility.yul\":187:199   */\n      revert\n        /* \"#utility.yul\":334:460   */\n    tag_24:\n        /* \"#utility.yul\":371:378   */\n      0x00\n        /* \"#utility.yul\":411:453   */\n      0xffffffffffffffffffffffffffffffffffffffff\n        /* \"#utility.yul\":404:409   */\n      dup3\n        /* \"#utility.yul\":400:454   */\n      and\n        /* \"#utility.yul\":389:454   */\n      swap1\n      pop\n        /* \"#utility.yul\":334:460   */\n      swap2\n      swap1\n      pop\n      jump\t// out\n        /* \"#utility.yul\":466:562   */\n    tag_25:\n        /* \"#utility.yul\":503:510   */\n      0x00\n        /* \"#utility.yul\":532:556   */\n      tag_40\n        /* \"#utility.yul\":550:555   */\n      dup3\n        /* \"#utility.yul\":532:556   */\n      tag_24\n      jump\t// in\n    tag_40:\n        /* \"#utility.yul\":521:556   */\n      swap1\n      pop\n        /* \"#utility.yul\":466:562   */\n      swap2\n      swap1\n      pop\n      jump\t// out\n        /* \"#utility.yul\":568:690   */\n    tag_26:\n        /* \"#utility.yul\":641:665   */\n      tag_42\n        /* \"#utility.yul\":659:664   */\n      dup2\n        /* \"#utility.yul\":641:665   */\n      tag_25\n      jump\t// in\n    tag_42:\n        /* \"#utility.yul\":634:639   */\n      dup2\n        /* \"#utility.yul\":631:666   */\n      eq\n        /* \"#utility.yul\":621:684   */\n      tag_43\n      jumpi\n        /* \"#utility.yul\":680:681   */\n      0x00\n        /* \"#utility.yul\":677:678   */\n      dup1\n        /* \"#utility.yul\":670:682   */\n      revert\n        /* \"#utility.yul\":621:684   */\n    tag_43:\n        /* \"#utility.yul\":568:690   */\n      pop\n      jump\t// out\n        /* \"#utility.yul\":696:835   */\n    tag_27:\n        /* \"#utility.yul\":742:747   */\n      0x00\n        /* \"#utility.yul\":780:786   */\n      dup2\n        /* \"#utility.yul\":767:787   */\n      calldataload\n        /* \"#utility.yul\":758:787   */\n      swap1\n      pop\n        /* \"#utility.yul\":796:829   */\n      tag_45\n        /* \"#utility.yul\":823:828   */\n      dup2\n        /* \"#utility.yul\":796:829   */\n      tag_26\n      jump\t// in\n    tag_45:\n        /* \"#utility.yul\":696:835   */\n      swap3\n      swap2\n      pop\n      pop\n      jump\t// out\n        /* \"#utility.yul\":841:1170   */\n    tag_9:\n        /* \"#utility.yul\":900:906   */\n      0x00\n        /* \"#utility.yul\":949:951   */\n      0x20\n        /* \"#utility.yul\":937:946   */\n      dup3\n        /* \"#utility.yul\":928:935   */\n      dup5\n        /* \"#utility.yul\":924:947   */\n      sub\n        /* \"#utility.yul\":920:952   */\n      slt\n        /* \"#utility.yul\":917:1036   */\n      iszero\n      tag_47\n      jumpi\n        /* \"#utility.yul\":955:1034   */\n      tag_48\n      tag_22\n      jump\t// in\n    tag_48:\n        /* \"#utility.yul\":917:1036   */\n    tag_47:\n        /* \"#utility.yul\":1075:1076   */\n      0x00\n        /* \"#utility.yul\":1100:1153   */\n      tag_49\n        /* \"#utility.yul\":1145:1152   */\n      dup5\n        /* \"#utility.yul\":1136:1142   */\n      dup3\n        /* \"#utility.yul\":1125:1134   */\n      dup6\n        /* \"#utility.yul\":1121:1143   */\n      add\n        /* \"#utility.yul\":1100:1153   */\n      tag_27\n      jump\t// in\n    tag_49:\n        /* \"#utility.yul\":1090:1153   */\n      swap2\n      pop\n        /* \"#utility.yul\":1046:1163   */\n      pop\n        /* \"#utility.yul\":841:1170   */\n      swap3\n      swap2\n      pop\n      pop\n      jump\t// out\n        /* \"#utility.yul\":1176:1280   */\n    tag_28:\n        /* \"#utility.yul\":1221:1228   */\n      0x00\n        /* \"#utility.yul\":1250:1274   */\n      tag_51\n        /* \"#utility.yul\":1268:1273   */\n      dup3\n        /* \"#utility.yul\":1250:1274   */\n      tag_24\n      jump\t// in\n    tag_51:\n        /* \"#utility.yul\":1239:1274   */\n      swap1\n      pop\n        /* \"#utility.yul\":1176:1280   */\n      swap2\n      swap1\n      pop\n      jump\t// out\n        /* \"#utility.yul\":1286:1424   */\n    tag_29:\n        /* \"#utility.yul\":1367:1399   */\n      tag_53\n        /* \"#utility.yul\":1393:1398   */\n      dup2\n        /* \"#utility.yul\":1367:1399   */\n      tag_28\n      jump\t// in\n    tag_53:\n        /* \"#utility.yul\":1360:1365   */\n      dup2\n        /* \"#utility.yul\":1357:1400   */\n      eq\n        /* \"#utility.yul\":1347:1418   */\n      tag_54\n      jumpi\n        /* \"#utility.yul\":1414:1415   */\n      0x00\n        /* \"#utility.yul\":1411:1412   */\n      dup1\n        /* \"#utility.yul\":1404:1416   */\n      revert\n        /* \"#utility.yul\":1347:1418   */\n    tag_54:\n        /* \"#utility.yul\":1286:1424   */\n      pop\n      jump\t// out\n        /* \"#utility.yul\":1430:1589   */\n    tag_30:\n        /* \"#utility.yul\":1495:1500   */\n      0x00\n        /* \"#utility.yul\":1526:1532   */\n      dup2\n        /* \"#utility.yul\":1520:1533   */\n      mload\n        /* \"#utility.yul\":1511:1533   */\n      swap1\n      pop\n        /* \"#utility.yul\":1542:1583   */\n      tag_56\n        /* \"#utility.yul\":1577:1582   */\n      dup2\n        /* \"#utility.yul\":1542:1583   */\n      tag_29\n      jump\t// in\n    tag_56:\n        /* \"#utility.yul\":1430:1589   */\n      swap3\n      swap2\n      pop\n      pop\n      jump\t// out\n        /* \"#utility.yul\":1595:1672   */\n    tag_31:\n        /* \"#utility.yul\":1632:1639   */\n      0x00\n        /* \"#utility.yul\":1661:1666   */\n      dup2\n        /* \"#utility.yul\":1650:1666   */\n      swap1\n      pop\n        /* \"#utility.yul\":1595:1672   */\n      swap2\n      swap1\n      pop\n      jump\t// out\n        /* \"#utility.yul\":1678:1800   */\n    tag_32:\n        /* \"#utility.yul\":1751:1775   */\n      tag_59\n        /* \"#utility.yul\":1769:1774   */\n      dup2\n        /* \"#utility.yul\":1751:1775   */\n      tag_31\n      jump\t// in\n    tag_59:\n        /* \"#utility.yul\":1744:1749   */\n      dup2\n        /* \"#utility.yul\":1741:1776   */\n      eq\n        /* \"#utility.yul\":1731:1794   */\n      tag_60\n      jumpi\n        /* \"#utility.yul\":1790:1791   */\n      0x00\n        /* \"#utility.yul\":1787:1788   */\n      dup1\n        /* \"#utility.yul\":1780:1792   */\n      revert\n        /* \"#utility.yul\":1731:1794   */\n    tag_60:\n        /* \"#utility.yul\":1678:1800   */\n      pop\n      jump\t// out\n        /* \"#utility.yul\":1806:1949   */\n    tag_33:\n        /* \"#utility.yul\":1863:1868   */\n      0x00\n        /* \"#utility.yul\":1894:1900   */\n      dup2\n        /* \"#utility.yul\":1888:1901   */\n      mload\n        /* \"#utility.yul\":1879:1901   */\n      swap1\n      pop\n        /* \"#utility.yul\":1910:1943   */\n      tag_62\n        /* \"#utility.yul\":1937:1942   */\n      dup2\n        /* \"#utility.yul\":1910:1943   */\n      tag_32\n      jump\t// in\n    tag_62:\n        /* \"#utility.yul\":1806:1949   */\n      swap3\n      swap2\n      pop\n      pop\n      jump\t// out\n        /* \"#utility.yul\":1955:2478   */\n    tag_15:\n        /* \"#utility.yul\":2042:2048   */\n      0x00\n        /* \"#utility.yul\":2050:2056   */\n      dup1\n        /* \"#utility.yul\":2099:2101   */\n      0x40\n        /* \"#utility.yul\":2087:2096   */\n      dup4\n        /* \"#utility.yul\":2078:2085   */\n      dup6\n        /* \"#utility.yul\":2074:2097   */\n      sub\n        /* \"#utility.yul\":2070:2102   */\n      slt\n        /* \"#utility.yul\":2067:2186   */\n      iszero\n      tag_64\n      jumpi\n        /* \"#utility.yul\":2105:2184   */\n      tag_65\n      tag_22\n      jump\t// in\n    tag_65:\n        /* \"#utility.yul\":2067:2186   */\n    tag_64:\n        /* \"#utility.yul\":2225:2226   */\n      0x00\n        /* \"#utility.yul\":2250:2322   */\n      tag_66\n        /* \"#utility.yul\":2314:2321   */\n      dup6\n        /* \"#utility.yul\":2305:2311   */\n      dup3\n        /* \"#utility.yul\":2294:2303   */\n      dup7\n        /* \"#utility.yul\":2290:2312   */\n      add\n        /* \"#utility.yul\":2250:2322   */\n      tag_30\n      jump\t// in\n    tag_66:\n        /* \"#utility.yul\":2240:2322   */\n      swap3\n      pop\n        /* \"#utility.yul\":2196:2332   */\n      pop\n        /* \"#utility.yul\":2371:2373   */\n      0x20\n        /* \"#utility.yul\":2397:2461   */\n      tag_67\n        /* \"#utility.yul\":2453:2460   */\n      dup6\n        /* \"#utility.yul\":2444:2450   */\n      dup3\n        /* \"#utility.yul\":2433:2442   */\n      dup7\n        /* \"#utility.yul\":2429:2451   */\n      add\n        /* \"#utility.yul\":2397:2461   */\n      tag_33\n      jump\t// in\n    tag_67:\n        /* \"#utility.yul\":2387:2461   */\n      swap2\n      pop\n        /* \"#utility.yul\":2342:2471   */\n      pop\n        /* \"#utility.yul\":1955:2478   */\n      swap3\n      pop\n      swap3\n      swap1\n      pop\n      jump\t// out\n\n    auxdata: 0xa26469706673582212208914d3cefffaf4eb42069af75dfaec4ded724fe8cc4c341b714f76d4aedc793b64736f6c63430008180033\n}\n",
				"bytecode": {
					"linkReferences": {},
					"object": "608060405234801561000f575f80fd5b506102888061001d5f395ff3fe608060405260043610610021575f3560e01c80635722bc141461002c57610028565b3661002857005b5f80fd5b348015610037575f80fd5b50610052600480360381019061004d919061017b565b610054565b005b5f808273ffffffffffffffffffffffffffffffffffffffff1663d24903d96040518163ffffffff1660e01b81526004016040805180830381865afa15801561009e573d5f803e3d5ffd5b505050506040513d601f19601f820116820180604052508101906100c29190610214565b915091506100d082826100d5565b505050565b8173ffffffffffffffffffffffffffffffffffffffff166108fc8290811502906040515f60405180830381858888f19350505050158015610118573d5f803e3d5ffd5b505050565b5f80fd5b5f73ffffffffffffffffffffffffffffffffffffffff82169050919050565b5f61014a82610121565b9050919050565b61015a81610140565b8114610164575f80fd5b50565b5f8135905061017581610151565b92915050565b5f602082840312156101905761018f61011d565b5b5f61019d84828501610167565b91505092915050565b5f6101b082610121565b9050919050565b6101c0816101a6565b81146101ca575f80fd5b50565b5f815190506101db816101b7565b92915050565b5f819050919050565b6101f3816101e1565b81146101fd575f80fd5b50565b5f8151905061020e816101ea565b92915050565b5f806040838503121561022a5761022961011d565b5b5f610237858286016101cd565b925050602061024885828601610200565b915050925092905056fea26469706673582212208914d3cefffaf4eb42069af75dfaec4ded724fe8cc4c341b714f76d4aedc793b64736f6c63430008180033",
					"opcodes": "PUSH1 0x80 PUSH1 0x40 MSTORE CALLVALUE DUP1 ISZERO PUSH2 0xF JUMPI PUSH0 DUP1 REVERT JUMPDEST POP PUSH2 0x288 DUP1 PUSH2 0x1D PUSH0 CODECOPY PUSH0 RETURN INVALID PUSH1 0x80 PUSH1 0x40 MSTORE PUSH1 0x4 CALLDATASIZE LT PUSH2 0x21 JUMPI PUSH0 CALLDATALOAD PUSH1 0xE0 SHR DUP1 PUSH4 0x5722BC14 EQ PUSH2 0x2C JUMPI PUSH2 0x28 JUMP JUMPDEST CALLDATASIZE PUSH2 0x28 JUMPI STOP JUMPDEST PUSH0 DUP1 REVERT JUMPDEST CALLVALUE DUP1 ISZERO PUSH2 0x37 JUMPI PUSH0 DUP1 REVERT JUMPDEST POP PUSH2 0x52 PUSH1 0x4 DUP1 CALLDATASIZE SUB DUP2 ADD SWAP1 PUSH2 0x4D SWAP2 SWAP1 PUSH2 0x17B JUMP JUMPDEST PUSH2 0x54 JUMP JUMPDEST STOP JUMPDEST PUSH0 DUP1 DUP3 PUSH20 0xFFFFFFFFFFFFFFFFFFFFFFFFFFFFFFFFFFFFFFFF AND PUSH4 0xD24903D9 PUSH1 0x40 MLOAD DUP2 PUSH4 0xFFFFFFFF AND PUSH1 0xE0 SHL DUP2 MSTORE PUSH1 0x4 ADD PUSH1 0x40 DUP1 MLOAD DUP1 DUP4 SUB DUP2 DUP7 GAS STATICCALL ISZERO DUP1 ISZERO PUSH2 0x9E JUMPI RETURNDATASIZE PUSH0 DUP1 RETURNDATACOPY RETURNDATASIZE PUSH0 REVERT JUMPDEST POP POP POP POP PUSH1 0x40 MLOAD RETURNDATASIZE PUSH1 0x1F NOT PUSH1 0x1F DUP3 ADD AND DUP3 ADD DUP1 PUSH1 0x40 MSTORE POP DUP2 ADD SWAP1 PUSH2 0xC2 SWAP2 SWAP1 PUSH2 0x214 JUMP JUMPDEST SWAP2 POP SWAP2 POP PUSH2 0xD0 DUP3 DUP3 PUSH2 0xD5 JUMP JUMPDEST POP POP POP JUMP JUMPDEST DUP2 PUSH20 0xFFFFFFFFFFFFFFFFFFFFFFFFFFFFFFFFFFFFFFFF AND PUSH2 0x8FC DUP3 SWAP1 DUP2 ISZERO MUL SWAP1 PUSH1 0x40 MLOAD PUSH0 PUSH1 0x40 MLOAD DUP1 DUP4 SUB DUP2 DUP6 DUP9 DUP9 CALL SWAP4 POP POP POP POP ISZERO DUP1 ISZERO PUSH2 0x118 JUMPI RETURNDATASIZE PUSH0 DUP1 RETURNDATACOPY RETURNDATASIZE PUSH0 REVERT JUMPDEST POP POP POP JUMP JUMPDEST PUSH0 DUP1 REVERT JUMPDEST PUSH0 PUSH20 0xFFFFFFFFFFFFFFFFFFFFFFFFFFFFFFFFFFFFFFFF DUP3 AND SWAP1 POP SWAP2 SWAP1 POP JUMP JUMPDEST PUSH0 PUSH2 0x14A DUP3 PUSH2 0x121 JUMP JUMPDEST SWAP1 POP SWAP2 SWAP1 POP JUMP JUMPDEST PUSH2 0x15A DUP2 PUSH2 0x140 JUMP JUMPDEST DUP2 EQ PUSH2 0x164 JUMPI PUSH0 DUP1 REVERT JUMPDEST POP JUMP JUMPDEST PUSH0 DUP2 CALLDATALOAD SWAP1 POP PUSH2 0x175 DUP2 PUSH2 0x151 JUMP JUMPDEST SWAP3 SWAP2 POP POP JUMP JUMPDEST PUSH0 PUSH1 0x20 DUP3 DUP5 SUB SLT ISZERO PUSH2 0x190 JUMPI PUSH2 0x18F PUSH2 0x11D JUMP JUMPDEST JUMPDEST PUSH0 PUSH2 0x19D DUP5 DUP3 DUP6 ADD PUSH2 0x167 JUMP JUMPDEST SWAP2 POP POP SWAP3 SWAP2 POP POP JUMP JUMPDEST PUSH0 PUSH2 0x1B0 DUP3 PUSH2 0x121 JUMP JUMPDEST SWAP1 POP SWAP2 SWAP1 POP JUMP JUMPDEST PUSH2 0x1C0 DUP2 PUSH2 0x1A6 JUMP JUMPDEST DUP2 EQ PUSH2 0x1CA JUMPI PUSH0 DUP1 REVERT JUMPDEST POP JUMP JUMPDEST PUSH0 DUP2 MLOAD SWAP1 POP PUSH2 0x1DB DUP2 PUSH2 0x1B7 JUMP JUMPDEST SWAP3 SWAP2 POP POP JUMP JUMPDEST PUSH0 DUP2 SWAP1 POP SWAP2 SWAP1 POP JUMP JUMPDEST PUSH2 0x1F3 DUP2 PUSH2 0x1E1 JUMP JUMPDEST DUP2 EQ PUSH2 0x1FD JUMPI PUSH0 DUP1 REVERT JUMPDEST POP JUMP JUMPDEST PUSH0 DUP2 MLOAD SWAP1 POP PUSH2 0x20E DUP2 PUSH2 0x1EA JUMP JUMPDEST SWAP3 SWAP2 POP POP JUMP JUMPDEST PUSH0 DUP1 PUSH1 0x40 DUP4 DUP6 SUB SLT ISZERO PUSH2 0x22A JUMPI PUSH2 0x229 PUSH2 0x11D JUMP JUMPDEST JUMPDEST PUSH0 PUSH2 0x237 DUP6 DUP3 DUP7 ADD PUSH2 0x1CD JUMP JUMPDEST SWAP3 POP POP PUSH1 0x20 PUSH2 0x248 DUP6 DUP3 DUP7 ADD PUSH2 0x200 JUMP JUMPDEST SWAP2 POP POP SWAP3 POP SWAP3 SWAP1 POP JUMP INVALID LOG2 PUSH5 0x6970667358 0x22 SLT KECCAK256 DUP10 EQ 0xD3 0xCE SELFDESTRUCT STATICCALL DELEGATECALL 0xEB TIMESTAMP MOD SWAP11 0xF7 TSTORE STATICCALL 0xEC 0x4D 0xED PUSH19 0x4FE8CC4C341B714F76D4AEDC793B64736F6C63 NUMBER STOP ADDMOD XOR STOP CALLER "
				},
				"gasEstimates": {
					"creation": {
						"codeDepositCost": "129600",
						"executionCost": "175",
						"totalCost": "129775"
					},
					"external": {
						"sendWithStrategy(address)": "infinite"
					},
					"internal": {
						"_send(address payable,uint256)": "infinite"
					}
				},
				"methodIdentifiers": {
					"sendWithStrategy(address)": "5722bc14"
				}
			},
			"storageLayout": {
				"storage": [],
				"types": null
			},
			"userdoc": {
				"kind": "user",
				"methods": {},
				"version": 1
			}
		}
	}
}